:100000000C94390A0C94800A0C94800A0C94582E93
:100010000C94800A0C94800A0C94800A0C94800A38
:100020000C94800A0C94800A0C94681D0C94241D76
:100030000C94FA290C94800A0C94800A0C94800A7F
:100040000C94800A0C94800A0C94800A0C94800A08
:100050000C94800A0C94411E0C94800A0C94800A23
:100060000C94800A0C94800A0C94800A0C94800AE8
:100070000C94800A0C94800A0C94800A0C94800AD8
:100080000C94800A0C94800A0C94800A0C94800AC8
:100090000C94800A0C94800A0C94800A0C94800AB8
:1000A0000C94800A0C94800A0C94800A0501098043
:1000B000A101850319012AB700150126B700950192
:1000C00075108100C0050C0901A101850419012AE0
:1000D000A002150126A002950175108100C005013E
:1000E0000902A1010901A10005091901290815004A
:1000F0002501950875018102050109300931158135
:10010000257F95027508810609381581257F95019F
:1001100075088106050C0A38021581257F95017541
:10012000088106C0C005010906A101050719E029DB
:10013000E715002501950875018102950175088173
:10014000010507190029FF150026FF00950675080F
:100150008100050819012905950575019102950190
:1001600075039101C029001E001F002000210022FC
:10017000002B0014001A00080015001700E100040D
:10018000001600070009000A00E0001D001B000621
:100190000019000500000001512A00E3002C00E2D4
:1001A000002D002700260025002400230031001325
:1001B0000012000C0018001C00340033000F000E69
:1001C000000D000B00E2003800370036001000116F
:1001D00000000002510000280000004C0035021E03
:1001E000021F02200221022202C45C000000000063
:1001F0000000000000C35CE300E200E000E100005A
:1002000000C55C000000000000DF5C005C00000135
:100210000000000000000000002D02270226022539
:10022000022402230200003000610060005F002F02
:1002300000670056005E005D005C005700630054DC
:10024000005B005A0059005500000000000000014A
:10025000000000620045003A003B003C003D003ECB
:1002600000AB0000000000000000000000AE0050E5
:1002700000520051004F000000AC004A004B004EFD
:10028000004D00000000000000010001000100011D
:1002900000440043004200410040003F00A900002C
:1002A000000000000000000000A800E700E600E4F5
:1002B00000E5000000AA00000000000000DF5C0074
:1002C0005C00000100000000000000000001048E3E
:1002D000966E773EFE7E5F1DB8F2664EFF5D19B0EA
:1002E000C20469542AD62EBFDD19B0C3E529B1E096
:1002F00023A5A9B1C10082674C1A978D795120C7F7
:10030000068E7C7C7A764FFD5930E2460E9EBEDF2B
:100310001D9991A0A5A1A9D022C6EF5C1B9589903B
:10032000A2A7CCFB5528B3E44AF76C3BF46A562EDF
:10033000DE1F9DB8D3058892A6CE1EBEDF1D99B0E4
:10034000E246EF5C07115D980B9D9497EE4E4533A6
:100350006B44C729562730C6A7D5F256DFB438629A
:10036000CBA0B6E30F84062405656F7689B5774187
:100370002782666582CCD5E620D52717C5F80323EA
:100380007C5F64A51DC1D636CB4CD4DB66D78BB160
:10039000997E6F4C364006D6EBD7A2E4F495515ABD
:1003A0005496D55344D78CE0B94068D218E9DD9A09
:1003B000239248EE7F43AFEA7738848C0A72AF69A4
:1003C000F8DDF12483A3F84ABFF59413DBBBD8B45E
:1003D000B3A0FB4550603059123171A2D313E7FA34
:1003E000E7CE0F63150B6B94BB378326059DFB4649
:1003F00092FC0A15D10D7392D68C1B8CB8558ACEFF
:10040000BDFE8EFCED0912839182513123FBB40CA9
:1004100076AD7CD9B44BB26714099C7F0C18BA3BFB
:10042000D68E142AE41B529F2B7DE1FB6A3302FA1D
:10043000AC5AF23E887EAED1F378E805D1E3DC21F8
:10044000F6E19ABD170ED9469B8803EAF666BE0E02
:100450001B5049964097F1F1E480A66EE87734BFCF
:10046000294044C2FF4E98D39CA3322B76510409F5
:10047000E7A9D1A632B12353E247ABD6F5695C3E7A
:100480005FFAAE4520E5D244FF39326DFD27575C57
:10049000FDF0DEC1B599E5F51C770175C56D589283
:1004A000F2B247000126967A30FFB7F0EF77C18AA3
:1004B0005DDCC0D129301E77387A94F1B87A7EEFAE
:1004C000A4D1AC314AF25D643DB2E2F00899FC700F
:1004D000EE24A77EEE1E20697D44BF8742DF883B65
:1004E0000CDA42C904F94550FC838F116A72BC9939
:1004F00095F0AC3DA73BCD1CE2887937115F398977
:10050000950A16847AF68AA428E4ED83803BB12309
:10051000A50310F466EABB0C0FC5EC6C69C5D324C7
:10052000ABD42AB799887608A0A8957CD8386DCD29
:100530005902514BF1B52B50E3B6BDD072CF9EFDA1
:100540006EBB44C8248A77188A1306EF977DFA8118
:10055000F031E6FA77ED3106315B548A9F3068DB83
:10056000E240F84E73FAAB748B105813DCD2E67885
:10057000D1322E8A9F2C58064827C5A95E8147890B
:100580004621910370A43E889CDA330ACEBC8B8E40
:10059000CF9FD3718043CF6BA95183763082C56AD8
:1005A000853911501A82DC1E1CD57DA971993347FB
:1005B0001997B35AB1DFEDA4F2E62684A2289A9ED9
:1005C000DFA66AF4D6FC2E5B9D1A2A2768FBC1833E
:1005D000214B90E036DD5B314255A013F7D08953B3
:1005E0007199570929C5F321F8372F40F3D4AF1675
:1005F000083602FC77C58B049056B9C9679A99E80A
:1006000000D386FF972D08E9B7B391BCDF45C6ED4F
:100610000F8C4C1EE65B6E3830E4AAE395DEB9E43D
:100620009AF5B2559A879BF66AB2F2779A31F47AC4
:1006300031D11D04C07C32A29E9AF562F8278DBF8D
:1006400051FFD3DF64373F2A6F763A7D77069E7776
:100650007F5EEB3251F916669A09F3B008A47096E2
:100660004630FFDA4FE91BED8DF8741F3192B373FA
:100670001736DB9130D688556B3477877AE7EE06EC
:10068000C61C8C190C4846235E9C075CBFB47ED602
:100690004F749CE2C5508BC58B159060625729D072
:1006A0001343A18088910044C74D1986CC2F2A7529
:1006B0005AFCEB972A70E378D891B04F9907A3952D
:1006C000EA2421D5DE512093270A3073A8FF8A97A8
:1006D000E9A76A8E0DE8F0DFECEAB46C1D392A62F6
:1006E0002D3D5A8B65F890052E7E912C78EF8E7AF1
:1006F000C12FAC78EEAF2845064C26AF3BA2DBA35A
:100700009306B53CA5D8EE8FAF25CC3F856848A9A8
:1007100062CC978F7F2AEAE0150AAD6207BD45F8E3
:1007200041D836CB4CDB6EE63AE7DA15E9291E12E2
:1007300010A0142C0E3DF4BF394192750B257BA3FC
:10074000CE399C1564C8FA3DEF7327FE262ECEDA0B
:100750006EFD718EDDFE76EEDC125C02C53A4E4E09
:100760004FBFCA4015C76E8D41F110E04F7E977F95
:100770001CAE478E6BB12531B073C71B9779F980DA
:10078000D366223007741EE4D08021D6EE6B6C4F06
:10079000BFF5B7D909872FA914BE27D9725001D444
:1007A0001373A6A751027525E1B345347DA88EEBDE
:1007B000F31649CB4F8CA1B9368539755D0800AE6B
:1007C000EBF6EAD7133A215A5F3084522695C914C2
:1007D000F257556BB110C2E1BD3B51C0B7554C71DA
:1007E0001226C70DF951A43802057FB8F1724BBF2C
:1007F000718914F37738D97124F30011A1D8D46921
:1008000027083735C9119D901C0EE71CFF2D1EE8E7
:1008100092E11810957CE080F4964321F9752164EB
:1008200038DD9F1E9516DA561D4F9A53B2E2E41832
:10083000CB6B1A65EB56C63BE5FED8263F3A84598A
:100840007266A2F375FFFB60B322AD3F2D6BF9EB2F
:10085000EA057CD88F6D2C989E2B93F15E46F0872D
:1008600049297368D77FF9F0E57DDB1D7519F3C45D
:10087000589B1788A892E0BEBD8B1D8D9F5676AD04
:10088000AF29E2D9D552F6B55635573AC8E15643A5
:100890001994D3049B6D35D80B5F4D198EECFA6417
:1008A000910A72202BBC1A4AFE8BFDBBED1B23EA7A
:1008B000AD7282A1299971BDF095C103DD7BC2B2F1
:1008C0003C2854D368A472C86696E0D1D87FF8D18A
:1008D000262BF7ADBA55CA15B932C3E588978E5C99
:1008E000FB92258BBFA245557AA76F8B575BCF0E26
:1008F000CB1DFB208277A88CCC16CE1DFADECC0B4C
:1009000062FECCE1B7F0C381647340A0C24D89118F
:10091000753355338DE84AFDEA6E300BD7312CDE46
:1009200047E3BFF85542E27F59E517EF99346991E3
:10093000B1238E20872DA8FED58AF3843AF037E4C0
:10094000090054EE674993E48170E3904DEFFE4156
:10095000B7997BC183BA62126F7DDE6BAFDA16F98D
:100960005551EEA60C2B02A3FD8DFB3017E46FDF73
:100970003671C4CA872548B047ECEAB4BFA54D9B81
:100980009F0293C4E3E4E8422D6881150AEB845B7F
:10099000D6A874FB7D1DCB2CDA462A7662CEBC5CD1
:1009A0009E8BE7CFBE78F57CEBB33A9CAA6FCC72F6
:1009B000D159F21123D63F48D1B7CEB0BFCBEA8090
:1009C000DE57D45E972F75D1508E802C6679BF721A
:1009D0004BBD8A816CD3E101DCD21526C536DA2CF9
:1009E0001AC02794EDB79B850B5E8097C5EC4FEC42
:1009F000885D50073547DC0B3B3DDD60AFA85D816E
:100A00003824255D5C15D1DEB3ABEC0569EF83EDD1
:100A10005754B8646411163269DA9F2D7F36BB448F
:100A20005A34E87FBF03EB007F59682279CF736C9B
:100A30002C29A7A15F38A11DF02053E01A63145898
:100A40007110AA080C3E161A6022827FBAA443A035
:100A5000D0AC1BD56B64B51493319E5350D0576600
:100A6000EE5A4FFB032A695876F183F74EBA8C424F
:100A700006605D6DCE6088AEA4C3F103A54B98A15E
:100A8000FF67E1ACA2B862D76FA031B4D277AF21D3
:100A90001006C69AFF1D09170E5FF1AA54344B4584
:100AA0008A8763A6DCF9243067C6B2D6613369EE63
:100AB00050615728E77EEEEC3A5A734EA88DE41841
:100AC000EAEC4164C8E2E866B62DB6FB6A6C16B380
:100AD000DD4643B973006A71ED4E9D251AC33C4A49
:100AE00095159935811402D6989BECD8233B84291F
:100AF000AF0C9983A69A344FFAE8D03C4BD0FBB6A2
:100B000068B89E8FCDF7602D7A22E57DAB651B9589
:100B1000A7A87FB677477B5F8B1272D0D491EFDEA8
:100B200019503CA78BC4A9B323CB76E681F0C1044E
:100B30008FA3B8545B97AC19FF3F55272FE01D4298
:100B40009B57FC4B4E0FCE98A9435703BDE7C89463
:100B5000DF6E367332B4EF2E857A6EFC6C188275B8
:100B6000359007F3E49F3EDC68F3B5F319809206F5
:100B700099A2E86FFF2E7FAE42A45FFBD40E812BBB
:100B8000C304FF2BB3744E365B9C1500C6472BE89D
:100B90008B3DF19C039A587F9B9CBF854979352EEC
:100BA000567B411439478326AA078998111B86E78B
:100BB000737AD87D786153E979F5368D449284F95A
:100BC0001350583BA46A3665498E3C0EF16FD284AF
:100BD000C47E8E3F39AE7C84F163378E3CCC3E447C
:100BE0008145F14BB9ED6B365DBB20601A0FA3AAAE
:100BF00055773AA9AE374DBAB8866BBC0850F6CCDB
:100C0000A4BD1D4072A586FAE210AE3D584B97F385
:100C10004374A99EEB21B701A4869397EE2F4F3B17
:100C200086A1416F412690785C7F30384B3FAAEC1B
:100C3000ED5C6F0EAD4387FD9335E601EF412690E5
:100C4000999EFB195BADD2918AE046AF65FA4F845D
:100C5000C1A12DCF458BD38550557CF96788D44EE3
:100C6000E9D76B6154A1A4A6A2C2BF309C409F5F8C
:100C7000D7692B24825ED9D6A712541AF7559F76CE
:100C800050A99584E66B6DB59654D6CDB3A19B461D
:100C9000A7944DC494B498E3E1E234D533160754D5
:100CA000CDB77753DB4F4D469DE9D49C8A36B6B815
:100CB00038266C0EFF9C1B438B80CCB93DDAC7F104
:100CC0008AF26DB8D7742F7E1EB7D34AB4ACFC79C4
:100CD000486CBC96B69446572DB0A3FC1EB9526022
:100CE000852D41D043011E1CD57DFCF3960DC7CB4D
:100CF0002A299A93DD882D375DAAFB4968A09C506C
:100D0000867F685657F9791839D4E001843361CA6F
:100D1000A5D2D6E4C98A4A23444EBCF0DC24A1A063
:100D2000C4E2073C10C4B5254B6563F480E7CF618E
:100D3000B1718221872CF59100320CECA9B59A741F
:100D400085E3368F764F9C6DCEBCAD0A4BED7604B5
:100D5000CBC3B9339E019396697DC5A245799B04A7
:100D60005C8409ED8843C7AB931426A140B5CE4EF1
:100D7000BF2A42853E2C3B54E8121F0E9759B227DA
:100D800089FAF2DF8E6859DC06BCB6850D0622ECC6
:100D9000B1CBE504E63DB3B04173083F3C588663F0
:100DA000EB50EE1D2C3774A9D318A3476E9354ADA6
:100DB0000A5DB82A555D78F6EEBE8E3C7669B9407C
:100DC000C234EC2AB9ED7E20E48D0038C7E68F44AA
:100DD000A886CEEB2AE990F14CDF32FB731B6D92B3
:100DE0001E95FEB4DB65DF4D23548948BF4A2E7043
:100DF000D6D762B43329B13A334C236DA676A521F8
:100E00006348E6905DED90950B7A84BEB80D5E6305
:100E10000C62264C145AB3AC23A474A76F3330056C
:100E2000600142A028B7EE1938F164808243E141A5
:100E3000271F1F90547AD5232ED13DCB28BA587F37
:100E4000DC7C9124E92851836EC5562142EDA056E1
:100E500022A140806BA8F794CA136B0C39D9FDE925
:100E6000F36FA69EFC708AB3BC593C1E1D6CF97CC6
:100E7000AFF9887195EB5700BD9F8C4FE12483C576
:100E800022EAFDD30CE217187C6A4CDE77B4539B40
:100E90004C81CD2360AA0E25739C02793230DF7419
:100EA000DF7519F4A5145CF77AA8A591847C60031A
:100EB000063BCD50B6279CFEB1DDCCD3B05924B251
:100EC000CAE21C81229D078F8EB9BE4EFAFC39659D
:100ED000BABF9D12375E977EF389F55DF5E3098C05
:100EE00062B5209D0C538A681BD28F75175DD4E5BF
:100EF000DA756219146A262DEBF8AF37F06CA45539
:100F0000B1BCE233C09ACAB011494F689B3B6B3CFD
:100F1000CC13F6C785616842AEBBDDCD4516291DF1
:100F2000EADBC803943CEE4F8211C3EC28BD970561
:100F300099DED7BB5E221FD4EB64D992D985B76AFC
:100F4000056AE42441F1CDF0D83FF89E0ECD0B7A2E
:100F5000706B5A750A6A3388EC17750870102F2465
:100F6000CFC4E942006194CA1F3A7606FAD248819A
:100F7000F077600345D961F4A46F3DD930C3046BA9
:100F8000542AB7EC3BF44BF5685226CEFF5D19911D
:100F9000A0A3A5A9B1E023C40A774DF95120A3A5C8
:100FA000A9B1C10082868E7F5D1991A0A3C4EB54C4
:100FB0000B756852078C9A978D79706246EF5C1BAF
:100FC00095897141E121A1A1A1C002674C1AB6CF58
:100FD000FD785324ABB5C9F16023A5C812876D58BD
:100FE00013858892876D5832C70C9A97ACDA36EE23
:100FF0005E3EDF1DB8F2662FBDF87247ED581385CF
:101000008892878C7B550990A2C6EF3DF85324AB9C
:10101000D42AB7EC5A36EE5E3EDF3CFA764FFD59E5
:1010200030E246EF3DF853056931C10082868E7F7C
:101030005D19B0E227CCFB744B148B948B7568332D
:10104000C50892878C9AB6CF1CBAD70D98B2E62FF6
:10105000DC1B9589716023C40A968F9CBAF66E3F9B
:10106000FC5B15A8D226AFBDF872662FDC1BB4CB93
:10107000148B94AAB7CDF951018082866F3DD93087
:10108000E227CCFB744B14AAB7CDF97043046B353F
:10109000C9F16023A5C8F3450892876D5832E62F41
:1010A000BDF872664E1EBEFE7E7E7E5F1D9991A0CB
:1010B000A3C40A774D1893A4ABD40B754910A2C6EC
:1010C000EF3DF85324ABB5E833E44A16AEDE1FBC5F
:1010D000DB15A8B3C5087345E931C1E121A1A1A180
:1010E000C002866F5C3AD70D9893A4CA16AEDE1F75
:1010F0009D99B0E246EF3DF872470C9AB6CFFD5984
:1011000011A0A3A5C8F3450892876D39F043048A5E
:1011100096AEDE3EDF1D9991A0C2066F3DF8724784
:101120000C9A978D989385887345E931E023A5A99A
:10113000D003848A96AEDE1FBCDB15A8D226CEFF74
:101140005D1991818082672DD813A4ABD40B94AA2A
:10115000B7CDF95120A3A5C8F345E95022C6EF5CED
:101160003AD70D9893858873644AF74DF95120A3B7
:10117000C40A96AEDE3EFE7E7E7E5F3CFA764FFD72
:101180007872662FBDD930C3E54812878C7B55280D
:10119000D2078C9A97ACDA178D795120A3C4EB54FF
:1011A0000B948B94AAD62EBFFC5B15A8D226AFDC7D
:1011B0001BB4EA37EC3BF46A37CD1893856931C12B
:1011C000E140E325C812878C9AB6CFFD5911A0C221
:1011D000068E7F5D38F2470C7B746A37EC5A36EE28
:1011E0003FFC7A764F1C9B95897141006344EB5418
:1011F0002AD60F9CBAD70D9893856931C100828693
:101200008E9EBEDF3CFA572CDA36EE3FFC5B15892A
:1012100071410082868E7F5D38F247ED5813A4CA73
:10122000F74DF95101806344EB542AD62EBFDD19E6
:1012300091A0A3A5A9B1E042068E7F5D1991A0A35C
:10124000C40A968F7D7872470C7B746A562EDE1F17
:10125000BCFA570D7951016121A1C0E325A9B1C1A3
:10126000E14002674C1A978D9893A4ABD42AD60F0D
:101270009C9BB4CB14AAB7CDF95120A3C4EB35C9BC
:10128000F16042068E7F7C7A766E3FFC7A766E5EE7
:101290003EFE7E5F3CDB15897141E121C0E344EBFA
:1012A000542AB7CDF9706227ADD832C70C7B744B86
:1012B00014AAB7EC3BD528D2076D39D120C2E74C30
:1012C0001A978D98B2C70C5928F39B0001010101B0
:1012D00001010101010202020202020202020303F1
:1012E00003030303030304040404040404050505C1
:1012F0000505060606060607070707070808080883
:10130000090909090A0A0A0B0B0B0C0C0C0D0D0D2F
:101310000E0E0E0F0F0F10101111111212131314C5
:1013200014151516161717181819191A1A1B1B1C3D
:101330001D1D1E1E1F202021222223242425262697
:10134000272829292A2B2C2D2D2E2F3031323233CC
:101350003435363738393A3B3C3D3E3F40414243D5
:101360004445464748494A4C4D4E4F5051535455B9
:101370005658595A5B5D5E5F616264656668696B69
:101380006C6D6F7072737577787A7B7D7E808283E7
:101390008587888A8C8E8F91939596989A9C9EA02B
:1013A000A2A3A5A7A9ABADAFB1B3B5B7BABCBEC038
:1013B000C2C4C6C9CBCDCFD1D4D6D8DBDDDFE2E401
:1013C000E7E9EBEEF0F3F5F8FAFDFF09025400034C
:1013D0000100A0FA09040000010301010009211124
:1013E0000100012240000705810308000A090401E9
:1013F0000001030102000921110100012247000739
:1014000005820308000A0904020001030000000924
:1014100021110100012232000705830320000A1276
:1014200001000200000008F8A833180100010200C2
:1014300001140343006800610072007900620064D7
:10144000006900730000002403420061007300740F
:101450000061007200640020004B006500790062AA
:10146000006F006100720064007300000004030953
:10147000040011241FBECFEFDAE0DEBFCDBF04B6FB
:1014800003FE27C080917B0490917C04A0917D0491
:10149000B0917E048730904BA740B04BD1F41092AE
:1014A0007B0410927C0410927D0410927E0414BE82
:1014B00084B7877F84BF0FB6F894A89580916000A9
:1014C000886180936000109260000FBEE0E0F8E356
:1014D000099512E0A0E0B1E0EEE2F1E602C005906D
:1014E0000D92A638B107D9F724E0A6E8B2E001C012
:1014F0001D92AB37B207E1F70E94212A0C946930A4
:101500000C940000FC01AC014B5F5F4F8FEF91E347
:101510002191822728E030E087FF09C0880F8927C2
:1015200021503109C9F7E417F50791F70895880F9D
:10153000F7CF90917204937061F081110BC09460A9
:101540009093720410925501809171048160809390
:1015500071040895833010F09860F2CF880F880FDF
:10156000982BEECF90917204937071F08093730476
:1015700060937404413408F040E440937504809112
:1015800071048160809371040895E8EDF0E080813A
:101590008E7F80831092E2001092DA001092E100B8
:1015A000A0EEB0E08C9181608C9380818F778083F6
:1015B00019BCA7EDB0E08C918E7F8C9380818F7EDB
:1015C00080831092570408952091E4003091E50043
:1015D00095E6A9012091EC00822F817020FF06C0C2
:1015E0008091E80080FF06C080E008952091E80027
:1015F00022FD1AC080916404882389F0853089F027
:101600008091EB0085FD0FC02091E4003091E50052
:1016100042175307F9F29150E1F684E0089582E011
:10162000089583E0089581E00895EF92FF920F936B
:101630001F93CF937C018B010E94E40AC82F811174
:1016400017C08091E80085FD0BC08091E8008E777F
:101650008093E8000E94E40A882399F3C82F08C009
:10166000F70181917F018093F1000150110949F741
:101670008C2FCF911F910F91FF90EF900895809143
:10168000660487FF13C08091E80082FF06C0809146
:10169000E8008B778093E80004C080916404811196
:1016A000F2CF0895809164048823D9F38091E800F3
:1016B00080FFF8CF8091E8008E77ECCF982F909341
:1016C000E900242F762F50E0891731F07091EC005B
:1016D0002091ED005091F00021FD07C09F5F9730F1
:1016E00071F78093E90081E008953091EB003E7F2F
:1016F0003093EB003091ED003D7F3093ED00309161
:10170000EB0031603093EB007093EC002093ED0020
:101710005093F0002091EE0027FDE0CF80E0089587
:10172000CF92DF92EF92FF920F931F93CF93DF93AD
:10173000C8EDD0E088818F7E8883E7EDF0E080817E
:101740008160808384E082BF81E080935704888138
:101750008E7F888302EE10E0F80110821092DA008A
:1017600081EEC82ED12CF601108288818F77888374
:1017700088818068888388818F7D888319BC1092D6
:10178000640410926504109263041092620490EE57
:10179000E92EF12CF70180818B7F80838881816025
:1017A000888342E060E080E00E945E0BF601808169
:1017B0008E7F8083F8018081816080838081886052
:1017C0008083F70180818E7F808388818061888318
:1017D000DF91CF911F910F91FF90EF90DF90CF900D
:1017E0000895FC0180916C0490916D048617970711
:1017F000A0F06115710529F49091E8009E7790930F
:10180000E80090E06115710551F4911108C08091D4
:10181000E80082FF34C080E00895BC01F2CF8091DF
:1018200064048823C1F18530C1F18091E80083FD13
:1018300030C08091E80082FDEACF8091E80080FF0F
:10184000E1CF8091F3002091F200382F61157105EE
:1018500019F02830310558F091E02830310509F0B1
:1018600090E02091E8002E772093E800CBCF819183
:101870008093F100615071092F5F3F4FE7CF809156
:101880006404882341F0853041F08091E80083FFB3
:10189000BECF81E0089582E0089583E00895089521
:1018A0008091590408959C014FB7F8948091500499
:1018B00090915104A0915204B09153044FBF821BE8
:1018C000930B08952FB7F8946091500470915104D0
:1018D00080915204909153042FBF08959C01FC0104
:1018E00032969FEF80E04191461751F09F3F19F4E7
:1018F000411101C0982F8F5F8630A9F79F3F09F4EF
:101900000895290F311D97FD3A95F90162830895D5
:1019100020914D0430914E042817390771F09093AF
:101920004E0480934D04E0914B04F0914C043097A9
:1019300021F00084F185E02D099408952091490457
:1019400030914A042817390771F090934A04809324
:101950004904E0914B04F0914C04309721F006804B
:10196000F781E02D09940895FA01811101C0FB016E
:101970000994E2E7F4E0248130E1231B08F420E03D
:101980002483809171048160809371040895E2E75B
:10199000F4E0248130E1230F08F42FEF24838091B9
:1019A00071048160809371040895E2E7F4E043815B
:1019B00020E1421B08F440E08181628190E00C94B8
:1019C000B20AE2E7F4E0438120E1420F08F44FEF6E
:1019D0008181628190E00C94B20AE2E7F4E06281D6
:1019E00020E1621B08F460E08181438190E00C9467
:1019F000B20AE2E7F4E0628120E1620F08F46FEFDF
:101A00008181438190E00C94B20AE2E7F4E08181A5
:101A1000438162818850990B0C94B20AE2E7F4E0AA
:101A2000818190E04381628108960C94B20A809192
:101A3000720486958695815009F482E00C94990A87
:101A400080917204869586958F5F833008F081E0DF
:101A50000C94990A80935001809172048370809352
:101A60004F010E94E71283E0809355010895FF9291
:101A70000F931F93CF93DF93182F062FF42ED0E0F0
:101A8000C0E02F2D402F612FCE010E948A13219696
:101A9000C833D105B1F7DF91CF911F910F91FF901E
:101AA0000895AF92BF92CF92DF92FF920F931F9350
:101AB000CF93DF93362F472FE82FF0E0E553FD4E0D
:101AC00071110FC0E4918E2F2E2F6E2F722FDF9188
:101AD000CF911F910F91FF90DF90CF90BF90AF906B
:101AE0000895C72FD0E02491F22E022F10E056E087
:101AF000659FC0011124EFEFF0E0BF010E94D22FDB
:101B0000832F90E0880F991F35E5369FD001379FCE
:101B1000B00D11248A1B9B0B982F990F980F6F0102
:101B2000CC1ADD0AC09ED001C19EB00DD09EB00D72
:101B300011248B2F499FA0011124452F55276F0198
:101B4000C41AD50AC09EA001C19E500DD09E500D52
:101B500011245F01A91AB108AC9E6001AD9ED00CA2
:101B6000BC9ED00C1124CD2CDD24EC19FD09E09F86
:101B7000E001E19FD00DF09FD00D1124ED2F6230D8
:101B80007105A1F050F46115710509F49ECF613023
:101B9000710581F0EB2F852F98CF6430710569F0C6
:101BA00080F06630710509F490CFF4CFE22F2B2F2F
:101BB0008D2F8BCFE22F252F88CFEB2F822F2D2F2C
:101BC00084CF2B2F8F2DE52F80CF0C94F4152091EF
:101BD000780484E690E026FD0FC027FF0FC0229511
:101BE000237030E0A4E6B0E00E94EC2FDC01CB01D2
:101BF00088539F4FAF4FBF4F0C94E50D2F7030E0CF
:101C0000A8ECB0E00E94EC2FDC01CB0180579E4F86
:101C1000AF4FBF4FF1CF80E0089578940895F894C6
:101C2000E82FE295EF70F0E031A1282F2F7081E0CE
:101C300090E001C0880F2A95EAF7982F909593239A
:101C400091A392A1892B82A30C940D0E90913A033B
:101C500092FF06C0282F28712830F9F4877F84600E
:101C600093FF06C0282F28712831F1F4877E846104
:101C700020913B0320FF06C0382F38713830D9F44B
:101C8000877F816021FF06C0282F28712831D1F479
:101C9000877E816194FD877E0895282F24712430EA
:101CA000F9F68B7F8860DCCF282F2471243101F76F
:101CB0008B7E8861DDCF382F3171313019F78E7FFF
:101CC0008860E0CF282F2171213121F78E7E886135
:101CD000E1CFCF93DF93EC0182389105A9F1D8F5DC
:101CE0008133910509F496C048F58932910509F4CC
:101CF0008AC08A9709F495C0C11522E5D20708F079
:101D0000B6C0C11531E5D30708F026C1C83ED105DC
:101D100008F09CC0C03ED10560F5C83AD10508F076
:101D200087C0C53AD10508F0EFC0C130D10509F12F
:101D30002097F9F0C430D105E0F440C08533910517
:101D400009F45AC0C997C1F680913A03837089F0AB
:101D5000C0EED0E00EC0833E910599F170F4803E54
:101D6000910501F1823E910539F680913A0382FD99
:101D700021C0CE01DF91CF910895863E910561F19A
:101D8000873E910571F1843E910509F0B5CF8091B0
:101D90003B0381FFEECF80913A03C7EED0E084FD94
:101DA0000DC0E7CF80913A0380FD07C190913B03BE
:101DB00090FFDFCFC3EED0E084FFDBCFD0E0C0E008
:101DC000D8CF80913A0382FDFBC090913B0390FDF8
:101DD000BFCF84FFCECFF2CF80913A0383FDDDCF1A
:101DE000C8CF80913A0383FDEEC090913B0391FFF1
:101DF000F0CFC4EED0E0BDCF80913A0385FFB9CFDC
:101E0000C9E2D0E0B6CF80913A0385FFB2CFC5E3F7
:101E1000D0E0AFCF80913A0386FFABCFCAE2D0E0EB
:101E2000A8CF80913A0386FFA4CFC1E3D0E0A1CF31
:101E3000CF3BD10518F6C85AD0E0CC0FDD1FCD59E5
:101E4000DE4F0990D881C02DD46493CFC11540E5F1
:101E5000D40708F064C0C11580E4D80708F05CC05E
:101E6000CE019A9581159F4108F483CFA7CFC11564
:101E700036E5D30718F5C11545E5D40708F084C049
:101E8000C11584E5D80708F07AC09C2F96959695E1
:101E90009E0123703327C115D34508F462C0C1E009
:101EA000D0E002C0CC0FDD1F2A95E2F730E2939F0D
:101EB000C0011124C82BD92BDA685BCFC1158AE584
:101EC000D80778F4C11599E5D90708F068C0C1159D
:101ED00028E5D20708F472CFDC2FCC27C06FD06A78
:101EE00048CFCE0190568115904208F067CF8D2FD4
:101EF0008F710E94260E90E0982F882788279F7167
:101F00009C012C2BE90149C0C55AD0E0C05ADE4FD4
:101F1000C881D0E0D0642DCFDF70D06A2ACFCE0147
:101F2000E4E096958795EA95E1F783702C2F269546
:101F30002695237040E2249F90011124382B8C2F8A
:101F40008370C1E0D0E002C0CC0FDD1F8A95E2F7BC
:101F5000C22BD32BDC680DCFDC2FCC27C16FD06A0E
:101F600008CFC1E0D0E002C0CC0FDD1F2A95E2F718
:101F700020E2929FC0011124C82BD92BEBCFDC2F7C
:101F8000CC27C46FD06AF5CE8C2F0E94260EC82FA6
:101F9000D0E0DC2FCC27CC27DF71D062EACE8C2FAB
:101FA0008F700E94260E34E0D695C7953A95E1F7DA
:101FB000CF709C2FEC01D069DCCEC9E3D0E0D9CE44
:101FC000C2EED0E0D6CEC6EED0E0D3CE8091F602FF
:101FD00081111092F602089580959091F502982350
:101FE0009093F50208958091F5029091F402892B67
:101FF0009091F302892B809388029091F6029923A5
:1020000091F0892B8093880220E08AE892E0FC011D
:102010003191CF0131112F5FF2E080399F07B9F77D
:1020200021110E94E60FE0914B04F0914C0430978F
:1020300031F00280F381E02D88E892E00994089560
:102040008091F1029091C002981301C008958F5FB2
:102050008770FACFAF92BF92CF92DF92EF92FF924A
:102060000F931F93CF93DF93C0903603D090370325
:10207000E0903803F09039034091F7025091F80254
:102080006091F9027091FA02C42AD52AE62AF72A49
:10209000CFE1D0E0082F10E026E0929F000D111D47
:1020A00011249CE3A92EBC2ED701C6010C2E04C01E
:1020B000B695A795979587950A94D2F780FD0FC09E
:1020C000219788F7B12C8B2DDF91CF911F910F9124
:1020D000FF90EF90DF90CF90BF90AF900895AC9EAF
:1020E000F001AD9EF00D1124E00FF11FEE0FFF1F68
:1020F000EB59FE4F859194910E94690E019701F36F
:10210000E2CFCF93DF93EC010E942A10EC2FF0E096
:1021100096E0D99FE00DF11D11249CE3899FE00D0D
:10212000F11D1124EE0FFF1FEB59FE4F8591949185
:10213000DF91CF910C94690EE92FEE0FE90FEE0FAE
:102140008E0F982F977086958695869525E0829FAD
:10215000F0011124EE56FD4F50E040E080E0219167
:1021600030E0092E02C0369527950A94E2F72170D7
:102170003327042E01C0220F0A94EAF7822B4F5F07
:102180005F4F4530510559F70895E92FEE0FE90FDC
:10219000EE0F8E0F982F977041E001C0440F9A9573
:1021A000EAF786958695869595E0899FF00111243A
:1021B000EE56FD4F30E020E070E05191DF011197C5
:1021C000CB01022E02C0969587950A94E2F78170A2
:1021D00081958527842385278C932F5F3F4F25305A
:1021E000310559F70895FC01808191810E94811089
:1021F000292F2F7092959F7092509E3078F4E92F7E
:10220000F0E0E559FF4C0C94E62F803F19F020F4E4
:10221000883E20F481E00895843FE1F380E0089552
:10222000883EC0F3813FD1F7F5CF822F8695869502
:102230008695089590E080E00E949E0C90E080E0FA
:102240000E94880C1092F4021092F3020C94F30F87
:102250006093360370933703809338039093390368
:102260000C941A110F931F9341E050E060E070E06E
:1022700004C0440F551F661F771F8A95D2F7CB0104
:10228000BA016095709580959095009136031091F4
:10229000370320913803309139036023712382235F
:1022A00093231F910F910C9428119091F202809525
:1022B00089238093F202282F277091F4282F082E6B
:1022C000000C330B9217130659F090913B0392FDCB
:1022D00007C08595859585950E9432111092F2026E
:1022E00008950F931F9341E050E060E070E004C058
:1022F000440F551F661F771F8A95D2F780913603CA
:1023000090913703A0913803B09139038A019B0162
:10231000082B192B2A2B3B2BC901B8011F910F91B8
:102320000C9428116093F7027093F8028093F902DD
:102330009093FA020C941A11882321F00E94EC0F5A
:102340000C94F30F0895882339F09091F502982B9F
:102350009093F5020C94F30F0895882381F19CEF7C
:10236000980F913A78F4EAE8F2E020E932E09191AE
:10237000891303C0DF0111971C922E173F07B9F78D
:102380000C94F30F90E2980F983050F4877091E01E
:1023900001C0990F8A95EAF7892F0E94EC0FF0CFC0
:1023A0009BE5980F933020F490E080E00C949E0C15
:1023B000885A873120F490E080E00C94880C0895CE
:1023C000CF93C82F882309F44EC08CEF8C0F813A2D
:1023D000F8F4EAE8F2E080E992E0DF012D91C2171B
:1023E00059F08A179B07D1F76C2F88E892E00E947A
:1023F0006E0CCF910C94F30F2191C21303C0DF0137
:1024000011971C928E179F07B9F70E94F30FECCF1C
:1024100080E28C0F883068F4C77021E030E001C0A2
:10242000220FCA95EAF78091F502822B8093F5027C
:10243000E0CFEBE5EC0FE33040F4F0E0E05AFE4F84
:10244000808190E0CF910C949E0CC85AC73158F40B
:10245000EC2FF0E0EE0FFF1FED59FE4F80819181D0
:10246000CF910C94880CCF9108959091F6028091B1
:10247000F502892B0E94260E982F927281E009F4B2
:1024800080E008958093540470935604609355043B
:1024900080916404843001F583E08093E9008FEF3C
:1024A0009091E800815095FD06C095ED9A95F1F761
:1024B00000008111F5CF8091E80085FF0DC050E04C
:1024C00040E063E070E084E594E00E94150B8091A9
:1024D000E8008E778093E8000895BC0184E00C94B6
:1024E0004212BC0183E00C9442129C0182E0809372
:1024F000E9009FEF8091E800915085FD06C085EDD1
:102500008A95F1F700009111F5CF8091E80085FFE1
:102510000CC050E040E065E070E0C9010E94150B7E
:102520008091E8008E778093E8000895CF93DF9341
:10253000EC0181E08093E9008FEF9091E8008150F9
:1025400095FD06C095ED9A95F1F700008111F5CF44
:102550008091E80085FF14C050E040E068E070E042
:10256000CE010E94150B8091E8008E778093E800E1
:1025700088E0FE01AAE5B4E001900D928A95E1F7AA
:10258000DF91CF91089581E08093E00080E2809315
:10259000D8001092C9008FE19EE40197F1F700C0C6
:1025A000000087E090EBDC0180937B0490937C0437
:1025B000A0937D04B0937E0488E19CE00FB6F8946C
:1025C000A895809360000FBE90936000FFCF539A50
:1025D0003BB1377F2BB128604FB7F89481EA93E085
:1025E000FC015191CF0168E02BB9000000C057FFFA
:1025F0003BB9550F000000C000C000C03BB900C08F
:102600006A9591F7F4E089349F0751F74FBF8FE542
:1026100094E00197F1F700C0000008959F92AF92F7
:10262000BF92CF92DF92EF92FF920F931F93CF93BF
:10263000DF937C015B016A018091310301E010E0CE
:102640008A3010F40AE010E0C1E0D0E0F894B5015F
:10265000C701F6010995982E0E940D0E911004C035
:1026600021960C171D076CF4892DDF91CF911F91D6
:102670000F91FF90EF90DF90CF90BF90AF909F9021
:102680000895CC9F9001CD9F300D300D112490E026
:1026900080E045E34A95F1F7000001968217930721
:1026A000C1F7D4CF80910503811110C08091D8006B
:1026B00080618093D8008AE18A95F1F700C080910B
:1026C000D90080FF0AC081E08093050381E09091EA
:1026D0000503913009F080E0089582E080930503BE
:1026E0000E94C50A10926404F1CF0E9452138823FD
:1026F00051F0E0914B04F0914C04309721F001909F
:10270000F081E02D099480E008950E94521391E039
:1027100089270895FF920F931F93CF93DF93EC01C6
:10272000F62E042F122F0E94851381110FC0CD3178
:10273000D10564F06D97FE01EE0FFF1FEC0FFD1F3A
:10274000EF55FC4FF1820083128307C00E9485136E
:10275000882389F3CD31D10574F3DF91CF911F9197
:102760000F91FF900895DF92EF92FF920F931F93C6
:10277000CF93DF93082F80915001801324C0909154
:102780007204937020914F0130E081E0921713069C
:1027900009F480E0817080935301809177049091D7
:1027A0005201981739F08093520140E060E080E0D8
:1027B0000E94370D013099F0002339F0023009F4FE
:1027C00068C080E03BC081E0E5CF80915301882361
:1027D000A9F140E060E080E00E94370DF2CFC091A7
:1027E00051018CE0C89FC02D11241CE01C0F19332F
:1027F00008F018E30E948513882319F01E3108F0B1
:102800001DE10E948513811103C0CD3108F4CDE193
:102810006091730470917404809175040E94510D4D
:10282000F62EE72ED82ED0E0C11718F10E9485139E
:10283000882309F47DC081E01D3118F69091510183
:102840009F5F9093510181110CC082E080935501EC
:1028500080915301811105C0011103C083E0809371
:102860005501DF91CF911F910F91FF90EF90DF9075
:102870000895FE01E15CFD4F808190915201892312
:1028800031F02D2D4F2D6E2DCE010E948A132196F1
:10289000CBCFC09151018CE0C89FC02D11241CE00A
:1028A0001C0F193308F018E30E948513882319F0D0
:1028B0001E3108F01DE10E948513811103C0CD3146
:1028C00008F4CDE1209176042695269531E0230F7A
:1028D00008F42FEF40919C0350919D0390E080E01D
:1028E000429F812D529F800D911D1124F82ED0E022
:1028F000C11708F09BCFFE01E15CFD4F80819091F4
:102900005201892399F070917404FE01EE0FFF1FAC
:10291000ED56FE4F64AD6F19809175040E94510D04
:10292000462F282F672FCE010E948A132196E0CFD1
:1029300081E0183308F482CF44CF0F931F930E9495
:102940005213882321F01F910F910C94620C0E9466
:10295000620C0091320310913303209134033091C3
:102960003503600F711F821F931F1F910F910895F0
:10297000CF92DF92EF92FF926B017C010E94521383
:102980008823A1F02FB7F8946091500470915104FE
:1029900080915204909153042FBF6C197D098E09C8
:1029A0009F09FF90EF90DF90CF9008950E949D14B3
:1029B000F4CF4F925F926F927F928F929F92AF92DD
:1029C000BF92CF92DF92EF92FF9260919803709145
:1029D000990380919A0390919B030E94B8146B0114
:1029E0007C010E949D144B015C018092980390929F
:1029F0009903A0929A03B0929B03A0916F03EFE614
:102A0000F3E08A2F90E04FEF5FEF60E070E04C1949
:102A10005D096E097F09A91327C080936F03809118
:102A2000A003811134C090917204892F837019F032
:102A3000892F86958695909155019130C1F1992302
:102A400041F1923009F441C0933009F44CC0FF9039
:102A5000EF90DF90CF90BF90AF909F908F907F903E
:102A60006F905F904F900895218D328D2901712CC8
:102A7000612C441555056605770520F481509F5F4C
:102A80003296C9CF2C0D3D1D328F218FF8CF80E0BB
:102A9000D2CF1092510180929C0390929D03A092FC
:102AA0009E03B0929F0381E080935501D0CFFF90A9
:102AB000EF90DF90CF90BF90AF909F908F907F90DE
:102AC0006F905F904F900C94B313FF90EF90DF9056
:102AD000CF90BF90AF909F908F907F906F905F90BE
:102AE0004F900C942A0D80917104882351F046E098
:102AF00050E06CE170E082E794E00E941F30109299
:102B0000710460919C0370919D0380919E0390914C
:102B10009F030E94B814603171058105910508F486
:102B200096CF1092550193CFE2E7F4E089E08083DD
:102B30008091570190915801A0915901818392830E
:102B4000A38380E284838FEF858346E050E06CE1CD
:102B500070E0CF010E941F3010927104089528E0A8
:102B600030E043E060E080E30E94DE2C95E09A953F
:102B7000F1F700000895CF93C82F0E94AF158C2F56
:102B80000E94562D0E946E2DC82F85E08A95F1F780
:102B9000000085E68A95F1F700000E94862D8C2FB3
:102BA000CF910895CF93DF93C82FD62F803511F0A2
:102BB00010926E030E94AF158C2F80680E94562DD4
:102BC0008D2F0E94562DEC018AE68A95F1F700C000
:102BD0008FE891E00197F1F700C000000E94862D78
:102BE000CE01DF91CF910895CF93DF93EC010E9446
:102BF000AF15CE0164E670E00E94D22F61507109DA
:102C00006837710510F067E770E08FE00E94D21519
:102C1000DF91CF910C94862DCF93DF93209A0E9461
:102C2000D62C10926E030E94862D0E94AF150E9432
:102C3000862D66EB8BE30E94D2152FEF85EA9EE08E
:102C4000215080409040E1F700C000000E94AF1585
:102C5000E5EDEA95F1F70000F5E0FA95F1F70000EF
:102C60000E94862D25ED2A95F1F700006AE58AE39A
:102C70000E94D2158FEF90E7E2E081509040E04053
:102C8000E1F700C0000082E00E94BB1583E00E94D3
:102C9000BB1584E00E94BB1585E00E94BB1586E051
:102CA0000E94BB156DE183E10E94D2158FE39CE980
:102CB0000197F1F700C0000068E183E10E94D2159E
:102CC0000E94AF1582EE0E94562D90E59A95F1F77D
:102CD000CDECD2E0FE0184910E94562DF0E5FA95EC
:102CE000F1F7219622E1CB3CD207A1F78FE193E0E7
:102CF0000197F1F700C000008AE20E94BB1560E076
:102D000080E10E94D2150E94862DEFE3FCE9319705
:102D1000F1F700C00000F5E0FA95F1F700000E941D
:102D2000862D8FE39CE90197F1F700C0000080E455
:102D300096E00E94F415EFE9FFE03197F1F700C04B
:102D4000000060E080E10E94D21567EE81E10E9400
:102D5000D21562E083E60E94D21580E00E94BB1586
:102D60008FE30E94BB158AE20E94BB152898DF9171
:102D7000CF910895CF93DF93CDB7DEB72A970FB6E3
:102D8000F894DEBF0FBECDBF85E0E7E6F3E0DE01DD
:102D9000169601900D928A95E1F785E0EEE5F3E055
:102DA000DE01119601900D928A95E1F745E050E021
:102DB000BE016F5F7F4FCE0106960E945330892B74
:102DC00061F0E0914B04F0914C04309731F00480B5
:102DD000F581E02D87E693E0099510926803109243
:102DE000690310926A0310926B0385E0E7E6F3E053
:102DF000AEE5B3E001900D928A95E1F72A960FB601
:102E0000F894DEBF0FBECDBFDF91CF910895EF9252
:102E1000FF920F931F93CF93DF93CDB7DEB76497E5
:102E20000FB6F894DEBF0FBECDBF4091670350913F
:102E300068036091690370916A0380916B030E943B
:102E40009527209367034093690350936A03609327
:102E50006B03132F11951093680385E0E7E6F3E009
:102E6000DE01509601900D928A95E1F70091690379
:102E7000E0906A03F0906B030E945213882309F4D8
:102E800070C08091780486FF44C020916503309122
:102E90006603210F311D17FD3A9530936603209389
:102EA00065038091630390916403800F911D07FD7A
:102EB0009A959093640380936303A90137FF04C03C
:102EC00044275527421B530B473051055CF0FF2424
:102ED000FA941216130614F4FF24F3941092660366
:102EE000109265039C0197FF04C022273327281BFB
:102EF000390B273031055CF0EE24EA9418161906D8
:102F000014F4EE24E394109264031092630300E03F
:102F100010E0198B0A8BEB8AFC8A85E0FE01709623
:102F2000DE011B9601900D928A95E1F785E0FE0186
:102F30003B96DE01119601900D928A95E1F785E0AE
:102F4000FE013196DE01169601900D928A95E1F709
:102F500085E0FE013696DE01509601900D928A952D
:102F6000E1F7198B0A8BEB8AFC8A85E0FE017096EB
:102F7000DE01169601900D928A95E1F785E0FE013B
:102F80003696DE011B9601900D928A95E1F785E059
:102F9000FE013B96A7E6B3E001900D928A95E1F71A
:102FA00064960FB6F894DEBF0FBECDBFDF91CF9110
:102FB0001F910F91FF90EF900C94BA161092F502AA
:102FC000EAE8F2E086E0DF011D928A95E9F70C94C9
:102FD0001A111F93CF93DF93CDB7DEB7AA970FB621
:102FE000F894DEBF0FBECDBF86E694E02091F100DD
:102FF000DC012D93CD01B4E08E369B07B9F78091AB
:103000006704833009F472C0B8F4813009F449C010
:10301000823009F4B3C08091E80083FF86C28091BA
:103020006604909167049A3008F07FC2E92FF0E0BF
:10303000E758FF4C0C94E62F8A3009F48EC08B3091
:1030400009F471C0893039F780916604813219F72B
:1030500080916A0490916B04009711F00297D9F661
:103060008091E800877F8093E8008091E80082FFEC
:1030700038C09091F3008091F200029731F4809172
:10308000F100813011F0863021F48091F1008093BD
:1030900059048091E8008B778093E8000E943F0BF1
:1030A000BACF80916604813A09F0B5CF8091E800EB
:1030B000877F8093E80080916A0490916B04892B4C
:1030C00061F468E08AE594E070E00E94F10B809181
:1030D000E8008B778093E8009ECF60E090E080E08E
:1030E000F3CF809164048111C0CF95CF80916604A5
:1030F000813A09F090CF80916A0490916B04892BFA
:1031000009F089CF8091E800877F8093E800809163
:10311000E80080FFFCCF809154018093F100809102
:10312000E8008E77B9CF80916604813209F073CFC1
:1031300080916A0490916B04892B09F06CCF809187
:10314000E800877F8093E8000E943F0B809168042D
:10315000809354010E94DE175ECF80916604813215
:1031600009F059CF8091E800877F8093E8000E94A2
:103170003F0B80916904809358044DCF8091660481
:10318000813A09F048CF8091E800877F8093E8007A
:103190008091E80080FFFCCF80915804BECF80383A
:1031A00099F0823809F0C1C180916A048F7087302C
:1031B00008F0BBC18093E9008091EB0085FB882774
:1031C00080F91092E90006C0809162049091630436
:1031D000911182609091E800977F9093E80080932E
:1031E000F1001092F1008091E8008E779AC1882357
:1031F00009F488C1823009F098C180916804811176
:103200008BC180916A048F702FEF280F263008F051
:103210008CC18093E9002091EB0020FF7DC19330A9
:1032200031F48091EB0080628093EB0075C1909146
:10323000EB0090619093EB0021E030E001C0220FA1
:103240008A95EAF72093EA001092EA008091EB0059
:103250008860EACF811169C1109168041F7780915D
:10326000E3008078812B8093E3008091E800877FE2
:103270008093E8000E943F0B8091E80080FFFCCF24
:103280008091E30080688093E30082E0111183E085
:10329000809364044AC18058823008F046C120916E
:1032A0006804309169042C3DE3E03E07A1F583E01A
:1032B0008A838AE289834FB7F894DE01139620E06F
:1032C0003EE051E2E32FF0E050935700E49120FFFD
:1032D00003C0E295EF703F5FEF708E2F90E0EA3011
:1032E000C0F0C7968D939D932F5F243159F74FBF40
:1032F0008091E800877F8093E8006AE270E0CE0169
:1033000001960E94F10B8091E8008B778093E80092
:103310000CC1C096E7CF80916A0490916B04432F53
:1033200055274330510509F44AC078F5413051051D
:1033300009F47AC084E590E0EBECF3E1423051050A
:1033400009F0F3C02091E800277F2093E800209146
:103350006C0430916D048217930708F49C0140E0DF
:103360002115310509F065C0411163C08091E80065
:1033700082FDC9CF80916404882329F2853019F237
:103380008091E80083FFF2CFBECF4132510509F4AE
:103390003CC04232510509F0C8C08330910508F0A5
:1033A000C4C0FC01EE0FFF1FE658FD4F0190F081F5
:1033B000E02D89589D4FDC018C9190E01AC0332795
:1033C00021303105D1F02115310561F02230310570
:1033D00009F0ABC0E1E3F4E1E4918E2F90E0E1E38A
:1033E000F4E107C0EDE6F4E1E4918E2F90E0EDE624
:1033F000F4E1009709F499C0A5CFE7E4F4E1E49182
:103400008E2F90E0E7E4F4E1F4CF8330910508F0EB
:103410008CC0880F991FFC01E058FD4F0190F0818E
:10342000E02D89E090E08ECF82E190E0EFE1F4E1E1
:1034300089CF80916404882309F465CF853009F42D
:1034400062CF8091E80083FD5ECF8091E80082FD2D
:103450008DCF8091E80080FF83CF9091F300809121
:10346000F2002115310519F08830910550F041E046
:10347000089709F040E08091E8008E778093E8009B
:103480006FCF44914093F10031962150310901965C
:10349000E8CF803809F049C08091E800877F8093A9
:1034A000E800809165048093F1009DCE81113DC0BC
:1034B000109168041230C8F58091E800877F8093EE
:1034C000E800109365040E943F0B112311F084E083
:1034D00005C08091E30087FDFACF81E0809364040A
:1034E00042E061EC81E00E945E0B42E061EC82E030
:1034F0000E945E0B42E261EC83E00E945E0B8091D1
:10350000640413C080916804813079F481E09330C1
:1035100009F080E0809363041092E9008091E80054
:10352000877F8093E8000E943F0B8091E80083FF33
:103530000AC08091E800877F8093E8008091EB00CB
:1035400080628093EB00AA960FB6F894DEBF0FBEA0
:10355000CDBFDF91CF911F910895CF9384E090E08C
:103560000E940B30C82F82E290E00E940B30982F0F
:103570008C2FCF910895CF93DF9300D000D0CDB79B
:10358000DEB74091290350912A0360912B0370917B
:103590002C032FB7F8948091500490915104A0917E
:1035A0005204B09153042FBF841B950BA60BB70B8D
:1035B00084369105A105B10568F10E949D146E5FE6
:1035C0007F4F8F4F9F4F69837A838B839C8380913A
:1035D0002101909122018D5E9C4F4091200150E08D
:1035E0004530510510F044E050E0BE016F5F7F4F61
:1035F0000E94603083E090E00E941E2F892B61F4CE
:103600000E94620C6093290370932A0380932B031A
:1036100090932C0381E001C080E00F900F900F90F9
:103620000F90DF91CF9108950F931F93CF93DF9366
:1036300000D000D000D0CDB7DEB78B0190E080E0A5
:103640000E941E2F892B09F07EC04091050150E099
:103650004115510511F041E050E060910601709173
:1036600007016D5E7C4FCE0106960E94603040914E
:103670000B0350910C0360910D0370910E032FB753
:10368000F8948091500490915104A0915204B0910B
:1036900053042FBF841B950BA60BB70B84369105E3
:1036A000A105B10540F484E193E00E94820A9E8165
:1036B000891709F455C081E090E00E941E2F892BE4
:1036C000A1F080E095E0E6E0F3E0D80101900D92F2
:1036D0009A95E1F726960FB6F894DEBF0FBECDBFE0
:1036E000DF91CF911F910F91089540910F0150E00C
:1036F0004630510510F045E050E0609110017091A6
:1037000011016D5E7C4FCE0101960E94603084E114
:1037100093E00E94820A9E818913D3CF0E94620C9B
:1037200060930B0370930C0380930D0390930E032F
:1037300085E0FE013196A6E0B3E001900D928A95F6
:10374000E1F781E0BFCF80E095E0E4E1F3E0DE0166
:10375000119601900D929A95E1F78111E9CFB2CFC0
:1037600081E0F2CF8F929F92AF92BF92CF92DF9281
:10377000EF92FF920F931F93CF93DF93EB0188801B
:103780009980AA80BB809FB7F894C0905004D090D5
:103790005104E0905204F09053049FBFC818D90818
:1037A000EA08FB0894E6C916D104E104F10410F418
:1037B000442311F1E82E082E000CFF089AE089023C
:1037C000F0011124E050FF4F838194818D5E9C4F66
:1037D000428150E00417150708F4A801B9010E94BE
:1037E0006030C7010E941E2F892BA1F40E94620C39
:1037F000688379838A839B8381E0DF91CF911F91D6
:103800000F91FF90EF90DF90CF90BF90AF909F907F
:103810008F90089580E0F1CF0F931F93CF93DF93A4
:1038200000D000D000D00F92CDB7DEB786E0E2E73F
:10383000F4E0DE01119601900D928A95E1F78091F6
:10384000A0038F8347E050E062E273E0CE0101966F
:103850000E94533041E0892B09F440E007E010E07A
:103860009E012F5F3F4F6DE273E084E00E94B21B28
:1038700027960FB6F894DEBF0FBECDBFDF91CF9174
:103880001F910F9108950F931F93CF93DF93EC0136
:1038900045E050E069E173E00E94533041E0892B3C
:1038A00009F440E005E010E09E016FE073E082E083
:1038B0000E94B21BDF91CF911F910F9108959091BB
:1038C00078049F70811114C08FEF980F9F708091C2
:1038D0007804807F982B909378040E94E70D4091A4
:1038E000780450E070E060E08FE090E00C944130AC
:1038F00081E0EBCF9091780492959370811116C07E
:103900008FEF980F93709295907F809178048F7CC1
:10391000982B909378040E94E70D4091780450E032
:1039200070E060E08FE090E00C94413081E0E9CFFE
:1039300069EE7EEF90E080E00E944D3060E082E032
:1039400090E00E942F3060E083E090E00E942F30F2
:103950001092F7021092F8021092F9021092FA02F5
:1039600060E084E090E00E942F3060E082E290E02E
:103970000E942F3060E085E090E00E942F3060E0F0
:1039800086E090E00E942F306FEF87E090E00E9489
:103990002F3040E050E0BA0188E090E00E944130D2
:1039A00060E08DE090E00E942F3040E050E0BA01EE
:1039B00088E190E00E94413060E087E190E00E9461
:1039C0002F3040E050E0BA018CE190E00E9441309D
:1039D00070E060E080E290E00E944D3040E050E016
:1039E000BA0188E190E00E9441301092780440E0F2
:1039F00050E0BA018FE090E00E9441300E94E70D54
:103A000040E050E0BA0183E190E00C944130CF9364
:103A1000C0913B03C2FB992790F9981799F080FB5E
:103A2000C2F9C0933B0360913A0384E090E00E94A6
:103A30002F306C2F82E290E00E942F3082E0CF91F5
:103A40000C945511CF9108951F920F920FB60F92BB
:103A500011242F933F934F935F936F937F938F9393
:103A60009F93AF93BF93CF93DF93EF93FF93D09147
:103A7000E900DF708091EC00C82FC17080FDC0E8C4
:103A80001092E9008091F000877F8093F000789495
:103A90000E94E9171092E9008091F00088608093FD
:103AA000F000CD2BCF70C093E900FF91EF91DF9133
:103AB000CF91BF91AF919F918F917F916F915F91C6
:103AC0004F913F912F910F900FBE0F901F9018951F
:103AD0001F920F920FB60F9211242F933F934F9383
:103AE0005F936F937F938F939F93AF93BF93EF9366
:103AF000FF938091E10082FF09C08091E20082FF84
:103B000005C08091E1008B7F8093E1008091DA0015
:103B100080FF24C08091D80080FF20C08091DA000F
:103B20008E7F8093DA008091D90080FF9DC080E174
:103B300089BD82E189BD09B400FEFDCF81E080939B
:103B4000640480915704811109C00E94C50A0E9433
:103B5000900B8091E20084608093E2008091E1000C
:103B600080FF17C08091E20080FF13C08091E200C7
:103B70008E7F8093E2008091E20080618093E2007A
:103B80008091D80080628093D80019BC85E0809332
:103B900064048091E10084FF2BC08091E20084FFE7
:103BA00027C080E189BD82E189BD89B5982F9170D8
:103BB00080FFFBCF8091D8008F7D8093D8008091CB
:103BC000E1008F7E8093E1008091E2008F7E809300
:103BD000E2008091E20081608093E20080916504C0
:103BE000882309F447C084E08093640480916404CE
:103BF0008091E10083FF27C08091E20083FF23C012
:103C00008091E100877F8093E10082E080936404EB
:103C1000109265048091E1008E7F8093E100809195
:103C2000E2008E7F8093E2008091E20080618093C9
:103C3000E20042E060E080E00E945E0B8091F000D4
:103C400088608093F000FF91EF91BF91AF919F91B9
:103C50008F917F916F915F914F913F912F910F9035
:103C60000FBE0F901F90189519BC1092640410920B
:103C7000570474CF8091E30087FD93E09093640430
:103C8000B5CF78941F921FB61F9211248F939F93E4
:103C9000AF93BF938091500490915104A09152042E
:103CA000B09153040196A11DB11D809350049093CF
:103CB0005104A0935204B0935304BF91AF919F91CC
:103CC0008F911F901FBE1F9018952FB7F894809169
:103CD000500490915104A0915204B09153042FBF0D
:103CE00008950F931F93CF93DF93C62FD42F022FE6
:103CF000FC0182818823A1F0609370040E94651EFC
:103D000090936F0480936E04C77081E001C0880FA8
:103D1000CA95EAF7DF91CF911F910F910C94A311EF
:103D200080917004681338C080916E0490916F0484
:103D30000E94530C883C910578F510E21D0FCD17B9
:103D4000B9F080E28C0F883040F4C77081E001C088
:103D5000880FCA95EAF70E949C11183048F481E058
:103D60009D2F977001C0880F9A95EAF70E94A311C2
:103D7000802F0E94E011802F0E94AD11183098F41E
:103D8000D77081E001C0880FDA95EAF7DF91CF9113
:103D90001F910F910C949C11C77081E001C0880F96
:103DA000CA95EAF7F3CFDF91CF911F910F91089554
:103DB0004F925F926F927F928F929F92AF92BF923B
:103DC000CF92DF92EF92FF920F931F93CF93DF93E7
:103DD000CDB7DEB72F970FB6F894DEBF0FBECDBFBD
:103DE0007C01DC0113968D919C911497892B41F0F5
:103DF0001C911196DC90812F8D218F3F09F03FC5DA
:103E00002F960FB6F894DEBF0FBECDBFDF91CF91D6
:103E10001F910F91FF90EF90DF90CF90BF90AF90E8
:103E20009F908F907F906F905F904F9008950E9429
:103E30002A10082F682F89819A810E94C510E12FCE
:103E4000F0E0B6E0DB9EE00DF11D11242CE3029FB3
:103E5000E00DF11D1124EE0FFF1FEB59FE4F0591F0
:103E60001491F801E65AFD45E830F10578F4ED5774
:103E7000FF4CD70112968C910C94E62F882331F0D9
:103E80000E94351291E089270E945F1CC801815F62
:103E90009109089708F0C1C085E0E7E6F3E0DE018C
:103EA000169601900D928A95E1F785E0FE0136960F
:103EB000DE011B9601900D928A95E1F72E813FE07D
:103EC000300F81E090E001C0880F3A95EAF7F701E2
:103ED0003281332309F49EC0822B8B8785E0FE015B
:103EE0003B96DE01119601900D928A95E1F785E0EF
:103EF000FE013196A7E6B3E001900D928A95E1F7B5
:103F00000E94BA16D70112968C91882309F4CAC46C
:103F1000109270040430BDE51B0708F0E3C00B3FAE
:103F2000ECE51E0730F4C80182509C45449708F028
:103F3000DEC00E94AD1A90933B0380933A03003198
:103F40002CE5120709F4A6C108F022C108308CE55F
:103F5000180709F48DC108F0F4C00430ACE51A0765
:103F600009F478C108F0DAC00230ECE51E0709F464
:103F70006BC180913A03826003301C4509F467C12C
:103F800060913A0310913B0384E090E00E942F304F
:103F9000612F82E290E00E942F300E94DE1767C0FE
:103FA000882309F473CF0E9435126ECF882309F459
:103FB0006DCF0E94351291E089270E947A1C66CF4E
:103FC000882309F463CF0E943512F7CF90917804CB
:103FD00080FB97F9909378040E94E70D57CF8823D0
:103FE00009F454CF90917804892F97FB87F9805872
:103FF00080937804F1CF9091780480FB96F9EACF12
:10400000882309F443CF90917804892F8F7B96FF02
:104010008064EECF8095822360CF043FFCE51F07CC
:1040200009F451C098F4093D3CE5130709F447C071
:104030000A3D8CE5180709F452C0083D9CE51907B4
:1040400009F060CF26E241EE61EE0EC0063FACE51E
:104050001A0709F440C0D8F127E245EE66EE073FA3
:10406000ECE51E0709F04ECFC7010E94711E80913A
:10407000F202877009F4C4CED70112968C9188237E
:1040800009F4BECE80913B0382FDBACE82E02F962A
:104090000FB6F894DEBF0FBECDBFDF91CF911F9159
:1040A0000F91FF90EF90DF90CF90BF90AF909F90D7
:1040B0008F907F906F905F904F900C94551127E2F6
:1040C00045EE65EED1CF26E241EE60EECDCF27E2A0
:1040D00045EE64EEC9CF26E241EE62EEC5CF28E29E
:1040E00041E0EFCF0236FDE51F0709F422CF06318C
:1040F0002CE5120709F03DC48091F5028A7A91E01F
:1041000009F490E09093910269E2811165E388E8F7
:1041100092E00E946E0C0E94F30FA9CF80913A03A7
:10412000806106302CE5120709F491C080913A03B2
:10413000886007301C4508F48AC080913A03806289
:1041400086C00C308CE5180709F49CC070F480918F
:104150003A038C600A30ACE51A0709F478C008F419
:104160008BC080913A038E7F72C080913A03877F23
:104170000E30ECE51E0709F46AC080913A038B7F8C
:104180000F301C4508F463C080913A038F7E5FC0F6
:104190000D3F2CE5120709F479C068F504318CE570
:1041A000180709F48BC080F40231ACE51A0709F452
:1041B00075C080913A038F7B03311C4508F447C0DA
:1041C00080913A03837F43C00B3FECE51E0709F45F
:1041D00045C008F049C005311C4509F0D1CE809199
:1041E0003A0382FB992790F921E0922790FB82F90C
:1041F00090FB83F92CC001303DE5130709F454C04E
:1042000088F480913B0383600F3F9CE5190749F1D7
:1042100080913B038D7F01151D4518F180913B0373
:104220008C7F1FC00330BDE51B0709F456C008F49E
:104230004EC002361D4509F0A3CE90913A03892F56
:104240008F7E94FF806103C080913A0381608093E8
:104250003A0396CE80913A038460F9CF80913B0374
:10426000816080933B038CCE80913B038260F9CFC9
:1042700080913A038064EBCF0E94DE1780913A036D
:104280008068E5CF80913A038D7FE1CF80913B0339
:104290008E7FE7CF80913A038F7DD9CF0E94DE17C2
:1042A00080913A038F77D3CF80913B03982F9095DD
:1042B00091708E7F892B90FB81F9D3CF0E94DE17FE
:1042C00090913A03892F97FB87F98058C0CF61E01E
:1042D0008EE090E00E942F3053CE60E0F9CF8091C5
:1042E000910281110FC089E2EAE8F2E020E932E0B0
:1042F0009191891303C0DF0111971C922E173F077C
:10430000B9F709CF85E3F0CF47E15DE060E27DE0FA
:104310000E94B40CACCE40E25DE067E17DE0F8CFF6
:1043200045E05DE06EE07DE0F3CF4EE05DE065E00E
:104330007DE0EECF4DEE5CE069EF7CE0E9CF49EF48
:104340005CE06DEE7CE0E4CF41EE5CE065ED7CE0AE
:10435000DFCF47EC5CE069EB7CE0DACF0E94DE1750
:104360003FEF84E39CE0315080409040E1F700C093
:1043700000000E94C31281E01CC380E01AC3812F99
:10438000902F0E949C10D82E27C3E12FEF70CE2EC5
:10439000107F19F0C29420EFC222DD20B9F0CC20AA
:1043A00069F080E2800F883010F0811009C08091A0
:1043B000F502C82AC092F5020E94F30F802F4BC06D
:1043C0008091F402C82AC092F402F6CF802F0E9496
:1043D000AD11CC2009F441C0005E083010F081100E
:1043E00004C08C2D0E94EC0F06C0C0948091F40292
:1043F000C822C092F4020E94F30F2FC0F12FFF7069
:10440000CF2E107F103219F0C29490EFC92288206D
:1044100089F021E0821609F488C0DD2009F492C0F9
:10442000992009F488C0F701858180FFC7CF8F707C
:10443000858381C020913B0322FF54C0DD2009F415
:104440004AC0CC2039F08091F502C82AC092F5020A
:104450000E94F30F80E00E94E011AA2DA850BB0B30
:10446000149710F40E947513BB20A9F08091F202FA
:1044700080FD11C0F70112828595859585950E9472
:104480007111C7010E94D81E8091F2028595859511
:1044900085950E94321185E0F701DE0111960190A9
:1044A0000D928A95E1F789819A810E949C109A81E8
:1044B000E981F0E026E0929FE00DF11D11243CE33C
:1044C000839FE00DF11D1124EE0FFF1FEB59FE4FEE
:1044D0008591949195CC80E00E94AD11CC2009F497
:1044E000BCCF7FCFDD20A1F09091F6028C2D892BDF
:1044F000911003C00E94A311B0CF31E09312FACF04
:1045000022FDABCF981709F4A8CF8093F602A5CF70
:10451000911006C00E94E60F8C2D0E949C119DCF29
:1045200081E0981609F499CFF5CFDD2031F095E0C0
:10453000991508F492CF8C2DDDCFA4E0A91508F4CD
:104540008CCFEACF992041F3F9E38F1209C02FEF06
:1045500037EE83E0215030408040E1F700C000009A
:10456000802F0E94AD1179CF812F8695869583701B
:1045700061F0813009F071CFC8019370D11002C091
:1045800090E080E00E94880C68CFC8019370D11041
:1045900002C090E080E00E949E0C5FCF812F83706C
:1045A00009F066C0D11059CF802F8295869587700B
:1045B000880F880F602F6F70462E512C712C612C44
:1045C000082E04C0440C551C661C771C0A94D2F7B4
:1045D00040E050E0BA0104FF0FC04FE050E060E05F
:1045E00070E004C0440F551F661F771F8A95D2F7ED
:1045F0004095509560957095812F8695869583702E
:10460000823019F1D8F40091F7021091F80220914C
:10461000F9023091FA02813069F04429552966295E
:104620007729CB01BA0160237123822393230E944F
:10463000921113CF402A512A622A732ACB01BA0160
:104640006429752986299729F2CF44295529662995
:1046500077290091F7021091F8022091F902309128
:10466000FA02CB01BA016027712782279327DFCF97
:104670008695DD2011F0812F8170882309F4EDCE1D
:10468000802F829586958770880F880F602F6F70B6
:10469000462E512C712C612C082E04C0440C551C44
:1046A000661C771C0A94D2F740E050E0BA0104FF80
:1046B0000FC04FE050E060E070E004C0440F551FB1
:1046C000661F771F8A95D2F7409550956095709533
:1046D000812F869586958370823019F1D8F40091E8
:1046E000360310913703209138033091390381301C
:1046F00069F04429552966297729CB01BA0160233D
:104700007123822393230E942811A7CE402A512A85
:10471000622A732ACB01BA0164297529862997294F
:10472000F2CF442955296629772900913603109143
:1047300037032091380330913903CB01BA01602748
:10474000712782279327DFCF1F70DD2029F0812F6B
:104750000E947111802FCECE802F0E949C11812F3C
:104760000E9432117ACE802F92EF891609F43FC051
:10477000981570F0A0EF8A16D1F0B1EF8B1691F07A
:10478000DD2009F46CC0911019CE812F8F7133C0D8
:10479000E3EF8E1699F1F4EF8F12F2CF80913B0385
:1047A00082FF3FC0812F8F71DD20D1F224C0DD2038
:1047B000C9F024E0291508F450CE1F7161E070E0C3
:1047C00080E090E004C0660F771F881F991F1A953C
:1047D000D2F70091360310913703209138033091BE
:1047E0003903ADCF35E0391508F437CEE6CF812F48
:1047F0008F71D110B5CF0E9471112FCE60E070E0A3
:10480000CB01DD2009F47FCF1F7161E070E080E013
:1048100090E004C0660F771F881F991F1A95D2F782
:1048200072CFDD2089F01F71812F0E94711180915C
:104830003B0382FD07C0A8E01A9FC00111248360DA
:104840008093F202812FD7CF81E00E945511B1E011
:10485000B91508F002CE82E00E945511FECD9920D4
:1048600059F0893309F07CCEEFEFF7EE23E0E15009
:10487000F0402040E1F772CE812F8F7171CF85E03B
:10488000F701DE01119601900D928A95E1F7D701AB
:1048900012962C9189819A812111C9CA0E949C107B
:1048A000082FCDCA0631BCE51B0709F418CD80914D
:1048B000F50282720B3CECE51E0709F445CDA0F52C
:1048C000063C2CE5120709F42BCDC8F4043C9CE50A
:1048D000190709F419CD08F01ECD033C1C4509F059
:1048E0006AC08091720491E08927809372041092CB
:1048F000550180917104816080937104B8CB083CAC
:10490000ECE51E0709F416CD08F40FCD093C2CE5A3
:10491000120709F414CD45ED5CE061EE7CE00A3C41
:104920001C4509F4F5CC47C00F3C9CE5190709F478
:104930009ECB88F40D3CBCE51B0709F40ACD49EB7E
:104940005CE067EC7CE00E3C1C4508F4E1CC81E0C7
:104950000E94990A8CCB073DFCE51F0728F482E0F2
:10496000013D1C45A8F383CB0E351D4509F47FCBD3
:1049700022C00B358DE5180709F4FDCC58F401155C
:10498000ACE51A0709F4EACC0F3D1C45A1F40E94DE
:10499000981C6DCB0C35EDE51E0709F4EECC0D35FA
:1049A0001D4549F480913B0382FB882780F991E003
:1049B00089270E94071DF7018281108101818823C8
:1049C00009F4DDCC812F902F0E942A10D82E682F59
:1049D000812F902F0E94C510E12FF0E026E0029F6A
:1049E000E00DF11D11243CE3D39EE00DF11D1124D7
:1049F000EE0FFF1FEB59FE4F859194910E94690EB7
:104A00008C01882ED7011296DC90129715969C90F7
:104A100092945FE095228091F2028770C1F0BD2CE4
:104A2000DD20B1F0812F807F803421F080E2800F83
:104A3000883068F080913B0382FD09C082E00E94CB
:104A400055118091F2028770BB24B3948111B12C6F
:104A5000A12EA2943FE0A322BBE0BA1508F4FDCC3E
:104A6000EA2DF0E0E557FF4C0C94E62F1F93CF930F
:104A7000DF938091BF02807FA9F48091BC028823DC
:104A800089F08091F102D091C0026091BA027091D8
:104A9000BB02A091BD02B091BE02C62FC72316E093
:104AA000D81304C0DF91CF911F91089590E0109723
:104AB00011F0CF3F19F401968770F2CF189F900143
:104AC000199F300D1124F901EF53FD4F4181471318
:104AD000F2CF40814613EFCF42814111ECCF4381A9
:104AE00054814A1B5B0B483C510528F78091BF025B
:104AF0008F7080618093BF02F901EA53FD4F80817E
:104B00008F70806180838AEB92E00E94D81EDF91D3
:104B1000CF911F910C942010AF92BF92CF92DF9251
:104B2000EF92FF920F931F93CF93DF93CDB7DEB732
:104B300061970FB6F894DEBF0FBECDBF8C0185E044
:104B4000F801DE011D9601900D928A95E1F7F801BA
:104B5000E2808AEBA82E82E0B82E6091BD027091AF
:104B6000BE026115710509F432C19091BA024091FB
:104B7000BB02892F84238F3F09F429C12081318111
:104B8000C380D480F090BC02F601E61BF70BFF2037
:104B900009F4E8C08091BF02582F507FE83CF1052E
:104BA00008F0ABC0511177C0FE2C431321C0921303
:104BB0001FC0E1101DC08F7080618093BF02C501CE
:104BC0000E94D81E8091BF02F80185838F2D6196C7
:104BD0000FB6F894DEBF0FBECDBFDF91CF911F910E
:104BE0000F91FF90EF90DF90CF90BF90AF9008951E
:104BF000CD2829F0822F83238F3F09F003C180E065
:104C0000F82FF170DF2E80FF3CC08091F1024091BF
:104C1000C00256E0841315C02D873E878D859E8582
:104C20000E948110292F22952F702230F0F024301D
:104C300018F59F70F1F0F8019581907FD1F4D12C97
:104C40001EC090E0589FF001599FF00D1124EF53C2
:104C5000FD4F6181361306C06081261303C0628157
:104C6000E6120FC001968770D5CF9F7011F0882390
:104C700031F3805E883018F3C8010E94D81EFD2CE5
:104C8000A5CFEE2009F4A2CF8091BF02816080936E
:104C9000BF02F12C9BCF431306C0921304C0F8014E
:104CA000EE2009F479C0C8010E94F310882309F1AD
:104CB000EE20F9F08091BF02803270F02091BA02AC
:104CC0003091BB0238872F831986DB86CA868C8792
:104CD000CE0107960E94D81E86E0F801AAEBB2E04A
:104CE00001900D928A95E1F70E943625FF24F394F6
:104CF0006DCFC8010E94D81EF9CF51110AC08AEBAE
:104D000092E00E94D81E86E0F50111928A95E9F79B
:104D1000C0CF43130FC092130DC0E1100BC0F801B8
:104D20008583C8010E94D81E86E0F50111928A95FC
:104D3000E9F74CCFC8010E94F3108823D1F2EE208E
:104D4000C1F28091BF02803238F22091BA023091D4
:104D5000BB023A8329831B82DD82CC828E83CE0103
:104D60000196B8CFE83CF105F8F6FE2CEE2009F2EA
:104D700043131FC092131DC08091BF0280FD10C05D
:104D8000982F907F69F0F8018583903F31F0982F3C
:104D9000907F905F8F70892B8583C8010E94D81EF9
:104DA00086E0F801AAEBB2E001900D928A95E1F756
:104DB0000DCFC8010E94F31081118ECF8091BF02E8
:104DC00081608093BF02C8010E94D81EFFCEEE20F2
:104DD00009F48FCFC8010E94F310F82E882309F43C
:104DE00088CF86E0F801AAEBB2E001900D928A9597
:104DF000E1F78091BA029091BB020E9481100E945B
:104E00003625E4CE81E08E25FBCE1F93CF93DF9332
:104E1000CDB7DEB767970FB6F894DEBF0FBECDBF34
:104E20004B8B5C8B6D8B7E8B8F8B61111092F402A0
:104E30001A8A198A85E0FE017396DE011D9601909B
:104E40000D928A95E1F786E0FE013D96DE01179608
:104E500001900D928A95E1F7CE0107960E948C256C
:104E6000882389F016E08091F1029091C0028913A5
:104E700049C067960FB6F894DEBF0FBECDBFDF9175
:104E8000CF911F91089586E0FE013796DE011196BD
:104E900001900D928A95E1F78A859B85892B11F304
:104EA0008F81988589238F3FE9F22091C00230E0FD
:104EB000C9010196877099274091F1024817190698
:104EC00071F40E94DE171092C0021092F10286E087
:104ED000EAEBF2E0DF011D928A95E9F7C3CF96E095
:104EE000929FD001939FB00D1124AF53BD4FFE018F
:104EF000319601900D929A95E1F78093C0020E943D
:104F00002010B0CF819FC00111248F539D4F0E946C
:104F10008C25882309F4ADCF8091F10290E00196B1
:104F2000877099278093F1029ECF8F929F92AF92C4
:104F3000BF92CF92DF92EF92FF920F931F93CF9386
:104F4000DF93CDB7DEB72A970FB6F894DEBF0FBE5A
:104F5000CDBF4E83052F5F83162F688779878A8799
:104F600080916E03811107C060E080E50E94D21538
:104F700081E080936E030E94AF1580E50E94562D5C
:104F80008AEB8A95F1F700C00E946E2DB82E80E062
:104F90000E94562D0E946E2D7C010E946E2D982E2F
:104FA0000E946E2D6C010E946E2DA82E0E94862DEF
:104FB0008B2D8870882E0E94862D8B2D877011F086
:104FC00010926E0381102DC0B7FE2BC080916C0330
:104FD00090916D03892B31F40E94651E90936D03AF
:104FE00080936C03F92801E880E8E816F1044CF49A
:104FF000002711270E191F090038110514F00FE7BB
:1050000010E0DA2811E880E8C816D10454F48827A3
:1050100099278C199D098038910514F08FE790E04D
:10502000182F0F83188785E0FE013696DE01119652
:1050300001900D928A95E1F729813A814B815C813B
:105040006D8170E080E090E02A960FB6F894DEBFA4
:105050000FBECDBFDF91CF911F910F91FF90EF90C9
:10506000DF90CF90BF90AF909F908F9008957F92E8
:105070008F929F92AF92BF92CF92DF92EF92FF9268
:105080000F931F93CF93DF93CDB7DEB72F970FB654
:10509000F894DEBF0FBECDBF8E010F5F1F4F8AE0B9
:1050A000D8011D928A95E9F782E3C82E81E0D82EB7
:1050B00098E3E92E91E0F92E77247394AA24A3941F
:1050C000B12C3DE3832E31E0932EF60181916F01E7
:1050D0008F3F09F444C0F894E82FE295EF70F0E0B8
:1050E00021A18F70A50102C0440F551F8A95E2F7D8
:1050F000CA01922F982B91A392A18095892382A314
:105100000E940D0E00C068E371E0F801472D409544
:10511000DB019D91BD0180819F3F09F474C0292F5F
:1051200022952F7030E0D90190962C9130E09F703D
:1051300002C0359527959A95E2F720FD64C087292E
:10514000808331968616970619F7F601319780818C
:105150008F3F11F00E940F0EB0EABA95F1F7770C6D
:10516000EC14FD0409F0B1CF4AE050E0B8018CE343
:1051700093E00E9453307C01892B41F08AE0F801D2
:10518000ACE3B3E001900D928A95E1F710914703EB
:10519000E114F104D1F181E08093FD020E94651ECB
:1051A0009093FC028093FB028091FB029091FC02A1
:1051B0000E94530C059778F0ACE3B3E0E12FF0E0E8
:1051C000E85BFC4F81E493E02D9121938A179B07C4
:1051D000D9F71092FD0281E090E0EF28D1F02F96F0
:1051E0000FB6F894DEBF0FBECDBFDF91CF911F91F8
:1051F0000F91FF90EF90DF90CF90BF90AF909F9076
:105200008F907F90089584239BCF8091FD02811120
:10521000CBCF0E945213F82EE0914703882309F464
:1052200078C06E01FBE0CF0ED11C85E0D6011D9247
:105230008A95E9F70E2F10E0085B1C4F809131032F
:105240008A30A0F544E15BE1B601C8010E940E136B
:105250008823D9F143E45CE1B601C8010E940E1332
:10526000882399F14BEB5AE1B601C8010E940E1355
:10527000882359F14CE05CE1B601C8010E940E138D
:10528000882319F1109231038091460390E045E0A4
:1052900050E0B601885B9C4F0E94533021E0209380
:1052A0000403892B49F5F12C8F2D99CF8091FE02B3
:1052B0009091FF020E94530C843F914018F6809118
:1052C0000403811112C080E08ACF809131038F3FA7
:1052D00029F08F5F809331038A30B0F20E94651EFF
:1052E0009093FF028093FE02EACF85E0F6011192CF
:1052F0008A95E9F710920403A0914603B0E0A85BF9
:10530000BC4F85E0FE013B9601900D928A95E1F736
:10531000CBCFF0E0E85BFC4F0091460310E0085B68
:105320001C4FF89485E0A4E1B3E001900D928A95BA
:10533000E1F784E193E00E94820A809313030E94C4
:105340000D0EF89485E0E9E1F3E0D80101900D92AB
:105350008A95E1F70E940D0EF894C0901E03D0903C
:105360001F03E0902003F0902103809100039091AF
:105370000103A0910203B0910303C816D906EA06FF
:10538000FB06D1F0C0920003D0920103E092020329
:10539000F09203030E94521381110EC00E94620C0E
:1053A000C61AD70AE80AF90AC0923203D092330328
:1053B000E0923403F09235030E940D0EF89486E0DB
:1053C000E2E2F3E0A2E7B4E001900D928A95E1F702
:1053D00010912803112349F08091A003811105C089
:1053E0000E94B31380E00E942A0D1093A0030E9434
:1053F0000D0E69CF1F921FB61F9211248F939F939A
:10540000AF93BF9380914F04811113C080915004DA
:1054100090915104A0915204B09153044196A11D62
:10542000B11D8093500490935104A0935204B09303
:105430005304BF91AF919F918F911F901FBE1F90FA
:105440001895CDB7DEB760970FB6F894DEBF0FBEE4
:10545000CDBF84B7877F84BF0FB6F894A89580919D
:105460006000886180936000109260000FBE80E849
:1054700090E00FB6F89480936100909361000FBEA6
:1054800085B7806885BF85B7806885BF8BE09EE063
:1054900090938702809386020E94C50A0E94900B17
:1054A0008091E20084608093E200789480916404AB
:1054B0008823A1F01091E9001F709091EC00892FD2
:1054C000817090FD80E8182B1092E9008091E8002F
:1054D00083FD0E94E9171F701093E90082E084BDEC
:1054E00093E095BD9AEF97BD80936E0010923203C2
:1054F0001092330310923403109235030E948513E7
:10550000809342010E94521381110E94112E8091BA
:105510004201811132C0FE01359686E0DF011D9205
:105520008A95E9F785E9898380EF8A8386E68B830C
:1055300084E98C8385E38D83CE010196E8E3F1E075
:105540009E01255F3F4FDC014D91CD014193A21794
:10555000B307C9F726E0EAE5F1E0DE011B9601900A
:105560000D922A95E1F7FC01A2E3B1E0CE0141964C
:1055700021912D93E817F907D9F78091420195E021
:10558000811190E09093470385E0891B8093460347
:1055900022E3E22E21E0F22EF70181917F018F3F7D
:1055A00011F00E940F0EF8E3EF16F1E0FF06A1F7ED
:1055B00098E3E92E91E0F92ED7018D917D018F3F7F
:1055C00011F00E940F0EBDE3EB16B1E0FB06A1F750
:1055D0008AE0E8E4F3E0DF01282F1D922A95E9F73D
:1055E000ECE3F3E0DF011D928A95E9F790E080E0BB
:1055F0000E941930893E9E4F11F00E94981C82E053
:1056000090E00E940B30809353030E94AD1A909358
:105610003B0380933A030E943728EFE3FCE931977C
:10562000F1F700C000000E9437280E948513E5E0D2
:105630008111E0E0F0E0E85BFC4F808180FF08C072
:105640006FEF7FEF90E080E00E944D300E94C31228
:1056500083E090E00E940B30682F70E090E080E0E3
:105660000E94921110926F038FEF9FEF9093890326
:105670008093880390938B0380938A0390938D0388
:1056800080938C0390938F0380938E039093910368
:105690008093900390939303809392039093950348
:1056A00080939403909397038093960390E080E017
:1056B0000E941930893E9E4F21F00E94981C0E9442
:1056C000941546E050E06CE170E082E794E00E94BF
:1056D000FB2F10927104809172048C7F11F40E9450
:1056E00094158FE090E00E9413306F7360937804FC
:1056F0000E945213811102C00E94142E0E940C16A7
:105700000E94E70D83E491E090934C0480934B0456
:1057100018E1E12EF12C80E4782E66246394B8E041
:10572000CB2ED12C80916404A0E1BA2E12E18530F9
:1057300009F4E7C00E94372881110E94620CA8E496
:10574000B3E0E4E5F3E0B12CA12C5A2C1D9181913A
:10575000811709F4FCC08127912C88248394982F09
:10576000982109F4EFC00E9452131821882399F060
:1057700099825A8281E0111101C080E08B830E94DE
:10578000651E8160782F9D838C8349815A816B814E
:105790008D810E940527F501EC5AFC4F80818826F7
:1057A0008082112381F086E08A9DF0018B9DF00DAF
:1057B0001124ED56FE4FE90DF11D808110E08F3F61
:1057C00011F0082F11E0A12EB12C80916F038A0DEA
:1057D0009B2D911D09975CF146018A189B08B50124
:1057E00060597C4FA40180E793E00E946030B501CE
:1057F00068587C4FA40188E793E00E946030A401C0
:10580000440F551FB501660F771F68577C4F88E816
:1058100093E00E946030B50160587C4FA40180E89D
:1058200093E00E94603088E0811B80936F03809139
:105830006F0390E0A02FB0E09D01220F331F215392
:105840003E4FAA0FBB1FBD0160537E4F41E0480F82
:10585000911708F462C080936F030E94D9140E94CC
:1058600007170E94751390915203891709F45ACFB4
:105870000E9475138093520352CF80916404843048
:1058800009F430C00E94D9148091A003811105C091
:105890000E94B31380E00E942A0D6092A0030E9430
:1058A000071710924F040FB6F894A895E092600085
:1058B0000FBE7092600083B7817F846083BF83B71F
:1058C000816083BF7894889583B78E7F83BF0FB63E
:1058D000F894A89580916000886180936000109290
:1058E00060000FBE80916304882359F00E9437281E
:1058F000E8E4F3E08191811143C023E0E235F2074F
:10590000C9F780916404853009F4B7CF0E94DE178F
:105910000E9475131092A0030DCF90E0FC01E15995
:10592000FC4FD9015C915183DB015C915187018B64
:10593000880F991FFC01E159FC4F128E118E91E0E6
:10594000842F84CF9394880C26E0921208CF8FEF97
:10595000A81AB80A9AE0A916B10409F0F6CE8FEF9A
:105960008B878C871D860E94651E8160782F9F879C
:105970008E874B855C856D858F850E9405276DCF51
:10598000B9BC19BD09B400FEFDCF8091D8008F7D50
:105990008093D8008091E00082608093E000809145
:1059A000E00081FDFCCF0E94DE17ABCF289A219A40
:1059B000229A23982B9880E58CBD089590915601EA
:1059C0009F3F09F071C08F3F09F46EC0611144C060
:1059D00010927A0490917A04423009F441C0433025
:1059E00009F442C094604130E1F141E050E04217D7
:1059F0005307E0F190917A044031510509F452C007
:105A0000C0F54230510509F446C04830510509F44B
:105A100046C09CB520917A04922B9CBD909179044C
:105A2000992319F09DB591609DBD80935601E82F93
:105A3000E295EF70F0E031A1282F2F7081E090E027
:105A400001C0880F2A95EAF7382B31A392A18095DF
:105A5000892382A381E0089590E290937A04BACFDB
:105A6000986090937A04C1CF9C60FBCF440F551F80
:105A7000BECF4034510549F04038510541F0403225
:105A8000510539F621E020937904926001C09360BA
:105A900090937A04BECF91E090937904BACF21E03D
:105AA000209379049160F4CF80E00895CF93DF9341
:105AB0008EBD0E94651EEC010DB407FE05C08EB5BB
:105AC00090E0DF91CF9108950E94651E8C1B9D0B85
:105AD0008436910588F38EEF9FEFF3CFCF93DF935A
