:100000000C941B0B0C94530B0C94530B0C94023359
:100010000C94530B0C94530B0C94530B0C94530BE8
:100020000C94530B0C94530B0C941A200C94D61F65
:100030000C942E2D0C94530B0C94530B0C94530BCB
:100040000C94530B0C94530B0C94530B0C94530BB8
:100050000C94530B0C94F3200C94530B0C94530BF3
:100060000C94530B0C94530B0C94530B0C94530B98
:100070000C94530B0C94530B0C94530B0C94530B88
:100080000C94530B0C94530B0C94530B0C94530B78
:100090000C94530B0C94530B0C94530B0C94530B68
:1000A0000C94530B0C94530B0C94530B05010980C7
:1000B000A101850319012AB700150126B700950192
:1000C00075108100C0050C0901A101850419012AE0
:1000D000A002150126A002950175108100C005013E
:1000E0000902A1010901A10005091901290815004A
:1000F0002501950875018102050109300931158135
:10010000257F95027508810609381581257F95019F
:1001100075088106050C0A38021581257F95017541
:10012000088106C0C00660FF0961A10109621500CF
:1001300026FF009520750881020963150026FF003F
:10014000952075089102C005010906A1010507194E
:10015000E029E715002501950875018102950175D3
:100160000881010507190029FF150026FF009506E3
:100170007508810005081901290595057501910289
:10018000950175039101C00000000000000000000F
:10019000000000000000000000000000000000005F
:1001A00000000000000000000000007E0F00D4FFEF
:1001B000FFFFC70000007800000000000000002AD8
:1001C0002B280000000000000000000000000000DC
:1001D000000029000000002C1E3420212224342697
:1001E00027252E362D3738271E1F20212223242590
:1001F000263333362E37381F0405060708090A0B45
:100200000C0D0E0F101112131415161718191A1BB6
:100210001C1D2F3130232D350405060708090A0B54
:100220000C0D0E0F101112131415161718191A1B96
:100230001C1D2F3130354C01048E966E773EFE7EAC
:100240005F1DB8F2664EFF5D19B0C20469542AD62C
:100250002EBFDD19B0C3E529B1E023A5A9B1C100C6
:1002600082674C1A978D795120C7068E7C7C7A76EE
:100270004FFD5930E2460E9EBEDF1D9991A0A5A10B
:10028000A9D022C6EF5C1B958990A2A7CCFB55286C
:10029000B3E44AF76C3BF46A562EDE1F9DB8D305D3
:1002A0008892A6CE1EBEDF1D99B0E246EF5C071114
:1002B0005D980B9D9497EE4E45336B44C7295627A6
:1002C00030C6A7D5F256DFB43862CBA0B6E30F84B0
:1002D000062405656F7689B577412782666582CCED
:1002E000D5E620D52717C5F803237C5F64A51DC17B
:1002F000D636CB4CD4DB66D78BB1997E6F4C36406B
:1003000006D6EBD7A2E4F495515A5496D55344D768
:100310008CE0B94068D218E9DD9A239248EE7F4319
:10032000AFEA7738848C0A72AF69F8DDF12483A3D1
:10033000F84ABFF59413DBBBD8B4B3A0FB455060BB
:100340003059123171A2D313E7FAE7CE0F63150BC0
:100350006B94BB378326059DFB4692FC0A15D10D95
:100360007392D68C1B8CB8558ACEBDFE8EFCED09DF
:1003700012839182513123FBB40C76AD7CD9B44BFE
:10038000B26714099C7F0C18BA3BD68E142AE41B62
:10039000529F2B7DE1FB6A3302FAAC5AF23E887E13
:1003A000AED1F378E805D1E3DC21F6E19ABD170E72
:1003B000D9469B8803EAF666BE0E1B5049964097C5
:1003C000F1F1E480A66EE87734BF294044C2FF4EC5
:1003D00098D39CA3322B76510409E7A9D1A632B158
:1003E0002353E247ABD6F5695C3E5FFAAE4520E5A4
:1003F000D244FF39326DFD27575CFDF0DEC1B5995F
:10040000E5F51C770175C56D5892F2B247000126DB
:10041000967A30FFB7F0EF77C18A5DDCC0D1293022
:100420001E77387A94F1B87A7EEFA4D1AC314AF2D3
:100430005D643DB2E2F00899FC70EE24A77EEE1EEA
:1004400020697D44BF8742DF883B0CDA42C904F94A
:100450004550FC838F116A72BC9995F0AC3DA73B67
:10046000CD1CE2887937115F3989950A16847AF6AE
:100470008AA428E4ED83803BB123A50310F466EA47
:10048000BB0C0FC5EC6C69C5D324ABD42AB79988D3
:100490007608A0A8957CD8386DCD5902514BF1B59E
:1004A0002B50E3B6BDD072CF9EFD6EBB44C8248AEC
:1004B00077188A1306EF977DFA81F031E6FA77ED27
:1004C0003106315B548A9F3068DBE240F84E73FAA4
:1004D000AB748B105813DCD2E678D1322E8A9F2C65
:1004E00058064827C5A95E8147894621910370A413
:1004F0003E889CDA330ACEBC8B8ECF9FD37180436B
:10050000CF6BA95183763082C56A853911501A8222
:10051000DC1E1CD57DA9719933471997B35AB1DFF9
:10052000EDA4F2E62684A2289A9EDFA66AF4D6FC01
:100530002E5B9D1A2A2768FBC183214B90E036DD94
:100540005B314255A013F7D089537199570929C5DA
:10055000F321F8372F40F3D4AF16083602FC77C5E5
:100560008B049056B9C9679A99E800D386FF972DF6
:1005700008E9B7B391BCDF45C6ED0F8C4C1EE65BB6
:100580006E3830E4AAE395DEB9E49AF5B2559A875D
:100590009BF66AB2F2779A31F47A31D11D04C07CAD
:1005A00032A29E9AF562F8278DBF51FFD3DF6437E0
:1005B0003F2A6F763A7D77069E777F5EEB3251F960
:1005C00016669A09F3B008A470964630FFDA4FE930
:1005D0001BED8DF8741F3192B3731736DB9130D653
:1005E00088556B3477877AE7EE06C61C8C190C4861
:1005F00046235E9C075CBFB47ED64F749CE2C55018
:100600008BC58B159060625729D01343A1808891C8
:100610000044C74D1986CC2F2A755AFCEB972A70D7
:10062000E378D891B04F9907A395EA2421D5DE51FC
:100630002093270A3073A8FF8A97E9A76A8E0DE8EE
:10064000F0DFECEAB46C1D392A622D3D5A8B65F857
:1006500090052E7E912C78EF8E7AC12FAC78EEAF7C
:100660002845064C26AF3BA2DBA39306B53CA5D894
:10067000EE8FAF25CC3F856848A962CC978F7F2A43
:10068000EAE0150AAD6207BD45F841D836CB4CDB30
:100690006EE63AE7DA15E9291E1210A0142C0E3D79
:1006A000F4BF394192750B257BA3CE399C1564C8E4
:1006B000FA3DEF7327FE262ECEDA6EFD718EDDFE3B
:1006C00076EEDC125C02C53A4E4E4FBFCA4015C7EB
:1006D0006E8D41F110E04F7E977F1CAE478E6BB15F
:1006E0002531B073C71B9779F980D3662230077420
:1006F0001EE4D08021D6EE6B6C4FBFF5B7D90987C9
:100700002FA914BE27D9725001D41373A6A7510282
:100710007525E1B345347DA88EEBF31649CB4F8C9C
:10072000A1B9368539755D0800AEEBF6EAD7133A04
:10073000215A5F3084522695C914F257556BB11077
:10074000C2E1BD3B51C0B7554C711226C70DF951DE
:10075000A43802057FB8F1724BBF718914F3773862
:10076000D97124F30011A1D8D46927083735C911EC
:100770009D901C0EE71CFF2D1EE892E11810957C41
:10078000E080F4964321F975216438DD9F1E9516AB
:10079000DA561D4F9A53B2E2E418CB6B1A65EB564A
:1007A000C63BE5FED8263F3A84597266A2F375FF30
:1007B000FB60B322AD3F2D6BF9EBEA057CD88F6D62
:1007C0002C989E2B93F15E46F08749297368D77F5A
:1007D000F9F0E57DDB1D7519F3C4589B1788A892C5
:1007E000E0BEBD8B1D8D9F5676ADAF29E2D9D552A7
:1007F000F6B55635573AC8E156431994D3049B6D64
:1008000035D80B5F4D198EECFA64910A72202BBC1F
:100810001A4AFE8BFDBBED1B23EAAD7282A129991A
:1008200071BDF095C103DD7BC2B23C2854D368A4EE
:1008300072C86696E0D1D87FF8D1262BF7ADBA55AD
:10084000CA15B932C3E588978E5CFB92258BBFA28F
:1008500045557AA76F8B575BCF0ECB1DFB20827758
:10086000A88CCC16CE1DFADECC0B62FECCE1B7F024
:10087000C381647340A0C24D8911753355338DE82F
:100880004AFDEA6E300BD7312CDE47E3BFF8554204
:10089000E27F59E517EF99346991B1238E20872DB6
:1008A000A8FED58AF3843AF037E4090054EE67498C
:1008B00093E48170E3904DEFFE41B7997BC183BA19
:1008C00062126F7DDE6BAFDA16F95551EEA60C2B76
:1008D00002A3FD8DFB3017E46FDF3671C4CA872594
:1008E00048B047ECEAB4BFA54D9B9F0293C4E3E434
:1008F000E8422D6881150AEB845BD6A874FB7D1D48
:10090000CB2CDA462A7662CEBC5C9E8BE7CFBE78D3
:10091000F57CEBB33A9CAA6FCC72D159F21123D675
:100920003F48D1B7CEB0BFCBEA80DE57D45E972F19
:1009300075D1508E802C6679BF724BBD8A816CD385
:10094000E101DCD21526C536DA2C1AC02794EDB7A2
:100950009B850B5E8097C5EC4FEC885D5007354753
:10096000DC0B3B3DDD60AFA85D813824255D5C1567
:10097000D1DEB3ABEC0569EF83ED5754B864641175
:10098000163269DA9F2D7F36BB445A34E87FBF03A5
:10099000EB007F59682279CF736C2C29A7A15F38AF
:1009A000A11DF02053E01A6314587110AA080C3EE0
:1009B000161A6022827FBAA443A0D0AC1BD56B6408
:1009C000B51493319E5350D05766EE5A4FFB032A0D
:1009D000695876F183F74EBA8C4206605D6DCE6041
:1009E00088AEA4C3F103A54B98A1FF67E1ACA2B800
:1009F00062D76FA031B4D277AF211006C69AFF1D1F
:100A000009170E5FF1AA54344B458A8763A6DCF9B7
:100A1000243067C6B2D6613369EE50615728E77E4D
:100A2000EEEC3A5A734EA88DE418EAEC4164C8E241
:100A3000E866B62DB6FB6A6C16B3DD4643B97300A3
:100A40006A71ED4E9D251AC33C4A9515993581145E
:100A500002D6989BECD8233B8429AF0C9983A69AA5
:100A6000344FFAE8D03C4BD0FBB668B89E8FCDF738
:100A7000602D7A22E57DAB651B95A7A87FB67747E9
:100A80007B5F8B1272D0D491EFDE19503CA78BC4E0
:100A9000A9B323CB76E681F0C1048FA3B8545B974A
:100AA000AC19FF3F55272FE01D429B57FC4B4E0FC3
:100AB000CE98A9435703BDE7C894DF6E367332B4AE
:100AC000EF2E857A6EFC6C188275359007F3E49FE3
:100AD0003EDC68F3B5F31980920699A2E86FFF2E09
:100AE0007FAE42A45FFBD40E812BC304FF2BB374F3
:100AF0004E365B9C1500C6472BE88B3DF19C039A54
:100B0000587F9B9CBF854979352E567B41143947C8
:100B10008326AA078998111B86E7737AD87D7861A6
:100B200053E979F5368D449284F91350583BA46A01
:100B30003665498E3C0EF16FD284C47E8E3F39AE4D
:100B40007C84F163378E3CCC3E448145F14BB9ED5A
:100B50006B365DBB20601A0FA3AA55773AA9AE3752
:100B60004DBAB8866BBC0850F6CCA4BD1D4072A52A
:100B700086FAE210AE3D584B97F34374A99EEB21E1
:100B8000B701A4869397EE2F4F3B86A1416F412674
:100B900090785C7F30384B3FAAECED5C6F0EAD4334
:100BA00087FD9335E601EF412690999EFB195BADD9
:100BB000D2918AE046AF65FA4F84C1A12DCF458B13
:100BC000D38550557CF96788D44EE9D76B6154A121
:100BD000A4A6A2C2BF309C409F5FD7692B24825E2F
:100BE000D9D6A712541AF7559F7650A99584E66B6B
:100BF0006DB59654D6CDB3A19B46A7944DC494B47D
:100C000098E3E1E234D533160754CDB77753DB4F81
:100C10004D469DE9D49C8A36B6B838266C0EFF9CAA
:100C20001B438B80CCB93DDAC7F18AF26DB8D7741B
:100C30002F7E1EB7D34AB4ACFC79486CBC96B694F0
:100C400046572DB0A3FC1EB95260852D41D04301FB
:100C50001E1CD57DFCF3960DC7CB2A299A93DD88FF
:100C60002D375DAAFB4968A09C50867F685657F9CE
:100C7000791839D4E001843361CAA5D2D6E4C98A8F
:100C80004A23444EBCF0DC24A1A0C4E2073C10C4BB
:100C9000B5254B6563F480E7CF61B1718221872C64
:100CA000F59100320CECA9B59A7485E3368F764F36
:100CB0009C6DCEBCAD0A4BED7604CBC3B9339E011F
:100CC0009396697DC5A245799B045C8409ED8843B0
:100CD000C7AB931426A140B5CE4EBF2A42853E2C09
:100CE0003B54E8121F0E9759B22789FAF2DF8E683B
:100CF00059DC06BCB6850D0622ECB1CBE504E63D19
:100D0000B3B04173083F3C588663EB50EE1D2C375F
:100D100074A9D318A3476E9354AD0A5DB82A555DE4
:100D200078F6EEBE8E3C7669B940C234EC2AB9ED55
:100D30007E20E48D0038C7E68F44A886CEEB2AE9F2
:100D400090F14CDF32FB731B6D921E95FEB4DB6598
:100D5000DF4D23548948BF4A2E70D6D762B4332959
:100D6000B13A334C236DA676A5216348E6905DED3C
:100D700090950B7A84BEB80D5E630C62264C145AB3
:100D8000B3AC23A474A76F333005600142A028B729
:100D9000EE1938F164808243E141271F1F90547A95
:100DA000D5232ED13DCB28BA587FDC7C9124E9286D
:100DB00051836EC5562142EDA05622A140806BA8FA
:100DC000F794CA136B0C39D9FDE9F36FA69EFC703A
:100DD0008AB3BC593C1E1D6CF97CAFF9887195EB48
:100DE0005700BD9F8C4FE12483C522EAFDD30CE25E
:100DF00017187C6A4CDE77B4539B4C81CD2360AAD4
:100E00000E25739C02793230DF74DF7519F4A51456
:100E10005CF77AA8A591847C6003063BCD50B62789
:100E20009CFEB1DDCCD3B05924B2CAE21C81229D14
:100E3000078F8EB9BE4EFAFC3965BABF9D12375E78
:100E4000977EF389F55DF5E3098C62B5209D0C531F
:100E50008A681BD28F75175DD4E5DA756219146A3A
:100E6000262DEBF8AF37F06CA455B1BCE233C09A35
:100E7000CAB011494F689B3B6B3CCC13F6C78561E8
:100E80006842AEBBDDCD4516291DEADBC803943CA4
:100E9000EE4F8211C3EC28BD970599DED7BB5E22C9
:100EA0001FD4EB64D992D985B76A056AE42441F16D
:100EB000CDF0D83FF89E0ECD0B7A706B5A750A6A4A
:100EC0003388EC17750870102F24CFC4E9420061F5
:100ED00094CA1F3A7606FAD24881F077600345D962
:100EE00061F4A46F3DD930C3046B542AB7EC3BF4D2
:100EF0004BF5685226CEFF5D1991A0A3A5A9B1E0DC
:100F000023C40A774DF95120A3A5A9B1C100828657
:100F10008E7F5D1991A0A3C4EB540B756852078CAA
:100F20009A978D79706246EF5C1B95897141E1213A
:100F3000A1A1A1C002674C1AB6CFFD785324ABB56E
:100F4000C9F16023A5C812876D5813858892876DF3
:100F50005832C70C9A97ACDA36EE5E3EDF1DB8F217
:100F6000662FBDF87247ED5813858892878C7B55A4
:100F70000990A2C6EF3DF85324ABD42AB7EC5A36F9
:100F8000EE5E3EDF3CFA764FFD5930E246EF3DF82B
:100F900053056931C10082868E7F5D19B0E227CC8E
:100FA000FB744B148B948B756833C50892878C9AAD
:100FB000B6CF1CBAD70D98B2E62FDC1B95897160AD
:100FC00023C40A968F9CBAF66E3FFC5B15A8D22606
:100FD000AFBDF872662FDC1BB4CB148B94AAB7CDCF
:100FE000F951018082866F3DD930E227CCFB744BEA
:100FF00014AAB7CDF97043046B35C9F16023A5C8B5
:10100000F3450892876D5832E62FBDF872664E1E82
:10101000BEFE7E7E7E5F1D9991A0A3C40A774D1807
:1010200093A4ABD40B754910A2C6EF3DF85324AB83
:10103000B5E833E44A16AEDE1FBCDB15A8B3C5081D
:101040007345E931C1E121A1A1A1C002866F5C3ADB
:10105000D70D9893A4CA16AEDE1F9D99B0E246EF55
:101060003DF872470C9AB6CFFD5911A0A3A5C8F35D
:10107000450892876D39F043048A96AEDE3EDF1D47
:101080009991A0C2066F3DF872470C9A978D98937C
:1010900085887345E931E023A5A9D003848A96AEFB
:1010A000DE1FBCDB15A8D226CEFF5D1991818082A0
:1010B000672DD813A4ABD40B94AAB7CDF95120A3B4
:1010C000A5C8F345E95022C6EF5C3AD70D98938541
:1010D0008873644AF74DF95120A3C40A96AEDE3EE8
:1010E000FE7E7E7E5F3CFA764FFD7872662FBDD91C
:1010F00030C3E54812878C7B5528D2078C9A97AC71
:10110000DA178D795120A3C4EB540B948B94AAD693
:101110002EBFFC5B15A8D226AFDC1BB4EA37EC3B34
:10112000F46A37CD1893856931C1E140E325C812CF
:10113000878C9AB6CFFD5911A0C2068E7F5D38F21A
:10114000470C7B746A37EC5A36EE3FFC7A764F1CBC
:101150009B95897141006344EB542AD60F9CBAD702
:101160000D9893856931C10082868E9EBEDF3CFA60
:10117000572CDA36EE3FFC5B158971410082868E72
:101180007F5D38F247ED5813A4CAF74DF95101803D
:101190006344EB542AD62EBFDD1991A0A3A5A9B1B3
:1011A000E042068E7F5D1991A0A3C40A968F7D78D8
:1011B00072470C7B746A562EDE1FBCFA570D7951AC
:1011C000016121A1C0E325A9B1C1E14002674C1A28
:1011D000978D9893A4ABD42AD60F9C9BB4CB14AA1A
:1011E000B7CDF95120A3C4EB35C9F16042068E7F1B
:1011F0007C7A766E3FFC7A766E5E3EFE7E5F3CDBEE
:1012000015897141E121C0E344EB542AB7CDF9704F
:101210006227ADD832C70C7B744B14AAB7EC3BD510
:1012200028D2076D39D120C2E74C1A978D98B2C7E2
:101230000C5928F39B000101010101010101010288
:101240000202020202020202030303030303030376
:101250000404040404040405050505050606060641
:1012600006070707070708080808090909090A0AFD
:101270000A0B0B0B0C0C0C0D0D0D0E0E0E0F0F0FA1
:10128000101011111112121313141415151616172C
:1012900017181819191A1A1B1B1C1D1D1E1E1F209A
:1012A00020212222232424252626272829292A2BE7
:1012B0002C2D2D2E2F30313232333435363738390C
:1012C0003A3B3C3D3E3F4041424344454647484906
:1012D0004A4C4D4E4F50515354555658595A5B5DD8
:1012E0005E5F616264656668696B6C6D6F70727376
:1012F0007577787A7B7D7E8082838587888A8C8EDD
:101300008F91939596989A9C9EA0A2A3A5A7A9AB0E
:10131000ADAFB1B3B5B7BABCBEC0C2C4C6C9CBCD00
:10132000CFD1D4D6D8DBDDDFE2E4E7E9EBEEF0F3B2
:10133000F5F8FAFDFF14001A000800150017000464
:10134000681664076109620A001D441B0006001943
:101350000005002B41000029432C4200001300121D
:10136000000C0018001C0034780F640E710D720B15
:101370000038443700360010001100284600002ACB
:10138000450000000000000000000000000000E335
:1013900000E200E000E100000000000000000000AA
:1013A00000000001000000000000000000450042B5
:1013B0000041004000460044003F003E003D004721
:1013C0000043003C003B003A0048000000000000E1
:1013D000000000000000000000000000000000E32A
:1013E00000E200E000E1000000000000000000005A
:1013F00000000000000000000001000000000000EC
:10140000000000000000004F005200510050003961
:10141000004D004B004E004A004900280000002A01
:1014200000000000000000C45CC25CC35C0000ACB3
:1014300000AA00A800A900AB00000000000000DE28
:101440005C005CAD0000000100AE0000000000C3C5
:101450005CC25CC45C0000AB00A900A800AA00ACA0
:1014600000000000000000DE5C005CAD000000AE8B
:101470000000000000000000000000805F825FE3C9
:1014800000E200E000E10000000100865F845FDE12
:101490005C005CF6000000F500F4000000000000B5
:1014A000000000805F825FE300E200E000E10000F6
:1014B000000100865F845FDE5C005CF6000000F4E3
:1014C00000000000002F002400250026003000331B
:1014D000002100220023002E0035001E001F0020E6
:1014E0000031002D00000037002700000000000040
:1014F00000000000000000E300E200E000E1000066
:1015000000000000000000000000000000000001DA
:1015100000000000002F02240225022602300233C0
:10152000022102220223022E0235021E021F022085
:101530000231022D020000260227020000000000F6
:1015400000000000000000E300E200E000E1000015
:10155000000000000000000000000001000000008A
:10156000000000000009027400040100A0FA090450
:1015700000000103010100092111010001224000C6
:1015800007058103080001090401000203000000AF
:101590000921110100012222000705830320000117
:1015A00007050403200001090402000103010200F1
:1015B00009211101000122470007058203080001EB
:1015C00009040300010300000009211101000122A8
:1015D000320007058503200001120100020000000F
:1015E00008F8A832180100010200011E0343006838
:1015F00000610072007900620064006900730020DD
:10160000004E0061006E006F000000240342006184
:10161000007300740061007200640020004B0065DC
:1016200000790062006F00610072006400730000C6
:1016300000040309040011241FBECFEFDAE0DEBF6F
:10164000CDBF04B603FE18C08091ED039091EE0368
:10165000A091EF03B091F0038730904BA740B04BBF
:1016600059F41092ED031092EE031092EF031092D2
:10167000F003E0E0F8E3099512E0A0E0B1E0E8EE65
:10168000F9E602C005900D92AE33B107D9F723E019
:10169000AEE3B2E001C01D92AD3EB207E1F70E9499
:1016A000552D0C94C1340C9400009091E303937079
:1016B00061F081110BC094609093E30310925C0180
:1016C0008091E20381608093E2030895833010F0FB
:1016D0009860F2CF880F880F982BEECF9091E3039C
:1016E000937071F08093E4036093E503413408F054
:1016F00040E44093E6038091E20381608093E2033B
:101700000895E8EDF0E080818E7F80831092E20002
:101710001092DA001092E100A0EEB0E08C918160AE
:101720008C9380818F77808319BCA7EDB0E08C917A
:101730008E7F8C9380818F7E80831092C803089562
:101740002091E4003091E50095E6A9012091EC009C
:10175000822F817020FF06C08091E80080FF06C0C4
:1017600080E008952091E80022FD1AC08091D50301
:10177000882389F0853089F08091EB0085FD0FC0CA
:101780002091E4003091E50042175307F9F291509F
:10179000E1F684E0089582E0089583E0089581E011
:1017A0000895EF92FF920F931F93CF937C018B01CB
:1017B0000E94A00BC82F811117C08091E80085FD01
:1017C0000BC08091E8008E778093E8000E94A00B08
:1017D000882399F3C82F08C0F70181917F01809376
:1017E000F1000150110949F78C2FCF911F910F91F2
:1017F000FF90EF9008958091D70387FF13C08091E9
:10180000E80082FF06C08091E8008B778093E800B3
:1018100004C08091D5038111F2CF08958091D50342
:101820008823D9F38091E80080FFF8CF8091E80009
:101830008E77ECCF982F9093E900242F762F50E0ED
:10184000891731F07091EC002091ED005091F0007B
:1018500021FD07C09F5F973071F78093E90081E019
:1018600008953091EB003E7F3093EB003091ED0016
:101870003D7F3093ED003091EB0031603093EB0011
:101880007093EC002093ED005093F0002091EE0057
:1018900027FDE0CF80E00895CF92DF92EF92FF9294
:1018A0000F931F93CF93DF93C8EDD0E088818F7E95
:1018B0008883E7EDF0E080818160808384E082BFEF
:1018C00081E08093C80388818E7F888302EE10E0D8
:1018D000F80110821092DA0081EEC82ED12CF601A8
:1018E000108288818F778883888180688883888147
:1018F0008F7D888319BC1092D5031092D603109265
:10190000D4031092D30390EEE92EF12CF7018081DD
:101910008B7F808388818160888342E060E080E003
:101920000E941A0CF60180818E7F8083F8018081ED
:1019300081608083808188608083F70180818E7FD1
:101940008083888180618883DF91CF911F910F917F
:10195000FF90EF90DF90CF900895FC018091DD0320
:101960009091DE0386179707A0F06115710529F4A1
:101970009091E8009E779093E80090E061157105E2
:1019800051F4911108C08091E80082FF34C080E0DA
:101990000895BC01F2CF8091D5038823C1F1853031
:1019A000C1F18091E80083FD30C08091E80082FDA4
:1019B000EACF8091E80080FFE1CF8091F300209191
:1019C000F200382F6115710519F02830310558F0F3
:1019D00091E02830310509F090E02091E8002E7761
:1019E0002093E800CBCF81918093F1006150710981
:1019F0002F5F3F4FE7CF8091D503882341F085309B
:101A000041F08091E80083FFBECF81E0089582E03D
:101A1000089583E0089508958091CA030895CF92B0
:101A2000DF92EF92FF922FB7F894C090C103D0904D
:101A3000C203E090C303F090C4032FBFA701960137
:101A4000261B370B480B590BCA01B901FF90EF90C9
:101A5000DF90CF9008959C014FB7F8948091C10317
:101A60009091C203A091C303B091C4034FBF821BE6
:101A7000930B08952FB7F8946091C1037091C2033E
:101A80008091C3039091C4032FBF08959C01FC0172
:101A900032969FEF80E04191461751F09F3F19F435
:101AA000411101C0982F8F5F8630A9F79F3F09F43D
:101AB0000895290F311D97FD3A95F9016283089524
:101AC0002091BE033091BF032817390771F090931E
:101AD000BF038093BE03E091BC03F091BD03309738
:101AE00021F00084F185E02D099408952091BA0336
:101AF0003091BB032817390771F09093BB03809393
:101B0000BA03E091BC03F091BD03309721F0068049
:101B1000F781E02D09940895FC01680F791F8FEF7C
:101B200091E32191822728E030E087FF09C0880FE8
:101B3000892721503109C9F7E617F70791F708956A
:101B4000880FF7CFFA01811101C0FB010994E3EE80
:101B5000F3E0248130E1231B08F420E0248380910A
:101B6000E20381608093E2030895E3EEF3E02481D1
:101B700030E1230F08F42FEF24838091E20381608A
:101B80008093E2030895E3EEF3E0438120E1421BFA
:101B900008F440E08181628190E00C946E0BE3EEEA
:101BA000F3E0438120E1420F08F44FEF818162812D
:101BB00090E00C946E0BE3EEF3E0628120E1621B97
:101BC00008F460E08181438190E00C946E0BE3EEB9
:101BD000F3E0628120E1620F08F46FEF81814381BD
:101BE00090E00C946E0BE3EEF3E08181438162811F
:101BF0008850990B0C946E0BE3EEF3E0818190E03A
:101C00004381628108960C946E0B8091E303869564
:101C10008695815009F482E00C94550B8091E30382
:101C2000869586958F5F833008F081E00C94550B84
:101C3000809357018091E3038370809356010E9443
:101C4000C91183E080935C010895FF920F931F9365
:101C5000CF93DF93182F062FF42ED0E0C0E02F2D66
:101C6000402F612FCE010E946C122196C332D10504
:101C7000B1F7DF91CF911F910F91FF900895AF922F
:101C8000BF92CF92DF92FF920F931F93CF93DF9378
:101C9000362F472FE82FF0E0EB5CFD4E71110FC09F
:101CA000E4918E2F2E2F6E2F722FDF91CF911F91E7
:101CB0000F91FF90DF90CF90BF90AF900895C72F06
:101CC000D0E02491F22E022F10E056E0659FC00173
:101CD0001124EFEFF0E0BF010E941E34832F90E04B
:101CE000880F991F35E5369FD001379FB00D11241D
:101CF0008A1B9B0B982F990F980F6F01CC1ADD0A46
:101D0000C09ED001C19EB00DD09EB00D11248B2F6E
:101D1000499FA0011124452F55276F01C41AD50AE8
:101D2000C09EA001C19E500DD09E500D11245F0198
:101D3000A91AB108AC9E6001AD9ED00CBC9ED00C1F
:101D40001124CD2CDD24EC19FD09E09FE001E19F79
:101D5000D00DF09FD00D1124ED2F62307105A1F050
:101D600050F46115710509F49ECF6130710581F061
:101D7000EB2F852F98CF6430710569F080F06630C5
:101D8000710509F490CFF4CFE22F2B2F8D2F8BCF3D
:101D9000E22F252F88CFEB2F822F2D2F84CF2B2FB3
:101DA0008F2DE52F80CF80E0089578940895F894E2
:101DB000E82FE295EF70F0E031A1282F2F7081E03D
:101DC00090E001C0880F2A95EAF7982F9095932309
:101DD00091A392A1892B82A30C94D50E9091EF022E
:101DE00092FF06C0282F28712830F9F4877F84607D
:101DF00093FF06C0282F28712831F1F4877E846173
:101E00002091F00220FF06C0382F38713830D9F405
:101E1000877F816021FF06C0282F28712831D1F4E7
:101E2000877E816194FD877E0895282F2471243058
:101E3000F9F68B7F8860DCCF282F2471243101F7DD
:101E40008B7E8861DDCF382F3171313019F78E7F6D
:101E50008860E0CF282F2171213121F78E7E8861A3
:101E6000E1CFCF93DF93EC018238910581F1B0F59A
:101E70008133910509F491C020F58932910509F467
:101E800085C08A9709F490C0C11521E5D20708F0F2
:101E9000AAC0C11530E5D30708F0F2C0CF3BD10589
:101EA00008F089C0C83AD10508F0DFC0C53AD105AD
:101EB00008F0D3C0C430D105F8F4C130D105E1F049
:101EC00040C08533910509F45AC0C997E9F680915D
:101ED000EF02837089F0C0EED0E00EC0833E910522
:101EE00099F170F4803E910501F1823E910561F611
:101EF0008091EF0282FD21C0CE01DF91CF91089544
:101F0000863E910561F1873E910571F1843E910510
:101F100009F0BACF8091F00281FFEECF8091EF02FD
:101F2000C7EED0E084FD0DC0E7CF8091EF0280FDC9
:101F3000F7C09091F00290FFDFCFC3EED0E084FFB6
:101F4000DBCFD0E0C0E0D8CF8091EF0282FDEBC0C4
:101F50009091F00290FDBFCF84FFCECFF2CF809161
:101F6000EF0283FDDDCFC8CF8091EF0283FDDEC09D
:101F70009091F00291FFF0CFC4EED0E0BDCF809100
:101F8000EF0285FFB9CFC9E2D0E0B6CF8091EF0272
:101F900085FFB2CFC5E3D0E0AFCF8091EF0286FFDF
:101FA000ABCFCAE2D0E0A8CF8091EF0286FFA4CFEA
:101FB000C1E3D0E0A1CFC11540E2D40760F4C11560
:101FC00081E0D80708F098CFCE01815E910907978C
:101FD00008F492CFB6CFC11590E4D90708F4B1CF79
:101FE000DF70D06A89CFC11524E5D20778F4C11516
:101FF00033E5D30708F072C0C11542E5D40708F0F5
:102000005CC0DC2FCC27C16FD06A76CFC1158AE5C2
:10201000D80778F4C11599E5D90708F073C0C11540
:1020200028E5D20708F48DCFDC2FCC27C06FD06A0B
:1020300063CFCE0190568115904208F082CF8D2F4C
:102040008F710E94EE0E90E0982F882788279F714D
:102050009C012C2BE901D0624FCFC55AD0E0CA5960
:10206000DE4FC881D0E0D06447CFC85AD0E0CC0F53
:10207000DD1FC759DE4F0990D881C02DD4643CCFF5
:10208000CE0164E0969587956A95E1F783702C2FD1
:1020900026952695237040E2249F90011124382B29
:1020A0008C2F8370C1E0D0E002C0CC0FDD1F8A9579
:1020B000E2F7C22BD32BDC681FCFCE0183709927A8
:1020C00021E030E002C0220F331F8A95E2F7C69567
:1020D000C69580E2C89FE0011124EBCFCE0183704A
:1020E000992721E030E002C0220F331F8A95E2F7E2
:1020F000C695C69590E2C99FE0011124C22BD32B4F
:10210000DA68FACE8C2F8F700E94EE0E34E0D695EE
:10211000C7953A95E1F7CF709C2FEC01D069ECCED2
:10212000C9E3D0E0E9CEC2EED0E0E6CEC6EED0E024
:10213000E3CE20918F0290915E0256E0291302C0F7
:1021400080E0089530E0529FF001539FF00D11247C
:10215000E15AFD4F7181761306C07081781303C078
:102160007281741304C02F5F3F4F2770E7CF81E067
:10217000089580918F0290915E02981301C0089596
:102180008F5F8770FACFE92FEE0FEE0F9E0F890F4A
:10219000982F977086958695869523E0829FF0010B
:1021A0001124E75BFD4F50E040E080E0219130E0FA
:1021B000092E02C0369527950A94E2F7217033273D
:1021C000042E01C0220F0A94EAF7822B4F5F5F4F63
:1021D0004330510559F70895E92FEE0FEE0F9E0F8A
:1021E000890F982F977041E001C0440F9A95EAF744
:1021F00086958695869593E0899FF0011124E75B8B
:10220000FD4F30E020E070E05191DF011197CB01EC
:10221000022E02C0969587950A94E2F78170819507
:102220008527842385278C932F5F3F4F23303105EB
:1022300059F70895809199020E94EE0E982F92729C
:1022400081E009F480E008958093C5037093C7038B
:102250006093C6038091D503843001F585E08093B7
:10226000E9008FEF9091E800815095FD06C095ED53
:102270009A95F1F700008111F5CF8091E80085FF74
:102280000DC050E040E063E070E085EC93E00E9418
:10229000D10B8091E8008E778093E8000895BC010F
:1022A00084E00C942411BC0183E00C9424119C0163
:1022B00082E08093E9009FEF8091E800915085FDD6
:1022C00006C085ED8A95F1F700009111F5CF809158
:1022D000E80085FF0CC050E040E065E070E0C90117
:1022E0000E94D10B8091E8008E778093E8000895DA
:1022F000CF93DF93EC0181E08093E9008FEF909121
:10230000E800815095FD06C095ED9A95F1F7000023
:102310008111F5CF8091E80085FF14C050E040E0C6
:1023200068E070E0CE010E94D10B8091E8008E77CA
:102330008093E80088E0FE01ABECB3E001900D92E1
:102340008A95E1F7DF91CF91089581E08093E000D5
:1023500080E28093D8001092C9008FE19EE401973B
:10236000F1F700C0000087E090EBDC018093ED0303
:102370009093EE03A093EF03B093F00388E19CE009
:102380000FB6F894A895809360000FBE90936000FC
:10239000FFCF539A3BB1377F2BB128604FB7F894EA
:1023A00081E593E0FC015191CF0168E02BB9000079
:1023B00000C057FF3BB9550F000000C000C000C06F
:1023C0003BB900C06A9591F7F3E08A3B9F0751F74C
:1023D0004FBF8FE594E00197F1F700C0000008952A
:1023E0009F92AF92BF92CF92DF92EF92FF920F93A4
:1023F0001F93CF93DF937C015B016A018091E00220
:1024000001E010E08A3010F40AE010E0C1E0D0E012
:10241000F894B501C701F6010995982E0E94D50ED2
:10242000911004C021960C171D076CF4892DDF91C3
:10243000CF911F910F91FF90EF90DF90CF90BF90C1
:10244000AF909F900895CC9F9001CD9F300D300D9F
:10245000112490E080E045E34A95F1F700000196F1
:1024600082179307C1F7D4CF8091A902811110C0C0
:102470008091D80080618093D8008AE18A95F1F735
:1024800000C08091D90080FF0AC081E08093A9023A
:1024900081E09091A902913009F080E0089582E0F6
:1024A0008093A9020E94810B1092D503F1CF0E9464
:1024B0003412882351F0E091BC03F091BD033097B2
:1024C00021F00190F081E02D099480E008950E94B0
:1024D000341291E089270895FF920F931F93CF93B1
:1024E000DF93EC01F62E042F122F0E946712811148
:1024F0000FC0C231D1057CF06297FE01EE0FFF1FC5
:10250000EC0FFD1FEF5AFC4FF1820083128303C0D2
:10251000C231D10594F3DF91CF911F910F91FF90BC
:102520000895DF92EF92FF920F931F93CF93DF9363
:10253000082F80915701801324C09091E30393707A
:102540002091560130E081E09217130609F480E0F3
:10255000817080935A018091E803909159019817F6
:1025600039F08093590140E060E080E00E94250E40
:10257000013099F0002339F0023009F468C080E09E
:102580003BC081E0E5CF80915A018823A9F140E06A
:1025900060E080E00E94250EF2CFC091580187E0F4
:1025A000C89FC02D112417E01C0F143208F013E24D
:1025B0000E946712882319F0133108F012E10E947B
:1025C0006712811103C0C23108F4C2E16091E403D3
:1025D0007091E5038091E6030E943F0EF62EE72EF0
:1025E000D82ED0E0C11718F10E946712882309F491
:1025F0007DC081E0123118F6909158019F5F909351
:10260000580181110CC082E080935C0180915A01D5
:10261000811105C0011103C083E080935C01DF914B
:10262000CF911F910F91FF90EF90DF900895FE01E1
:10263000E95FFD4F808190915901892331F02D2D63
:102640004F2D6E2DCE010E946C122196CBCFC091E2
:10265000580187E0C89FC02D112417E01C0F1432C9
:1026600008F013E20E946712882319F0133108F072
:1026700012E10E946712811103C0C23108F4C2E165
:102680002091E7032695269531E0230F08F42FEFDC
:1026900040914C0350914D0390E080E0429F812D8A
:1026A000529F800D911D1124F82ED0E0C11708F023
:1026B0009BCFFE01E95FFD4F8081909159018923F5
:1026C00099F07091E503FE01EE0FFF1FE756FE4FF4
:1026D00060A56F198091E6030E943F0E462F282FB8
:1026E000672FCE010E946C122196E0CF81E0133259
:1026F00008F482CF44CFCF93DF93EC010E9467129E
:10270000811105C0CE01DF91CF910C944D16D0936D
:102710001B03C0931A03DF91CF9108958091EA03C0
:1027200086FF04C084E690E00C947B1387FF09C009
:102730008295837024E6829FC001112488539F4FA5
:10274000F3CF8F7028EC829FC001112480579E4FD9
:10275000EBCF0F931F930E943412882321F01F9117
:102760000F910C943A0D0E943A0D0091E1021091E4
:10277000E2022091E3023091E402600F711F821F98
:10278000931F1F910F910895CF93DF93C7E5D2E078
:1027900060E0CE010E9487342196C11584E0D807FD
:1027A000B9F7DF91CF9108956F927F928F929F92A8
:1027B000AF92BF92CF92DF92EF92FF920F931F934F
:1027C000CF93DF9385E3C82E83E1D82E91E8E92EDD
:1027D000F12CE701C055D10936011BC0F5018590E8
:1027E0009490692DC8010E948734682DC801019614
:1027F0000E94873482E0A80EB11C0E5F1F4FC017E5
:10280000D10761F78AE0680E711C2A96CE15DF05A4
:1028100029F08E010A5011095301E0CF7E0180E5B5
:10282000E80EF11C80E5C80ED11C81EBE81682E0B1
:10283000F80679F6DF91CF911F910F91FF90EF90FD
:10284000DF90CF90BF90AF909F908F907F906F90D0
:102850000895CF93C82F6FEF811162E283E290E079
:102860000E9487346FEFC11162E084E290E00E9421
:1028700087346FEFC11164E185E290E0CF910C9451
:10288000873480E00E94291460E086E290E00E9494
:1028900087340E94D4130E94C41381E00C9429143D
:1028A0000F931F93CF93DF93C42FD0E0CC0FDD1F86
:1028B0002AE0629FC00DD11D112430E5839FC00D19
:1028C000D11D1124CE0187960E946334082F10E099
:1028D000102F0027CE0188960E9463349801282B80
:1028E000C901DF91CF911F910F910895462F873035
:1028F00038F4783028F4653018F4672F0C945014AD
:1029000090E080E00895CF92DF92FF920F931F93A3
:10291000CF93DF936C010091E90380919A02082B19
:10292000C7E0D0E010E0FC2EC8010C2E02C0959547
:1029300087950A94E2F780FD0CC02197A0F7F12C4F
:102940008F2DDF91CF911F910F91FF90DF90CF904E
:102950000895B6018C2F0E9476140E94310F0197C2
:1029600061F3EECFCF93DF93EC010E948314BE019D
:102970000E947614DF91CF910C94310FFC0180817D
:1029800091810E94B21492959F70963091F058F404
:10299000925F9F70923058F4803F19F030F4883E77
:1029A00030F481E008959A5FF4CF843FD1F380E062
:1029B0000895883EB0F3813FD1F7F3CF83E290E0F2
:1029C0000E946334823289F484E290E00E9463348E
:1029D000823059F485E290E00E94633491E08431C2
:1029E00009F090E0892F8170089580E0FCCFCF93AB
:1029F00084E090E00E946334C82F82E290E00E945D
:102A00006334982F8C2FCF9108954F925F926F92DD
:102A10007F928F929F92AF92BF92CF92DF92EF926E
:102A2000FF928090480390904903A0904A03B09091
:102A30004B030E943412882309F44AC0C501B40133
:102A40000E940F0D6B017C010E94A9134B015C01D8
:102A50008092480390924903A0924A03B0924B039C
:102A6000A0911F03EFE1F3E08A2F90E04FEF5FEFBB
:102A700060E070E04C195D096E097F09A91331C04F
:102A800080931F038091500381113EC09091E30316
:102A9000892F837019F0892F8695869590915C0116
:102AA000913009F441C0992389F1923009F44AC068
:102AB000933009F455C0FF90EF90DF90CF90BF9016
:102AC000AF909F908F907F906F905F904F90089500
:102AD0000E94A9136B017C01C818D908EA08FB08F9
:102AE000B3CF218D328D2901712C612C44155505F0
:102AF0006605770520F481509F5F3296BFCF2C0D7D
:102B00003D1D328F218FF8CF80E0C8CF1092580141
:102B100080924C0390924D03A0924E03B0924F03CB
:102B200081E080935C01C7CFFF90EF90DF90CF9062
:102B3000BF90AF909F908F907F906F905F904F90DD
:102B40000C949112FF90EF90DF90CF90BF90AF90D8
:102B50009F908F907F906F905F904F900C94180E85
:102B60008091E203882351F046E050E06CE170E090
:102B700083EE93E00E9477341092E203C0904C03FE
:102B8000D0904D03E0904E03F0904F030E9434121A
:102B9000882369F0C701B6010E940F0D60317105ED
:102BA0008105910508F487CF10925C0184CF0E94C3
:102BB000A9136C197D098E099F09F0CFE3EEF3E0AC
:102BC00089E0808380915E0190915F01A091600116
:102BD00081839283A38380E284838FEF858346E0A1
:102BE00050E06CE170E0CF010E9477341092E20374
:102BF000089528E030E043E060E080E30E948831FF
:102C000095E09A95F1F700000895CF93C82F0E94A0
:102C1000F9158C2F0E9400328FE792E00197F1F7AF
:102C200000C000000E941832C82F95E09A95F1F775
:102C300000000E94303285E68A95F1F700008C2F63
:102C4000CF9108958FE00E9405168F5F24E6829F42
:102C5000C00111240895CF93DF93C82FD62F0E946F
:102C6000F915C03511F010921E038C2F80680E9458
:102C700000328D2F0E940032EC018AEB8A95F1F729
:102C800000C00E94303283E492E00197F1F700C067
:102C90000000CE01DF91CF91089564E670E00E94BC
:102CA0001E34615071096837710510F067E770E0F4
:102CB0008FE00C942B16CF93DF93209A0E948031E3
:102CC00010921E030E9430320E94F9150E94303289
:102CD00066EB8BE30E942B162FEF85EA9EE02150D6
:102CE00080409040E1F700C000000E94F915E5ED3A
:102CF000EA95F1F700000E943032F5EDFA95F1F710
:102D000000006AE58AE30E942B162FEF80E792E02D
:102D1000215080409040E1F700C0000082E00E9416
:102D2000051683E00E94051684E00E94051685E0E2
:102D30000E94051686E00E9405166DE183E10E945F
:102D40002B16EFE3FCE93197F1F700C0000068E1D2
:102D500083E10E942B160E94F91582EE0E94003238
:102D6000F0E5FA95F1F7C7E3D2E0FE0184910E9405
:102D70000032F0E5FA95F1F7219622E1C533D2074A
:102D8000A1F78FE193E00197F1F700C000008AE21C
:102D90000E94051660E080E10E942B160E943032EE
:102DA000EFE3FCE93197F1F700C0000080E496E022
:102DB0000E944D168FE99FE00197F1F700C00000D7
:102DC00060E080E10E942B1667EE81E10E942B16E5
:102DD00062E083E60E942B1680E00E9405168FE3D6
:102DE0000E9405168AE20E9405162898DF91CF916D
:102DF0000895CF93DF93CDB7DEB72A970FB6F89437
:102E0000DEBF0FBECDBF85E0E1E1F3E0DE01169647
:102E100001900D928A95E1F785E0E3E0F3E0DE01B1
:102E2000119601900D928A95E1F745E050E0BE01C0
:102E30006F5F7F4FCE0106960E94AB34892B61F005
:102E4000E091BC03F091BD03309731F00480F5812F
:102E5000E02D81E193E00995109212031092130383
:102E6000109214031092150385E0E1E1F3E0A3E072
:102E7000B3E001900D928A95E1F72A960FB6F89487
:102E8000DEBF0FBECDBFDF91CF910895CF92DF920D
:102E9000EF92FF920F931F93CF93DF93CDB7DEB7DF
:102EA00069970FB6F894DEBF0FBECDBF0E943412F3
:102EB000882309F478C160911603709117038091FB
:102EC0001803909119030E940F0D672B682B692B33
:102ED00009F469C10E943A0D6093160370931703B9
:102EE00080931803909319030E94671281119EC06A
:102EF00040911103509112036091130370911403D8
:102F0000809115030E945F2A2093110330931203CE
:102F100040931303509314036093150385E0E1E19C
:102F2000F3E0DE01169601900D928A95E1F7C090CC
:102F30001203FC2CF194FF8285E0FE013696DE013F
:102F4000509601900D928A95E1F785E0FE0170960A
:102F5000DE01119601900D928A95E1F785E0FE0160
:102F60003196A1E1B3E001900D928A95E1F785E0F9
:102F7000E1E1F3E0DE01559601900D928A95E1F7CB
:102F80000091120310911303D0901403E0901503E5
:102F90000E943412882309F4C6C08091EA0386FF98
:102FA0004FC020910A0330910B032F0D311DF7FC08
:102FB0003A9530930B0320930A0380910803909174
:102FC0000903810F911D17FD9A9590930903809332
:102FD0000803A90137FF04C044275527421B530BA0
:102FE000473051055CF0EE24EA941216130614F4EF
:102FF000EE24E39410920B0310920A039C0197FFB6
:1030000004C022273327281B390B273031055CF0F9
:10301000DD24DA941816190614F4DD24D3941092E2
:1030200009031092080310E000E055C085E0ECE0D1
:10303000F3E0A1E1B3E001900D928A95E1F76ECF44
:1030400087FD49C02F2D0F2C000C330B1F14C4F02B
:1030500044275527421B530B429FC001439F900DAD
:10306000529F900D112468E170E00E943234260FC7
:10307000371F01E821383F4F8CF0062F0C190EC086
:103080004F2D4402C001112468E170E00E943234E7
:10309000260F371F0FE7203831057CF3212F012E33
:1030A000000C330B11160CF46DC044275527421B3E
:1030B000530B429FC001439F900D529F900D1124CE
:1030C00068E170E00E943234260F371F21383F4FED
:1030D0000CF467C0160F0E8B1F8BD88EE98E85E01F
:1030E000FE017596DE011B9601900D928A95E1F71F
:1030F00085E0FE013B96DE01119601900D928A95C6
:10310000E1F785E0FE013196DE01169601900D9201
:103110008A95E1F785E0FE013696DE01559601902D
:103120000D928A95E1F70E8B1F8BD88EE98E85E084
:10313000FE017596DE01169601900D928A95E1F7D3
:1031400085E0FE013696DE011B9601900D928A9570
:10315000E1F785E0FE013B96A1E1B3E001900D921D
:103160008A95E1F769960FB6F894DEBF0FBECDBF22
:10317000DF91CF911F910F91FF90EF90DF90CF9053
:103180000C94F9161102C001112468E170E00E944C
:103190003234260F371F203831050CF49BCF1FE740
:1031A0009ACF11E898CF69960FB6F894DEBF0FBE9C
:1031B000CDBFDF91CF911F910F91FF90EF90DF90E6
:1031C000CF9008958091990290919802892B8093D5
:1031D000400248E050E060E972E080E492E00E9442
:1031E000AB34892BA9F088E0E0E4F2E0A0E9B2E09A
:1031F00001900D928A95E1F7E091BC03F091BD0337
:10320000309731F00280F381E02D80E492E0099460
:10321000089590E080E00E94760D90E080E00E94AA
:10322000600D109298020C94E218CF93C82F8295EB
:103230008170C11101C080E09091EA0380FB97F991
:103240009093EA030E948E13C093E903CF910C94EC
:1032500009198091E903982F9670963019F48860C7
:103260000C941519877FFCCF21E030E001C0220FBC
:103270008A95EAF720958091E90382230C94151929
:1032800021E030E001C0220F8A95EAF78091E9033E
:10329000822B0C94151980939A020C940919882397
:1032A00041F08095909199028923809399020C9422
:1032B000E2180895882339F090919902982B909301
:1032C00099020C94E21808958823B1F19CEF980FAD
:1032D000913A70F4E2E4F2E09191891303C0DF01C6
:1032E00011971C9242E0E834F407B1F70C94E2180D
:1032F00090E2980F983088F4877021E030E0A901BF
:1033000002C0440F551F8A95E2F7CA01809590913B
:103310009902892380939902E9CF9BE5980F933016
:1033200020F490E080E00C94760D885A873120F4E8
:1033300090E080E00C94600D0895CF93C82F88230F
:1033400009F44EC08CEF8C0F813AF8F4E2E4F2E01D
:1033500088E492E0DF012D91C21759F08A179B078C
:10336000D1F76C2F80E492E00E94460DCF910C942F
:10337000E2182191C21303C0DF0111971C928E172E
:103380009F07B9F70E94E218ECCF80E28C0F8830DB
:1033900068F4C77021E030E001C0220FCA95EAF757
:1033A00080919902822B80939902E0CFEBE5EC0F9C
:1033B000E33040F4F0E0EA59FE4F808190E0CF9195
:1033C0000C94760DC85AC73158F4EC2FF0E0EE0F8C
:1033D000FF1FE759FE4F80819181CF910C94600DC2
:1033E000CF9108951F93CF93DF93182FD0E0C0E0C3
:1033F000893311F4C0E5D0E0812F0E949D192097F8
:1034000031F4812FDF91CF911F910C9464198FE9D2
:103410009FE00197F1F700C000002197F0CF1092D4
:103420009902E2E4F2E086E0DF011D928A95E9F775
:103430000C9409191F93CF93DF93CDB7DEB7AA97EA
:103440000FB6F894DEBF0FBECDBF87ED93E020919D
:10345000F100DC012D93CD01B3E08F3D9B07B9F75F
:103460008091D803833009F472C0B8F4813009F434
:1034700049C0823009F4B3C08091E80083FF91C253
:103480008091D7039091D8039A3008F08AC2E92F2F
:10349000F0E0ED53FB4C0C9446348A3009F48EC0B6
:1034A0008B3009F471C0893039F78091D7038132AC
:1034B00019F78091DB039091DC03009711F00397DB
:1034C000D9F68091E800877F8093E8008091E8003A
:1034D00082FF38C09091F3008091F200029731F49E
:1034E0008091F100813011F0863021F48091F1005B
:1034F0008093CA038091E8008B778093E8000E9454
:10350000FB0BBACF8091D703813A09F0B5CF8091F8
:10351000E800877F8093E8008091DB039091DC03D3
:10352000892B61F468E08BEC93E070E00E94AD0CB5
:103530008091E8008B778093E8009ECF60E090E078
:1035400080E0F3CF8091D5038111C0CF95CF8091DA
:10355000D703813A09F090CF8091DB039091DC038F
:10356000892B09F089CF8091E800877F8093E8005C
:103570008091E80080FFFCCF80915B018093F10097
:103580008091E8008E77B9CF8091D703813209F01E
:1035900073CF8091DB039091DC03892B09F06CCF12
:1035A0008091E800877F8093E8000E94FB0B809168
:1035B000D90380935B010E940F1A5ECF8091D703DD
:1035C000813209F059CF8091E800877F8093E8002D
:1035D0000E94FB0B8091DA038093C9034DCF809149
:1035E000D703813A09F048CF8091E800877F809324
:1035F000E8008091E80080FFFCCF8091C903BECF36
:10360000803899F0823809F0CCC18091DB038F704B
:10361000873008F0C6C18093E9008091EB0085FBFC
:10362000882780F91092E90006C08091D303909119
:10363000D403911182609091E800977F9093E80005
:103640008093F1001092F1008091E8008E77A5C17F
:10365000882309F493C1823009F0A3C18091D90372
:10366000811196C18091DB038F702FEF280F2630D8
:1036700008F097C18093E9002091EB0020FF88C1FA
:10368000933031F48091EB0080628093EB0080C135
:103690009091EB0090619093EB0021E030E001C04D
:1036A000220F8A95EAF72093EA001092EA008091AF
:1036B000EB008860EACF811174C11091D9031F77A4
:1036C0008091E3008078812B8093E3008091E80073
:1036D000877F8093E8000E94FB0B8091E80080FFC9
:1036E000FCCF8091E30080688093E30082E01111B9
:1036F00083E08093D50355C18058823008F051C1D2
:103700002091D9033091DA032C3DE3E03E07A1F587
:1037100083E08A838AE289834FB7F894DE011396A7
:1037200020E03EE051E2E32FF0E050935700E491B7
:1037300020FF03C0E295EF703F5FEF708E2F90E0A7
:10374000EA30C0F0C7968D939D932F5F243159F7CF
:103750004FBF8091E800877F8093E8006AE270E0C5
:10376000CE0101960E94AD0C8091E8008B7780938A
:10377000E80017C1C096E7CF8091DB039091DC038E
:10378000432F55274330510509F44AC078F541309D
:10379000510509F47AC084E790E0E5E6F5E14230AE
:1037A000510509F0FEC02091E800277F2093E80032
:1037B0002091DD033091DE038217930708F49C010A
:1037C00040E02115310509F065C0411163C08091C9
:1037D000E80082FDC9CF8091D503882329F2853086
:1037E00019F28091E80083FFF2CFBECF413251053C
:1037F00009F43CC04232510509F0D3C08430910530
:1038000008F0CFC0FC01EE0FFF1FE25DFD4F0190FD
:10381000F081E02D865D9D4FDC018C9190E01AC017
:10382000332721303105D1F02115310561F02230E7
:10383000310509F0B6C0EBEEF5E1E4918E2F90E092
:10384000EBEEF5E107C0E1E3F6E1E4918E2F90E0C5
:10385000E1E3F6E1009709F4A4C0A5CFEBE0F6E1BF
:10386000E4918E2F90E0EBE0F6E1F4CF8430910507
:1038700008F097C0880F991FFC01EA5CFD4F01908A
:10388000F081E02D89E090E08ECF82E190E0E9EDDB
:10389000F5E189CF8091D503882309F465CF853080
:1038A00009F462CF8091E80083FD5ECF8091E8004B
:1038B00082FD8DCF8091E80080FF83CF9091F3004F
:1038C0008091F2002115310519F08830910550F0F2
:1038D00041E0089709F040E08091E8008E778093FE
:1038E000E8006FCF44914093F100319621503109A7
:1038F0000196E8CF803809F054C08091E800877FB6
:103900008093E8008091D6038093F1009DCE8111D1
:1039100048C01091D903123008F043C08091E800EC
:10392000877F8093E8001093D6030E94FB0B11233E
:1039300011F084E005C08091E30087FDFACF81E0BB
:103940008093D50342E061EC81E00E941A0C42E0D2
:1039500061EC82E00E941A0C42E261EC85E00E9478
:103960001A0C42E261EC83E00E941A0C42E260EC25
:1039700084E00E941A0C8091D50313C08091D90372
:10398000813079F481E0933009F080E08093D403B2
:103990001092E9008091E800877F8093E8000E9400
:1039A000FB0B8091E80083FF0AC08091E800877FCD
:1039B0008093E8008091EB0080628093EB00AA96F0
:1039C0000FB6F894DEBF0FBECDBFDF91CF911F9130
:1039D0000895DF92EF92FF920F931F93CF93DF939F
:1039E0007901C82F880FDD0B41155105A9F0FE01A3
:1039F00093E0EE0FFF1F9A95E1F7E050FF4F8181B2
:103A0000928186559D4F208130E04217530708F47C
:103A10009A01A9010E94B834CE010E94A833D82E81
:103A20008823D1F001151105B9F083E0CC0FDD1F1B
:103A30008A95E1F7FE01E050FF4F438150E0041703
:103A4000150708F4A801C050DF4F6C817D816655D1
:103A50007D4FC7010E94B8348D2DDF91CF911F910A
:103A60000F91FF90EF90DF9008950F931F93CF93E6
:103A7000DF9300D000D0CDB7DEB76091D202709155
:103A8000D3028091D4029091D5020E940F0D11E0D3
:103A9000643671058105910518F10E94A9136E5FC6
:103AA0007F4F8F4F9F4F69837A838B839C8310E076
:103AB00000E030E020E044E050E0BE016F5F7F4F67
:103AC00083E00E94E91C182F882351F00E943A0DD0
:103AD0006093D2027093D3028093D4029093D50264
:103AE000812F0F900F900F900F90DF91CF911F912A
:103AF0000F910895AF92BF92CF92DF92EF92FF9213
:103B00000F931F93CF93DF93C82F7B01D42F6901AD
:103B10005801FB0160817181828193810E940F0DA8
:103B2000643671058105910510F4DD23F9F010E08C
:103B300000E030E020E0A501B6018C2F0E94E91CD6
:103B4000C82F882339F00E943A0DF70160837183F2
:103B5000828393838C2FDF91CF911F910F91FF90E0
:103B6000EF90DF90CF90BF90AF900895C1E0F2CF7B
:103B70000F931F93CF93DF9300D000D000D00F920C
:103B8000CDB7DEB786E0E3EEF3E0DE0111960190FB
:103B90000D928A95E1F7809150038F8347E050E0C2
:103BA00067EB72E0CE0101960E94AB3441E0892BB5
:103BB00009F440E007E010E09E012F5F3F4F66ED03
:103BC00072E084E00E947A1D27960FB6F894DEBF5B
:103BD0000FBECDBFDF91CF911F910F9108950F932D
:103BE0001F93CF93DF93EC0144E050E06FEA72E063
:103BF0000E94AB3441E0892B09F440E004E010E07E
:103C00009E016EEC72E082E00E947A1DDF91CF91FE
:103C10001F910F9108957F928F929F92AF92BF92C2
:103C2000CF92DF92EF92FF920F931F93CF93DF9388
:103C30000F92CDB7DEB7762E4A015901680101E037
:103C400010E09E012F5F3F4F50E040E070E060E0E9
:103C50000E94E91C182F882309F43EC0F4016081FA
:103C60007181828193810E940F0D643671058105F7
:103C7000910538F4B701C6010E948C0D998189170E
:103C800059F18701950150E040E070E060E0872D38
:103C90000E94E91CB82EB701C6010E948C0D11E0EC
:103CA0009981981310E01B2139F00E943A0DF4011C
:103CB0006083718382839383812F0F90DF91CF91F3
:103CC0001F910F91FF90EF90DF90CF90BF90AF903A
:103CD0009F908F907F900895A701B601C5010E9423
:103CE000B834EACFEF92FF920F931F93CF93DF93F5
:103CF000CDB7DEB72A970FB6F894DEBF0FBECDBFA3
:103D00000E94671211E0882309F44DC085E0E82E77
:103D1000F12C0FEB12E09E012A5F3F4F4CED52E079
:103D200066E085E00E940B1E182F882391F085E045
:103D3000FE013696DE01119601900D928A95E1F70B
:103D400085E0FE013196ACE0B3E001900D928A95DA
:103D5000E1F7E0901A03F0901B03FA82E982E11484
:103D6000F10409F142E050E0BE016F5F7F4F8AED40
:103D700092E00E94AB34892BB1F0F092C502E09240
:103D8000C40210E000E030E020E042E050E064ECEB
:103D900072E087E00E94E91C182F882321F0F0923E
:103DA000DB02E092DA02812F2A960FB6F894DEBF8A
:103DB0000FBECDBFDF91CF911F910F91FF90EF907C
:103DC0000895CF92DF92EF92FF920F931F93CF93BC
:103DD000DF9300D000D0CDB7DEB76B0184E0E82ED2
:103DE000F12C0BEA12E09E012F5F3F4F4AEC52E0AC
:103DF00061E080E00E940B1E882361F049815A81B6
:103E00006B817C814093C6025093C7026093C802C5
:103E10007093C9024091C6025091C7026091C802D6
:103E20007091C902F60140835183628373830F90BE
:103E30000F900F900F90DF91CF911F910F91FF90F6
:103E4000EF90DF90CF90089590E080E00E94713471
:103E5000893E9E4F11F40C94DE1480E008959091F9
:103E6000EA039F70811114C08FEF980F9F708091AB
:103E7000EA03807F982B9093EA030E948E1340916F
:103E8000EA0350E070E060E08FE090E00C94993439
:103E900081E0EBCF69EE7EEF90E080E00E94A534F8
:103EA00060E082E090E00E94873460E083E090E090
:103EB0000E94873410929A0260E084E090E00E94B1
:103EC000873460E082E290E00E94873460E085E021
:103ED00090E00E94873460E086E090E00E948734A2
:103EE0006FEF87E090E00E94873440E050E0BA0135
:103EF00088E090E00E94993460E08DE090E00E94BC
:103F0000873440E050E0BA0188E190E00E949934A3
:103F100060E087E190E00E94873440E050E0BA0121
:103F20008CE190E00E94993470E060E080E290E0E3
:103F30000E94A53440E050E0BA0188E190E00E9480
:103F4000993480E00E9429140E9441141092EA03DF
:103F500040E050E0BA018FE090E00E9499340E9466
:103F60008E1340E050E0BA0183E190E00C94993464
:103F70009091EA0392959370811116C08FEF980F7C
:103F800093709295907F8091EA038F7C982B909309
:103F9000EA030E948E134091EA0350E070E060E073
:103FA0008FE090E00C94993481E0E9CF1F920F925A
:103FB0000FB60F9211242F933F934F935F936F93FC
:103FC0007F938F939F93AF93BF93CF93DF93EF93A1
:103FD000FF93D091E900DF708091EC00C82FC17091
:103FE00080FDC0E81092E9008091F000877F809307
:103FF000F00078940E941A1A1092E9008091F00063
:1040000088608093F000CD2BCF70C093E900FF91C2
:10401000EF91DF91CF91BF91AF919F918F917F9160
:104020006F915F914F913F912F910F900FBE0F9025
:104030001F9018951F920F920FB60F9211242F9375
:104040003F934F935F936F937F938F939F93AF9320
:10405000BF93EF93FF938091E10082FF09C08091AD
:10406000E20082FF05C08091E1008B7F8093E10038
:104070008091DA0080FF24C08091D80080FF20C0AA
:104080008091DA008E7F8093DA008091D90080FFE2
:104090009DC080E189BD82E189BD09B400FEFDCFEC
:1040A00081E08093D5038091C803811109C00E94EB
:1040B000810B0E944C0C8091E20084608093E200AE
:1040C0008091E10080FF17C08091E20080FF13C063
:1040D0008091E2008E7F8093E2008091E200806117
:1040E0008093E2008091D80080628093D80019BC50
:1040F00085E08093D5038091E10084FF2BC08091FF
:10410000E20084FF27C080E189BD82E189BD89B5D5
:10411000982F917080FFFBCF8091D8008F7D809386
:10412000D8008091E1008F7E8093E1008091E200D1
:104130008F7E8093E2008091E20081608093E200B4
:104140008091D603882309F447C084E08093D50387
:104150008091D5038091E10083FF27C08091E20028
:1041600083FF23C08091E100877F8093E10082E09C
:104170008093D5031092D6038091E1008E7F8093C7
:10418000E1008091E2008E7F8093E2008091E20066
:1041900080618093E20042E060E080E00E941A0CBF
:1041A0008091F00088608093F000FF91EF91BF91C3
:1041B000AF919F918F917F916F915F914F913F91BF
:1041C0002F910F900FBE0F901F90189519BC109251
:1041D000D5031092C80374CF8091E30087FD93E06C
:1041E0009093D503B5CF78941F921FB61F921124D8
:1041F0008F939F93AF93BF938091C1039091C2031C
:10420000A091C303B091C4030196A11DB11D809379
:10421000C1039093C203A093C303B093C403BF919F
:10422000AF919F918F911F901FBE1F9018952FB730
:10423000F8948091C1039091C203A091C303B091FF
:10424000C4032FBF08950F931F93CF93DF93C62FFF
:10425000D42F022FFC0182818823A1F06093E10317
:104260000E9417219093E0038093DF03C77081E0E1
:1042700001C0880FCA95EAF7DF91CF911F910F9186
:104280000C945A198091E103681335C08091DF03C3
:104290009091E0030E942B0D883C910560F510E29F
:1042A0001D0FCD17B9F080E28C0F883040F4C77035
:1042B00081E001C0880FCA95EAF70E944F191830B3
:1042C00048F481E09D2F977001C0880F9A95EAF716
:1042D0000E945A19802F0E94F219183098F4D77052
:1042E00081E001C0880FDA95EAF7DF91CF911F9145
:1042F0000F910C944F19C77081E001C0880FCA95C7
:10430000EAF7F3CFDF91CF911F910F9108955F925C
:104310006F927F928F929F92AF92BF92CF92DF92D5
:10432000EF92FF920F931F93CF93DF93CDB7DEB73A
:104330002F970FB6F894DEBF0FBECDBF7C01FC01F6
:1043400083819481892B31F08081918189238F3FF2
:1043500009F089C52F960FB6F894DEBF0FBECDBF0A
:10436000DF91CF911F910F91FF90EF90DF90CF9051
:10437000BF90AF909F908F907F906F905F900895C7
:104380000E948314182F682F89819A810E94EC1053
:1043900069817A81812F0E9476148C01F7018281D4
:1043A000882309F455C5980122513F452031310534
:1043B00008F039C58FEF93E00E946334025197E50E
:1043C000A92E92E0B92E8111C5CF011134C01C82F3
:1043D0001B82662463948AE0582E85010F5F1F4F6D
:1043E000C5010E94633489831A82882309F4B2CFFD
:1043F0009FEF980F933070F58A83698232E0A30EA5
:10440000B11CC8010E9463348B83882309F4A2CFB6
:104410008E010F5F1F4FF80120812223F1F221301E
:1044200009F052C0918182819130B1F40E5F1F4F2B
:104430000E94F21917C0A114F4E0BF0609F48ACF54
:10444000C5010E946334811101C001502FEFA21AEF
:10445000B20ABBCF5801DCCF923039F40E5F1F4F48
:104460000E949D190F5F1F4FD6CF933029F40E5F26
:104470001F4F0E946419F6CF943019F00F5F1F4F41
:10448000F1CF0E5F1F4F30E020E0B8016F5F7F4F2C
:10449000F80141818053990B8A30910550F02150E9
:1044A000310900F38FE99FE00197F1F700C00000A8
:1044B000F6CF529EF001539EF00D11249C012E0F59
:1044C0003F1F842F8B01E1CFE22FF0E0E954FE4F34
:1044D0007490822F86958695869590E0FC01E9552B
:1044E000FE4FE4902770F12C022E02C0F594E79461
:1044F0000A94E2F7E1E0EE22FF24FC01E956FE4FC8
:10450000C490D12C022E02C0D594C7940A94E2F72D
:10451000F1E0CF22DD24FC01E957FE4F8490912C7D
:1045200002C0959487942A95E2F721E0822299248B
:10453000E114F10419F081EE0E949D19C114D10417
:1045400019F086EE0E949D19872D0E94F219CD2840
:1045500019F086EE0E946419EF2819F081EE0E948E
:104560006419892809F47ECF8CE262CF81E00E9431
:10457000401903C081E00E9434192F960FB6F894B9
:10458000DEBF0FBECDBFDF91CF911F910F91FF9086
:10459000EF90DF90CF90BF90AF909F908F907F90E3
:1045A0006F905F900C94291982E0E1CF882331F05D
:1045B0000E941A1191E089270E942F1FC801845F71
:1045C0009109059708F0D7C085E0E1E1F3E0DE014D
:1045D000119601900D928A95E1F785E0FE013196E2
:1045E000DE011B9601900D928A95E1F729813CE04E
:1045F000300F81E090E001C0880F3A95EAF7F701AB
:104600003281332309F4B4C0822B8B8785E0FE010D
:104610003B96DE01169601900D928A95E1F785E0B2
:10462000FE013696A1E1B3E001900D928A95E1F783
:104630000E94F916F7019281992309F425C410927A
:10464000E1030330FDE51F0708F0E3C00A3F2CE556
:10465000120738F4980122503C452431310508F006
:10466000E2C00E94F7149093F0028093EF020131B0
:104670008CE5180709F4BBC108F03DC10930ECE531
:104680001E0709F4A2C108F00CC105302CE5120781
:1046900009F493C108F0F2C003304CE5140709F4A3
:1046A00082C108F086C18091EF02816002301C4512
:1046B00009F47CC16091EF021091F00284E090E077
:1046C0000E948734612F82E290E00E9487342F9607
:1046D0000FB6F894DEBF0FBECDBFDF91CF911F9113
:1046E0000F91FF90EF90DF90CF90BF90AF909F9091
:1046F0008F907F906F905F900C940F1A882309F42D
:104700005DCF0E941A1158CF882309F457CF0E9419
:104710001A1191E089270E94B81F50CF882309F40D
:104720004DCF0E941A11F7CF9091EA0380FB97F9C1
:104730009093EA030E948E1341CF882309F43ECF61
:104740009091EA03892F97FB87F980588093EA03B9
:10475000F1CF9091EA0380FB96F9EACF882309F420
:104760002DCF9091EA03892F8F7B96FF8064EECF47
:10477000809582234ACF033FFCE51F07D9F188F4D7
:10478000083D3CE5130791F1093D4CE51407F1F1B3
:10479000073D8CE5180709F04DCF26E241EE61EEAA
:1047A0000DC0053F9CE5190769F140F127E245EE90
:1047B00066EE063FFCE51F0709F03CCFC7012F96C8
:1047C0000FB6F894DEBF0FBECDBFDF91CF911F9122
:1047D0000F91FF90EF90DF90CF90BF90AF909F90A0
:1047E0008F907F906F905F900C94232127E245EE8D
:1047F00065EEE4CF26E241EE60EEE0CF27E245EE43
:1048000064EEDCCF26E241EE62EED8CF28E241E052
:10481000EFCF01363DE5130709F423CF053A4DE507
:10482000140709F41ECF06313CE5130709F0C2C393
:10483000809199028A7A91E009F490E0909348027D
:1048400069E2811165E380E492E00E94460D2F96B3
:104850000FB6F894DEBF0FBECDBFDF91CF911F9191
:104860000F91FF90EF90DF90CF90BF90AF909F900F
:104870008F907F906F905F900C94E2188091EF0280
:1048800080620730ECE51E0709F490C08091EF02CA
:10489000806108301C4508F489C08091EF02806473
:1048A00085C08091EF028B7F0D302CE5120709F453
:1048B0007DC070F48091EF028E7F0B304CE51407C1
:1048C00009F474C008F487C08091EF028D7F6EC038
:1048D0008091EF028F7E0F309CE5190709F466C0C6
:1048E0008091EF02877F00311C4508F45FC0809102
:1048F000EF028F7D5BC00D3FFCE51F0709F473C01D
:1049000038F505313CE5130709F483C080F4033121
:104910008CE5180709F475C008F46DC00E940F1AE1
:104920009091EF02892F97FB87F980583FC00B3F8A
:10493000ECE51E0709F445C008F051C08091F00273
:1049400081600A3F1C4509F0B5CE8093F002B2CEDB
:1049500001303DE5130709F468C0A8F40F3F8CE56A
:10496000180709F452C08091F002836001151D45BB
:1049700060F38091F002982F909591708E7F892B33
:1049800090FB81F9E2CF0136EDE51E0709F453C033
:10499000053AFDE51F0709F455C002301D4509F031
:1049A00089CE60E043C08091EF0282608093EF0285
:1049B00081CE8091EF028460F9CF8091EF02886010
:1049C000F5CF8091F0028260C0CF0E940F1A8091D3
:1049D000EF028068EBCF8091EF028C60E7CF80918F
:1049E000F0028E7FB2CF8091F0028D7FAECF8091AA
:1049F000EF028F7BDBCF0E940F1A8091EF028F773F
:104A0000D5CF8091EF02837FD1CF8091F0028C7F50
:104A10009CCF8091EF0282FB992790F921E09227A9
:104A200090FB82F990FB83F9C1CF61E08EE090E0CA
:104A30000E9487343FCE9091EF02892F8F7E94FFA2
:104A40008061B4CF9091EF02892F8E7F90FF8160BB
:104A5000ADCF8091480281110FC089E2E2E4F2E01B
:104A600028E432E09191891303C0DF0111971C9271
:104A70002E173F07B9F7EBCE85E3F0CF8091E30324
:104A800091E089278093E30310925C018091E20317
:104A900081608093E2035ECC45E05EE06EE07EE004
:104AA0002F960FB6F894DEBF0FBECDBFDF91CF912A
:104AB0001F910F91FF90EF90DF90CF90BF90AF903C
:104AC0009F908F907F906F905F900C94A20D4EE01E
:104AD0005EE065E07EE0E4CF43EF5DE06CEF7DE01B
:104AE000DFCF4CEF5DE063EF7DE0DACF4BED5DE0D3
:104AF00067EE7DE0D5CF47EE5DE06BED7DE0D0CF9A
:104B00004FEC5DE063EC7DE0CBCF45EB5DE067EA29
:104B10007DE0C6CF0E940F1A40E060E08FEF0E9458
:104B2000250E0E94C9114FEF84E39CE04150804064
:104B30009040E1F700C000000E94A511C8010E944A
:104B4000C310D82ECFC1092F0F70907F11F002959E
:104B5000007F812F2223C9F0002369F090E2910F9A
:104B6000983010F011110BC080919902082B00931E
:104B700099020E94E218812F0E949D1917C080910E
:104B80009802082B00939802F4CF0E946419002326
:104B900069F00095105E183010F0D11026C0809199
:104BA00099020823009399020E94E21848E0E41A4F
:104BB000F10884E0E816F10408F0CCCB2F960FB68C
:104BC000F894DEBF0FBECDBFDF91CF911F910F9143
:104BD000FF90EF90DF90CF90BF90AF909F908F901D
:104BE0007F906F905F900C945712809198020823E9
:104BF00000939802D9CF892F8F70907F903211F057
:104C00008295807FF1E0DF120CC0222329F036303C
:104C100068F60E945A19CACF353040F60E944F19E3
:104C2000C5CF222319F03323A1F3A5CF3323B1F34A
:104C3000193349F42FEF37EE43E021503040404024
:104C4000E1F700C00000812F0E946419AFCF892FC7
:104C500086958695837061F0813009F0A7CF812F0A
:104C60009370211102C090E080E00E94600D9ECF01
:104C7000812F9370211102C090E080E00E94760D98
:104C800095CF892F8370A1F5211190CF812F829527
:104C900086958770880F880F412F4F70082E01C0AE
:104CA000440F0A94EAF7212F207114FF07C02FE068
:104CB00030E001C0220F8A95EAF7209596959695E7
:104CC0009370923081F0822F842B933030F4809156
:104CD0009A02913029F0242B82230E944B1966CF2F
:104CE000842B822BFACF242B80919A028227F5CF36
:104CF0008695222311F0892F8170882309F456CFDD
:104D0000812F829586958770880F880F412F4F706D
:104D1000082E01C0440F0A94EAF7212F207114FFD6
:104D200007C02FE030E001C0220F8A95EAF72095F6
:104D3000969596959370923081F0822F842B9330C4
:104D400030F48091E903913029F0242B82230E94D2
:104D500015192CCF842B822BFACF242B8091E903B9
:104D60008227F5CF092F0F70222329F0802F0E9470
:104D70004019812F4ECF812F0E944F19802F0E9402
:104D8000341914CF812FE1EF1E1789F1E11750F08C
:104D9000F0EF1F17B9F02223B1F13111ECCE892FBA
:104DA0008F7129C042EF141749F1E3EF1E13F3CFBF
:104DB00080E0222361F29F7181E001C0880F9A9503
:104DC000EAF7C5CF222379F0353008F0EFCE292F4E
:104DD0002F7181E090E001C0880F2A95EAF7909149
:104DE000E9038927B4CF363008F0E0CEF0CF892F21
:104DF0008F71222321F20E944019D8CE892F8F7102
:104E00002223C9F3BCCF332359F0893309F01BCFD8
:104E1000FFEF27EE33E0F15020403040E1F711CFB3
:104E2000892F8F71ACCF00319FE5190709F49ECB14
:104E30000131EFE51E0709F4B7CBF801E058FF4553
:104E4000E830F10508F0BACBE353FB4C0C94463440
:104E50000031FFE51F0709F48DCB01312FE5120763
:104E600061F782E088CB85E0DE01119601900D921A
:104E70008A95E1F7F701228189819A81211180CAFF
:104E80000E94C310182F84CA0631FCE51F0709F4DD
:104E9000E0CD8091990282720A3C2CE5120709F458
:104EA0002FCE08F04EC0053C4CE5140709F414CE93
:104EB00098F5033CFCE51F0709F4EECD08F007CE9A
:104EC000023C1C4509F4DACDF701008111819923D8
:104ED00009F434CEC8010E948314D82E682FC8016B
:104EE0000E94EC10B8018D2D0E9476140E94310FA3
:104EF000182FD82EF7012281358132953F70892FE6
:104F000082958F70E82EF12C8C3008F04FCEF7018F
:104F1000EB52FB4C0C944634073C4CE5140709F467
:104F2000E5CD08F4DECD083CFCE51F0709F4E3CD30
:104F300043EC5DE06FEC7DE0093C1C4509F4B0CD2D
:104F4000C3CF0E3C3CE5130709F404CA28F50C3C1A
:104F50009CE5190709F4D9CD47EA5DE065EB7DE0F2
:104F60000D3C1C4508F49CCD81E02F960FB6F894BB
:104F7000DEBF0FBECDBFDF91CF911F910F91FF908C
:104F8000EF90DF90CF90BF90AF909F908F907F90E9
:104F90006F905F900C94550B063DFCE51F0728F4BD
:104FA00082E0003D1C4508F3D5C90D351D4509F4C7
:104FB000D1C98ACF01154CE5140709F4ABCD0E3DDC
:104FC0001C4509F081CF2F960FB6F894DEBF0FBEB7
:104FD000CDBFDF91CF911F910F91FF90EF90DF90A8
:104FE000CF90BF90AF909F908F907F906F905F9089
:104FF0000C944A1F1F93CF93DF9380915D02807FB3
:10500000A9F480915A02882389F080918F02D0916F
:105010005E026091580270915902A0915B02B091BA
:105020005C02C62FC72316E0D81304C0DF91CF91CE
:105030001F91089590E0109711F0CF3F19F4019659
:105040008770F2CF189F9001199F300D1124F9013C
:10505000E15AFD4F41814713F2CF40814613EFCF14
:1050600042814111ECCF438154814A1B5B0B483C88
:10507000510528F780915D028F70806180935D02F9
:10508000F901EC59FD4F80818F708061808388E544
:1050900092E00E948721DF91CF911F910C94B9106B
:1050A0008F929F92AF92BF92CF92DF92EF92FF9238
:1050B0000F931F93CF93DF93CDB7DEB761970FB6F2
:1050C000F894DEBF0FBECDBF8C0185E0F801DE0194
:1050D0001D9601900D928A95E1F7D8011296EC90F9
:1050E000129788E5882E82E0982E40915B025091BD
:1050F0005C024115510509F431C19091580220918B
:105100005902892F82238F3F09F428C1DC90119620
:10511000CC9011971396AD90BC901497F0905A02D2
:10512000F501E41BF50BFF2009F4F9C080915D0245
:10513000382F307FE83CF10508F0C5C0311185C03B
:10514000FE2C2C1124C09D1122C0E11020C08F70B4
:10515000806180935D02C4010E94872180915D027D
:10516000D80115968C938F2D61960FB6F894DEBFFB
:105170000FBECDBFDF91CF911F910F91FF90EF90A8
:10518000DF90CF90BF90AF909F908F900895A11423
:10519000B10429F08D2D8C218F3F09F0FDC080E0F6
:1051A00080FF14C04E2D6C2D8D2D0E9499108823E8
:1051B00069F088E592E00E94872186E0E8E5F2E068
:1051C000DF011D928A95E9F7F12CCDCFAB2829F0AC
:1051D0008D2D8C218F3F09F0DCC080E0B82FB1709D
:1051E000AB2E80FF29C04E2D6C2D8D2D0E94991065
:1051F000B82E811121C0DD86CE868D859E850E94C8
:10520000B214292F22952F70223050F0243078F4D8
:105210009F7051F0F8019581907F31F4FB2CA3CF62
:105220009F7011F08823D1F3805E8830B8F3C801F5
:105230000E948721BA2CF2CFEE2009F494CF8091FE
:105240005D02816080935D02BFCF2C1112C09D1161
:1052500010C0E1100EC015968C93C8010E948721E2
:1052600086E0F801A8E5B2E001900D928A95E1F799
:105270007ACFC8010E94BE14882309F1EE20F9F00C
:1052800080915D02803270F0209158023091590275
:1052900038872F831986BB86AA868C87CE0107960E
:1052A0000E94872186E0F801A8E5B2E001900D9206
:1052B0008A95E1F70E94FA27FF24F39454CFC8019E
:1052C0000E948721F9CF332309F473CF2C110FC02B
:1052D0009D110DC0E1100BC0F8018583C8010E942B
:1052E000872186E0D4011D928A95E9F73CCFC80159
:1052F0000E94BE14882319F3EE2009F380915D0209
:10530000803280F220915802309159023A832983E9
:105310001B82BD82AC828E83CE010196C1CFE83C58
:10532000F105B0F4FE2CEE2051F22C1103C09D15B6
:1053300009F496CFC8010E94BE148111B3CF8091A9
:105340005D02816080935D02C8010E9487210BCFBE
:1053500086E0F40111928A95E9F705CFEE2009F471
:10536000AECFC8010E94BE14F82E882309F4A7CF3F
:1053700086E0F801A8E5B2E001900D928A95E1F788
:1053800080915802909159020E94B2140E94FA270B
:10539000EACE81E08E2522CF81E08E2501CF1F93BA
:1053A000CF93DF93CDB7DEB767970FB6F894DEBF24
:1053B0000FBECDBF4B8B5C8B6D8B7E8B8F8B61114A
:1053C000109298021A8A198A85E0FE017396DE010E
:1053D0001D9601900D928A95E1F786E0FE013D96BB
:1053E000DE01179601900D928A95E1F7CE0107969E
:1053F0000E945028882389F016E080918F029091B6
:105400005E02891349C067960FB6F894DEBF0FBEDF
:10541000CDBFDF91CF911F91089586E0FE013796B1
:10542000DE01119601900D928A95E1F78A859B85A0
:10543000892B11F38F81988589238F3FE9F2209181
:105440005E0230E0C90101968770992740918F0272
:105450004817190671F40E940F1A10925E021092FA
:105460008F0286E0E8E5F2E0DF011D928A95E9F718
:10547000C3CF96E0929FD001939FB00D1124A15A03
:10548000BD4FFE01319601900D929A95E1F7809300
:105490005E020E94B910B0CF819FC0011124815AD1
:1054A0009D4F0E945028882309F4ADCF80918F0230
:1054B00090E001968770992780938F029ECF9F92EC
:1054C000AF92BF92CF92DF92EF92FF920F931F9312
:1054D000CF93DF93CDB7DEB72A970FB6F894DEBF30
:1054E0000FBECDBF4E83052F5F83162F6887798748
:1054F0008A8780911E03811107C060E080E50E94C9
:105500002B1681E080931E030E94F91580E50E940E
:1055100000328AEB8A95F1F700C00E941832B82E4B
:105520000E9418320E9418327C010E941832982E74
:105530000E9418326C010E941832A82E8B2D8770A1
:1055400011F010921E030E943032B3FC2DC0B7FE42
:105550002BC080911C0390911D03892B31F40E9474
:10556000172190931D0380931C03F92801E880E81C
:10557000E816F1044CF4002711270E191F09003812
:10558000110514F00FE710E0DA2811E880E8C816DA
:10559000D10454F4882799278C199D0980389105E6
:1055A00014F08FE790E0182F0F83188785E0FE0135
:1055B0003696DE01119601900D928A95E1F72981C8
:1055C0003A814B815C816D8170E080E090E02A96A9
:1055D0000FB6F894DEBF0FBECDBFDF91CF911F9104
:1055E0000F91FF90EF90DF90CF90BF90AF909F9082
:1055F00008959F92AF92BF92CF92DF92EF92FF9267
:105600000F931F93CF93DF93CDB7DEB72F970FB6CE
:10561000F894DEBF0FBECDBF8E010F5F1F4F88E035
:10562000D8011D928A95E9F790E4E92E91E0F92ED0
:1056300099249394CC24C394D12C39E4A32E31E043
:10564000B32EF70181917F018F3F09F444C0F89494
:10565000E82FE295EF70F0E021A18F70A60102C063
:10566000440F551F8A95E2F7CA01922F982B91A3F8
:1056700092A18095892382A30E94D50E00C065E483
:1056800071E0F801492D4095DB019D91BD018081BC
:105690009F3F09F477C0292F22952F7030E0D90160
:1056A00090962C9130E09F7002C0359527959A9581
:1056B000E2F720FD67C0892980833196A616B706D8
:1056C00019F7F701319780818F3F11F00E94D70EB3
:1056D000B0EABA95F1F7990CE5E4EE16E1E0FE06C2
:1056E00009F0AFCF48E050E0B80185EE92E00E94AB
:1056F000AB347C01892B41F088E0F801A5EEB2E0E3
:1057000001900D928A95E1F71091EE02E114F104F7
:10571000D9F181E080939D020E94172190939C0211
:1057200080939B0280919B0290919C020E942B0D82
:10573000059790F0E12FF0E0E550FD4F8091E502F4
:1057400080838091E60281838091E7028283809149
:10575000E802838310929D0281E090E0EF28C1F07F
:105760002F960FB6F894DEBF0FBECDBFDF91CF915D
:105770001F910F91FF90EF90DF90CF90BF90AF906F
:105780009F900895842398CF80919D028111CACF64
:105790000E943412F82EE091EE02882309F48EC0A4
:1057A00019861A861B861C860E2F10E005501D4F89
:1057B0008091E0028A3008F04AC041EE5EE1BE010D
:1057C000675F7F4FC8010E94F011882309F44FC022
:1057D0004FEE5DE1BE01675F7F4FC8010E94F0118F
:1057E000882309F444C045E35DE1BE01675F7F4F54
:1057F000C8010E94F0118823D1F148EB5DE1BE01A0
:10580000675F7F4FC8010E94F011882381F142E752
:105810005EE1BE01675F7F4FC8010E94F0118823DF
:1058200031F11092E0028091ED0290E044E050E00E
:10583000BE01675F7F4F85509D4F0E94AB3421E0D2
:105840002093A802892B61F5F12C8F2D89CF8091AF
:105850009E0290919F020E942B0D843F914008F080
:10586000ACCF8091A802811112C080E079CF8091E5
:10587000E0028F3F29F08F5F8093E0028A3098F238
:105880000E94172190939F0280939E02EACFFE010F
:10589000399684E0DF011D928A95E9F71092A802FB
:1058A000E091ED02F0E0E550FD4F89859A85AB85EA
:1058B000BC8580839183A283B383C7CFF0E0E5509A
:1058C000FD4F0091ED0210E005501D4FF89484E06B
:1058D000ABEAB2E001900D928A95E1F764E070E0E6
:1058E0008BEA92E00E948C0D8093AA020E94D50E52
:1058F000F89484E0EFEAF2E0D80101900D928A95E5
:10590000E1F70E94D50EF894C090B302D090B40293
:10591000E090B502F090B6028091A0029091A102B1
:10592000A091A202B091A302C816D906EA06FB060E
:10593000D1F0C092A002D092A102E092A202F09215
:10594000A3020E94341281110EC00E943A0DC61AA1
:10595000D70AE80AF90AC092E102D092E202E09284
:10596000E302F092E4020E94D50EF89486E0E7EBA1
:10597000F2E0A3EEB3E001900D928A95E1F7109169
:10598000BD02112349F080915003811105C00E948E
:10599000911280E00E94180E109350030E94D50EC1
:1059A000F8940E946712811156C06091A402709110
:1059B000A5028091A6029091A7020E940F0D672B6D
:1059C000682B692B09F447C00E943A0D6093A4022A
:1059D0007093A5028093A6029093A7020E942216BC
:1059E0009F878E870091C4021091C5020115110591
:1059F00071F042E050E0BE01625F7F4F84EC92E0C4
:105A00000E94AB34892B19F0C8010E944D168E01FB
:105A1000075F1F4F85E0F82EF8012F2D11922A9570
:105A2000E9F749855A856B857C858D850E945F2ABB
:105A300029873A874B875C876D87F801AFEBB2E027
:105A400001900D92FA94E1F765E070E0C8010E94C0
:105A50008C0D8093BE020E94D50E07CF1F921FB6F9
:105A60001F9211248F939F93AF93BF938091C00394
:105A7000811113C08091C1039091C203A091C3030F
:105A8000B091C4034196A11DB11D8093C1039093B1
:105A9000C203A093C303B093C403BF91AF919F917E
:105AA0008F911F901FBE1F901895CDB7DEB7AA9794
:105AB0000FB6F894DEBF0FBECDBF84B7877F84BF1B
:105AC0000FB6F894A895809160008861809360007B
:105AD000109260000FBE80E890E00FB6F8948093BB
