:100000000C94CA0A0C94110B0C94110B0C94322F03
:100010000C94110B0C94110B0C94110B0C94110BF0
:100020000C94110B0C94110B0C94151E0C94D11DF7
:100030000C94BA2A0C94110B0C94110B0C94110B08
:100040000C94110B0C94110B0C94110B0C94110BC0
:100050000C94110B0C94EE1E0C94110B0C94110BC0
:100060000C94110B0C94110B0C94110B0C94110BA0
:100070000C94110B0C94110B0C94110B0C94110B90
:100080000C94110B0C94110B0C94110B0C94110B80
:100090000C94110B0C94110B0C94110B0C94110B70
:1000A0000C94110B0C94110B0C94110B050109808D
:1000B000A101850319012AB700150126B700950192
:1000C00075108100C0050C0901A101850419012AE0
:1000D000A002150126A002950175108100C005013E
:1000E0000902A1010901A10005091901290815004A
:1000F0002501950875018102050109300931158135
:10010000257F95027508810609381581257F95019F
:1001100075088106050C0A38021581257F95017541
:10012000088106C0C005010906A101050719E029DB
:10013000E715002501950875018102950175088173
:10014000010507190029FF150026FF00950675080F
:100150008100050819012905950575019102950190
:1001600075039101C005001D001300120034000446
:100170006818640C62086136001A441C001B0038C1
:10018000000E00000000002A4328412B420D000F02
:1001900000070019003700117815641672177106F0
:1001A0000009440B000A00140010000000000000C9
:1001B000002C462945005C0000000000000000E320
:1001C00000E200E100E0000000F300E600F200F1D0
:1001D000000000000000000000000000007A004C59
:1001E000024901490279004F005200510050003984
:1001F000004D004B004E004A004900000000000086
:10020000004C002800005C0000000000000000E33B
:1002100000E200E100E00000000000E60000000055
:10022000000000000000000000000000007A004C08
:1002300002490149027900F000ED00EE00EF0000F4
:1002400000FC00F900FA00FB0000000000000000C4
:1002500000F300F100005C0000000000000000E37B
:1002600000E200E100E00000000000E60000000005
:1002700000000000000000000000000000CA5CC890
:100280005CC65CC45CC35CAB00A900AA00AC000007
:10029000000000000000000000000000000000005E
:1002A00000AE00AD00A85D490249014C027A00A6EB
:1002B0005DAC5DE100E00001007900490249014CBC
:1002C000027A0000000000F200F100F3007A004C16
:1002D00002490149027900F000ED00EE00EF000054
:1002E00000FC00F900FA00FB000000000000000024
:1002F00000F300F1002F022402250226023002330F
:10030000022102220223022E0235021E021F0220B7
:1003100002310200000000260227022D02005C00CC
:1003200000000000000000E300E200E100E0000047
:10033000000000E6000000000000000000000000D7
:1003400000000000002F00240025002600300033AC
:10035000002100220023002E0035001E001F002077
:1003600000310000000000370027002D00005C0075
:1003700000000000000000E300E200E100E00000F7
:10038000000000E600000000000000000000000087
:1003900000000000004500400041004200460044CB
:1003A000003D003E003F00470043003A003B003C58
:1003B0000048000000000065002C002B00005C00DD
:1003C00000000000000000E300E200E100E00000A7
:1003D000000000E600000000000000000000000037
:1003E000000000000001048E966E773EFE7E5F1DC9
:1003F000B8F2664EFF5D19B0C20469542AD62EBF0A
:10040000DD19B0C3E529B1E023A5A9B1C100826718
:100410004C1A978D795120C7068E7C7C7A764FFDD9
:100420005930E2460E9EBEDF1D9991A0A5A1A9D02C
:1004300022C6EF5C1B958990A2A7CCFB5528B3E49C
:100440004AF76C3BF46A562EDE1F9DB8D30588929E
:10045000A6CE1EBEDF1D99B0E246EF5C07115D9887
:100460000B9D9497EE4E45336B44C729562730C6F3
:10047000A7D5F256DFB43862CBA0B6E30F840624CA
:1004800005656F7689B577412782666582CCD5E6AA
:1004900020D52717C5F803237C5F64A51DC1D63678
:1004A000CB4CD4DB66D78BB1997E6F4C364006D6E9
:1004B000EBD7A2E4F495515A5496D55344D78CE027
:1004C000B94068D218E9DD9A239248EE7F43AFEA3B
:1004D0007738848C0A72AF69F8DDF12483A3F84A77
:1004E000BFF59413DBBBD8B4B3A0FB4550603059C3
:1004F000123171A2D313E7FAE7CE0F63150B6B9499
:10050000BB378326059DFB4692FC0A15D10D7392DD
:10051000D68C1B8CB8558ACEBDFE8EFCED0912839D
:100520009182513123FBB40C76AD7CD9B44BB267C8
:1005300014099C7F0C18BA3BD68E142AE41B529FD8
:100540002B7DE1FB6A3302FAAC5AF23E887EAED1D3
:10055000F378E805D1E3DC21F6E19ABD170ED94620
:100560009B8803EAF666BE0E1B5049964097F1F150
:10057000E480A66EE87734BF294044C2FF4E98D38A
:100580009CA3322B76510409E7A9D1A632B123539B
:10059000E247ABD6F5695C3E5FFAAE4520E5D24452
:1005A000FF39326DFD27575CFDF0DEC1B599E5F5E9
:1005B0001C770175C56D5892F2B247000126967AF4
:1005C00030FFB7F0EF77C18A5DDCC0D129301E77EC
:1005D000387A94F1B87A7EEFA4D1AC314AF25D64F6
:1005E0003DB2E2F00899FC70EE24A77EEE1E206971
:1005F0007D44BF8742DF883B0CDA42C904F945508D
:10060000FC838F116A72BC9995F0AC3DA73BCD1C61
:10061000E2887937115F3989950A16847AF68AA4B7
:1006200028E4ED83803BB123A50310F466EABB0CFC
:100630000FC5EC6C69C5D324ABD42AB7998876086A
:10064000A0A8957CD8386DCD5902514BF1B52B50EF
:10065000E3B6BDD072CF9EFD6EBB44C8248A771826
:100660008A1306EF977DFA81F031E6FA77ED3106CD
:10067000315B548A9F3068DBE240F84E73FAAB740A
:100680008B105813DCD2E678D1322E8A9F2C580674
:100690004827C5A95E8147894621910370A43E88F9
:1006A0009CDA330ACEBC8B8ECF9FD3718043CF6B45
:1006B000A95183763082C56A853911501A82DC1EB1
:1006C0001CD57DA9719933471997B35AB1DFEDA4B1
:1006D000F2E62684A2289A9EDFA66AF4D6FC2E5B58
:1006E0009D1A2A2768FBC183214B90E036DD5B31E0
:1006F0004255A013F7D089537199570929C5F321A1
:10070000F8372F40F3D4AF16083602FC77C58B04B8
:100710009056B9C9679A99E800D386FF972D08E9E2
:10072000B7B391BCDF45C6ED0F8C4C1EE65B6E384F
:1007300030E4AAE395DEB9E49AF5B2559A879BF6C0
:100740006AB2F2779A31F47A31D11D04C07C32A2B8
:100750009E9AF562F8278DBF51FFD3DF64373F2A99
:100760006F763A7D77069E777F5EEB3251F916669B
:100770009A09F3B008A470964630FFDA4FE91BEDF2
:100780008DF8741F3192B3731736DB9130D68855CC
:100790006B3477877AE7EE06C61C8C190C48462323
:1007A0005E9C075CBFB47ED64F749CE2C5508BC57F
:1007B0008B159060625729D01343A1808891004423
:1007C000C74D1986CC2F2A755AFCEB972A70E3780F
:1007D000D891B04F9907A395EA2421D5DE512093F3
:1007E000270A3073A8FF8A97E9A76A8E0DE8F0DF21
:1007F000ECEAB46C1D392A622D3D5A8B65F89005E0
:100800002E7E912C78EF8E7AC12FAC78EEAF2845F2
:10081000064C26AF3BA2DBA39306B53CA5D8EE8FD2
:10082000AF25CC3F856848A962CC978F7F2AEAE044
:10083000150AAD6207BD45F841D836CB4CDB6EE6F4
:100840003AE7DA15E9291E1210A0142C0E3DF4BF68
:10085000394192750B257BA3CE399C1564C8FA3DAE
:10086000EF7327FE262ECEDA6EFD718EDDFE76EE5C
:10087000DC125C02C53A4E4E4FBFCA4015C76E8DA2
:1008800041F110E04F7E977F1CAE478E6BB1253152
:10089000B073C71B9779F980D366223007741EE4C2
:1008A000D08021D6EE6B6C4FBFF5B7D909872FA941
:1008B00014BE27D9725001D41373A6A7510275250F
:1008C000E1B345347DA88EEBF31649CB4F8CA1B92B
:1008D000368539755D0800AEEBF6EAD7133A215A32
:1008E0005F3084522695C914F257556BB110C2E19E
:1008F000BD3B51C0B7554C711226C70DF951A438F4
:1009000002057FB8F1724BBF718914F37738D97142
:1009100024F30011A1D8D46927083735C9119D9057
:100920001C0EE71CFF2D1EE892E11810957CE0805C
:10093000F4964321F975216438DD9F1E9516DA5629
:100940001D4F9A53B2E2E418CB6B1A65EB56C63BC7
:10095000E5FED8263F3A84597266A2F375FFFB6024
:10096000B322AD3F2D6BF9EBEA057CD88F6D2C9847
:100970009E2B93F15E46F08749297368D77FF9F083
:10098000E57DDB1D7519F3C4589B1788A892E0BE5E
:10099000BD8B1D8D9F5676ADAF29E2D9D552F6B5E8
:1009A0005635573AC8E156431994D3049B6D35D850
:1009B0000B5F4D198EECFA64910A72202BBC1A4A17
:1009C000FE8BFDBBED1B23EAAD7282A1299971BD9F
:1009D000F095C103DD7BC2B23C2854D368A472C831
:1009E0006696E0D1D87FF8D1262BF7ADBA55CA1557
:1009F000B932C3E588978E5CFB92258BBFA2455523
:100A00007AA76F8B575BCF0ECB1DFB208277A88C0C
:100A1000CC16CE1DFADECC0B62FECCE1B7F0C38162
:100A2000647340A0C24D8911753355338DE84AFD7A
:100A3000EA6E300BD7312CDE47E3BFF85542E27F38
:100A400059E517EF99346991B1238E20872DA8FEBF
:100A5000D58AF3843AF037E4090054EE674993E409
:100A60008170E3904DEFFE41B7997BC183BA62126A
:100A70006F7DDE6BAFDA16F95551EEA60C2B02A393
:100A8000FD8DFB3017E46FDF3671C4CA872548B08F
:100A900047ECEAB4BFA54D9B9F0293C4E3E4E84250
:100AA0002D6881150AEB845BD6A874FB7D1DCB2CC9
:100AB000DA462A7662CEBC5C9E8BE7CFBE78F57CA8
:100AC000EBB33A9CAA6FCC72D159F21123D63F48AE
:100AD000D1B7CEB0BFCBEA80DE57D45E972F75D1A9
:100AE000508E802C6679BF724BBD8A816CD3E10138
:100AF000DCD21526C536DA2C1AC02794EDB79B85B3
:100B00000B5E8097C5EC4FEC885D50073547DC0BDA
:100B10003B3DDD60AFA85D813824255D5C15D1DEED
:100B2000B3ABEC0569EF83ED5754B864641116322A
:100B300069DA9F2D7F36BB445A34E87FBF03EB0050
:100B40007F59682279CF736C2C29A7A15F38A11D2A
:100B5000F02053E01A6314587110AA080C3E161ABC
:100B60006022827FBAA443A0D0AC1BD56B64B514BD
:100B700093319E5350D05766EE5A4FFB032A695863
:100B800076F183F74EBA8C4206605D6DCE6088AE1A
:100B9000A4C3F103A54B98A1FF67E1ACA2B862D74B
:100BA0006FA031B4D277AF211006C69AFF1D091786
:100BB0000E5FF1AA54344B458A8763A6DCF92430D2
:100BC00067C6B2D6613369EE50615728E77EEEEC16
:100BD0003A5A734EA88DE418EAEC4164C8E2E8661C
:100BE000B62DB6FB6A6C16B3DD4643B973006A7165
:100BF000ED4E9D251AC33C4A95159935811402D6B0
:100C0000989BECD8233B8429AF0C9983A69A344F48
:100C1000FAE8D03C4BD0FBB668B89E8FCDF7602D7C
:100C20007A22E57DAB651B95A7A87FB677477B5FEA
:100C30008B1272D0D491EFDE19503CA78BC4A9B3AC
:100C400023CB76E681F0C1048FA3B8545B97AC192F
:100C5000FF3F55272FE01D429B57FC4B4E0FCE9870
:100C6000A9435703BDE7C894DF6E367332B4EF2E45
:100C7000857A6EFC6C188275359007F3E49F3EDC34
:100C800068F3B5F31980920699A2E86FFF2E7FAE44
:100C900042A45FFBD40E812BC304FF2BB3744E36EA
:100CA0005B9C1500C6472BE88B3DF19C039A587F4F
:100CB0009B9CBF854979352E567B41143947832645
:100CC000AA078998111B86E7737AD87D786153E962
:100CD00079F5368D449284F91350583BA46A3665F1
:100CE000498E3C0EF16FD284C47E8E3F39AE7C8437
:100CF000F163378E3CCC3E448145F14BB9ED6B3608
:100D00005DBB20601A0FA3AA55773AA9AE374DBA3A
:100D1000B8866BBC0850F6CCA4BD1D4072A586FAFF
:100D2000E210AE3D584B97F34374A99EEB21B701F7
:100D3000A4869397EE2F4F3B86A1416F4126907872
:100D40005C7F30384B3FAAECED5C6F0EAD4387FD06
:100D50009335E601EF412690999EFB195BADD29148
:100D60008AE046AF65FA4F84C1A12DCF458BD3856C
:100D700050557CF96788D44EE9D76B6154A1A4A67D
:100D8000A2C2BF309C409F5FD7692B24825ED9D618
:100D9000A712541AF7559F7650A99584E66B6DB546
:100DA0009654D6CDB3A19B46A7944DC494B498E372
:100DB000E1E234D533160754CDB77753DB4F4D46B8
:100DC0009DE9D49C8A36B6B838266C0EFF9C1B432E
:100DD0008B80CCB93DDAC7F18AF26DB8D7742F7E1B
:100DE0001EB7D34AB4ACFC79486CBC96B69446574F
:100DF0002DB0A3FC1EB95260852D41D043011E1CAD
:100E0000D57DFCF3960DC7CB2A299A93DD882D3723
:100E10005DAAFB4968A09C50867F685657F97918EF
:100E200039D4E001843361CAA5D2D6E4C98A4A2301
:100E3000444EBCF0DC24A1A0C4E2073C10C4B5259C
:100E40004B6563F480E7CF61B1718221872CF59106
:100E500000320CECA9B59A7485E3368F764F9C6D01
:100E6000CEBCAD0A4BED7604CBC3B9339E0193964D
:100E7000697DC5A245799B045C8409ED8843C7ABB5
:100E8000931426A140B5CE4EBF2A42853E2C3B543A
:100E9000E8121F0E9759B22789FAF2DF8E6859DCE3
:100EA00006BCB6850D0622ECB1CBE504E63DB3B039
:100EB0004173083F3C588663EB50EE1D2C3774A9F4
:100EC000D318A3476E9354AD0A5DB82A555D78F6E2
:100ED000EEBE8E3C7669B940C234EC2AB9ED7E2074
:100EE000E48D0038C7E68F44A886CEEB2AE990F15E
:100EF0004CDF32FB731B6D921E95FEB4DB65DF4D3C
:100F000023548948BF4A2E70D6D762B43329B13AE8
:100F1000334C236DA676A5216348E6905DED909550
:100F20000B7A84BEB80D5E630C62264C145AB3ACC7
:100F300023A474A76F333005600142A028B7EE19CF
:100F400038F164808243E141271F1F90547AD523F2
:100F50002ED13DCB28BA587FDC7C9124E9285183DF
:100F60006EC5562142EDA05622A140806BA8F79491
:100F7000CA136B0C39D9FDE9F36FA69EFC708AB3D6
:100F8000BC593C1E1D6CF97CAFF9887195EB57007C
:100F9000BD9F8C4FE12483C522EAFDD30CE21718D4
:100FA0007C6A4CDE77B4539B4C81CD2360AA0E251E
:100FB000739C02793230DF74DF7519F4A5145CF785
:100FC0007AA8A591847C6003063BCD50B6279CFE91
:100FD000B1DDCCD3B05924B2CAE21C81229D078F67
:100FE0008EB9BE4EFAFC3965BABF9D12375E977E48
:100FF000F389F55DF5E3098C62B5209D0C538A6891
:101000001BD28F75175DD4E5DA756219146A262D27
:10101000EBF8AF37F06CA455B1BCE233C09ACAB05C
:1010200011494F689B3B6B3CCC13F6C78561684206
:10103000AEBBDDCD4516291DEADBC803943CEE4F5F
:101040008211C3EC28BD970599DED7BB5E221FD461
:10105000EB64D992D985B76A056AE42441F1CDF0F1
:10106000D83FF89E0ECD0B7A706B5A750A6A33889A
:10107000EC17750870102F24CFC4E942006194CAA0
:101080001F3A7606FAD24881F077600345D961F4B9
:10109000A46F3DD930C3046B542AB7EC3BF44BF535
:1010A000685226CEFF5D1991A0A3A5A9B1E023C483
:1010B0000A774DF95120A3A5A9B1C10082868E7F80
:1010C0005D1991A0A3C4EB540B756852078C9A97D5
:1010D0008D79706246EF5C1B95897141E121A1A178
:1010E000A1C002674C1AB6CFFD785324ABB5C9F145
:1010F0006023A5C812876D5813858892876D583272
:10110000C70C9A97ACDA36EE5E3EDF1DB8F2662F5A
:10111000BDF87247ED5813858892878C7B550990EE
:10112000A2C6EF3DF85324ABD42AB7EC5A36EE5E94
:101130003EDF3CFA764FFD5930E246EF3DF853056D
:101140006931C10082868E7F5D19B0E227CCFB74C5
:101150004B148B948B756833C50892878C9AB6CFE5
:101160001CBAD70D98B2E62FDC1B9589716023C499
:101170000A968F9CBAF66E3FFC5B15A8D226AFBDCF
:10118000F872662FDC1BB4CB148B94AAB7CDF9513F
:10119000018082866F3DD930E227CCFB744B14AAC4
:1011A000B7CDF97043046B35C9F16023A5C8F34589
:1011B0000892876D5832E62FBDF872664E1EBEFE4D
:1011C0007E7E7E5F1D9991A0A3C40A774D1893A4DB
:1011D000ABD40B754910A2C6EF3DF85324ABB5E86C
:1011E00033E44A16AEDE1FBCDB15A8B3C508734551
:1011F000E931C1E121A1A1A1C002866F5C3AD70DFE
:101200009893A4CA16AEDE1F9D99B0E246EF3DF852
:1012100072470C9AB6CFFD5911A0A3A5C8F3450893
:1012200092876D39F043048A96AEDE3EDF1D9991B8
:10123000A0C2066F3DF872470C9A978D98938588E7
:101240007345E931E023A5A9D003848A96AEDE1F59
:10125000BCDB15A8D226CEFF5D1991818082672D57
:10126000D813A4ABD40B94AAB7CDF95120A3A5C829
:10127000F345E95022C6EF5C3AD70D989385887301
:10128000644AF74DF95120A3C40A96AEDE3EFE7EB5
:101290007E7E5F3CFA764FFD7872662FBDD930C3F3
:1012A000E54812878C7B5528D2078C9A97ACDA17C1
:1012B0008D795120A3C4EB540B948B94AAD62EBFE6
:1012C000FC5B15A8D226AFDC1BB4EA37EC3BF46A12
:1012D00037CD1893856931C1E140E325C812878C69
:1012E0009AB6CFFD5911A0C2068E7F5D38F2470C29
:1012F0007B746A37EC5A36EE3FFC7A764F1C9B952E
:10130000897141006344EB542AD60F9CBAD70D98DB
:1013100093856931C10082868E9EBEDF3CFA572CD0
:10132000DA36EE3FFC5B158971410082868E7F5D67
:1013300038F247ED5813A4CAF74DF95101806344C0
:10134000EB542AD62EBFDD1991A0A3A5A9B1E04286
:10135000068E7F5D1991A0A3C40A968F7D7872478F
:101360000C7B746A562EDE1FBCFA570D7951016151
:1013700021A1C0E325A9B1C1E14002674C1A978DB4
:101380009893A4ABD42AD60F9C9BB4CB14AAB7CD08
:10139000F95120A3C4EB35C9F16042068E7F7C7AF7
:1013A000766E3FFC7A766E5E3EFE7E5F3CDB158994
:1013B0007141E121C0E344EB542AB7CDF9706227B3
:1013C000ADD832C70C7B744B14AAB7EC3BD528D2EE
:1013D000076D39D120C2E74C1A978D98B2C70C59C6
:1013E00028F39B0001010101010101010102020238
:1013F00002020202020203030303030303030404C1
:10140000040404040405050505050606060606078A
:101410000707070708080808090909090A0A0A0B43
:101420000B0B0C0C0C0D0D0D0E0E0E0F0F0F1010E4
:10143000111111121213131414151516161717186B
:101440001819191A1A1B1B1C1D1D1E1E1F202021D6
:101450002222232424252626272829292A2B2C2D1D
:101460002D2E2F30313232333435363738393A3B3E
:101470003C3D3E3F404142434445464748494A4C33
:101480004D4E4F50515354555658595A5B5D5E5FFF
:10149000616264656668696B6C6D6F707273757795
:1014A000787A7B7D7E8082838587888A8C8E8F91F7
:1014B000939596989A9C9EA0A2A3A5A7A9ABADAF21
:1014C000B1B3B5B7BABCBEC0C2C4C6C9CBCDCFD10B
:1014D000D4D6D8DBDDDFE2E4E7E9EBEEF0F3F5F8B4
:1014E000FAFDFF09025400030100A0FA09040000FC
:1014F000010301010009211101000122400007053B
:10150000810308000A090401000103010200092106
:10151000110100012247000705820308000A09049F
:101520000200010300000009211101000122320024
:101530000705830320000A1201000200000008F8DA
:10154000A832180100010200011E03430068006177
:101550000072007900620064006900730020004E90
:101560000061006E006F0000002403420061007300
:1015700000740061007200640020004B0065007977
:101580000062006F006100720064007300000004DC
:101590000309040011241FBECFEFDAE0DEBFCDBF88
:1015A00004B603FE27C08091CE039091CF03A09193
:1015B000D003B091D1038730904BA740B04BD1F40A
:1015C0001092CE031092CF031092D0031092D10349
:1015D00014BE84B7877F84BF0FB6F894A895809116
:1015E0006000886180936000109260000FBEE0E0B0
:1015F000F8E3099512E0A0E0B1E0E4ECF2E602C005
:1016000005900D92A033B107D9F723E0A0E3B2E033
:1016100001C01D92AE3CB207E1F70E94E12A0C9492
:1016200034310C9400008FEF9FEF0C94A7160C94AC
:10163000130BFC01AC014C5F5F4F8FEF91E32191E5
:10164000822728E030E087FF09C0880F89272150D2
:101650003109C9F7E417F50791F70895880FF7CF17
:101660009091C503937061F081110BC094609093C9
:10167000C503109252018091C40381608093C4031A
:101680000895833010F09860F2CF880F880F982B60
:10169000EECF9091C503937071F08093C603609371
:1016A000C703413408F040E44093C8038091C40369
:1016B00081608093C4030895E8EDF0E080818E7F1F
:1016C00080831092E2001092DA001092E100A0EE06
:1016D000B0E08C9181608C9380818F77808319BC7E
:1016E000A7EDB0E08C918E7F8C9380818F7E80837C
:1016F0001092AA0308952091E4003091E50095E648
:10170000A9012091EC00822F817020FF06C08091FA
:10171000E80080FF06C080E008952091E80022FDE7
:101720001AC08091B703882389F0853089F08091B1
:10173000EB0085FD0FC02091E4003091E5004217D9
:101740005307F9F29150E1F684E0089582E008959C
:1017500083E0089581E00895EF92FF920F931F9325
:10176000CF937C018B010E947B0BC82F811117C086
:101770008091E80085FD0BC08091E8008E77809312
:10178000E8000E947B0B882399F3C82F08C0F7015B
:1017900081917F018093F1000150110949F78C2F4D
:1017A000CF911F910F91FF90EF9008958091B90311
:1017B00087FF13C08091E80082FF06C08091E80097
:1017C0008B778093E80004C08091B7038111F2CF3A
:1017D00008958091B7038823D9F38091E80080FFB2
:1017E000F8CF8091E8008E77ECCF982F9093E900A6
:1017F000242F762F50E0891731F07091EC00209162
:10180000ED005091F00021FD07C09F5F973071F708
:101810008093E90081E008953091EB003E7F3093A2
:10182000EB003091ED003D7F3093ED003091EB0007
:1018300031603093EB007093EC002093ED005093F7
:10184000F0002091EE0027FDE0CF80E00895CF92D8
:10185000DF92EF92FF920F931F93CF93DF93C8ED28
:10186000D0E088818F7E8883E7EDF0E08081816021
:10187000808384E082BF81E08093AA0388818E7F89
:10188000888302EE10E0F80110821092DA0081EEF7
:10189000C82ED12CF601108288818F7788838881A9
:1018A0008068888388818F7D888319BC1092B703F4
:1018B0001092B8031092B6031092B50390EEE92E81
:1018C000F12CF70180818B7F808388818160888300
:1018D00042E060E080E00E94F50BF60180818E7F9F
:1018E0008083F8018081816080838081886080832B
:1018F000F70180818E7F8083888180618883DF917A
:10190000CF911F910F91FF90EF90DF90CF900895AE
:10191000FC018091BF039091C00386179707A0F048
:101920006115710529F49091E8009E779093E80085
:1019300090E06115710551F4911108C08091E800A3
:1019400082FF34C080E00895BC01F2CF8091B703DC
:101950008823C1F18530C1F18091E80083FD30C05A
:101960008091E80082FDEACF8091E80080FFE1CF1E
:101970008091F3002091F200382F6115710519F064
:101980002830310558F091E02830310509F090E019
:101990002091E8002E772093E800CBCF81918093AF
:1019A000F100615071092F5F3F4FE7CF8091B7037E
:1019B000882341F0853041F08091E80083FFBECF5D
:1019C00081E0089582E0089583E00895089580916C
:1019D000AC0308959C014FB7F8948091A3039091B4
:1019E000A403A091A503B091A6034FBF821B930B44
:1019F00008952FB7F8946091A3037091A403809188
:101A0000A5039091A6032FBF08959C01FC01329677
:101A10009FEF80E04191461751F09F3F19F441112B
:101A200001C0982F8F5F8630A9F79F3F09F4089572
:101A3000290F311D97FD3A95F90162830895209190
:101A4000A0033091A1032817390771F09093A103E7
:101A50008093A003E0919E03F0919F03309721F0C3
:101A60000084F185E02D0994089520919C03309124
:101A70009D032817390771F090939D0380939C0371
:101A8000E0919E03F0919F03309721F00680F7814B
:101A9000E02D09940895FA01811101C0FB01099418
:101AA000E5ECF3E0248130E1231B08F420E02483FB
:101AB0008091C40381608093C4030895E5ECF3E052
:101AC000248130E1230F08F42FEF24838091C40395
:101AD00081608093C4030895E5ECF3E0438120E145
:101AE000421B08F440E08181628190E00C94490B34
:101AF000E5ECF3E0438120E1420F08F44FEF8181F0
:101B0000628190E00C94490BE5ECF3E0628120E106
:101B1000621B08F460E08181438190E00C94490BE2
:101B2000E5ECF3E0628120E1620F08F46FEF818160
:101B3000438190E00C94490BE5ECF3E08181438113
:101B400062818850990B0C94490BE5ECF3E081819C
:101B500090E04381628108960C94490B8091C50303
:101B600086958695815009F482E00C94300B809123
:101B7000C503869586958F5F833008F081E00C94CD
:101B8000300B80934D018091C503837080934C018D
:101B90000E949A1383E0809352010895FF920F935D
:101BA0001F93CF93DF93182F062FF42ED0E0C0E0C1
:101BB0002F2D402F612FCE010E943D142196C3325C
:101BC000D105B1F7DF91CF911F910F91FF9008954B
:101BD000AF92BF92CF92DF92FF920F931F93CF935A
:101BE000DF93362F472FE82FF0E0ED51FC4E7111B7
:101BF0000FC0E4918E2F2E2F6E2F722FDF91CF9179
:101C00001F910F91FF90DF90CF90BF90AF900895FC
:101C1000C72FD0E02491F22E022F10E056E0659FEE
:101C2000C0011124EFEFF0E0BF010E94AC30832F20
:101C300090E0880F991F35E5369FD001379FB00D92
:101C400011248A1B9B0B982F990F980F6F01CC1AA8
:101C5000DD0AC09ED001C19EB00DD09EB00D1124F2
:101C60008B2F499FA0011124452F55276F01C41ABE
:101C7000D50AC09EA001C19E500DD09E500D1124CA
:101C80005F01A91AB108AC9E6001AD9ED00CBC9E4C
:101C9000D00C1124CD2CDD24EC19FD09E09FE001CE
:101CA000E19FD00DF09FD00D1124ED2F6230710512
:101CB000A1F050F46115710509F49ECF61307105F2
:101CC00081F0EB2F852F98CF6430710569F080F09B
:101CD0006630710509F490CFF4CFE22F2B2F8D2FB2
:101CE0008BCFE22F252F88CFEB2F822F2D2F84CF64
:101CF0002B2F8F2DE52F80CF80E0089578940895C5
:101D0000F894E82FE295EF70F0E031A1282F2F70C2
:101D100081E090E001C0880F2A95EAF7982F90950E
:101D2000932391A392A1892B82A30C947E0E909170
:101D3000D20292FF06C0282F28712830F9F4877F3D
:101D4000846093FF06C0282F28712831F1F4877E24
:101D500084612091D30220FF06C0382F38713830BB
:101D6000D9F4877F816021FF06C0282F2871283190
:101D7000D1F4877E816194FD877E0895282F247198
:101D80002430F9F68B7F8860DCCF282F2471243132
:101D900001F78B7E8861DDCF382F3171313019F733
:101DA0008E7F8860E0CF282F2171213121F78E7E30
:101DB0008861E1CFCF93DF93EC0182389105A9F1DF
:101DC000D8F58133910509F496C048F5893291051B
:101DD00009F48AC08A9709F495C0C11522E5D20793
:101DE00008F0B6C0C11531E5D30708F026C1C83EDA
:101DF000D10508F09CC0C03ED10560F5C83AD105B8
:101E000008F087C0C53AD10508F0EFC0C130D10550
:101E100009F12097F9F0C430D105E0F440C08533D2
:101E2000910509F45AC0C997C1F68091D202837016
:101E300089F0C0EED0E00EC0833E910599F170F4B8
:101E4000803E910501F1823E910539F68091D202E2
:101E500082FD21C0CE01DF91CF910895863E91058C
:101E600061F1873E910571F1843E910509F0B5CF8E
:101E70008091D30281FFEECF8091D202C7EED0E0F5
:101E800084FD0DC0E7CF8091D20280FD07C1909103
:101E9000D30290FFDFCFC3EED0E084FFDBCFD0E0F2
:101EA000C0E0D8CF8091D20282FDFBC09091D302D6
:101EB00090FDBFCF84FFCECFF2CF8091D20283FDC1
:101EC000DDCFC8CF8091D20283FDEEC09091D302C6
:101ED00091FFF0CFC4EED0E0BDCF8091D20285FF5C
:101EE000B9CFC9E2D0E0B6CF8091D20285FFB2CFA0
:101EF000C5E3D0E0AFCF8091D20286FFABCFCAE27C
:101F0000D0E0A8CF8091D20286FFA4CFC1E3D0E079
:101F1000A1CFCF3BD10518F6C85AD0E0CC0FDD1FBA
:101F2000C15ADE4F0990D881C02DD46493CFC1151A
:101F300040E5D40708F064C0C11580E4D80708F074
:101F40005CC0CE019A9581159F4108F483CFA7CF3D
:101F5000C11536E5D30718F5C11545E5D40708F0D6
:101F600084C0C11584E5D80708F07AC09C2F9695E7
:101F700096959E0123703327C115D34508F462C09E
:101F8000C1E0D0E002C0CC0FDD1F2A95E2F730E2BD
:101F9000939FC0011124C82BD92BDA685BCFC115E0
:101FA0008AE5D80778F4C11599E5D90708F068C023
:101FB000C11528E5D20708F472CFDC2FCC27C06FFB
:101FC000D06A48CFCE0190568115904208F067CF75
:101FD0008D2F8F710E94970E90E0982F8827882769
:101FE0009F719C012C2BE90149C0C55AD0E0C45A0D
:101FF000DE4FC881D0E0D0642DCFDF70D06A2ACF09
:10200000CE01E4E096958795EA95E1F783702C2F51
:1020100026952695237040E2249F90011124382BA9
:102020008C2F8370C1E0D0E002C0CC0FDD1F8A95F9
:10203000E2F7C22BD32BDC680DCFDC2FCC27C16F8E
:10204000D06A08CFC1E0D0E002C0CC0FDD1F2A95D6
:10205000E2F720E2929FC0011124C82BD92BEBCFCD
:10206000DC2FCC27C46FD06AF5CE8C2F0E94970E40
:10207000C82FD0E0DC2FCC27CC27DF71D062EACE8E
:102080008C2F8F700E94970E34E0D695C7953A95A5
:10209000E1F7CF709C2FEC01D069DCCEC9E3D0E032
:1020A000D9CEC2EED0E0D6CEC6EED0E0D3CE80916F
:1020B0009102811110929102089580959091900261
:1020C00098239093900208958091900290918F02AE
:1020D000892B90918E02892B8093320290919102EC
:1020E000992391F0892B8093320220E084E392E0DF
:1020F000FC013191CF0131112F5FF2E08A339F074C
:10210000B9F721110E945710E0919E03F0919F03AF
:10211000309731F00280F381E02D82E392E0099460
:10212000089520918C0290915B0256E0291302C021
:1021300080E0089530E0529FF001539FF00D11248C
:10214000E45AFD4F7181761306C07081781303C085
:102150007281741304C02F5F3F4F2770E7CF81E077
:10216000089580918C0290915B02981301C00895AC
:102170008F5F8770FACFAF92BF92CF92DF92EF92CC
:10218000FF920F931F93CF93DF93C090CE02D09016
:10219000CF02E090D002F090D10240919202509193
:1021A00093026091940270919502C42AD52AE62A7E
:1021B000F72ACFE1D0E0082F10E025E0929F000D34
:1021C000111D112498E2A92EBC2ED701C6010C2E98
:1021D00004C0B695A795979587950A94D2F780FD88
:1021E0000FC0219788F7B12C8B2DDF91CF911F91D4
:1021F0000F91FF90EF90DF90CF90BF90AF90089538
:10220000AC9EF001AD9EF00D1124E00FF11FEE0F1A
:10221000FF1FEB59FE4F859194910E94DA0E0197B2
:1022200001F3E2CFCF93DF93EC010E94BB10EC2FC0
:10223000F0E095E0D99FE00DF11D112498E2899F0F
:10224000E00DF11D1124EE0FFF1FEB59FE4F85919C
:102250009491DF91CF910C94DA0EE92FEE0FEE0FEF
:102260009E0F890F982F977086958695869525E005
:10227000829FF0011124E45CFD4F50E040E080E0DB
:10228000219130E0092E02C0369527950A94E2F795
:1022900021703327042E01C0220F0A94EAF7822B03
:1022A0004F5F5F4F4530510559F70895E92FEE0F05
:1022B000EE0F9E0F890F982F977041E001C0440FD9
:1022C0009A95EAF786958695869595E0899FF0011F
:1022D0001124E45CFD4F30E020E070E05191DF011B
:1022E0001197CB01022E02C0969587950A94E2F7CA
:1022F000817081958527842385278C932F5F3F4F9D
:102300002530310559F70895FC01808191810E94A3
:102310001211292F2F7092959F7092509E3078F451
:10232000E92FF0E0EA5CFE4C0C94C030803F19F0DD
:1023300020F4883E20F481E00895843FE1F380E0BA
:102340000895883EC0F3813FD1F7F5CF822F86955F
:1023500086958695089590E080E00E94350D90E086
:1023600080E00E941F0D10928F0210928E020C943A
:102370006410CF92DF92EF92FF926B017C0180E0BC
:10238000C114D104E104F10451F0D701CB0124E0E0
:10239000B695A795979587952A95D1F781709091D5
:1023A000CB0380FB97F99093CB030E94170BC0924D
:1023B000CE02D092CF02E092D002F092D102FF90F2
:1023C000EF90DF90CF900C94AB110F931F9341E0EF
:1023D00050E060E070E004C0440F551F661F771F97
:1023E0008A95D2F7CB01BA0160957095809590954A
:1023F0000091CE021091CF022091D0023091D102F3
:1024000060237123822393231F910F910C94B911A0
:1024100090918D028095892380938D02282F2770BB
:1024200091F4282F082E000C330B9217130659F045
:102430009091D30292FD07C08595859585950E9460
:10244000E51110928D0208950F931F9341E050E023
:1024500060E070E004C0440F551F661F771F8A9527
:10246000D2F78091CE029091CF02A091D002B0918C
:10247000D1028A019B01082B192B2A2B3B2BC90166
:10248000B8011F910F910C94B9116093920270934F
:10249000930280939402909395020C94AB1188233D
:1024A00021F00E945D100C9464100895882339F087
:1024B00090919002982B909390020C946410089540
:1024C000882381F19CEF980F913A78F4E4E3F2E0ED
:1024D0002AE332E09191891303C0DF0111971C9226
:1024E0002E173F07B9F70C94641090E2980F9830BC
:1024F00050F4877091E001C0990F8A95EAF7892F0F
:102500000E945D10F0CF9BE5980F933020F490E08F
:1025100080E00C94350D885A873120F490E080E0FB
:102520000C941F0D0895CF93C82F882309F44EC033
:102530008CEF8C0F813AF8F4E4E3F2E08AE392E066
:10254000DF012D91C21759F08A179B07D1F76C2F25
:1025500082E392E00E94050DCF910C9464102191CA
:10256000C21303C0DF0111971C928E179F07B9F7A2
:102570000E946410ECCF80E28C0F883068F4C77042
:1025800021E030E001C0220FCA95EAF78091900265
:10259000822B80939002E0CFEBE5EC0FE33040F428
:1025A000F0E0E45AFE4F808190E0CF910C94350D1D
:1025B000C85AC73158F4EC2FF0E0EE0FFF1FE15A74
:1025C000FE4F80819181CF910C941F0DCF91089582
:1025D0009091910280919002892B0E94970E982FE2
:1025E000927281E009F480E008958093A7037093CC
:1025F000A9036093A8038091B703843001F583E0B9
:102600008093E9008FEF9091E800815095FD06C01E
:1026100095ED9A95F1F700008111F5CF8091E800D2
:1026200085FF0DC050E040E063E070E087EA93E092
:102630000E94AC0B8091E8008E778093E8000895AB
:10264000BC0184E00C94F512BC0183E00C94F512FB
:102650009C0182E08093E9009FEF8091E800915017
:1026600085FD06C085ED8A95F1F700009111F5CF43
:102670008091E80085FF0CC050E040E065E070E02C
:10268000C9010E94AC0B8091E8008E778093E8002E
:102690000895CF93DF93EC0181E08093E9008FEF01
:1026A0009091E800815095FD06C095ED9A95F1F75F
:1026B00000008111F5CF8091E80085FF14C050E043
:1026C00040E068E070E0CE010E94AC0B8091E80031
:1026D0008E778093E80088E0FE01ADEAB3E00190D8
:1026E0000D928A95E1F7DF91CF91089581E0809373
:1026F000E00080E28093D8001092C9008FE19EE450
:102700000197F1F700C0000087E090EBDC018093B7
:10271000CE039093CF03A093D003B093D10388E16D
:102720009CE00FB6F894A895809360000FBE90933C
:102730006000FFCF539A3BB1377F2BB128604FB772
:10274000F89483E393E0FC015191CF0168E02BB949
:10275000000000C057FF3BB9550F000000C000C08B
:1027600000C03BB900C06A9591F7F3E08C399F0730
:1027700051F74FBF8FE594E00197F1F700C00000DB
:1027800008959F92AF92BF92CF92DF92EF92FF9205
:102790000F931F93CF93DF937C015B016A018091BC
:1027A000C90201E010E08A3010F40AE010E0C1E054
:1027B000D0E0F894B501C701F6010995982E0E9462
:1027C0007E0E911004C021960C171D076CF4892D04
:1027D000DF91CF911F910F91FF90EF90DF90CF90FD
:1027E000BF90AF909F900895CC9F9001CD9F300DEA
:1027F000300D112490E080E045E34A95F1F70000A8
:10280000019682179307C1F7D4CF8091A00281115E
:1028100010C08091D80080618093D8008AE18A95A9
:10282000F1F700C08091D90080FF0AC081E0809359
:10283000A00281E09091A002913009F080E008951B
:1028400082E08093A0020E945C0B1092B703F1CF4C
:102850000E940514882351F0E0919E03F0919F039C
:10286000309721F00190F081E02D099480E00895E7
:102870000E94051491E089270895FF920F931F93FA
:10288000CF93DF93EC01F62E042F122F0E94381401
:1028900081110FC0C231D10564F06297FE01EE0FC5
:1028A000FF1FEC0FFD1FED5CFC4FF18200831283D4
:1028B00007C00E943814882389F3C231D10574F30C
:1028C000DF91CF911F910F91FF900895DF92EF92CA
:1028D000FF920F931F93CF93DF93082F80914D01A9
:1028E000801324C09091C503937020914C0130E077
:1028F00081E09217130609F480E081708093500103
:102900008091CA0390914F01981739F080934F013D
:1029100040E060E080E00E94CE0D013099F000239D
:1029200039F0023009F468C080E03BC081E0E5CFB7
:10293000809150018823A9F140E060E080E00E948E
:10294000CE0DF2CFC0914E0187E0C89FC02D11245B
:1029500017E01C0F143208F013E20E943814882389
:1029600019F0133108F012E10E943814811103C0EC
:10297000C23108F4C2E16091C6037091C70380912F
:10298000C8030E94E80DF62EE72ED82ED0E0C1171E
:1029900018F10E943814882309F47DC081E01231B7
:1029A00018F690914E019F5F90934E0181110CC0DB
:1029B00082E08093520180915001811105C0011184
:1029C00003C083E080935201DF91CF911F910F915B
:1029D000FF90EF90DF900895FE01E350FE4F80815D
:1029E00090914F01892331F02D2D4F2D6E2DCE0169
:1029F0000E943D142196CBCFC0914E0187E0C89F25
:102A0000C02D112417E01C0F143208F013E20E94AD
:102A10003814882319F0133108F012E10E94381499
:102A2000811103C0C23108F4C2E12091C903269587
:102A3000269531E0230F08F42FEF40912E0350919B
:102A40002F0390E080E0429F812D529F800D911DC9
:102A50001124F82ED0E0C11708F09BCFFE01E350FF
:102A6000FE4F808190914F01892399F07091C703A7
:102A7000FE01EE0FFF1FE157FE4F60A56F19809119
:102A8000C8030E94E80D462F282F672FCE010E9411
:102A90003D142196E0CF81E0133208F482CF44CF79
:102AA0000F931F930E940514882321F01F910F910B
:102AB0000C94F90C0E94F90C0091CA021091CB02FF
:102AC0002091CC023091CD02600F711F821F931FA5
:102AD0001F910F910895CF92DF92EF92FF926B01B9
:102AE0007C010E9405148823A1F02FB7F89460910F
:102AF000A3037091A4038091A5039091A6032FBF17
:102B00006C197D098E099F09FF90EF90DF90CF909F
:102B100008950E945015F4CF4F925F926F927F926A
:102B20008F929F92AF92BF92CF92DF92EF92FF92DD
:102B300060912A0370912B0380912C0390912D03B7
:102B40000E946B156B017C010E9450154B015C01CA
:102B500080922A0390922B03A0922C03B0922D0313
:102B6000A0910103E1E0F3E08A2F90E04FEF5FEFE7
:102B700060E070E04C195D096E097F09A91327C058
:102B80008093010380913203811134C09091C50379
:102B9000892F837019F0892F86958695909152011F
:102BA0009130C1F1992341F1923009F441C0933041
:102BB00009F44CC0FF90EF90DF90CF90BF90AF90A2
:102BC0009F908F907F906F905F904F900895218D90
:102BD000328D2901712C612C441555056605770548
:102BE00020F481509F5F3296C9CF2C0D3D1D328F4E
:102BF000218FF8CF80E0D2CF10924E0180922E0329
:102C000090922F03A0923003B092310381E0809321
:102C10005201D0CFFF90EF90DF90CF90BF90AF9058
:102C20009F908F907F906F905F904F900C94661460
:102C3000FF90EF90DF90CF90BF90AF909F908F90DC
:102C40007F906F905F904F900C94C10D8091C40362
:102C5000882351F046E050E06CE170E085EC93E0B1
:102C60000E94EA301092C40360912E0370912F03EA
:102C700080913003909131030E946B156031710592
:102C80008105910508F496CF1092520193CFE5EC9F
:102C9000F3E089E080838091540190915501A091E7
:102CA000560181839283A38380E284838FEF85839F
:102CB00046E050E06CE170E0CF010E94EA301092F3
:102CC000C403089528E030E043E060E080E30E9420
:102CD000B82D95E09A95F1F700000895CF93C82F8D
:102CE0000E9462168C2F0E94302E0E94482EC82F00
:102CF00085E08A95F1F7000085E68A95F1F70000F6
:102D00000E94602E8C2FCF910895CF93DF93C82F10
:102D1000D62F803511F0109200030E9462168C2F7E
:102D200080680E94302E8D2F0E94302EEC018AE6A2
:102D30008A95F1F700C08FE891E00197F1F700C0A4
:102D400000000E94602ECE01DF91CF9108950E9475
:102D500062166FEF8FE00E9485160C94602ECF9361
:102D6000DF93209A0E94B02D109200030E94602EE3
:102D70000E9462160E94602E66EB8BE30E9485160D
:102D80002FEF85EA9EE0215080409040E1F700C09F
:102D900000000E946216E5EDEA95F1F70000F5E00B
:102DA000FA95F1F700000E94602E25ED2A95F1F7C3
:102DB00000006AE58AE30E9485168FEF90E7E2E063
:102DC00081509040E040E1F700C0000082E00E94A6
:102DD0006E1683E00E946E1684E00E946E1685E0F7
:102DE0000E946E1686E00E946E166DE183E10E94DD
:102DF00085168FE39CE90197F1F700C0000068E1B8
:102E000083E10E9485160E94621682EE0E94302E97
:102E100090E59A95F1F7C5EED3E0FE0184910E940A
:102E2000302EF0E5FA95F1F7219623E1C33ED20763
:102E3000A1F78FE193E00197F1F700C000008AE26B
:102E40000E946E1660E080E10E9485160E94602E4E
:102E5000EFE3FCE93197F1F700C00000F5E0FA95E7
:102E6000F1F700000E94602E8FE39CE90197F1F7D3
:102E700000C0000080E496E00E94A716EFE9FFE0A2
:102E80003197F1F700C0000060E080E10E948516F4
:102E900067EE81E10E94851662E083E60E94851656
:102EA00080E00E946E168FE30E946E168AE20E94F6
:102EB0006E162898DF91CF910895CF93DF93CDB709
:102EC000DEB72A970FB6F894DEBF0FBECDBF85E000
:102ED000E9EFF2E0DE01169601900D928A95E1F796
:102EE00085E0E0EFF2E0DE01119601900D928A9507
:102EF000E1F745E050E0BE016F5F7F4FCE010696DF
:102F00000E941E31892B61F0E0919E03F0919F0396
:102F1000309731F00480F581E02D89EF92E009953A
:102F20001092FA021092FB021092FC021092FD0223
:102F300085E0E9EFF2E0A0EFB2E001900D928A9512
:102F4000E1F72A960FB6F894DEBF0FBECDBFDF9132
:102F5000CF910895EF92FF920F931F93CF93DF933A
:102F6000CDB7DEB764970FB6F894DEBF0FBECDBF06
:102F70004091F9025091FA026091FB027091FC02BB
:102F80008091FD020E9449282093F9024093FB02A0
:102F90005093FC026093FD02132F11951093FA02D7
:102FA00085E0E9EFF2E0DE01509601900D928A95FE
:102FB000E1F70091FB02E090FC02F090FD020E941C
:102FC0000514882309F470C08091CB0386FF44C0A8
:102FD0002091F7023091F802211B310917FD33953A
:102FE0003093F8022093F7028091F5029091F60257
:102FF000800F911D07FD9A959093F6028093F5023C
:10300000A90137FF04C044275527421B530B473003
:1030100051055CF0FF24FA941216130614F4FF24F1
:10302000F3941092F8021092F7029C0197FF04C0EB
:1030300022273327281B390B273031055CF0EE247B
:10304000EA941816190614F4EE24E3941092F6028A
:103050001092F50200E010E0198B0A8BEB8AFC8AD3
:1030600085E0FE017096DE011B9601900D928A9517
:10307000E1F785E0FE013B96DE01119601900D928D
:103080008A95E1F785E0FE013196DE011696019002
:103090000D928A95E1F785E0FE013696DE015096A5
:1030A00001900D928A95E1F7198B0A8BEB8AFC8AC5
:1030B00085E0FE017096DE01169601900D928A95CC
:1030C000E1F785E0FE013696DE011B9601900D9238
:1030D0008A95E1F785E0FE013B96A9EFB2E0019009
:1030E0000D928A95E1F764960FB6F894DEBF0FBE95
:1030F000CDBFDF91CF911F910F91FF90EF900C9476
:103100005D1710929002E4E3F2E086E0DF011D9289
:103110008A95E9F70C94AB111F93CF93DF93CDB74A
:10312000DEB7AA970FB6F894DEBF0FBECDBF89EB0E
:1031300093E02091F100DC012D93CD01B3E0813CBF
:103140009B07B9F78091BA03833009F472C0B8F4D1
:10315000813009F449C0823009F4B3C08091E8009D
:1031600083FF86C28091B9039091BA039A3008F028
:103170007FC2E92FF0E0EC5BFE4C0C94C0308A304B
:1031800009F48EC08B3009F471C0893039F7809111
:10319000B903813219F78091BD039091BE03009766
:1031A00011F00297D9F68091E800877F8093E800BC
:1031B0008091E80082FF38C09091F3008091F20086
:1031C000029731F48091F100813011F0863021F4C2
:1031D0008091F1008093AC038091E8008B7780931D
:1031E000E8000E94D60BBACF8091B903813A09F06A
:1031F000B5CF8091E800877F8093E8008091BD0380
:103200009091BE03892B61F468E08DEA93E070E051
:103210000E94880C8091E8008B778093E8009ECF15
:1032200060E090E080E0F3CF8091B7038111C0CFE0
:1032300095CF8091B903813A09F090CF8091BD0379
:103240009091BE03892B09F089CF8091E800877F98
:103250008093E8008091E80080FFFCCF80915101CD
:103260008093F1008091E8008E77B9CF8091B90307
:10327000813209F073CF8091BD039091BE03892BF9
:1032800009F06CCF8091E800877F8093E8000E946E
:10329000D60B8091BB03809351010E9481185ECFB1
:1032A0008091B903813209F059CF8091E800877F7E
:1032B0008093E8000E94D60B8091BC038093AB03FF
:1032C0004DCF8091B903813A09F048CF8091E80051
:1032D000877F8093E8008091E80080FFFCCF809199
:1032E000AB03BECF803899F0823809F0C1C180911C
:1032F000BD038F70873008F0BBC18093E9008091D7
:10330000EB0085FB882780F91092E90006C08091C8
:10331000B5039091B603911182609091E800977F78
:103320009093E8008093F1001092F1008091E80002
:103330008E779AC1882309F488C1823009F098C138
:103340008091BB0381118BC18091BD038F702FEFE2
:10335000280F263008F08CC18093E9002091EB0003
:1033600020FF7DC1933031F48091EB008062809327
:10337000EB0075C19091EB0090619093EB0021E020
:1033800030E001C0220F8A95EAF72093EA001092FC
:10339000EA008091EB008860EACF811169C1109149
:1033A000BB031F778091E3008078812B8093E3003B
:1033B0008091E800877F8093E8000E94D60B80917F
:1033C000E80080FFFCCF8091E30080688093E300F9
:1033D00082E0111183E08093B7034AC180588230A4
:1033E00008F046C12091BB033091BC032C3DE3E0C3
:1033F0003E07A1F583E08A838AE289834FB7F89478
:10340000DE01139620E03EE051E2E32FF0E050931E
:103410005700E49120FF03C0E295EF703F5FEF702B
:103420008E2F90E0EA30C0F0C7968D939D932F5F6A
:10343000243159F74FBF8091E800877F8093E800DF
:103440006AE270E0CE0101960E94880C8091E8004B
:103450008B778093E8000CC1C096E7CF8091BD03C5
:103460009091BE03432F55274330510509F44AC0BC
:1034700078F54130510509F47AC084E590E0E3EE37
:10348000F4E14230510509F0F3C02091E800277FB4
:103490002093E8002091BF033091C0038217930767
:1034A00008F49C0140E02115310509F065C0411187
:1034B00063C08091E80082FDC9CF8091B703882363
:1034C00029F2853019F28091E80083FFF2CFBECF58
:1034D0004132510509F43CC04232510509F0C8C0DF
:1034E0008330910508F0C4C0FC01EE0FFF1FED5DB5
:1034F000FD4F0190F081E02D805E9D4FDC018C91AD
:1035000090E01AC0332721303105D1F02115310563
:1035100061F02230310509F0ABC0E9E4F5E1E49156
:103520008E2F90E0E9E4F5E107C0EFE8F5E1E491E2
:103530008E2F90E0EFE8F5E1009709F499C0A5CF50
:10354000E9E6F5E1E4918E2F90E0E9E6F5E1F4CFCC
:103550008330910508F08CC0880F991FFC01E75D4E
:10356000FD4F0190F081E02D89E090E08ECF82E167
:1035700090E0E7E3F5E189CF8091B703882309F470
:1035800065CF853009F462CF8091E80083FD5ECF7E
:103590008091E80082FD8DCF8091E80080FF83CF8D
:1035A0009091F3008091F2002115310519F08830D7
:1035B000910550F041E0089709F040E08091E80063
:1035C0008E778093E8006FCF44914093F10031965D
:1035D000215031090196E8CF803809F049C0809127
:1035E000E800877F8093E8008091B8038093F10022
:1035F0009DCE81113DC01091BB031230C8F5809162
:10360000E800877F8093E8001093B8030E94D60BF0
:10361000112311F084E005C08091E30087FDFACF0B
:1036200081E08093B70342E061EC81E00E94F50BFA
:1036300042E061EC82E00E94F50B42E261EC83E043
:103640000E94F50B8091B70313C08091BB038130BA
:1036500079F481E0933009F080E08093B603109212
:10366000E9008091E800877F8093E8000E94D60BF4
:103670008091E80083FF0AC08091E800877F8093F3
:10368000E8008091EB0080628093EB00AA960FB671
:10369000F894DEBF0FBECDBFDF91CF911F9108958B
:1036A000CF9384E090E00E94D630C82F82E290E071
:1036B0000E94D630982F8C2FCF910895CF93DF930F
:1036C00000D000D0CDB7DEB74091C1025091C20208
:1036D0006091C3027091C4022FB7F8948091A30344
:1036E0009091A403A091A503B091A6032FBF841BC2
:1036F000950BA60BB70B84369105A105B10568F1B2
:103700000E9450156E5F7F4F8F4F9F4F69837A8362
:103710008B839C83809121019091220183559D4F41
:103720004091200150E04530510510F044E050E058
:10373000BE016F5F7F4F0E942B3183E090E00E94BB
:10374000F82F892B61F40E94F90C6093C1027093E9
:10375000C2028093C3029093C40281E001C080E062
:103760000F900F900F900F90DF91CF9108950F93CE
:103770001F93CF93DF9300D000D00F92CDB7DEB769
:103780008B0190E080E00E94F82F892B09F085C022
:103790004091050150E04115510511F041E050E024
:1037A000609106017091070163557D4FCE0105962A
:1037B0000E942B314091A5025091A6026091A70270
:1037C0007091A8022FB7F8948091A3039091A4035D
:1037D000A091A503B091A6032FBF841B950BA60B48
:1037E000B70B84369105A105B10540F48EEA92E04D
:1037F0000E94190B9D81891709F45FC081E090E058
:103800000E94F82F892BC1F080E04091A1025091D5
:10381000A2026091A3027091A402F8014083518337
:10382000628373830F900F900F900F900F90DF9132
:10383000CF911F910F91089540910F0150E04530B5
:10384000510510F044E050E06091100170911101B9
:1038500063557D4FCE0101960E942B318EEA92E096
:103860000E94190B9D818913CFCF0E94F90C6093A0
:10387000A5027093A6028093A7029093A802898163
:103880009A81AB81BC818093A1029093A202A09304
:10389000A302B093A40281E0B8CF80E04091AE02D1
:1038A0005091AF026091B0027091B10249835A8386
:1038B0006B837C838111E3CFA8CF81E0EFCF8F9220
:1038C0009F92AF92BF92CF92DF92EF92FF920F93AF
:1038D0001F93CF93DF93EB0188809980AA80BB80F0
:1038E0009FB7F894C090A303D090A403E090A503E1
:1038F000F090A6039FBFC818D908EA08FB0894E611
:10390000C916D104E104F10410F4442311F1E82EA6
:10391000082E000CFF089AE08902F0011124E05003
:10392000FF4F8381948183559D4F428150E004175E
:10393000150708F4A801B9010E942B31C7010E94A4
:10394000F82F892BA1F40E94F90C688379838A836C
:103950009B8381E0DF91CF911F910F91FF90EF90BA
:10396000DF90CF90BF90AF909F908F90089580E0B0
:10397000F1CF0F931F93CF93DF9300D000D000D0EF
:103980000F92CDB7DEB786E0E5ECF3E0DE011196ED
:1039900001900D928A95E1F7809132038F8347E081
:1039A00050E06AEB72E0CE0101960E941E3141E0C8
:1039B000892B09F440E007E010E09E012F5F3F4FA4
:1039C00065EC72E084E00E945F1C27960FB6F894C5
:1039D000DEBF0FBECDBFDF91CF911F910F91089534
:1039E0000F931F93CF93DF93EC0144E050E062EB21
:1039F00072E00E941E3141E0892B09F440E004E0AE
:103A000010E09E0169EA72E082E00E945F1CDF9193
:103A1000CF911F910F9108959091CB039F708111C9
:103A200014C08FEF980F9F708091CB03807F982BED
:103A30009093CB030E94170B4091CB0350E070E0B2
:103A400060E08FE090E00C940C3181E0EBCF90913E
:103A5000CB0392959370811116C08FEF980F9370DE
:103A60009295907F8091CB038F7C982B9093CB0382
:103A70000E94170B4091CB0350E070E060E08FE0B4
:103A800090E00C940C3181E0E9CF69EE7EEF90E09C
:103A900080E00E94183160E082E090E00E94FA30FD
:103AA00060E083E090E00E94FA301092920210925F
:103AB0009302109294021092950260E084E090E0EC
:103AC0000E94FA3060E082E290E00E94FA3060E00A
:103AD00085E090E00E94FA3060E086E090E00E948D
:103AE000FA306FEF87E090E00E94FA3040E050E05B
:103AF000BA0188E090E00E940C3160E08DE090E037
:103B00000E94FA3040E050E0BA0188E190E00E9463
:103B10000C3160E087E190E00E94FA3040E050E034
:103B2000BA018CE190E00E940C3170E060E080E22C
:103B300090E00E94183140E050E0BA0188E190E046
:103B40000E940C311092CB0340E050E0BA018FE0AC
:103B500090E00E940C310E94170B40E050E0BA0147
:103B600083E190E00C940C31CF93C091D302C2FB5F
:103B7000992790F9981799F080FBC2F9C093D30266
:103B80006091D20284E090E00E94FA306C2F82E2D1
:103B900090E00E94FA3082E0CF910C940812CF910D
:103BA00008951F920F920FB60F9211242F933F93F7
:103BB0004F935F936F937F938F939F93AF93BF9335
:103BC000CF93DF93EF93FF93D091E900DF70809163
:103BD000EC00C82FC17080FDC0E81092E900809110
:103BE000F000877F8093F00078940E948C181092E8
:103BF000E9008091F00088608093F000CD2BCF70B9
:103C0000C093E900FF91EF91DF91CF91BF91AF9108
:103C10009F918F917F916F915F914F913F912F91E4
:103C20000F900FBE0F901F9018951F920F920FB616
:103C30000F9211242F933F934F935F936F937F9332
:103C40008F939F93AF93BF93EF93FF938091E10086
:103C500082FF09C08091E20082FF05C08091E100EF
:103C60008B7F8093E1008091DA0080FF24C08091F7
:103C7000D80080FF20C08091DA008E7F8093DA0028
:103C80008091D90080FF9DC080E189BD82E189BD1E
:103C900009B400FEFDCF81E08093B7038091AA03B1
:103CA000811109C00E945C0B0E94270C8091E200E8
:103CB00084608093E2008091E10080FF17C08091D2
:103CC000E20080FF13C08091E2008E7F8093E200CB
:103CD0008091E20080618093E2008091D800806250
:103CE0008093D80019BC85E08093B7038091E100F0
:103CF00084FF2BC08091E20084FF27C080E189BD52
:103D000082E189BD89B5982F917080FFFBCF8091AA
:103D1000D8008F7D8093D8008091E1008F7E8093C2
:103D2000E1008091E2008F7E8093E2008091E200CA
:103D300081608093E2008091B803882309F447C032
:103D400084E08093B7038091B7038091E10083FF03
:103D500027C08091E20083FF23C08091E100877F2C
:103D60008093E10082E08093B7031092B8038091C2
:103D7000E1008E7F8093E1008091E2008E7F80934E
:103D8000E2008091E20080618093E20042E060E026
:103D900080E00E94F50B8091F00088608093F00035
:103DA000FF91EF91BF91AF919F918F917F916F9113
:103DB0005F914F913F912F910F900FBE0F901F90E9
:103DC000189519BC1092B7031092AA0374CF809172
:103DD000E30087FD93E09093B703B5CF78941F92EB
:103DE0001FB61F9211248F939F93AF93BF9380911F
:103DF000A3039091A403A091A503B091A6030196FB
:103E0000A11DB11D8093A3039093A403A093A503C8
:103E1000B093A603BF91AF919F918F911F901FBE4A
:103E20001F9018952FB7F8948091A3039091A40345
:103E3000A091A503B091A6032FBF08950F931F93E0
:103E4000CF93DF93C62FD42F022FFC0182818823CA
:103E5000A1F06093C3030E94121F9093C20380934A
:103E6000C103C77081E001C0880FCA95EAF7DF91EE
:103E7000CF911F910F910C9456128091C303681338
:103E800038C08091C1039091C2030E94EA0C803A2D
:103E9000910578F510E21D0FCD17B9F080E28C0F77
:103EA000883040F4C77081E001C0880FCA95EAF7F6
:103EB0000E944F12183048F481E09D2F977001C086
:103EC000880F9A95EAF70E945612802F0E9493124B
:103ED000802F0E946012183098F4D77081E001C0E2
:103EE000880FDA95EAF7DF91CF911F910F910C942B
:103EF0004F12C77081E001C0880FCA95EAF7F3CF6F
:103F0000DF91CF911F910F9108954F925F926F9221
:103F10007F928F929F92AF92BF92CF92DF92EF9259
:103F2000FF920F931F93CF93DF93CDB7DEB72F97F9
:103F30000FB6F894DEBF0FBECDBF7C01DC01139637
:103F40008D919C911497892B41F01C911196DC90D6
:103F5000812F8D218F3F09F040C52F960FB6F89421
:103F6000DEBF0FBECDBFDF91CF911F910F91FF90AC
:103F7000EF90DF90CF90BF90AF909F908F907F9009
:103F80006F905F904F9008950E94BB10082F682F8C
:103F900089819A810E945611E12FF0E0B5E0DB9E05
:103FA000E00DF11D112428E2029FE00DF11D112406
:103FB000EE0FFF1FEB59FE4F05911491F801E65AE1
:103FC000FD45E830F10578F4E25BFE4CD70112962E
:103FD0008C910C94C030882331F00E94E81291E05B
:103FE00089270E940C1DC801815F9109089708F07C
:103FF000C1C085E0E9EFF2E0DE01169601900D9276
:104000008A95E1F785E0FE013696DE011B96019068
:104010000D928A95E1F72E813FE0300F81E090E02C
:1040200001C0880F3A95EAF7F7013281332309F48A
:104030009EC0822B8B8785E0FE013B96DE011196A8
:1040400001900D928A95E1F785E0FE013196A9EF86
:10405000B2E001900D928A95E1F70E945D17D701B9
:1040600012968C91882309F4CBC41092C3030430B8
:10407000BDE51B0708F0E3C00B3FECE51E0730F47D
:10408000C80182509C45449708F0DEC00E94501B36
:104090009093D3028093D20200312CE5120709F4E9
:1040A000A6C108F022C108308CE5180709F48DC1BB
:1040B00008F0F4C00430ACE51A0709F478C108F040
:1040C000DAC00230ECE51E0709F46BC18091D20220
:1040D000826003301C4509F467C16091D2021091DF
:1040E000D30284E090E00E94FA30612F82E290E0F7
:1040F0000E94FA300E94811867C0882309F473CFA8
:104100000E94E8126ECF882309F46DCF0E94E81256
:1041100091E089270E94271D66CF882309F463CF89
:104120000E94E812F7CF9091CB0380FB97F9909310
:10413000CB030E94170B57CF882309F454CF9091DB
:10414000CB03892F97FB87F980588093CB03F1CF5E
:104150009091CB0380FB96F9EACF882309F443CFF3
:104160009091CB03892F8F7B96FF8064EECF809553
:10417000822360CF043FFCE51F0709F451C098F487
:10418000093D3CE5130709F447C00A3D8CE51807D3
:1041900009F452C0083D9CE5190709F060CF26E2FA
:1041A00041EE61EE0EC0063FACE51A0709F440C0CF
:1041B000D8F127E245EE66EE073FECE51E0709F071
:1041C0004ECFC7010E941E1F80918D02877009F497
:1041D000C4CED70112968C91882309F4BECE80916B
:1041E000D30282FDBACE82E02F960FB6F894DEBFDE
:1041F0000FBECDBFDF91CF911F910F91FF90EF9038
:10420000DF90CF90BF90AF909F908F907F906F90F6
:104210005F904F900C94081227E245EE65EED1CFE7
:1042200026E241EE60EECDCF27E245EE64EEC9CF47
:1042300026E241EE62EEC5CF28E241E0EFCF023642
:10424000FDE51F0709F422CF06312CE5120709F01E
:104250003EC4809190028A7A91E009F490E09093B4
:104260003B0269E2811165E382E392E00E94050D61
:104270000E946410A9CF8091D202806106302CE5A3
:10428000120709F491C08091D202886007301C4562
:1042900008F48AC08091D202806286C00C308CE51E
:1042A000180709F49CC070F48091D2028C600A3027
:1042B000ACE51A0709F478C008F48BC08091D202EB
:1042C0008E7F72C08091D202877F0E30ECE51E0790
:1042D00009F46AC08091D2028B7F0F301C4508F42C
:1042E00063C08091D2028F7E5FC00D3F2CE5120724
:1042F00009F479C068F504318CE5180709F48BC01E
:1043000080F40231ACE51A0709F475C08091D2023D
:104310008F7B03311C4508F447C08091D202837F14
:1043200043C00B3FECE51E0709F445C008F049C047
:1043300005311C4509F0D1CE8091D20282FB99272C
:1043400090F921E0922790FB82F990FB83F92CC031
:1043500001303DE5130709F454C088F48091D3027D
:1043600083600F3F9CE5190749F18091D3028D7F4F
:1043700001151D4518F18091D3028C7F1FC00330B9
:10438000BDE51B0709F456C008F44EC002361D45B2
:1043900009F0A3CE9091D202892F8F7E94FF806185
:1043A00003C08091D20281608093D20296CE809128
:1043B000D2028460F9CF8091D30281608093D302CE
:1043C0008CCE8091D3028260F9CF8091D20280643A
:1043D000EBCF0E9481188091D2028068E5CF809156
:1043E000D2028D7FE1CF8091D3028E7FE7CF809183
:1043F000D2028F7DD9CF0E9481188091D2028F770F
:10440000D3CF8091D302982F909591708E7F892B76
:1044100090FB81F9D3CF0E9481189091D202892F0D
:1044200097FB87F98058C0CF61E08EE090E00E9452
:10443000FA3053CE60E0F9CF80913B0281110FC07A
:1044400089E2E4E3F2E02AE332E09191891303C0C8
:10445000DF0111971C922E173F07B9F709CF85E3AB
:10446000F0CF4EEA5DE067EB7DE00E944B0DACCEF5
:1044700047EB5DE06EEA7DE0F8CF4CE95DE065EA90
:104480007DE0F3CF45EA5DE06CE97DE0EECF44E806
:104490005DE060E97DE0E9CF40E95DE064E87DE072
:1044A000E4CF48E75DE06CE67DE0DFCF4EE55DE020
:1044B00060E57DE0DACF0E94811840E060E08FEF98
:1044C0000E94CE0D0E949A133FEF84E39CE031508E
:1044D00080409040E1F700C000000E94761381E028
:1044E00016C380E014C3812F902F0E942D11D82E67
:1044F00021C3E12FEF70CE2E107F19F0C29420EF70
:10450000C222DD20B9F0CC2069F080E2800F883033
:1045100010F0811009C080919002C82AC0929002C8
:104520000E946410802F44C080918F02C82AC092DC
:104530008F02F6CF802F0E946012CC20D9F1005E4E
:10454000083010F0811004C08C2D0E945D1006C050
:10455000C09480918F02C822C0928F020E94641082
:1045600029C0F12FFF70CF2E107F103219F0C294A6
:1045700090EFC922882059F021E0821609F483C007
:10458000DD2009F48DC0992009F483C0CBCF2091A0
:10459000D30222FF55C0DD2009F44BC0CC2039F0F6
:1045A00080919002C82AC09290020E94641080E01C
:1045B0000E949312EA2DE850FF0B349710F40E94EA
:1045C0002814BB20B1F080918D0280FD12C0D7016C
:1045D00012961C928595859585950E942412C70197
:1045E0000E94851F80918D028595859585950E94F5
:1045F000E51185E0F701DE01119601900D928A9593
:10460000E1F789819A810E942D119A81E981F0E078
:10461000B5E09B9FE00DF11D112428E2829FE00D83
:10462000F11D1124EE0FFF1FEB59FE4F8591949160
:1046300094CC80E00E946012CC2009F4BBCF84CFE0
:10464000DD20A1F0909191028C2D892B911003C057
:104650000E945612AFCF31E09312FACF22FDAACFBB
:10466000981709F4A7CF80939102A4CF911006C0A8
:104670000E9457108C2D0E944F129CCF81E09816FB
:1046800009F498CFF5CFDD2031F095E0991508F4C5
:1046900091CF8C2DDDCFA4E0A91508F48BCFEACF04
:1046A000992041F3B9E38B1209C0EFEFF7EE23E055
:1046B000E150F0402040E1F700C00000802F0E9450
:1046C000601278CF812F86958695837061F0813056
:1046D00009F070CFC8019370D11002C090E080E063
:1046E0000E941F0D67CFC8019370D11002C090E0E7
:1046F00080E00E94350D5ECF812F837009F066C087
:10470000D11058CF802F829586958770880F880F9B
:10471000602F6F70462E512C712C612C082E04C016
:10472000440C551C661C771C0A94D2F740E050E0FC
:10473000BA0104FF0FC04FE050E060E070E004C039
:10474000440F551F661F771F8A95D2F740955095E5
:1047500060957095812F869586958370823019F1CA
:10476000D8F400919202109193022091940230911A
:104770009502813069F04429552966297729CB01B2
:10478000BA0160237123822393230E94451212CF22
:10479000402A512A622A732ACB01BA016429752959
:1047A00086299729F2CF442955296629772900912E
:1047B0009202109193022091940230919502CB01C4
:1047C000BA016027712782279327DFCF8695DD20E6
:1047D00011F0812F8170882309F4ECCE802F82950F
:1047E00086958770880F880F602F6F70462E512C2A
:1047F000712C612C082E04C0440C551C661C771CBF
:104800000A94D2F740E050E0BA0104FF0FC04FE035
:1048100050E060E070E004C0440F551F661F771F32
:104820008A95D2F74095509560957095812F869521
:1048300086958370823019F1D8F40091CE021091E0
:10484000CF022091D0023091D102813069F0442909
:10485000552966297729CB01BA0160237123822368
:1048600093230E94B911A6CE402A512A622A732AA4
:10487000CB01BA016429752986299729F2CF4429E9
:104880005529662977290091CE021091CF022091F7
:10489000D0023091D102CB01BA0160277127822763
:1048A0009327DFCF1F70DD2029F0812F0E94241273
:1048B000802FCECE802F0E944F12812F0E94E511B3
:1048C00079CE802F32EF831609F43FC0381570F08F
:1048D00090EF8916D1F0A1EF8A1691F0DD2009F44E
:1048E0006CC091101FCE812F8F7133C0B3EF8B1628
:1048F00099F1E4EF8E12F2CF8091D30282FF3FC094
:10490000812F8F71DD20D1F224C0DD20C9F0F4E0C9
:10491000F91508F44FCE1F7161E070E080E090E07F
:1049200004C0660F771F881F991F1A95D2F7009150
:10493000CE021091CF022091D0023091D102ADCFA2
:1049400025E0291508F436CEE6CF812F8F71D110DE
:10495000B5CF0E9424122ECE60E070E0CB01DD20A6
:1049600009F47FCF1F7161E070E080E090E004C047
:10497000660F771F881F991F1A95D2F772CFDD2017
:1049800089F01F71812F0E9424128091D30282FD31
:1049900007C038E0139FC0011124836080938D020B
:1049A000812FD7CF81E00E94081281E0891508F09D
:1049B00001CE82E00E940812FDCD992059F0893382
:1049C00009F07CCE9FEFA7EEB3E09150A040B0403D
:1049D000E1F772CE812F8F7171CF85E0F701DE0193
:1049E000119601900D928A95E1F7D70112962C91BC
:1049F00089819A812111C8CA0E942D11082FCCCA21
:104A00000631BCE51B0709F417CD80919002827234
:104A10000B3CECE51E0709F444CDA0F5063C2CE563
:104A2000120709F42ACDC8F4043C9CE5190709F4DF
:104A300018CD08F01DCD033C1C4509F06AC08091DB
:104A4000C50391E089278093C5031092520180919C
:104A5000C40381608093C403B7CB083CECE51E0718
:104A600009F415CD08F40ECD093C2CE5120709F424
:104A700013CD4CE65DE068E77DE00A3C1C4509F497
:104A8000F4CC47C00F3C9CE5190709F49DCB88F492
:104A90000D3CBCE51B0709F409CD40E55DE06EE582
:104AA0007DE00E3C1C4508F4E0CC81E00E94300B18
:104AB0008BCB073DFCE51F0728F482E0013D1C4538
:104AC000A8F382CB0E351D4509F47ECB22C00B35F1
:104AD0008DE5180709F403CD58F40115ACE51A0764
:104AE00009F4E9CC0F3D1C45A1F40E94451D6CCB97
:104AF0000C35EDE51E0709F4F4CC0D351D4549F4E0
:104B00008091D30282FB882780F991E089270E9457
:104B1000B41DF701828110810181882309F4E3CC5F
:104B2000812F902F0E94BB10D82E682F812F902F9D
:104B30000E945611E12FF0E025E0029FE00DF11DEB
:104B4000112438E2D39EE00DF11D1124EE0FFF1F5A
:104B5000EB59FE4F859194910E94DA0E8C01882EBC
:104B6000D7011296DC90129715969C9092945FE074
:104B7000952280918D028770C1F0BD2CDD20B1F0AF
:104B8000812F807F803421F080E2800F883068F0B0
:104B90008091D30282FD09C082E00E9408128091B8
:104BA0008D028770BB24B3948111B12CA12EA294E5
:104BB0003FE0A322BBE0BA1508F4FCCCEA2DF0E0FC
:104BC000EA5AFE4C0C94C0301F93CF93DF93809130
:104BD0005A02807FA9F480915702882389F080913E
:104BE0008C02D0915B026091550270915602A091A7
:104BF0005802B0915902C62FC72316E0D81304C03B
:104C0000DF91CF911F91089590E0109711F0CF3F61
:104C100019F401968770F2CF189F9001199F300DFB
:104C20001124F901E45AFD4F41814713F2CF40812D
:104C30004613EFCF42814111ECCF438154814A1B8F
:104C40005B0B403A510528F780915A028F708061C2
:104C500080935A02F901EF59FD4F80818F70806176
:104C6000808385E592E00E94851FDF91CF911F919F
:104C70000C94B1108F929F92AF92BF92CF92DF921D
:104C8000EF92FF920F931F93CF93DF93CDB7DEB7D1
:104C900061970FB6F894DEBF0FBECDBF8C0185E0E3
:104CA000F801DE011D9601900D928A95E1F7D80179
:104CB0001296EC90129785E5882E82E0982E40910E
:104CC0005802509159024115510509F431C1909192
:104CD000550220915602892F82238F3F09F428C163
:104CE000DC901196CC9011971396AD90BC901497D0
:104CF000F0905702F501E41BF50BFF2009F4F9C011
:104D000080915A02382F307FE03AF10508F0C5C093
:104D1000311185C0FE2C2C1124C09D1122C0E11040
:104D200020C08F70806180935A02C4010E94851F49
:104D300080915A02D80115968C938F2D61960FB6EB
:104D4000F894DEBF0FBECDBFDF91CF911F910F91C1
:104D5000FF90EF90DF90CF90BF90AF909F908F909B
:104D60000895A114B10429F08D2D8C218F3F09F0F5
:104D7000FDC080E080FF14C04E2D6C2D8D2D0E9453
:104D80009110882369F085E592E00E94851F86E0F6
:104D9000E5E5F2E0DF011D928A95E9F7F12CCDCF30
:104DA000AB2829F08D2D8C218F3F09F0DCC080E0ED
:104DB000B82FB170AB2E80FF29C04E2D6C2D8D2DDC
:104DC0000E949110B82E811121C0DD86CE868D857E
:104DD0009E850E941211292F22952F70223050F0AB
:104DE000243078F49F7051F0F8019581907F31F470
:104DF000FB2CA3CF9F7011F08823D1F3805E883005
:104E0000B8F3C8010E94851FBA2CF2CFEE2009F436
:104E100094CF80915A02816080935A02BFCF2C11A7
:104E200012C09D1110C0E1100EC015968C93C801E0
:104E30000E94851F86E0F801A5E5B2E001900D9281
:104E40008A95E1F77ACFC8010E948411882309F17D
:104E5000EE20F9F080915A02803270F020915502D4
:104E60003091560238872F831986BB86AA868C8795
:104E7000CE0107960E94851F86E0F801A5E5B2E005
:104E800001900D928A95E1F70E94E425FF24F394A6
:104E900054CFC8010E94851FF9CF332309F473CF83
:104EA0002C110FC09D110DC0E1100BC0F8018583BE
:104EB000C8010E94851F86E0D4011D928A95E9F7FA
:104EC0003CCFC8010E948411882319F3EE2009F316
:104ED00080915A02803280F2209155023091560220
:104EE0003A8329831B82BD82AC828E83CE010196D8
:104EF000C1CFE03AF105B0F4FE2CEE2051F22C11B6
:104F000003C09D1509F496CFC8010E948411811138
:104F1000B3CF80915A02816080935A02C8010E94E7
:104F2000851F0BCF86E0F40111928A95E9F705CF32
:104F3000EE2009F4AECFC8010E948411F82E882318
:104F400009F4A7CF86E0F801A5E5B2E001900D9243
:104F50008A95E1F780915502909156020E941211B4
:104F60000E94E425EACE81E08E2522CF81E08E25C5
:104F700001CF1F93CF93DF93CDB7DEB767970FB6FF
:104F8000F894DEBF0FBECDBF4B8B5C8B6D8B7E8BE1
:104F90008F8B611110928F021A8A198A85E0FE01A7
:104FA0007396DE011D9601900D928A95E1F786E0D9
:104FB000FE013D96DE01179601900D928A95E1F76C
:104FC000CE0107960E943A26882389F016E0809148
:104FD0008C0290915B02891349C067960FB6F894D2
:104FE000DEBF0FBECDBFDF91CF911F91089586E048
:104FF000FE013796DE01119601900D928A95E1F738
:105000008A859B85892B11F38F81988589238F3F12
:10501000E9F220915B0230E0C9010196877099277F
:1050200040918C024817190671F40E948118109261
:105030005B0210928C0286E0E5E5F2E0DF011D9252
:105040008A95E9F7C3CF96E0929FD001939FB00D68
:105050001124A45ABD4FFE01319601900D929A95EC
:10506000E1F780935B020E94B110B0CF819FC00135
:105070001124845A9D4F0E943A26882309F4ADCF0B
:1050800080918C0290E001968770992780938C0222
:105090009ECF8F929F92AF92BF92CF92DF92EF926C
:1050A000FF920F931F93CF93DF93CDB7DEB72A976D
:1050B0000FB6F894DEBF0FBECDBF4E83052F5F83C2
:1050C000162F688779878A8780E69AEE0E94A7164E
:1050D00080910003811107C060E080E50E94851681
:1050E00081E0809300030E94621680E50E94302ECA
:1050F0008AEB8A95F1F700C00E94482EB82E80E016
:105100000E94302E0E94482E7C010E94482E982E2C
:105110000E94482E6C010E94482EA82E0E94602EEC
:105120008B2D8870882E0E94602E8B2D877011F039
:105130001092000381102DC0B7FE2BC08091FE029B
:105140009091FF02892B31F40E94121F9093FF026D
:105150008093FE02F92801E880E8E816F1044CF497
:10516000002711270E191F090038110514F00FE749
:1051700010E0DA2811E880E8C816D10454F4882732
:1051800099278C199D098038910514F08FE790E0DC
:10519000182F0F83188785E0FE013696DE011196E1
:1051A00001900D928A95E1F729813A814B815C81CA
:1051B0006D8170E080E090E02A960FB6F894DEBF33
:1051C0000FBECDBFDF91CF911F910F91FF90EF9058
:1051D000DF90CF90BF90AF909F908F9008959F9257
:1051E000AF92BF92CF92DF92EF92FF920F931F93F5
:1051F000CF93DF93CDB7DEB72C970FB6F894DEBF11
:105200000FBECDBF8E010F5F1F4F88E0D8011D92EA
:105210008A95E9F782E3E82E81E0F82E99249394A9
:10522000CC24C394D12C2BE3A22E21E0B22EF70183
:1052300081917F018F3F09F444C0F894E82FE295F3
:10524000EF70F0E021A18F70A60102C0440F551F3E
:105250008A95E2F7CA01922F982B91A392A180958B
:10526000892382A30E947E0E00C067E371E0F801EB
:10527000492D4095DB019D91BD0180819F3F09F43F
:1052800077C0292F22952F7030E0D90190962C916C
:1052900030E09F7002C0359527959A95E2F720FD82
:1052A00067C0892980833196A616B70619F7F701DA
:1052B000319780818F3F11F00E94800EB0EABA953D
:1052C000F1F7990CE7E3EE16E1E0FE0609F0AFCF47
:1052D00048E050E0B80184ED92E00E941E317C016C
:1052E000892B41F088E0F801A4EDB2E001900D9225
:1052F0008A95E1F71091DD02E114F104D9F181E022
:10530000809398020E94121F9093970280939602B6
:1053100080919602909197020E94EA0C059790F076
:10532000E12FF0E0E252FD4F8091D4028083809122
:10533000D50281838091D60282838091D7028383B4
:105340001092980281E090E0EF28C1F02C960FB601
:10535000F894DEBF0FBECDBFDF91CF911F910F91AB
:10536000FF90EF90DF90CF90BF90AF909F90089507
:10537000842398CF809198028111CACF0E9405148E
:10538000F82EE091DD02882309F483C019861A867D
:105390001B861C860E2F10E002521D4F8091C90201
:1053A0008A3008F03FC047EB5BE1BE01675F7F4F8B
:1053B000C8010E94C113882309F444C040EF5CE196
:1053C000BE01675F7F4FC8010E94C1138823D1F1DE
:1053D0004EE55BE1BE01675F7F4FC8010E94C113CC
:1053E000882381F149EB5CE1BE01675F7F4FC80113
:1053F0000E94C113882331F11092C9028091DC020E
:1054000090E044E050E0BE01675F7F4F82529D4FC5
:105410000E941E3121E020939F02892B61F5F12C1F
:105420008F2D94CF8091990290919A020E94EA0C5C
:10543000843F914008F0B7CF80919F02811112C044
:1054400080E084CF8091C9028F3F29F08F5F8093E5
:10545000C9028A3098F20E94121F90939A02809398
:105460009902EACFFE01399684E0DF011D928A9508
:10547000E9F710929F02E091DC02F0E0E252FD4F6A
:1054800089859A85AB85BC8580839183A283B3830C
:10549000C7CFF0E0E252FD4F0091DC0210E0025273
:1054A0001D4FF89484E0AEEAB2E001900D928A9527
:1054B000E1F78EEA92E00E94190B8093AD020E9400
:1054C0007E0EF89484E0E2EBF2E0D80101900D92B8
:1054D0008A95E1F70E947E0EF894C090B602D090B3
:1054E000B702E090B802F090B90280919B029091CF
:1054F0009C02A0919D02B0919E02C816D906EA06B0
:10550000FB06D1F0C0929B02D0929C02E0929D02D9
:10551000F0929E020E94051481110EC00E94F90CA7
:10552000C61AD70AE80AF90AC092CA02D092CB0278
:10553000E092CC02F092CD020E947E0EF89486E0BA
:10554000EAEBF2E0A5ECB3E001900D928A95E1F769
:105550001091C002112349F080913203811105C0DE
:105560000E94661480E00E94C10D109332030E94D5
:105570007E0E66CF1F921FB61F9211248F939F93AA
:10558000AF93BF938091A203811113C08091A303B5
:105590009091A403A091A503B091A6034196A11DEB
:1055A000B11D8093A3039093A403A093A503B0938C
:1055B000A603BF91AF919F918F911F901FBE1F9027
:1055C0001895CDB7DEB72D970FB6F894DEBF0FBE96
:1055D000CDBF84B7877F84BF0FB6F894A89580911C
:1055E0006000886180936000109260000FBE80E8C8
:1055F00090E00FB6F89480936100909361000FBE25
:1056000085B7806885BF85B7806885BF8CE79EE0D9
:1056100090933102809330020E945C0B0E94270C11
:105620008091E20084608093E20078948091B703D7
:105630008823A1F01091E9001F709091EC00892F50
:10564000817090FD80E8182B1092E9008091E800AD
:1056500083FD0E948C181F701093E90082E084BDC6
:1056600093E095BD9AEF97BD80936E001092CA02A9
:105670001092CB021092CC021092CD020E943814EC
:1056800080933F010E94051481110E94EB2E8091AE
:105690003F0181112FC01D821E821F82188680EF5C
:1056A000898386E68A8384E98B8385E38C83FE0184
:1056B0003196A7E3B1E0CE01099621912D93E81729
:1056C000F907D9F785E0E7E5F1E0DE0119960190E9
:1056D0000D928A95E1F78985809332018A858093BE
:1056E00033018B85809334018C85809335018D85C2
:1056F0008093360180913F0194E0811190E0909376
:10570000DD0284E0891B8093DC0202E311E037E3D1
:10571000E32E31E0F32ED8018D918D018F3F11F0F2
:105720000E94800EE016F106B1F707E311E0F801E0
:1057300081918F018F3F11F00E94800EF1E00B33B9
:105740001F07A9F788E0EEEDF2E0DF01282F1D9298
:105750002A95E9F7E4EDF2E0DF011D928A95E9F779
:1057600090E080E00E94E430893E9E4F11F00E945C
:10577000451D82E090E00E94D6308093E7020E94AF
:10578000501B9093D3028093D2020E94EF28EFE344
:10579000FCE93197F1F700C000000E94EF280E9459
:1057A0003814E4E08111E0E0F0E0E252FD4F808146
:1057B00080FF08C06FEF7FEF90E080E00E9418311B
:1057C0000E94761383E090E00E94D630682F70E04C
:1057D00090E080E00E9445128091CE029091CF022D
:1057E000A091D002B091D1020097A105B10509F4B2
:1057F0001FC124E0B695A795979587952A95D1F76F
:1058000081709091CB0380FB97F99093CB030E941A
:10581000170B109201038FEF9FEF90931B03809360
:105820001A0390931D0380931C0390931F0380938E
:105830001E0390932103809320039093230380936E
:10584000220390932503809324039093270380934E
:105850002603909329038093280390E080E00E9420
:10586000E430893E9E4F21F00E94451D0E9447165C
:1058700046E050E06CE170E085EC93E00E94C630B9
:105880001092C4038091C5038C7F11F40E944716C7
:105890008FE090E00E94DE306F736093CB030E9434
:1058A0000514811102C00E94EE2E0E94AF160E94C4
:1058B000170B80E491E090939F0380939E03B8E1DF
:1058C000CB2ED12C16EEA12E12E0B12E44244394FF
:1058D00008E0802E912CA0E45A2E8091B70300E1BD
:1058E00012E1853009F4E9C00E94EF2881110E947D
:1058F000F90CEEEDF2E0A8EEB2E010E000E0302EA0
:1059000071908D91871509F4FEC08725F12CEE2446
:10591000E394982F9E2109F4F1C00E9405147E2083
:10592000882399F0F9823A8281E0711001C080E009
:105930008B830E94121F8160782F9D838C83498105
:105940005A816B818D810E94B927F801E851FD4F82
:105950008081E826E082772089F085E0809FF00151
:10596000819FF00D1124E157FE4FEF0DF11D808155
:10597000712C8F3F19F0682E77247394072D10E057
:1059800080910103800F912F911D09975CF17401A3
:10599000E01AF10AB8016E5F7C4FA70182E093E044
:1059A0000E942B31B801665F7C4FA7018AE093E02B
:1059B0000E942B31A701440F551FB801660F771FB6
:1059C000665E7C4F8AE193E00E942B31B8016E5EE7
:1059D0007C4FA70182E193E00E942B3188E0871978
:1059E000809301038091010390E0A62DB0E09D011A
:1059F000220F331F29543E4FAA0FBB1FBD0168540D
:105A00007E4F41E0480F971508F463C0809301036F
:105A10000E948C150E94AA170E9428149091E602F9
:105A2000891709F45ACF0E9428148093E60253CFB5
:105A300080E0E7CE8091B703843009F430C00E9443
:105A40008C1580913203811105C00E94661480E09C
:105A50000E94C10D409232030E94AA171092A20325
:105A60000FB6F894A895C09260000FBE50926000E7
:105A700083B7817F846083BF83B7816083BF78945D
:105A8000889583B78E7F83BF0FB6F894A8958091D1
:105A90006000886180936000109260000FBE80916A
:105AA000B603882351F00E94EF28EEEDF2E08191D9
:105AB000811140C0AE16BF06D1F78091B703853083
:105AC00009F4B8CF0E9481180E9428141092320362
:105AD0000BCF90E0FC01EF5FFC4FD9015C9151834B
