:100000000C947A0A0C94B20A0C94B20A0C946B34D5
:100010000C94B20A0C94B20A0C94B20A0C94B20A70
:100020000C94B20A0C94B20A0C9495200C945120B2
:100030000C9432300C94B20A0C94B20A0C94B20AAA
:100040000C94B20A0C94B20A0C94B20A0C94B20A40
:100050000C94B20A0C946E210C94B20A0C94B20A5D
:100060000C94B20A0C94B20A0C94B20A0C94B20A20
:100070000C94B20A0C94B20A0C94B20A0C94B20A10
:100080000C94B20A0C94B20A0C94B20A0C94B20A00
:100090000C94B20A0C94B20A0C94B20A0C94B20AF0
:1000A0000C94B20A0C94B20A0C94B20A05010980AD
:1000B000A101850319012AB700150126B700950192
:1000C00075108100C0050C0901A101850419012AE0
:1000D000A002150126A002950175108100C005013E
:1000E0000902A1010901A10005091901290815004A
:1000F0002501950875018102050109300931158135
:10010000257F95027508810609381581257F95019F
:1001100075088106050C0A38021581257F95017541
:10012000088106C0C005010906A101050719E029DB
:10013000E715002501950875018102950175088173
:10014000010507190029FF150026FF00950675080F
:100150008100050819012905950575019102950190
:1001600075039101C014431A00080015001700041C
:10017000681664076209610A001D611B45060019C3
:10018000610500000000002B442A414C421300127C
:10019000000C0018001C0033780F640E720D710BF8
:1001A0000038433700364510001100000000000001
:1001B000002C4128421E001F00200021002200B612
:1001C00068B7644A624D6165003A613B643C003D3A
:1001D000003E000000000001000100010027002691
:1001E000002500240023003F004F00520051005022
:1001F0000043614264250040003E00000000000012
:1002000000010001001E021F02200221022202340E
:10021000003402260227024B00290014502900282E
:10022000004E000000000001000100010035003414
:1002300000250224022302310030022F022E712DEC
:1002400000310230002F002E022D020000000000BD
:10025000000100010000001550390000000000C33B
:100260005CCA5CCB5C00000000C45CC55C000000A4
:1002700000000000000000010001000100C35C1448
:100280005000000000005C00006500B700B60000F0
:10029000000000155000000000AE0000000000004B
:1002A00000A900AA0004530000000000000453004D
:1002B000005000527251004F00E1004300440045DD
:1002C000003E000000000001000100010025026165
:1002D0000060005F0023022E005E005D005C002DC8
:1002E0000038005B005A0059002E02000000000098
:1002F000006200280005530000A75D1550A95DE3CA
:1003000000E200E100E0000000E0000100AB5DADB4
:100310005D010000000000F200F100F3000553A7AA
:100320005DA85DA75DA95DE300E200E100E00000DB
:1003300000F200F100AD5D0100AE5D0000000000C4
:10034000002C41284201048E966E773EFE7E5F1D92
:10035000B8F2664EFF5D19B0C20469542AD62EBFAA
:10036000DD19B0C3E529B1E023A5A9B1C1008267B9
:100370004C1A978D795120C7068E7C7C7A764FFD7A
:100380005930E2460E9EBEDF1D9991A0A5A1A9D0CD
:1003900022C6EF5C1B958990A2A7CCFB5528B3E43D
:1003A0004AF76C3BF46A562EDE1F9DB8D30588923F
:1003B000A6CE1EBEDF1D99B0E246EF5C07115D9828
:1003C0000B9D9497EE4E45336B44C729562730C694
:1003D000A7D5F256DFB43862CBA0B6E30F8406246B
:1003E00005656F7689B577412782666582CCD5E64B
:1003F00020D52717C5F803237C5F64A51DC1D63619
:10040000CB4CD4DB66D78BB1997E6F4C364006D689
:10041000EBD7A2E4F495515A5496D55344D78CE0C7
:10042000B94068D218E9DD9A239248EE7F43AFEADB
:100430007738848C0A72AF69F8DDF12483A3F84A17
:10044000BFF59413DBBBD8B4B3A0FB455060305963
:10045000123171A2D313E7FAE7CE0F63150B6B9439
:10046000BB378326059DFB4692FC0A15D10D73927E
:10047000D68C1B8CB8558ACEBDFE8EFCED0912833E
:100480009182513123FBB40C76AD7CD9B44BB26769
:1004900014099C7F0C18BA3BD68E142AE41B529F79
:1004A0002B7DE1FB6A3302FAAC5AF23E887EAED174
:1004B000F378E805D1E3DC21F6E19ABD170ED946C1
:1004C0009B8803EAF666BE0E1B5049964097F1F1F1
:1004D000E480A66EE87734BF294044C2FF4E98D32B
:1004E0009CA3322B76510409E7A9D1A632B123533C
:1004F000E247ABD6F5695C3E5FFAAE4520E5D244F3
:10050000FF39326DFD27575CFDF0DEC1B599E5F589
:100510001C770175C56D5892F2B247000126967A94
:1005200030FFB7F0EF77C18A5DDCC0D129301E778C
:10053000387A94F1B87A7EEFA4D1AC314AF25D6496
:100540003DB2E2F00899FC70EE24A77EEE1E206911
:100550007D44BF8742DF883B0CDA42C904F945502D
:10056000FC838F116A72BC9995F0AC3DA73BCD1C02
:10057000E2887937115F3989950A16847AF68AA458
:1005800028E4ED83803BB123A50310F466EABB0C9D
:100590000FC5EC6C69C5D324ABD42AB7998876080B
:1005A000A0A8957CD8386DCD5902514BF1B52B5090
:1005B000E3B6BDD072CF9EFD6EBB44C8248A7718C7
:1005C0008A1306EF977DFA81F031E6FA77ED31066E
:1005D000315B548A9F3068DBE240F84E73FAAB74AB
:1005E0008B105813DCD2E678D1322E8A9F2C580615
:1005F0004827C5A95E8147894621910370A43E889A
:100600009CDA330ACEBC8B8ECF9FD3718043CF6BE5
:10061000A95183763082C56A853911501A82DC1E51
:100620001CD57DA9719933471997B35AB1DFEDA451
:10063000F2E62684A2289A9EDFA66AF4D6FC2E5BF8
:100640009D1A2A2768FBC183214B90E036DD5B3180
:100650004255A013F7D089537199570929C5F32141
:10066000F8372F40F3D4AF16083602FC77C58B0459
:100670009056B9C9679A99E800D386FF972D08E983
:10068000B7B391BCDF45C6ED0F8C4C1EE65B6E38F0
:1006900030E4AAE395DEB9E49AF5B2559A879BF661
:1006A0006AB2F2779A31F47A31D11D04C07C32A259
:1006B0009E9AF562F8278DBF51FFD3DF64373F2A3A
:1006C0006F763A7D77069E777F5EEB3251F916663C
:1006D0009A09F3B008A470964630FFDA4FE91BED93
:1006E0008DF8741F3192B3731736DB9130D688556D
:1006F0006B3477877AE7EE06C61C8C190C484623C4
:100700005E9C075CBFB47ED64F749CE2C5508BC51F
:100710008B159060625729D01343A18088910044C3
:10072000C74D1986CC2F2A755AFCEB972A70E378AF
:10073000D891B04F9907A395EA2421D5DE51209393
:10074000270A3073A8FF8A97E9A76A8E0DE8F0DFC1
:10075000ECEAB46C1D392A622D3D5A8B65F8900580
:100760002E7E912C78EF8E7AC12FAC78EEAF284593
:10077000064C26AF3BA2DBA39306B53CA5D8EE8F73
:10078000AF25CC3F856848A962CC978F7F2AEAE0E5
:10079000150AAD6207BD45F841D836CB4CDB6EE695
:1007A0003AE7DA15E9291E1210A0142C0E3DF4BF09
:1007B000394192750B257BA3CE399C1564C8FA3D4F
:1007C000EF7327FE262ECEDA6EFD718EDDFE76EEFD
:1007D000DC125C02C53A4E4E4FBFCA4015C76E8D43
:1007E00041F110E04F7E977F1CAE478E6BB12531F3
:1007F000B073C71B9779F980D366223007741EE463
:10080000D08021D6EE6B6C4FBFF5B7D909872FA9E1
:1008100014BE27D9725001D41373A6A751027525AF
:10082000E1B345347DA88EEBF31649CB4F8CA1B9CB
:10083000368539755D0800AEEBF6EAD7133A215AD2
:100840005F3084522695C914F257556BB110C2E13E
:10085000BD3B51C0B7554C711226C70DF951A43894
:1008600002057FB8F1724BBF718914F37738D971E3
:1008700024F30011A1D8D46927083735C9119D90F8
:100880001C0EE71CFF2D1EE892E11810957CE080FD
:10089000F4964321F975216438DD9F1E9516DA56CA
:1008A0001D4F9A53B2E2E418CB6B1A65EB56C63B68
:1008B000E5FED8263F3A84597266A2F375FFFB60C5
:1008C000B322AD3F2D6BF9EBEA057CD88F6D2C98E8
:1008D0009E2B93F15E46F08749297368D77FF9F024
:1008E000E57DDB1D7519F3C4589B1788A892E0BEFF
:1008F000BD8B1D8D9F5676ADAF29E2D9D552F6B589
:100900005635573AC8E156431994D3049B6D35D8F0
:100910000B5F4D198EECFA64910A72202BBC1A4AB7
:10092000FE8BFDBBED1B23EAAD7282A1299971BD3F
:10093000F095C103DD7BC2B23C2854D368A472C8D1
:100940006696E0D1D87FF8D1262BF7ADBA55CA15F7
:10095000B932C3E588978E5CFB92258BBFA24555C3
:100960007AA76F8B575BCF0ECB1DFB208277A88CAD
:10097000CC16CE1DFADECC0B62FECCE1B7F0C38103
:10098000647340A0C24D8911753355338DE84AFD1B
:10099000EA6E300BD7312CDE47E3BFF85542E27FD9
:1009A00059E517EF99346991B1238E20872DA8FE60
:1009B000D58AF3843AF037E4090054EE674993E4AA
:1009C0008170E3904DEFFE41B7997BC183BA62120B
:1009D0006F7DDE6BAFDA16F95551EEA60C2B02A334
:1009E000FD8DFB3017E46FDF3671C4CA872548B030
:1009F00047ECEAB4BFA54D9B9F0293C4E3E4E842F1
:100A00002D6881150AEB845BD6A874FB7D1DCB2C69
:100A1000DA462A7662CEBC5C9E8BE7CFBE78F57C48
:100A2000EBB33A9CAA6FCC72D159F21123D63F484E
:100A3000D1B7CEB0BFCBEA80DE57D45E972F75D149
:100A4000508E802C6679BF724BBD8A816CD3E101D8
:100A5000DCD21526C536DA2C1AC02794EDB79B8553
:100A60000B5E8097C5EC4FEC885D50073547DC0B7B
:100A70003B3DDD60AFA85D813824255D5C15D1DE8E
:100A8000B3ABEC0569EF83ED5754B86464111632CB
:100A900069DA9F2D7F36BB445A34E87FBF03EB00F1
:100AA0007F59682279CF736C2C29A7A15F38A11DCB
:100AB000F02053E01A6314587110AA080C3E161A5D
:100AC0006022827FBAA443A0D0AC1BD56B64B5145E
:100AD00093319E5350D05766EE5A4FFB032A695804
:100AE00076F183F74EBA8C4206605D6DCE6088AEBB
:100AF000A4C3F103A54B98A1FF67E1ACA2B862D7EC
:100B00006FA031B4D277AF211006C69AFF1D091726
:100B10000E5FF1AA54344B458A8763A6DCF9243072
:100B200067C6B2D6613369EE50615728E77EEEECB6
:100B30003A5A734EA88DE418EAEC4164C8E2E866BC
:100B4000B62DB6FB6A6C16B3DD4643B973006A7105
:100B5000ED4E9D251AC33C4A95159935811402D650
:100B6000989BECD8233B8429AF0C9983A69A344FE9
:100B7000FAE8D03C4BD0FBB668B89E8FCDF7602D1D
:100B80007A22E57DAB651B95A7A87FB677477B5F8B
:100B90008B1272D0D491EFDE19503CA78BC4A9B34D
:100BA00023CB76E681F0C1048FA3B8545B97AC19D0
:100BB000FF3F55272FE01D429B57FC4B4E0FCE9811
:100BC000A9435703BDE7C894DF6E367332B4EF2EE6
:100BD000857A6EFC6C188275359007F3E49F3EDCD5
:100BE00068F3B5F31980920699A2E86FFF2E7FAEE5
:100BF00042A45FFBD40E812BC304FF2BB3744E368B
:100C00005B9C1500C6472BE88B3DF19C039A587FEF
:100C10009B9CBF854979352E567B411439478326E5
:100C2000AA078998111B86E7737AD87D786153E902
:100C300079F5368D449284F91350583BA46A366591
:100C4000498E3C0EF16FD284C47E8E3F39AE7C84D7
:100C5000F163378E3CCC3E448145F14BB9ED6B36A8
:100C60005DBB20601A0FA3AA55773AA9AE374DBADB
:100C7000B8866BBC0850F6CCA4BD1D4072A586FAA0
:100C8000E210AE3D584B97F34374A99EEB21B70198
:100C9000A4869397EE2F4F3B86A1416F4126907813
:100CA0005C7F30384B3FAAECED5C6F0EAD4387FDA7
:100CB0009335E601EF412690999EFB195BADD291E9
:100CC0008AE046AF65FA4F84C1A12DCF458BD3850D
:100CD00050557CF96788D44EE9D76B6154A1A4A61E
:100CE000A2C2BF309C409F5FD7692B24825ED9D6B9
:100CF000A712541AF7559F7650A99584E66B6DB5E7
:100D00009654D6CDB3A19B46A7944DC494B498E312
:100D1000E1E234D533160754CDB77753DB4F4D4658
:100D20009DE9D49C8A36B6B838266C0EFF9C1B43CE
:100D30008B80CCB93DDAC7F18AF26DB8D7742F7EBB
:100D40001EB7D34AB4ACFC79486CBC96B6944657EF
:100D50002DB0A3FC1EB95260852D41D043011E1C4D
:100D6000D57DFCF3960DC7CB2A299A93DD882D37C4
:100D70005DAAFB4968A09C50867F685657F9791890
:100D800039D4E001843361CAA5D2D6E4C98A4A23A2
:100D9000444EBCF0DC24A1A0C4E2073C10C4B5253D
:100DA0004B6563F480E7CF61B1718221872CF591A7
:100DB00000320CECA9B59A7485E3368F764F9C6DA2
:100DC000CEBCAD0A4BED7604CBC3B9339E019396EE
:100DD000697DC5A245799B045C8409ED8843C7AB56
:100DE000931426A140B5CE4EBF2A42853E2C3B54DB
:100DF000E8121F0E9759B22789FAF2DF8E6859DC84
:100E000006BCB6850D0622ECB1CBE504E63DB3B0D9
:100E10004173083F3C588663EB50EE1D2C3774A994
:100E2000D318A3476E9354AD0A5DB82A555D78F682
:100E3000EEBE8E3C7669B940C234EC2AB9ED7E2014
:100E4000E48D0038C7E68F44A886CEEB2AE990F1FE
:100E50004CDF32FB731B6D921E95FEB4DB65DF4DDC
:100E600023548948BF4A2E70D6D762B43329B13A89
:100E7000334C236DA676A5216348E6905DED9095F1
:100E80000B7A84BEB80D5E630C62264C145AB3AC68
:100E900023A474A76F333005600142A028B7EE1970
:100EA00038F164808243E141271F1F90547AD52393
:100EB0002ED13DCB28BA587FDC7C9124E928518380
:100EC0006EC5562142EDA05622A140806BA8F79432
:100ED000CA136B0C39D9FDE9F36FA69EFC708AB377
:100EE000BC593C1E1D6CF97CAFF9887195EB57001D
:100EF000BD9F8C4FE12483C522EAFDD30CE2171875
:100F00007C6A4CDE77B4539B4C81CD2360AA0E25BE
:100F1000739C02793230DF74DF7519F4A5145CF725
:100F20007AA8A591847C6003063BCD50B6279CFE31
:100F3000B1DDCCD3B05924B2CAE21C81229D078F07
:100F40008EB9BE4EFAFC3965BABF9D12375E977EE8
:100F5000F389F55DF5E3098C62B5209D0C538A6831
:100F60001BD28F75175DD4E5DA756219146A262DC8
:100F7000EBF8AF37F06CA455B1BCE233C09ACAB0FD
:100F800011494F689B3B6B3CCC13F6C785616842A7
:100F9000AEBBDDCD4516291DEADBC803943CEE4F00
:100FA0008211C3EC28BD970599DED7BB5E221FD402
:100FB000EB64D992D985B76A056AE42441F1CDF092
:100FC000D83FF89E0ECD0B7A706B5A750A6A33883B
:100FD000EC17750870102F24CFC4E942006194CA41
:100FE0001F3A7606FAD24881F077600345D961F45A
:100FF000A46F3DD930C3046B542AB7EC3BF44BF5D6
:10100000685226CEFF5D1991A0A3A5A9B1E023C423
:101010000A774DF95120A3A5A9B1C10082868E7F20
:101020005D1991A0A3C4EB540B756852078C9A9775
:101030008D79706246EF5C1B95897141E121A1A118
:10104000A1C002674C1AB6CFFD785324ABB5C9F1E5
:101050006023A5C812876D5813858892876D583212
:10106000C70C9A97ACDA36EE5E3EDF1DB8F2662FFB
:10107000BDF87247ED5813858892878C7B5509908F
:10108000A2C6EF3DF85324ABD42AB7EC5A36EE5E35
:101090003EDF3CFA764FFD5930E246EF3DF853050E
:1010A0006931C10082868E7F5D19B0E227CCFB7466
:1010B0004B148B948B756833C50892878C9AB6CF86
:1010C0001CBAD70D98B2E62FDC1B9589716023C43A
:1010D0000A968F9CBAF66E3FFC5B15A8D226AFBD70
:1010E000F872662FDC1BB4CB148B94AAB7CDF951E0
:1010F000018082866F3DD930E227CCFB744B14AA65
:10110000B7CDF97043046B35C9F16023A5C8F34529
:101110000892876D5832E62FBDF872664E1EBEFEED
:101120007E7E7E5F1D9991A0A3C40A774D1893A47B
:10113000ABD40B754910A2C6EF3DF85324ABB5E80C
:1011400033E44A16AEDE1FBCDB15A8B3C5087345F1
:10115000E931C1E121A1A1A1C002866F5C3AD70D9E
:101160009893A4CA16AEDE1F9D99B0E246EF3DF8F3
:1011700072470C9AB6CFFD5911A0A3A5C8F3450834
:1011800092876D39F043048A96AEDE3EDF1D999159
:10119000A0C2066F3DF872470C9A978D9893858888
:1011A0007345E931E023A5A9D003848A96AEDE1FFA
:1011B000BCDB15A8D226CEFF5D1991818082672DF8
:1011C000D813A4ABD40B94AAB7CDF95120A3A5C8CA
:1011D000F345E95022C6EF5C3AD70D9893858873A2
:1011E000644AF74DF95120A3C40A96AEDE3EFE7E56
:1011F0007E7E5F3CFA764FFD7872662FBDD930C394
:10120000E54812878C7B5528D2078C9A97ACDA1761
:101210008D795120A3C4EB540B948B94AAD62EBF86
:10122000FC5B15A8D226AFDC1BB4EA37EC3BF46AB2
:1012300037CD1893856931C1E140E325C812878C09
:101240009AB6CFFD5911A0C2068E7F5D38F2470CC9
:101250007B746A37EC5A36EE3FFC7A764F1C9B95CE
:10126000897141006344EB542AD60F9CBAD70D987C
:1012700093856931C10082868E9EBEDF3CFA572C71
:10128000DA36EE3FFC5B158971410082868E7F5D08
:1012900038F247ED5813A4CAF74DF9510180634461
:1012A000EB542AD62EBFDD1991A0A3A5A9B1E04227
:1012B000068E7F5D1991A0A3C40A968F7D78724730
:1012C0000C7B746A562EDE1FBCFA570D79510161F2
:1012D00021A1C0E325A9B1C1E14002674C1A978D55
:1012E0009893A4ABD42AD60F9C9BB4CB14AAB7CDA9
:1012F000F95120A3C4EB35C9F16042068E7F7C7A98
:10130000766E3FFC7A766E5E3EFE7E5F3CDB158934
:101310007141E121C0E344EB542AB7CDF970622753
:10132000ADD832C70C7B744B14AAB7EC3BD528D28E
:10133000076D39D120C2E74C1A978D98B2C70C5966
:1013400028F39B00010101010101010101020202D8
:101350000202020202020303030303030303040461
:10136000040404040405050505050606060606072B
:101370000707070708080808090909090A0A0A0BE4
:101380000B0B0C0C0C0D0D0D0E0E0E0F0F0F101085
:10139000111111121213131414151516161717180C
:1013A0001819191A1A1B1B1C1D1D1E1E1F20202177
:1013B0002222232424252626272829292A2B2C2DBE
:1013C0002D2E2F30313232333435363738393A3BDF
:1013D0003C3D3E3F404142434445464748494A4CD4
:1013E0004D4E4F50515354555658595A5B5D5E5FA0
:1013F000616264656668696B6C6D6F707273757736
:10140000787A7B7D7E8082838587888A8C8E8F9197
:10141000939596989A9C9EA0A2A3A5A7A9ABADAFC1
:10142000B1B3B5B7BABCBEC0C2C4C6C9CBCDCFD1AB
:10143000D4D6D8DBDDDFE2E4E7E9EBEEF0F3F5F854
:10144000FAFDFF09025400030100A0FA090400009C
:1014500001030101000921110100012240000705DB
:1014600081030800010904010001030102000921B0
:101470001101000122470007058203080001090449
:1014800002000103000000092111010001223200C5
:10149000070583032000011201000200000008F884
:1014A000A832180100010200011E03430068006118
:1014B0000072007900620064006900730020004E31
:1014C0000061006E006F00000024034200610073A1
:1014D00000740061007200640020004B0065007918
:1014E0000062006F0061007200640073000000047D
:1014F0000309040011241FBECFEFDAE0DEBFCDBF29
:1015000004B603FE18C08091370490913804A0916E
:101510003904B0913A048730904BA740B04B59F44E
:1015200010923704109238041092390410923A0441
:10153000E0E0F8E3099512E0A0E0B1E0E2E1FEE6C8
:1015400002C005900D92A236B107D9F724E0A2E6B9
:10155000B2E001C01D92A733B207E1F70E945930F3
:101560000C94E2360C94000090912E04937061F07C
:1015700081110BC0946090932E04109270018091A1
:101580002D04816080932D040895873010F09861B8
:10159000F2CF880F880F982BEECF90912E04937086
:1015A00071F080932F0460933004453608F044E6D0
:1015B0004093310480912D04816080932D0408951F
:1015C000E8EDF0E080818E7F80831092E20010923F
:1015D000DA001092E100A0EEB0E08C9181608C9373
:1015E00080818F77808319BCA7EDB0E08C918E7FCE
:1015F0008C9380818F7E80831092130408952091B4
:10160000E4003091E50095E6A9012091EC00822FDD
:10161000817020FF06C08091E80080FF06C080E056
:1016200008952091E80022FD1AC0809120048823AB
:1016300089F0853089F08091EB0085FD0FC0209105
:10164000E4003091E50042175307F9F29150E1F6BA
:1016500084E0089582E0089583E0089581E008958C
:10166000EF92FF920F931F93CF937C018B010E9407
:10167000FF0AC82F811117C08091E80085FD0BC0BB
:101680008091E8008E778093E8000E94FF0A88230B
:1016900099F3C82F08C0F70181917F018093F10071
:1016A0000150110949F78C2FCF911F910F91FF9095
:1016B000EF9008958091220487FF13C08091E80085
:1016C00082FF06C08091E8008B778093E80004C019
:1016D000809120048111F2CF089580912004882305
:1016E000D9F38091E80080FFF8CF8091E8008E77F1
:1016F000ECCF982F9093E900242F762F50E0891794
:1017000031F07091EC002091ED005091F00021FD3E
:1017100007C09F5F973071F78093E90081E00895DB
:101720003091EB003E7F3093EB003091ED003D7F38
:101730003093ED003091EB0031603093EB0070930B
:10174000EC002093ED005093F0002091EE0027FD77
:10175000E0CF80E00895CF92DF92EF92FF920F9357
:101760001F93CF93DF93C8EDD0E088818F7E88836D
:10177000E7EDF0E080818160808384E082BF81E0DA
:101780008093130488818E7F888302EE10E0F80135
:1017900010821092DA0081EEC82ED12CF601108250
:1017A00088818F77888388818068888388818F7D0E
:1017B000888319BC109220041092210410921F04F7
:1017C00010921E0490EEE92EF12CF70180818B7FA0
:1017D000808388818160888342E060E080E00E94AD
:1017E000790BF60180818E7F8083F8018081816092
:1017F0008083808188608083F70180818E7F8083F1
:10180000888180618883DF91CF911F910F91FF9034
:10181000EF90DF90CF900895FC0180912804909183
:10182000290486179707A0F06115710529F4909196
:10183000E8009E779093E80090E06115710551F4FF
:10184000911108C08091E80082FF34C080E00895C3
:10185000BC01F2CF809120048823C1F18530C1F111
:101860008091E80083FD30C08091E80082FDEACFDE
:101870008091E80080FFE1CF8091F3002091F20099
:10188000382F6115710519F02830310558F091E0B5
:101890002830310509F090E02091E8002E77209360
:1018A000E800CBCF81918093F100615071092F5FE7
:1018B0003F4FE7CF80912004882341F0853041F0ED
:1018C0008091E80083FFBECF81E0089582E0089513
:1018D00083E008950895809115040895CF92DF92D2
:1018E000EF92FF922FB7F894C0900C04D0900D04A3
:1018F000E0900E04F0900F042FBFA7019601261B65
:10190000370B480B590BCA01B901FF90EF90DF90DC
:10191000CF9008959C014FB7F89480910C0490915A
:101920000D04A0910E04B0910F044FBF821B930BC6
:1019300008952FB7F89460910C0470910D04809174
:101940000E0490910F042FBF08959C01FC01329664
:101950009FEF80E04191461751F09F3F19F44111EC
:1019600001C0982F8F5F8630A9F79F3F09F4089533
:10197000290F311D97FD3A95F90162830895209151
:10198000090430910A042817390771F090930A046A
:1019900080930904E0910704F0910804309721F046
:1019A0000084F185E02D099408952091050430917B
:1019B00006042817390771F09093060480930504F4
:1019C000E0910704F0910804309721F00680F78138
:1019D000E02D09940895FC01680F791F8FEF91E3C2
:1019E0002191822728E030E087FF09C0880F8927EE
:1019F00021503109C9F7E617F70791F70895880FC5
:101A0000F7CFFA01811101C0FB010994FC019B0190
:101A1000AC0197FF04C044275527481B590BBA0156
:101A2000620F731F37FD0FC0241B350BC901A5E0E2
:101A3000880F991FAA95E1F70E949B3580E2861BCB
:101A4000F7FD81950895CB0165E0880F991F6A9590
:101A5000E1F7BA01621B730B0E949B3580E6EFCF62
:101A6000EEE2F4E0248130E1231B08F420E024833B
:101A700080912D04816080932D040895EEE2F4E0BE
:101A8000248130E1230F08F42FEF248380912D046B
:101A9000816080932D040895EEE2F4E0438120E11B
:101AA000421B08F440E08181628190E00C94CD0AF1
:101AB000EEE2F4E0438120E1420F08F44FEF818130
:101AC000628190E00C94CD0AEEE2F4E0628120E1C4
:101AD000621B08F460E08181438190E00C94CD0AA0
:101AE000EEE2F4E0628120E1620F08F46FEF8181A1
:101AF000438190E00C94CD0AEEE2F4E081814381D1
:101B000062818850990B0C94CD0AEEE2F4E0818159
:101B100090E04381628108960C94CD0A80912E0456
:101B200086958695815009F486E00C94B40A8091DC
:101B30002E04869586958F5F873008F081E00C949F
:101B4000B40A80936B0180912E04837080936A01A4
:101B50000E948B1283E08093700108950C942E13E1
:101B6000FF920F931F93CF93DF93182F062FF42E1E
:101B7000D0E0C0E02F2D402F612FCE010E94AE0D8E
:101B80002196C332D105B1F7DF91CF911F910F910B
:101B9000FF9008950F931F9310E0F801EE0FFF1FC1
:101BA000E751FE4F9081905797FD9195000F111FBF
:101BB000F801EF53FE4F01A50052110B2003F00175
:101BC000219FF00D112408E310E0091B110997FD76
:101BD000139540039001419F300D1124E20FF31F34
:101BE0009F01220F331F2E0F3F1F37FF02C02158C6
:101BF0003F4F220F232F221F330B620F1F910F9194
:101C00000895EF920F93CF93DF93D72FC82FC90179
:101C10000E19009729F480E857FD05C080E003C045
:101C2000BA010E94060D602F681B7D2F8C2FDF915B
:101C3000CF910F91EF9008950F93CF93DF93D72F0C
:101C4000C82FC901009729F480E857FD05C080E03E
:101C500003C0BA010E94060D602F680F7D2F8C2FE4
:101C6000DF91CF910F910895322F50E0FA01EE0FDE
:101C7000FF1FEF53FE4F91A5905297FD9195440F92
:101C8000551FFA01E751FE4F2081231B330B290F0B
:101C9000311D97FD3A95620F0895E82F86FDE09576
:101CA0002E2F2F7086FD2F5FE695E695E695E67060
:101CB000F0E0E754FE4F9181929F902D212D112449
:101CC00092959F702295207F922B2081920F87FD05
:101CD000919580E8890F089530E020E0869F212DBE
:101CE000969F200D311D1124C9010895AF92BF9216
:101CF000CF92DF92FF920F931F93CF93DF93362FF4
:101D0000472FE82FF0E0ED5BFC4E71110FC0E4911E
:101D10008E2F2E2F6E2F722FDF91CF911F910F914B
:101D2000FF90DF90CF90BF90AF900895C72FD0E085
:101D30002491F22E022F10E056E0659FC00111247D
:101D4000EFEFF0E0BF010E948735832F90E0880F0E
:101D5000991F35E5369FD001379FB00D11248A1B9E
:101D60009B0B982F990F980F6F01CC1ADD0AC09E1C
:101D7000D001C19EB00DD09EB00D11248B2F499F74
:101D8000A0011124452F55276F01C41AD50AC09E02
:101D9000A001C19E500DD09E500D11245F01A91AC3
:101DA000B108AC9E6001AD9ED00CBC9ED00C11243D
:101DB000CD2CDD24EC19FD09E09FE001E19FD00D61
:101DC000F09FD00D1124ED2F62307105A1F050F479
:101DD0006115710509F49ECF6130710581F0EB2F1B
:101DE000852F98CF6430710569F080F066307105F9
:101DF00009F490CFF4CFE22F2B2F8D2F8BCFE22F32
:101E0000252F88CFEB2F822F2D2F84CF2B2F8F2D97
:101E1000E52F80CF80E0089578940895F894E82F16
:101E2000E295EF70F0E031A1282F2F7081E090E073
:101E300001C0880F2A95EAF7982F9095932391A3D4
:101E400092A1892B82A30C940C0F9091360392FFE0
:101E500006C0282F28712830F9F4877F846093FF0B
:101E600006C0282F28712831F1F4877E84612091E3
:101E7000370320FF06C0382F38713830D9F4877FF8
:101E8000816021FF06C0282F28712831D1F4877E78
:101E9000816194FD877E0895282F24712430F9F6FE
:101EA0008B7F8860DCCF282F2471243101F78B7E53
:101EB0008861DDCF382F3171313019F78E7F88601E
:101EC000E0CF282F2171213121F78E7E8861E1CF6B
:101ED000CF93DF93EC0182389105A9F1D8F58133D6
:101EE000910509F496C048F58932910509F48AC034
:101EF0008A9709F495C0C11522E5D20708F0B6C04B
:101F0000C11531E5D30708F026C1C83ED10508F058
:101F10009CC0C03ED10560F5C83AD10508F087C025
:101F2000C53AD10508F0EFC0C130D10509F12097BD
:101F3000F9F0C430D105E0F440C08533910509F4CF
:101F40005AC0C997C1F680913603837089F0C0EEFC
:101F5000D0E00EC0833E910599F170F4803E91056A
:101F600001F1823E910539F68091360382FD21C050
:101F7000CE01DF91CF910895863E910561F1873EB4
:101F8000910571F1843E910509F0B5CF8091370339
:101F900081FFEECF80913603C7EED0E084FD0DC007
:101FA000E7CF8091360380FD07C19091370390FF02
:101FB000DFCFC3EED0E084FFDBCFD0E0C0E0D8CFEE
:101FC0008091360382FDFBC09091370390FDBFCF17
:101FD00084FFCECFF2CF8091360383FDDDCFC8CF13
:101FE0008091360383FDEEC09091370391FFF0CFCF
:101FF000C4EED0E0BDCF8091360385FFB9CFC9E2F2
:10200000D0E0B6CF8091360385FFB2CFC5E3D0E0F4
:10201000AFCF8091360386FFABCFCAE2D0E0A8CF26
:102020008091360386FFA4CFC1E3D0E0A1CFCF3BA0
:10203000D10518F6C85AD0E0CC0FDD1FC757DE4FC8
:102040000990D881C02DD46493CFC11540E5D40741
:1020500008F064C0C11580E4D80708F05CC0CE0168
:102060009A9581159F4108F483CFA7CFC11536E516
:10207000D30718F5C11545E5D40708F084C0C1158C
:1020800084E5D80708F07AC09C2F969596959E0116
:1020900023703327C115D34508F462C0C1E0D0E0F6
:1020A00002C0CC0FDD1F2A95E2F730E2939FC001FA
:1020B0001124C82BD92BDA685BCFC1158AE5D80764
:1020C00078F4C11599E5D90708F068C0C11528E56D
:1020D000D20708F472CFDC2FCC27C06FD06A48CF6C
:1020E000CE0190568115904208F067CF8D2F8F71E9
:1020F0000E94250F90E0982F882788279F719C01C8
:102100002C2BE90149C0C55AD0E0CA57DE4FC8811F
:10211000D0E0D0642DCFDF70D06A2ACFCE01E4E0CA
:1021200096958795EA95E1F783702C2F269526954D
:10213000237040E2249F90011124382B8C2F837050
:10214000C1E0D0E002C0CC0FDD1F8A95E2F7C22BC0
:10215000D32BDC680DCFDC2FCC27C16FD06A08CF22
:10216000C1E0D0E002C0CC0FDD1F2A95E2F720E2EB
:10217000929FC0011124C82BD92BEBCFDC2FCC2789
:10218000C46FD06AF5CE8C2F0E94250FC82FD0E0E7
:10219000DC2FCC27CC27DF71D062EACE8C2F8F705A
:1021A0000E94250F34E0D695C7953A95E1F7CF7098
:1021B0009C2FEC01D069DCCEC9E3D0E0D9CEC2EED1
:1021C000D0E0D6CEC6EED0E0D3CE8091C902811148
:1021D0001092C902089580959091C8029823909317
:1021E000C80208958091BD0290918C02981301C09D
:1021F00008958F5F8770FACFAF92BF92CF92DF9230
:10220000EF92FF920F931F93CF93DF93C09032030F
:10221000D0903303E0903403F090350340911103E4
:10222000509112036091130370911403C42AD52AAC
:10223000E62AF72ACFE1D0E0082F10E025E0929FB0
:10224000000D111D112498E2A92EBC2ED701C60144
:102250000C2E04C0B695A795979587950A94D2F74A
:1022600080FD0FC0219788F7B12C8B2DDF91CF9186
:102270001F910F91FF90EF90DF90CF90BF90AF90A4
:102280000895AC9EF001AD9EF00D1124E00FF11FFA
:10229000EE0FFF1FEB59FE4F859194910E94680F3E
:1022A000019701F3E2CFCF93DF93EC010E94FC1082
:1022B000EC2FF0E095E0D99FE00DF11D112498E29C
:1022C000899FE00DF11D1124EE0FFF1FEB59FE4F0A
:1022D00085919491DF91CF910C94680FE92FEE0FC7
:1022E000EE0F9E0F890F982F97708695869586958D
:1022F00025E0829FF0011124E359FD4F50E040E0BA
:1023000080E0219130E0092E02C0369527950A948D
:10231000E2F721703327042E01C0220F0A94EAF756
:10232000822B4F5F5F4F4530510559F70895E92FD4
:10233000EE0FEE0F9E0F890F982F977041E001C0AE
:10234000440F9A95EAF786958695869595E0899F3C
:10235000F0011124E359FD4F30E020E070E051918D
:10236000DF011197CB01022E02C0969587950A9442
:10237000E2F7817081958527842385278C932F5FD1
:102380003F4F2530310559F70895282F80913203AA
:1023900090913303A0913403B09135030097A105C8
:1023A000B10549F004C0B695A795979587952A95EC
:1023B000D2F78170089580E00895FC0180819181B9
:1023C0000E94531192959F70963091F058F4925F4D
:1023D0009F70923058F4803F19F030F4883E30F40A
:1023E00081E008959A5FF4CF843FD1F380E00895AF
:1023F000883EB0F3813FD1F7F3CF9091C90280912D
:10240000C802892B0E94250F982F927281E009F44F
:1024100080E0089580931004709312046093110477
:1024200080912004843001F583E08093E9008FEFF0
:102430009091E800815095FD06C095ED9A95F1F7D1
:1024400000008111F5CF8091E80085FF0DC050E0BC
:1024500040E063E070E080E194E00E94300B809106
:10246000E8008E778093E8000895BC0184E00C9426
:102470000A12BC0183E00C940A129C0182E0809352
:10248000E9009FEF8091E800915085FD06C085ED41
:102490008A95F1F700009111F5CF8091E80085FF52
:1024A0000CC050E040E065E070E0C9010E94300BD4
:1024B0008091E8008E778093E8000895CF93DF93B2
:1024C000EC0181E08093E9008FEF9091E80081506A
:1024D00095FD06C095ED9A95F1F700008111F5CFB5
:1024E0008091E80085FF14C050E040E068E070E0B3
:1024F000CE010E94300B8091E8008E778093E80037
:1025000088E0FE01A6E1B4E001900D928A95E1F722
:10251000DF91CF910895539A3BB1377F2BB128605B
:102520004FB7F8948CE993E0FC015191CF0168E03A
:102530002BB9000000C057FF3BB9550F000000C089
:1025400000C000C03BB900C06A9591F7F4E0853047
:102550009F0751F74FBF8FE594E00197F1F700C057
:10256000000008959F92AF92BF92CF92DF92EF92B8
:10257000FF920F931F93CF93DF937C015B016A015E
:102580008091230301E010E08A3010F40AE010E0AB
:10259000C1E0D0E0F894B501C701F6010995982E85
:1025A0000E940C0F911004C021960C171D076CF4AB
:1025B000892DDF91CF911F910F91FF90EF90DF90C8
:1025C000CF90BF90AF909F900895CC9F9001CD9FEA
:1025D000300D300D112490E080E045E34A95F1F78D
:1025E0000000019682179307C1F7D4CF8091D802DB
:1025F000811110C08091D80080618093D8008AE159
:102600008A95F1F700C08091D90080FF0AC081E06F
:102610008093D80281E09091D802913009F080E057
:10262000089582E08093D8020E94E00A109220046C
:10263000F1CF0E94F612882351F0E0910704F09147
:102640000804309721F00190F081E02D099480E09A
:1026500008950E94F61291E089270895FF920F9342
:102660001F93CF93DF93EC01F62E042F122F0E94BD
:10267000291381110FC0C231D1057CF06297FE0190
:10268000EE0FFF1FEC0FFD1FE456FC4FF18200839D
:10269000128303C0C231D10594F3DF91CF911F9112
:1026A0000F91FF900895CF93C82F0E94291388237C
:1026B00029F081E0C23128F080E003C081E0C3321C
:1026C000D8F7CF910895CF93DF93EC010E9429139F
:1026D000811105C0CE01DF91CF910C94DE17D0930C
:1026E0006603C0936503DF91CF9108958091340410
:1026F00086FF04C084E690E00C94631387FF09C052
:102700008295837022E3829FC00111248C599F4FD0
:10271000F3CF8F7022E3829FC001112480579E4F18
:10272000EBCF0F931F930E94F612882321F01F9185
:102730000F910C94990C0E94990C00912403109114
:1027400025032091260330912703600F711F821FFC
:10275000931F1F910F910895DF92EF92FF920F93B5
:102760001F93CF93DF938C01FC01E15DFD4F8081CE
:10277000682381F1D0903004D0913104C0912F04AE
:10278000EC2EF12C0E940136282FC7018C549F4F4C
:1027900068E671E00E949B358E199F0997FD0396AC
:1027A000959587959595879523706C2F289F600D3B
:1027B00011247D2D8D2F0E94760E462F282F672FF6
:1027C000C801DF91CF911F910F91FF90EF90DF90A3
:1027D0000C94AE0DDF91CF911F910F91FF90EF9070
:1027E000DF900895BF92CF92DF92EF92FF920F9306
:1027F0001F93CF93DF93182F80916B01811323C018
:1028000090912E04937020916A0130E081E092173C
:10281000130609F480E0817080936E018091330487
:1028200090916D01981739F080936D0140E060E060
:1028300080E00E94B00D173060F4E12FF0E0EC5121
:10284000F94C0C94AF3581E0E6CF80916E01811197
:1028500002C0C0E0F4C140E060E080E00E94B00D42
:10286000F8CFC0916C0187E0C89FC02D112407E00C
:102870000C0F043208F003E20E942913882319F098
:10288000033108F002E10E942913811103C0C23113
:1028900008F4C2E160912F047091300480913104FA
:1028A0000E94760EF62ED72EC82ED0E0C01710F05C
:1028B000802F8BC0FE01E15DFD4F808190916D0105
:1028C000892331F02C2D4F2D6D2DCE010E94AE0DA0
:1028D0002196ECCFC0916C0187E0C89FC02D1124D8
:1028E00007E00C0F043208F003E20E94291388234A
:1028F00019F0033108F002E10E942913811103C08D
:10290000C23108F4C2E1609132046695669521E017
:10291000620F08F46FEF80919703909198030E94E3
:102920006C0EF82ED0E0C01708F0C2CFFE01E15DBA
:10293000FD4F808190916D01892391F060912F046A
:1029400070913004809131042F2D4C2F0E94340E51
:102950000E94760E462F282F672FCE010E94AE0DC3
:102960002196E1CFC0916C0187E0C89FC02D112452
:1029700067E0F62EFC0E83E28F1510F453E2F52E7D
:102980000E942913882329F0A2E1AF1510F442E137
:10299000F42E0E942913811103C0C23108F4C2E150
:1029A00060913204669580919703909198030E94FC
:1029B0006C0EB82ED0E0CE01880F991FFC01EF53AA
:1029C000FE4F6F01CF1528F08F2D0E945313C82F93
:1029D00036C1FE01E15DFD4F808190916D0189233B
:1029E000D9F0D60199962C9199972052330B98964D
:1029F0004C914057550B60912F0470913004809199
:102A000031040B2D0E941C0E0E94760E462F282F9B
:102A1000672FCE010E94AE0DB2E0CB0ED11C2196E5
:102A2000D1CFC0916C0187E0C89FC02D112427E051
:102A3000F22EFC0EF3E2FF1510F493E2F92E0E9441
:102A40002913882329F022E12F1510F482E1F82EB2
:102A50000E942913811103C0C23108F4C2E16091C0
:102A60003204669580919703909198030E946C0EB2
:102A7000B82ED0E0CE01880F991FDC01AF53BE4FB6
:102A80006D01CF1508F0A0CFFE01E15DFD4F808103
:102A900090916D01892309F44EC0F60140A540577D
:102AA000550B21A52052330B449FB001459F700D5B
:102AB000700D1124229FC001239F900D900D1124B1
:102AC000680F791F062F6230710520F18FEF613E8C
:102AD000FEE17F0738F4CB01B5E096958795BA956E
:102AE000E1F7885F91E0A92FA80FBB27BB1FFD016D
:102AF000F595E7950E2FEE9FD001EF9FB00DB00D2D
:102B000011246A177B07E0F48FEF8E0F891758F7AF
:102B10000FEF090F60912F04709130048091310400
:102B2000EB2C0E94010E0E94760E462F282F672F55
:102B3000CE010E94AE0D2196B2E0CB0ED11CA1CFEA
:102B4000EF3F41F391E09E0FE1CFC0916C0187E030
:102B5000C89FC02D112457E0D52EDC0EF3E2FD15E1
:102B600010F443E2D42E0E942913882329F022E195
:102B70002D1510F432E1D32E0E942913811103C0C8
:102B8000C23108F4C2E16091320466956695809185
:102B90009703909198030E946C0EF82E80E48F0D9D
:102BA0000E944D0E90E8C92EC80E8F2D0E944D0E2A
:102BB00020E8B22EB80ED0E0CD1510F08D2D05CF47
:102BC000FE01E15DFD4F808190916D018923A1F0AF
:102BD00060912F047091300480913104EF2C0C2F00
:102BE0002B2D4C2D0E94CA0D0E94760E462F282FA9
:102BF000672FCE010E94AE0D2196DECFC0916E01EF
:102C0000C1113AC06091320420E1620F08F46FEF05
:102C100080919703909198030E946C0E6AE070E097
:102C20000E948735892B09F014CE0E94013663E299
:102C300070E00E949B3560916D010E94AC13809101
:102C40006C018F5F80936C01C1110CC082E0809396
:102C5000700180916E01811105C0111103C083E0E4
:102C600080937001DF91CF911F910F91FF90EF90B2
:102C7000DF90CF90BF900895C0916C0187E0C89F0E
:102C8000C02D112407E00C0F043208F003E20E946B
:102C90002913882319F0033108F002E10E94291357
:102CA000811103C0C23108F4C2E1D0E0C02ED12CA2
:102CB000CC15DD050CF0FCCD60916D01CE010E94BC
:102CC000AC132196F5CF4F925F926F927F928F92C5
:102CD0009F92AF92BF92CF92DF92EF92FF92CF93EB
:102CE0008090930390909403A0909503B0909603E6
:102CF0000E94F612882309F44CC0C501B4010E9459
:102D00006E0C6B017C010E9491134B015C0180925F
:102D1000930390929403A0929503B0929603A0918E
:102D20006A03EAE6F3E08A2F90E04FEF5FEF60E09E
:102D300070E04C195D096E097F09A91333C08093B7
:102D40006A0380919B03C0E0811108C080912E042A
:102D5000C82FC37019F0C82FC695C6958091700111
:102D6000813009F440C0882381F1823009F479C0B0
:102D7000833009F486C0CF91FF90EF90DF90CF9021
:102D8000BF90AF909F908F907F906F905F904F908B
:102D900008950E9491136B017C01C818D908EA08B4
:102DA000FB08B1CF218D328D2901712C612C441586
:102DB00055056605770520F481509F5F3296BDCF9B
:102DC0002C0D3D1D328F218FF8CF10926C01809217
:102DD000970390929803A0929903B0929A0381E08E
:102DE00080937001C8CF8C2F0E94F213CC2319F26C
:102DF00085E00E94C5116091720181110EC084E0CE
:102E00000E94C51160917501811107C082E00E9486
:102E1000C5118823E1F0609178019FEF8091310422
:102E2000981708F4892F7FEF0E94760E482F872F7E
:102E3000CF91FF90EF90DF90CF90BF90AF909F9099
:102E40008F907F906F905F904F900C94B00D81E0C9
:102E50000E94C511882309F48ECF60917B0190E810
:102E6000DDCF8C2FCF91FF90EF90DF90CF90BF9070
:102E7000AF909F908F907F906F905F904F900C9449
:102E8000A10D80912D04882351F046E050E06CE1C3
:102E900070E08EE294E00E944B3610922D04C090B8
:102EA0009703D0909803E0909903F0909A030E94C2
:102EB000F612882369F0C701B6010E946E0C6031DA
:102EC00071058105910508F456CF1092700153CF1A
:102ED0000E9491136C197D098E099F09F0CFEEE2D3
:102EE000F4E085E1808380917E0190917F01A09143
:102EF000800181839283A38380E284838FEF858323
:102F000046E050E06CE170E0CF010E944B36109239
:102F10002D04089528E030E043E060E080E30E9463
:102F2000F13295E09A95F1F700000895CF93C82FFC
:102F30000E948A178C2F0E9469338FE792E00197D5
:102F4000F1F700C000000E948133C82F95E09A95E8
:102F5000F1F700000E94993385E68A95F1F70000A9
:102F60008C2FCF9108958FE00E9496178F5F24E6F3
:102F7000829FC00111240895CF93DF93C82FD62FCD
:102F80000E948A17C03511F0109269038C2F806857
:102F90000E9469338D2F0E946933EC018AEB8A9578
:102FA000F1F700C00E94993383E492E00197F1F7B2
:102FB00000C00000CE01DF91CF91089564E670E07B
:102FC0000E948735615071096837710510F067E715
:102FD00070E08FE00C94BC17CF93DF93209A0E948F
:102FE000E932109269030E9499330E948A170E9465
:102FF000993366EB8BE30E94BC172FEF85EA9EE0C6
:10300000215080409040E1F700C000000E948A17E4
:10301000E5EDEA95F1F700000E949933F5EDFA9598
:10302000F1F700006AE58AE30E94BC172FEF80E702
:1030300092E0215080409040E1F700C0000082E023
:103040000E94961783E00E94961784E00E949617CC
:1030500085E00E94961786E00E9496176DE183E155
:103060000E94BC17EFE3FCE93197F1F700C00000C4
:1030700068E183E10E94BC170E948A1782EE0E94D9
:103080006933F0E5FA95F1F7C5E4D3E0FE018491E8
:103090000E946933F0E5FA95F1F7219623E1C334F4
:1030A000D207A1F78FE193E00197F1F700C000008C
:1030B0008AE20E94961760E080E10E94BC170E949D
:1030C0009933EFE3FCE93197F1F700C0000080E4A9
:1030D00096E00E94DE178FE99FE00197F1F700C0AC
:1030E000000060E080E10E94BC1767EE81E10E9471
:1030F000BC1762E083E60E94BC1780E00E9496172E
:103100008FE30E9496178AE20E9496172898DF9113
:10311000CF910895CF93DF93CDB7DEB72A970FB63F
:10312000F894DEBF0FBECDBF85E0ECE5F3E0DE0135
:10313000169601900D928A95E1F785E0EAE4F3E0B6
:10314000DE01119601900D928A95E1F745E050E07D
:10315000BE016F5F7F4FCE0106960E941136892B0C
:1031600061F0E0910704F0910804309731F0048099
:10317000F581E02D8CE593E0099510925D031092A6
:103180005E0310925F031092600385E0ECE5F3E0CC
:10319000AAE4B3E001900D928A95E1F72A960FB662
:1031A000F894DEBF0FBECDBFDF91CF91089580911F
:1031B000C8029091C702892B809364029091C90242
:1031C000992391F0892B8093640220E086E692E0B7
:1031D000FC013191CF0131112F5FF2E08C369F0756
:1031E000B9F721110E94E51048E050E06FEB72E062
:1031F00084E692E00E941136892BA9F088E0E4E68B
:10320000F2E0AFEBB2E001900D928A95E1F7E09128
:103210000704F0910804309731F00280F381E02D2B
:1032200084E692E00994089590E080E00E94D50C35
:1032300090E080E00E94BF0C1092C7020C94D71857
:103240006093320370933303809334039093350378
:103250000C9414190F931F9341E050E060E070E06C
:1032600004C0440F551F661F771F8A95D2F7CB0104
:10327000BA016095709580959095009132031091F8
:10328000330320913403309135036023712382236B
:1032900093231F910F910C9420199091BE02809559
:1032A00089238093BE02282F277091F4282F082E9F
:1032B000000C330B9217130659F09091370392FDCF
:1032C00007C08595859585950E942A191092BE02A2
:1032D00008950F931F9341E050E060E070E004C058
:1032E000440F551F661F771F8A95D2F780913203CE
:1032F00090913303A0913403B09135038A019B016F
:10330000082B192B2A2B3B2BC901B8011F910F91B8
:103310000C9420196093110370931203809313038C
:10332000909314030C941419882321F00E94EB103D
:103330000C94D7180895882339F09091C802982BDF
:103340009093C8020C94D7180895882381F19CEFBC
:10335000980F913A78F4E6E6F2E02CE632E09191AB
:10336000891303C0DF0111971C922E173F07B9F78D
:103370000C94D71890E2980F983050F4877091E031
:1033800001C0990F8A95EAF7892F0E94EB10F0CFC0
:103390009BE5980F933020F490E080E00C94D50CDE
:1033A000885A873120F490E080E00C94BF0C089597
:1033B000CF93C82F882309F44EC08CEF8C0F813A2D
:1033C000F8F4E6E6F2E08CE692E0DF012D91C21718
:1033D00059F08A179B07D1F76C2F84E692E00E9480
:1033E000A50CCF910C94D7182191C21303C0DF0113
:1033F00011971C928E179F07B9F70E94D718ECCF30
:1034000080E28C0F883068F4C77021E030E001C0A2
:10341000220FCA95EAF78091C802822B8093C802D6
:10342000E0CFEBE5EC0FE33040F4F0E0EA57FE4F7D
:10343000808190E0CF910C94D50CC85AC73158F4D4
:10344000EC2FF0E0EE0FFF1FE757FE4F80819181D8
:10345000CF910C94BF0CCF910895CF9384E090E06E
:103460000E943736C82F82E290E00E943736982FAC
:103470008C2FCF9108951092C802E6E6F2E086E024
:10348000DF011D928A95E9F70C9414191F93CF93CD
:10349000DF93CDB7DEB7AA970FB6F894DEBF0FBEA5
:1034A000CDBF82E294E02091F100DC012D93CD01AB
:1034B000B4E08A329B07B9F780912304833009F482
:1034C00072C0B8F4813009F449C0823009F4B3C045
:1034D0008091E80083FF86C28091220490912304AA
:1034E0009A3008F07FC2E92FF0E0E551F94C0C94D6
:1034F000AF358A3009F48EC08B3009F471C0893041
:1035000039F780912204813219F780912604909135
:103510002704009711F00297D9F68091E800877F81
:103520008093E8008091E80082FF38C09091F3001A
:103530008091F200029731F48091F100813011F016
:10354000863021F48091F100809315048091E80089
:103550008B778093E8000E945A0BBACF80912204A7
:10356000813A09F0B5CF8091E800877F8093E80029
:103570008091260490912704892B61F468E086E10C
:1035800094E070E00E940C0C8091E8008B778093AF
:10359000E8009ECF60E090E080E0F3CF80912004CF
:1035A0008111C0CF95CF80912204813A09F090CF4C
:1035B0008091260490912704892B09F089CF80916E
:1035C000E800877F8093E8008091E80080FFFCCFCF
:1035D00080916F018093F1008091E8008E77B9CFE0
:1035E00080912204813209F073CF8091260490915A
:1035F0002704892B09F06CCF8091E800877F8093A6
:10360000E8000E945A0B8091240480936F010E946D
:103610003B1A5ECF80912204813209F059CF80910C
:10362000E800877F8093E8000E945A0B8091250470
:10363000809314044DCF80912204813A09F048CF41
:103640008091E800877F8093E8008091E80080FF08
:10365000FCCF80911404BECF803899F0823809F0F5
:10366000C1C1809126048F70873008F0BBC1809360
:10367000E9008091EB0085FB882780F91092E90032
:1036800006C080911E0490911F0491118260909158
:10369000E800977F9093E8008093F1001092F1008A
:1036A0008091E8008E779AC1882309F488C182301E
:1036B00009F098C18091240481118BC18091260466
:1036C0008F702FEF280F263008F08CC18093E9000F
:1036D0002091EB0020FF7DC1933031F48091EB000D
:1036E00080628093EB0075C19091EB0090619093A4
:1036F000EB0021E030E001C0220F8A95EAF7209329
:10370000EA001092EA008091EB008860EACF811114
:1037100069C1109124041F778091E3008078812B88
:103720008093E3008091E800877F8093E8000E9407
:103730005A0B8091E80080FFFCCF8091E300806805
:103740008093E30082E0111183E0809320044AC15A
:103750008058823008F046C120912404309125041D
:103760002C3DE3E03E07A1F583E08A838AE289836A
:103770004FB7F894DE01139620E03EE051E2E32FCC
:10378000F0E050935700E49120FF03C0E295EF7002
:103790003F5FEF708E2F90E0EA30C0F0C7968D93B8
:1037A0009D932F5F243159F74FBF8091E800877FA9
:1037B0008093E8006AE270E0CE0101960E940C0C52
:1037C0008091E8008B778093E8000CC1C096E7CF2A
:1037D0008091260490912704432F552743305105AB
:1037E00009F44AC078F54130510509F47AC084E5FE
:1037F00090E0E3E4F4E14230510509F0F3C0209198
:10380000E800277F2093E8002091280430912904C4
:103810008217930708F49C0140E02115310509F057
:1038200065C0411163C08091E80082FDC9CF8091DD
:103830002004882329F2853019F28091E80083FF63
:10384000F2CFBECF4132510509F43CC0423251059E
:1038500009F0C8C08330910508F0C4C0FC01EE0F28
:10386000FF1FEB5AFD4F0190F081E02D8E5A9D4FC6
:10387000DC018C9190E01AC0332721303105D1F062
:103880002115310561F02230310509F0ABC0E9EABC
:10389000F4E1E4918E2F90E0E9EAF4E107C0EFEE65
:1038A000F4E1E4918E2F90E0EFEEF4E1009709F45B
:1038B00099C0A5CFE9ECF4E1E4918E2F90E0E9EC1A
:1038C000F4E1F4CF8330910508F08CC0880F991F84
:1038D000FC01E55AFD4F0190F081E02D89E090E078
:1038E0008ECF82E190E0E7E9F4E189CF8091200476
:1038F000882309F465CF853009F462CF8091E80010
:1039000083FD5ECF8091E80082FD8DCF8091E8003D
:1039100080FF83CF9091F3008091F2002115310553
:1039200019F08830910550F041E0089709F040E027
:103930008091E8008E778093E8006FCF44914093A8
:10394000F1003196215031090196E8CF803809F015
:1039500049C08091E800877F8093E800809121042E
:103960008093F1009DCE81113DC01091240412304E
:10397000C8F58091E800877F8093E80010932104C8
:103980000E945A0B112311F084E005C08091E300DE
:1039900087FDFACF81E08093200442E061EC81E072
:1039A0000E94790B42E061EC82E00E94790B42E2D6
:1039B00061EC83E00E94790B8091200413C0809118
:1039C0002404813079F481E0933009F080E0809321
:1039D0001F041092E9008091E800877F8093E8003F
:1039E0000E945A0B8091E80083FF0AC08091E80092
:1039F000877F8093E8008091EB0080628093EB00EA
:103A0000AA960FB6F894DEBF0FBECDBFDF91CF915F
:103A10001F910895DF92EF92FF920F931F93CF9320
:103A2000DF937901C82F880FDD0B41155105A9F0EF
:103A3000FE0193E0EE0FFF1F9A95E1F7EC5FFE4F5A
:103A40008181928187529D4F208130E04217530738
:103A500008F49A01A9010E941E36CE010E94113578
:103A6000D82E8823D1F001151105B9F083E0CC0FD1
:103A7000DD1F8A95E1F7FE01EC5FFE4F438150E0C8
:103A80000417150708F4A801CC5FDE4F6C817D8117
:103A900067527D4FC7010E941E368D2DDF91CF9159
:103AA0001F910F91FF90EF90DF9008950F931F9358
:103AB000CF93DF9300D000D0CDB7DEB7609109037C
:103AC00070910A0380910B0390910C030E946E0C7D
:103AD00011E0643671058105910518F10E9491137A
:103AE0006E5F7F4F8F4F9F4F69837A838B839C8359
:103AF00010E000E030E020E044E050E0BE016F5F05
:103B00007F4F83E00E940A1D182F882351F00E94E6
:103B1000990C6093090370930A0380930B039093AD
:103B20000C03812F0F900F900F900F90DF91CF918A
:103B30001F910F910895AF92BF92CF92DF92EF92B3
:103B4000FF920F931F93CF93DF93C82F7B01D42F46
:103B500069015801FB0160817181828193810E941A
:103B60006E0C643671058105910510F4DD23F9F0C2
:103B700010E000E030E020E0A501B6018C2F0E94AB
:103B80000A1DC82F882339F00E94990CF701608321
:103B90007183828393838C2FDF91CF911F910F913B
:103BA000FF90EF90DF90CF90BF90AF900895C1E06D
:103BB000F2CF0F931F93CF93DF9300D000D000D0AC
:103BC0000F92CDB7DEB786E0EEE2F4E0DE011196AB
:103BD00001900D928A95E1F780919B038F8347E0D6
:103BE00050E06EEE72E0CE0101960E94113641E087
:103BF000892B09F440E007E010E09E012F5F3F4F62
:103C000069E173E086E00E949B1D27960FB6F89449
:103C1000DEBF0FBECDBFDF91CF911F910F910895F1
:103C20000F931F9341E00091E6021091E70220916B
:103C3000E8023091E9028091320390913303A09120
:103C40003403B0913503081719072A073B0709F415
:103C500040E004E010E022E333E065E173E084E05B
:103C60000E949B1D882301F141E00091EA0210911E
:103C7000EB022091EC023091ED02809111039091C2
:103C80001203A0911303B0911403081719072A0710
:103C90003B0709F440E004E010E021E133E06DE08F
:103CA00073E085E00E949B1D1F910F9108950F9373
:103CB0001F93CF93DF93EC0144E050E06EED72E090
:103CC0000E94113641E0892B09F440E004E010E045
:103CD0009E0165E073E082E00E949B1DDF91CF9121
:103CE0001F910F9108957F928F929F92AF92BF92F2
:103CF000CF92DF92EF92FF920F931F93CF93DF93B8
:103D00000F92CDB7DEB7762E4A015901680101E066
:103D100010E09E012F5F3F4F50E040E070E060E018
:103D20000E940A1D182F882309F43EC0F401608107
:103D30007181828193810E946E0C643671058105C8
:103D4000910538F4B701C6010E94EB0C99818917DF
:103D500059F18701950150E040E070E060E0872D67
:103D60000E940A1DB82EB701C6010E94EB0C11E09B
:103D70009981981310E01B2139F00E94990CF401ED
:103D80006083718382839383812F0F90DF91CF9122
:103D90001F910F91FF90EF90DF90CF90BF90AF9069
:103DA0009F908F907F900895A701B601C5010E9452
:103DB0001E36EACFEF92FF920F931F93CF93DF93BC
:103DC000CDB7DEB72A970FB6F894DEBF0FBECDBFD2
:103DD0000E94291311E0882309F44DC085E0E82EE4
:103DE000F12C06EF12E09E012A5F3F4F4FE153E0B6
:103DF00068E087E00E94731E182F882391F085E009
:103E0000FE013696DE01119601900D928A95E1F73A
:103E100085E0FE013196A7E5B3E001900D928A9509
:103E2000E1F7E0906503F0906603FA82E982E1141D
:103E3000F10409F142E050E0BE016F5F7F4F8DE178
:103E400093E00E941136892BB1F0F092FC02E092CF
:103E5000FB0210E000E030E020E042E050E06BEFD9
:103E600072E089E00E940A1D182F882321F0F09249
:103E70001E03E0921D03812F2A960FB6F894DEBF31
:103E80000FBECDBFDF91CF911F910F91FF90EF90AB
:103E90000895CF92DF92EF92FF920F931F93CF93EB
:103EA000DF9300D000D0CDB7DEB76B0184E0E82E01
:103EB000F12C0AED12E09E012F5F3F4F41E053E0ED
:103EC00061E080E00E94731E882361F049815A817D
:103ED0006B817C814093FD025093FE026093FF0250
:103EE000709300034091FD025091FE026091FF0229
:103EF00070910003F60140835183628373830F90B6
:103F00000F900F900F90DF91CF911F910F91FF9025
:103F1000EF90DF90CF900895909134049F708111BD
:103F200014C08FEF980F9F7080913404807F982B7E
:103F3000909334040E9476134091340450E070E072
:103F400060E08FE090E00C946D3681E0EBCF9091D3
:103F5000340492959370811116C08FEF980F93706F
:103F60009295907F809134048F7C982B90933404A9
:103F70000E9476134091340450E070E060E08FE0DE
:103F800090E00C946D3681E0E9CF69EE7EEF90E031
:103F900080E00E94793660E082E090E00E945B362B
:103FA00060E083E090E00E945B3610921103109273
:103FB0001203109213031092140360E084E090E067
:103FC0000E945B3660E082E290E00E945B3660E037
:103FD00085E090E00E945B3660E086E090E00E9421
:103FE0005B366FEF87E090E00E945B3640E050E088
:103FF000BA0188E090E00E946D3660E08DE090E0CC
:104000000E945B3640E050E0BA0188E190E00E94F7
:104010006D3660E087E190E00E945B3640E050E062
:10402000BA018CE190E00E946D3670E060E080E2C1
:1040300090E00E94793640E050E0BA0188E190E0DB
:104040000E946D361092340440E050E0BA018FE0D7
:1040500090E00E946D360E94761340E050E0BA0175
:1040600083E190E00C946D36CF93C0913703C2FB8F
:10407000992790F9981799F080FBC2F9C0933703FC
:104080006091360384E090E00E945B366C2F82E200
:1040900090E00E945B3682E0CF910C944D19CF9155
:1040A00008951F920F920FB60F9211242F933F93F2
:1040B0004F935F936F937F938F939F93AF93BF9330
:1040C000CF93DF93EF93FF93D091E900DF7080915E
:1040D000EC00C82FC17080FDC0E81092E90080910B
:1040E000F000877F8093F00078940E94461A109227
:1040F000E9008091F00088608093F000CD2BCF70B4
:10410000C093E900FF91EF91DF91CF91BF91AF9103
:104110009F918F917F916F915F914F913F912F91DF
:104120000F900FBE0F901F9018951F920F920FB611
:104130000F9211242F933F934F935F936F937F932D
:104140008F939F93AF93BF93EF93FF938091E10081
:1041500082FF09C08091E20082FF05C08091E100EA
:104160008B7F8093E1008091DA0080FF24C08091F2
:10417000D80080FF20C08091DA008E7F8093DA0023
:104180008091D90080FF9DC080E189BD82E189BD19
:1041900009B400FEFDCF81E08093200480911304D8
:1041A000811109C00E94E00A0E94AB0B8091E200DD
:1041B00084608093E2008091E10080FF17C08091CD
:1041C000E20080FF13C08091E2008E7F8093E200C6
:1041D0008091E20080618093E2008091D80080624B
:1041E0008093D80019BC85E0809320048091E10081
:1041F00084FF2BC08091E20084FF27C080E189BD4D
:1042000082E189BD89B5982F917080FFFBCF8091A5
:10421000D8008F7D8093D8008091E1008F7E8093BD
:10422000E1008091E2008F7E8093E2008091E200C5
:1042300081608093E20080912104882309F447C0C3
:1042400084E080932004809120048091E10083FF2A
:1042500027C08091E20083FF23C08091E100877F27
:104260008093E10082E080932004109221048091E9
:10427000E1008E7F8093E1008091E2008E7F809349
:10428000E2008091E20080618093E20042E060E021
:1042900080E00E94790B8091F00088608093F000AC
:1042A000FF91EF91BF91AF919F918F917F916F910E
:1042B0005F914F913F912F910F900FBE0F901F90E4
:1042C000189519BC109220041092130474CF809199
:1042D000E30087FD93E090932004B5CF78941F927C
:1042E0001FB61F9211248F939F93AF93BF9380911A
:1042F0000C0490910D04A0910E04B0910F0401964E
:10430000A11DB11D80930C0490930D04A0930E0485
:10431000B0930F04BF91AF919F918F911F901FBEDB
:104320001F9018952FB7F89480910C0490910D046C
:10433000A0910E04B0910F042FBF08950F931F9307
:10434000CF93DF93C62FD42F022FFC0182818823C5
:10435000A1F060932C040E94922190932B048093EF
:104360002A04C77081E001C0880FCA95EAF7DF917F
:10437000CF911F910F910C949B1980912C0468137D
:1043800038C080912A0490912B040E948A0C8C38AA
:10439000910578F510E21D0FCD17B9F080E28C0F72
:1043A000883040F4C77081E001C0880FCA95EAF7F1
:1043B0000E949419183048F481E09D2F977001C035
:1043C000880F9A95EAF70E949B19802F0E94D819AE
:1043D000802F0E94A519183098F4D77081E001C091
:1043E000880FDA95EAF7DF91CF911F910F910C9426
:1043F0009419C77081E001C0880FCA95EAF7F3CF1E
:10440000DF91CF911F910F9108959F92AF92BF922C
:10441000CF92DF92EF92FF920F931F93CF93DF9390
:10442000CDB7DEB72A970FB6F894DEBF0FBECDBF6B
:104430004E83052F5F83162F688779878A8780913F
:104440006903811107C060E080E50E94BC1781E02C
:10445000809369030E948A1780E50E9469338AEB82
:104460008A95F1F700C00E948133B82E0E948133F3
:104470000E9481337C010E948133982E0E948133F7
:104480006C010E948133A82E8B2D877011F0109241
:1044900069030E949933B3FC2DC0B7FE2BC08091F5
:1044A000670390916803892B31F40E9492219093C5
:1044B000680380936703F92801E880E8E816F104AF
:1044C0004CF4002711270E191F090038110514F0AC
:1044D0000FE710E0DA2811E880E8C816D10454F498
:1044E000882799278C199D098038910514F08FE74A
:1044F00090E0182F0F83188785E0FE013696DE01C5
:10450000119601900D928A95E1F729813A814B81AC
:104510005C816D8170E080E090E02A960FB6F8949F
:10452000DEBF0FBECDBFDF91CF911F910F91FF90E6
:10453000EF90DF90CF90BF90AF909F900895CF9273
:10454000DF92EF92FF920F931F93CF93DF93CDB73C
:10455000DEB769970FB6F894DEBF0FBECDBF0E94DD
:10456000F612882309F4ABC1609161037091620374
:1045700080916303909164030E946E0C672B682BFB
:10458000692B09F49CC10E94990C6093610370939C
:10459000620380936303909364030E942913811143
:1045A0009EC040915C0350915D0360915E037091E9
:1045B0005F03809160030E94052220935C03309387
:1045C0005D0340935E0350935F036093600385E057
:1045D000ECE5F3E0DE01169601900D928A95E1F785
:1045E000D0905E03CD2CC194C88685E0FE0136963E
:1045F000DE01509601900D928A95E1F785E0FE016B
:104600007096DE01119601900D928A95E1F785E092
:10461000FE013196ACE5B3E001900D928A95E1F789
:1046200085E0ECE5F3E0DE01559601900D928A9568
:10463000E1F710915D0300915E03E0905F03F0905D
:1046400060030E94F612882309F4E8C080913404C4
:1046500086FF4FC02091510330915203210F311D2D
:1046600017FD3A95309352032093510380914F03E5
:10467000909150038C199109C7FC93959093500326
:1046800080934F03A90137FF04C044275527421BDD
:10469000530B473051055CF0FF24FA9412161306B1
:1046A00014F4FF24F39410925203109251039C01CE
:1046B00097FF04C022273327281B390B27303105E9
:1046C0005CF0EE24EA941816190614F4EE24E39430
:1046D0001092500310924F0300E010E063C085E099
:1046E000E7E5F3E0ACE5B3E001900D928A95E1F7E0
:1046F0006ECF87FD57C0212F012E000C330B1116F2
:104700009CF144275527421B530B429FC001439FF6
:10471000900D529F900D112462E370E00E949B3532
:10472000260F371F21383F4F6CF1160F2C2D0C2C04
:10473000000C330B1C1444F144275527421B530B28
:10474000429FC001439F900D529F900D112462E340
:1047500070E00E949B35260F371F01E821383F4F3C
:104760000CF1062F0D191EC01102C001112462E3C5
:1047700070E00E949B35260F371F20383105ACF2C0
:104780001FE7D4CF11E8D2CF4C2D4402C001112431
:1047900062E370E00E949B35260F371F0FE7203839
:1047A0003105FCF21E8B0F8BE88EF98E85E0FE0141
:1047B0007596DE011B9601900D928A95E1F7112303
:1047C00009F45BC0002309F458C00E949221909321
:1047D00056038093550385E00E94C511811103C0E3
:1047E00085E00E94691985E0FE013B96DE01119685
:1047F00001900D928A95E1F785E0FE013196DE0188
:10480000169601900D928A95E1F785E0FE013696A5
:10481000DE01559601900D928A95E1F71E8B0F8B64
:10482000E88EF98E85E0FE017596DE011696019000
:104830000D928A95E1F785E0FE013696DE011B9622
:1048400001900D928A95E1F785E0FE013B96ACE57B
:10485000B3E001900D928A95E1F769960FB6F8944E
:10486000DEBF0FBECDBFDF91CF911F910F91FF90A3
:10487000EF90DF90CF900C948A188091550390911F
:1048800056030E948A0CD0905303893E934078F0DF
:1048900085E00E94C511882371F080915403811135
:1048A000A2CFD110A0CF85E00E942A199CCFDD2095
:1048B00009F499CF90CFDD2009F495CF91CF699677
:1048C0000FB6F894DEBF0FBECDBFDF91CF911F9121
:1048D0000F91FF90EF90DF90CF9008957F928F928D
:1048E0009F92AF92BF92CF92DF92EF92FF920F937F
:1048F0001F93CF93DF93CDB7DEB72F970FB6F89402
:10490000DEBF0FBECDBF8E010F5F1F4F88E0D80105
:104910001D928A95E9F799E5C92E91E0D92EF12CDF
:10492000E12CAA24A394B12C39E5832E31E0932EF7
:10493000F60181916F018F3F09F443C0F894E82F8D
:10494000E295EF70F0E021A18F70A50102C0440F45
:10495000551F8A95E2F7CA01922F982B91A392A135
:104960008095892382A30E940C0F00C0E4E5F1E04A
:10497000712C31E021912F3F09F47DC0A22FA29527
:10498000AF70B0E090968C9190E02F7002C095953A
:1049900087952A95E2F780FD6EC0832F782A330F22
:1049A0008E169F0639F7F601319780818F3F11F0FF
:1049B0000E940E0F50EA5A95F1F7F801EE0DFF1D17
:1049C00070828FEFE81AF80AA4E0EA16F10409F001
:1049D000AFCF48E050E0B80188E293E00E94113682
:1049E0007C01892B41F088E0F801A8E2B3E0019056
:1049F0000D928A95E1F710913103E114F104E9F188
:104A000081E08093CC020E9492219093CB0280930C
:104A1000CA028091CA029091CB020E948A0C05972B
:104A200090F0E12FF0E0E85CFC4F80912803808358
:104A300080912903818380912A03828380912B03B3
:104A400083831092CC0281E090E0EF28D1F02F9682
:104A50000FB6F894DEBF0FBECDBFDF91CF911F918F
:104A60000F91FF90EF90DF90CF90BF90AF909F900D
:104A70008F907F90089580E091CF8091CC0281113A
:104A8000C8CF0E94F612F82EE0913103882309F472
:104A900099C019861A861B861C860E2F10E0085CAA
:104AA0001C4F809123038A3008F055C049E45FE130
:104AB000BE01675F7F4FC8010E94B212882309F4CC
:104AC0005AC047E55EE1BE01675F7F4FC8010E94A3
:104AD000B212882309F44FC046E55DE1BE01675F6D
:104AE0007F4FC8010E94B212882309F444C040E1FC
:104AF0005EE1BE01675F7F4FC8010E94B21288234A
:104B0000D1F149ED5DE1BE01675F7F4FC8010E94B1
:104B1000B212882381F14AED5EE1BE01675F7F4FEB
:104B2000C8010E94B212882331F1109223038091B0
:104B3000300390E044E050E0BE01675F7F4F885C47
:104B40009C4F0E94113621E02093D702892B61F5FA
:104B5000F12C8F2D7CCF8091CD029091CE020E94BE
:104B60008A0C843F914008F0A1CF8091D702811137
:104B700012C080E06CCF809123038F3F29F08F5FBC
:104B8000809323038A3098F20E9492219093CE0260
:104B90008093CD02EACFFE01399684E0DF011D92B9
:104BA0008A95E9F71092D702E0913003F0E0E85CD3
:104BB000FC4F89859A85AB85BC8580839183A283D0
:104BC000B383C7CFF0E0E85CFC4F0091300310E006
:104BD000085C1C4FF89484E0AAEDB2E001900D92BD
:104BE0008A95E1F764E070E08AED92E00E94EB0CB8
:104BF0008093D9020E940C0FF89484E0EEEDF2E06D
:104C0000D80101900D928A95E1F70E940C0FF8945B
:104C1000C090E202D090E302E090E402F090E5025E
:104C20008091CF029091D002A091D102B091D20296
:104C3000C816D906EA06FB06D1F0C092CF02D09280
:104C4000D002E092D102F092D2020E94F6128111BB
:104C50000EC00E94990CC61AD70AE80AF90AC09237
:104C60002403D0922503E0922603F09227030E94AA
:104C70000C0FF8948091E6029091E702A091E8026F
:104C8000B091E9028093320390933303A0933403ED
:104C9000B09335038091EA029091EB02A091EC026F
:104CA000B091ED028093110390931203A09313032C
:104CB000B09314030E940C0FF89486E0EEEEF2E03D
:104CC000AEE2B4E001900D928A95E1F71091F40202
:104CD000112349F080919B03811105C00E94F213BA
:104CE00080E00E94A10D10939B030E940C0FF8948A
:104CF0000E942913811156C06091D3027091D40291
:104D00008091D5029091D6020E946E0C672B682B81
:104D1000692B09F447C00E94990C6093D3027093E9
:104D2000D4028093D5029093D6020E94B3179F8736
:104D30008E870091FB021091FC020115110571F0A4
:104D400042E050E0BE01625F7F4F8BEF92E00E9435
:104D50001136892B19F0C8010E94DE178E01075FFA
:104D60001F4F85E0F82EF8012F2D11922A95E9F7B3
:104D700049855A856B857C858D850E94052229870A
:104D80003A874B875C876D87F801A6EFB2E0019008
:104D90000D92FA94E1F765E070E0C8010E94EB0C17
:104DA0008093F5020E940C0FE4CE4F925F926F92B7
:104DB0007F928F929F92AF92BF92CF92DF92EF92AB
:104DC000FF920F931F93CF93DF93CDB7DEB72F974B
:104DD0000FB6F894DEBF0FBECDBF7C01DC01139689
:104DE0008D919C911497892B41F01C911196DC9028
:104DF000812F8D218F3F09F0ECC52F960FB6F894C7
:104E0000DEBF0FBECDBFDF91CF911F910F91FF90FD
:104E1000EF90DF90CF90BF90AF909F908F907F905A
:104E20006F905F904F9008950E94FC10082F682F9C
:104E300089819A810E949711E12FF0E0B5E0DB9E15
:104E4000E00DF11D112428E2029FE00DF11D112457
:104E5000EE0FFF1FEB59FE4F05911491053031E520
:104E6000130709F4D9C008F0B9C00C3291E419074E
:104E700031F108F5C8018D5E9109409708F4CCC066
:104E8000D70113968D919C911497892B39F08C91B1
:104E900011969C9189238F3F09F07AC5F801E75A52
:104EA000FD45E830F10570F4EB50F94CD70112964E
:104EB0008C910C94AF350832B2E41B0709F785E0FA
:104EC0000E942A19C801815F9109089708F0FDC066
:104ED00085E0ECE5F3E0DE01169601900D928A95EF
:104EE000E1F785E0FE013696DE011B9601900D92FA
:104EF0008A95E1F72E813FE0300F81E090E001C01C
:104F0000880F3A95EAF7F7013281332309F4DAC0C2
:104F1000822B8B8785E0FE013B96DE011196019086
:104F20000D928A95E1F785E0FE013196ACE5B3E09C
:104F300001900D928A95E1F70E948A18D701129686
:104F40008C91882309F458C510922C040430BDE5D7
:104F50001B0708F01FC10B3FECE51E0730F4C8012A
:104F600082509C45449708F01FC10E942D1A9093CF
:104F700037038093360301313CE5130709F4EBC195
:104F800008F068C109309CE5190709F4D6C108F09A
:104F900032C10530BCE51B0709F4C3C108F01BC1D1
:104FA0000330FCE51F0709F4B2C108F0B6C18091D7
:104FB0003603816002301C4509F4ACC160913603B0
:104FC0001091370384E090E00E945B36612F82E20B
:104FD00090E00E945B360E943B1AA1C0043CECE5C5
:104FE0001E0709F46FCF90F4053023E5120709F08E
:104FF00047CFD70112968C91882309F463CF809113
:10500000530391E08927809353035CCFC801875AEB
:105010009D45089708F034CF80915403F7019281A1
:10502000992351F08F5F809354030E9492219093B3
:1050300056038093550332CF8150F5CF882309F46E
:1050400041CF0E94FD1191E089270E948C1F3ACF29
:10505000882309F437CF0E94FD11F7CF882309F484
:1050600031CF0E94FD1191E089270E94A71F2ACF0E
:10507000882309F427CF0E94FD11F7CF90913404C3
:1050800080FB97F9909334040E9476131BCF8823FA
:1050900009F418CF90913404892F97FB87F9805831
:1050A00080933404F1CF9091340480FB96F9EACFD9
:1050B000882309F407CF90913404892F8F7B96FFC2
:1050C0008064EECF8095822324CF043FFCE51F0748
:1050D00009F451C098F4093D3CE5130709F447C0B1
:1050E0000A3D8CE5180709F452C0083D9CE51907F4
:1050F00009F024CF26E241EE61EE0EC0063FACE59A
:105100001A0709F440C0D8F127E245EE66EE073FE2
:10511000ECE51E0709F012CFC7010E949E21809185
:10512000BE02877009F469CED70112968C9188234C
:1051300009F463CE8091370382FD5FCE82E02F9623
:105140000FB6F894DEBF0FBECDBFDF91CF911F9198
:105150000F91FF90EF90DF90CF90BF90AF909F9016
:105160008F907F906F905F904F900C944D1927E235
:1051700045EE65EED1CF26E241EE60EECDCF27E2DF
:1051800045EE64EEC9CF26E241EE62EEC5CF28E2DD
:1051900041E0EFCF0236FDE51F0709F4E6CE063AFF
:1051A0002DE5120709F4E1CE06318CE5180709F068
:1051B0008DC48091C8028A7A91E009F490E09093BE
:1051C0006C0269E2811165E384E692E00E94A50C1D
:1051D0000E94D718A4CF07308CE5180709F4A9C09E
:1051E00080913603806108301C4508F493C080919B
:1051F000360380648FC0809136038B7F0D30ACE521
:105200001A0709F487C098F4809136038E7F0B301B
:10521000ECE51E0709F47EC0809136038C600C30EB
:105220001C4508F477C0809136038D7F73C0809150
:1052300036038F7E0F302CE5120709F46BC0809186
:105240003603877F00311C4508F464C08091360323
:105250008F7D60C00E3F8CE5180709F478C050F5CB
:105260000531ACE51A0709F480C098F48091360343
:10527000837F0331ECE51E0709F44CC008F46FC0CE
:105280000E943B1A90913603892F97FB87F980582B
:1052900041C00C3F2CE5120709F447C008F053C089
:1052A0000B3F1C4509F08ACE8091370381608093C3
:1052B000370384CE02309DE5190709F462C0B8F4C3
:1052C000809137038C7F0115BDE51B0781F3809129
:1052D0003703836001301D4550F380913703982FC9
:1052E000909591708E7F892B90FB81F9E0CF0236EB
:1052F000FDE51F0709F44BC0063A2DE5120709F436
:105300004DC003301D4509F059CE60E03BC080918F
:10531000360382608093360351CE809136038460D9
:10532000F9CF809136038860F5CF80913703826092
:10533000BECF809136038062EDCF0E943B1A8091F0
:1053400036038068E7CF809137038E7FB0CF80919E
:1053500037038D7FACCF809136038F7BDBCF0E94EC
:105360003B1A809136038F77D5CF8091360382FB2D
:10537000992790F921E0922790FB82F990FB83F91D
:10538000C9CF61E08EE090E00E945B3617CE90912D
:105390003603892F8F7E94FF8061BCCF90913603B6
:1053A000892F8E7F90FF8160B5CF80916C02811133
:1053B0000FC089E2E6E6F2E02CE632E09191891333
:1053C00003C0DF0111971C922E173F07B9F700CFDA
:1053D00085E3F0CF4EE85DE067E97DE00E94010DD6
:1053E0009ECE47E95DE06EE87DE0F8CF4CE75DE0FA
:1053F00065E87DE0F3CF45E85DE06CE77DE0EECF6A
:1054000044E65DE060E77DE0E9CF40E75DE064E62B
:105410007DE0E4CF48E55DE06CE47DE0DFCF4EE386
:105420005DE060E37DE0DACF0E943B1A40E060E09F
:105430008FEF0E94B00D0E948B129FEFA4E3BCE09F
:105440009150A040B040E1F700C0000081E080939F
:10545000E00080E28093D8001092C900EFE1FEE402
:105460003197F1F700C0000087E090EBDC018093FA
:10547000370490933804A0933904B0933A0488E138
:105480009CE00FB6F894A895809360000FBE9093AF
:105490006000FFCF81E03AC380E038C3812F902FB6
:1054A0000E946E11D82E45C3E12FEF70CE2E107FD3
:1054B00019F0C29420EFC222DD20B9F0CC2069F0AF
:1054C00080E2800F883010F0811009C08091C802FE
:1054D000C82AC092C8020E94D718802F44C0809169
:1054E000C702C82AC092C702F6CF802F0E94A51912
:1054F000CC20D9F1005E083010F0811004C08C2D52
:105500000E94EB1006C0C0948091C702C822C092CE
:10551000C7020E94D71829C0F12FFF70CF2E107F2D
:10552000103219F0C29490EFC922882059F021E07E
:10553000821609F483C0DD2009F48DC0992009F496
:1055400083C0CBCF2091370322FF55C0DD2009F463
:105550004BC0CC2039F08091C802C82AC092C80242
:105560000E94D71880E00E94D819EA2DE850FF0B5E
:10557000349710F40E941913BB20B1F08091BE0241
:1055800080FD12C0D70112961C9285958595859550
:105590000E946919C7010E94D5268091BE02859597
:1055A000859585950E942A1985E0F701DE011196FF
:1055B00001900D928A95E1F789819A810E946E117E
:1055C0009A81E981F0E0B5E09B9FE00DF11D112487
:1055D00028E2829FE00DF11D1124EE0FFF1FEB5911
:1055E000FE4F8591949109CC80E00E94A519CC20B2
:1055F00009F4BBCF84CFDD20A1F09091C9028C2D9E
:10560000892B911003C00E949B19AFCF31E09312F8
:10561000FACF22FDAACF981709F4A7CF8093C90229
:10562000A4CF911006C00E94E5108C2D0E94941901
:105630009CCF81E0981609F498CFF5CFDD2031F0AA
:1056400095E0991508F491CF8C2DDDCFA4E0A91534
:1056500008F48BCFEACF992041F3B9E38B1209C04C
:10566000EFEFF7EE23E0E150F0402040E1F700C01B
:105670000000802F0E94A51978CF812F86958695EE
:10568000837061F0813009F070CFC8019370D11040
:1056900002C090E080E00E94BF0C67CFC801937009
:1056A000D11002C090E080E00E94D50C5ECF812F27
:1056B000837009F066C0D11058CF802F82958695EF
:1056C0008770880F880F602F6F70462E512C712CB9
:1056D000612C082E04C0440C551C661C771C0A94CF
:1056E000D2F740E050E0BA0104FF0FC04FE050E0B5
:1056F00060E070E004C0440F551F661F771F8A9555
:10570000D2F74095509560957095812F8695869536
:105710008370823019F1D8F40091110310911203B3
:105720002091130330911403813069F044295529E5
:1057300066297729CB01BA01602371238223932341
:105740000E948A1912CF402A512A622A732ACB0159
:10575000BA016429752986299729F2CF4429552948
:1057600066297729009111031091120320911303E8
:1057700030911403CB01BA01602771278227932748
:10578000DFCF8695DD2011F0812F8170882309F409
:10579000ECCE802F829586958770880F880F602FBA
:1057A0006F70462E512C712C612C082E04C0440CB5
:1057B000551C661C771C0A94D2F740E050E0BA01F1
:1057C00004FF0FC04FE050E060E070E004C0440F01
:1057D000551F661F771F8A95D2F7409550956095A3
:1057E0007095812F869586958370823019F1D8F453
:1057F000009132031091330320913403309135032B
:10580000813069F04429552966297729CB01BA01ED
:1058100060237123822393230E942019A6CE402A5D
:10582000512A622A732ACB01BA0164297529862973
:105830009729F2CF44295529662977290091320307
:10584000109133032091340330913503CB01BA0119
:105850006027712782279327DFCF1F70DD2029F073
:10586000812F0E946919802FCECE802F0E9494191B
:10587000812F0E942A1979CE802F32EF831609F4E6
:105880003FC0381570F090EF8916D1F0A1EF8A165D
:1058900091F0DD2009F46CC091101FCE812F8F7123
:1058A00033C0B3EF8B1699F1E4EF8E12F2CF8091F3
:1058B000370382FF3FC0812F8F71DD20D1F224C0DA
:1058C000DD20C9F0F4E0F91508F44FCE1F7161E056
:1058D00070E080E090E004C0660F771F881F991F7A
:1058E0001A95D2F7009132031091330320913403BB
:1058F00030913503ADCF25E0291508F436CEE6CF3B
:10590000812F8F71D110B5CF0E9469192ECE60E022
:1059100070E0CB01DD2009F47FCF1F7161E070E002
:1059200080E090E004C0660F771F881F991F1A95CA
:10593000D2F772CFDD2089F01F71812F0E94691983
:105940008091370382FD07C038E0139FC001112406
:1059500083608093BE02812FD7CF81E00E944D19D2
:1059600081E0891508F001CE82E00E944D19FDCD3D
:10597000992059F0893309F07CCE9FEFA7EEB3E070
:105980009150A040B040E1F772CE812F8F7171CF5E
:10599000C80190548115904138F4812F99278F7058
:1059A0009927059709F438CB85E00E94C511882313
:1059B00059F080915403811107C0809153038111E4
:1059C00003C085E00E942A19109254030E9492217C
:1059D00065CA85E0F701DE01119601900D928A9566
:1059E000E1F7D70112962C9189819A8121111CCA65
:1059F0000E946E11082F20CA0631BCE51B0709F46E
:105A0000D4CC8091C80282720B3CECE51E0709F4ED
:105A100001CDA0F5063C2CE5120709F4E7CCC8F44B
:105A2000043C9CE5190709F4D5CC08F0DACC033C1A
:105A30001C4509F06DC080912E0491E08927809368
:105A40002E041092700180912D04816080932D04AA
:105A500066CB083CECE51E0709F4D2CC08F4CBCCAD
:105A6000093C2CE5120709F4D0CC4CE45DE068E574
:105A70007DE00A3C1C4509F4B1CC4AC0013D9CE5DF
:105A80001907B0F40F3CACE51A0708F048CB0D3C01
:105A9000BCE51B0709F4C3CC40E35DE06EE37DE0A9
:105AA0000E3C1C4508F49ACC81E00E94B40A37CB26
:105AB000073DFCE51F0728F483E0023D1C45A8F3E1
:105AC0002ECB0E351D4509F42ACB22C00B358DE5B2
:105AD000180709F4DFCC58F40115ACE51A0709F4EE
