:100000000C941B0B0C94620B0C94620B0C942C3212
:100010000C94620B0C94620B0C94620B0C94620BAC
:100020000C94620B0C94620B0C948E1F0C944A1F60
:100030000C94472C0C94620B0C94620B0C94620B86
:100040000C94620B0C94620B0C94620B0C94620B7C
:100050000C94620B0C9467200C94620B0C94620B52
:100060000C94620B0C94620B0C94620B0C94620B5C
:100070000C94620B0C94620B0C94620B0C94620B4C
:100080000C94620B0C94620B0C94620B0C94620B3C
:100090000C94620B0C94620B0C94620B0C94620B2C
:1000A0000C94620B0C94620B0C94620B050109809A
:1000B000A101850319012AB700150126B700950192
:1000C00075108100C0050C0901A101850419012AE0
:1000D000A002150126A002950175108100C005013E
:1000E0000902A1010901A10005091901290815004A
:1000F0002501950875018102050109300931158135
:10010000257F95027508810609381581257F95019F
:1001100075088106050C0A38021581257F95017541
:10012000088106C0C00660FF0961A10109621500CF
:1001300026FF009520750881020963150026FF003F
:10014000952075089102C005010906A1010507194E
:10015000E029E715002501950875018102950175D3
:100160000881010507190029FF150026FF009506E3
:100170007508810005081901290595057501910289
:10018000950175039101C00000000000000000000F
:10019000000000000000000000000000000000005F
:1001A00000000000000000000000007E0F00D4FFEF
:1001B000FFFFC70000007800000000000000002AD8
:1001C0002B280000000000000000000000000000DC
:1001D000000029000000002C1E3420212224342697
:1001E00027252E362D3738271E1F20212223242590
:1001F000263333362E37381F0405060708090A0B45
:100200000C0D0E0F101112131415161718191A1BB6
:100210001C1D2F3130232D350405060708090A0B54
:100220000C0D0E0F101112131415161718191A1B96
:100230001C1D2F3130354C01E8BA260BB2BEFE7EB4
:100240005F3CDB15A8B3E42BB5E853076D3BD12029
:10025000C2066F3DD911A0C2E72DB9D120A3A5C810
:10026000F3644AF74D1893A4CAF76C5A36EE5E3E13
:10027000FE7E7E5F1D99B0C3E529D30365481287D2
:100280006D5832E62FDC3AF24FFD5911816121C0E1
:1002900002868E7F5D38F2470C7B5528B3E44A1600
:1002A000ABBFDD38F2664EFF5D1991A0A3A5C81261
:1002B000A6AFDC3AD1416075582492D4726CE02F1D
:1002C000FD238D1C5BB297363D0BA249B158F21F3E
:1002D000C0CBF8414FCD1E6B39A72BE9301683D226
:1002E0000E478FE3B1DFA215DB5D30C51AAB319944
:1002F000F3FAB28669AD7AE8A7186ACCC865238795
:10030000A85FF521597509714555254BDAA1C3F749
:1003100041AB59D97412555FBCAFD9FDB01EA30FC4
:10032000FFDE11166AAE0EE15D3C10439AA10B246C
:100330008F0D7F0B5E4C42A4842C40D05539E64B88
:10034000F89B2FDC28FFFAB58519E528A177AA7359
:10035000F303C762A69118C9B0CD05DCCA81261A7D
:100360004740DA367D6A53C85A775D19A41B238348
:10037000D0B2AA0EBF774E3A3B5900310D021B880E
:100380007AD4BD9DCC580469F63BCA42E2FDC33D18
:1003900039C5D071E4C8B73E3FC8E9CAC93F044E69
:1003A0001B79CAA561C2ED1DA6DA5AE97F658CBE2C
:1003B000126EA45B332F84289C1C882DFF07BFA6D8
:1003C000D75A8886B03FF6315B116DF558EB58026D
:1003D0009EB59AB1FF259D8B4FB60AF9EA3E3F21A3
:1003E00009652122FE3D4E115B9E5A598BDDD8CE08
:1003F000D6D959D21EFDEF0D1BD9617FD72DAD6225
:1004000009E52263EAC731D9A138805CA73282ECC2
:100410001BA2495A06D27CC99657BB1775FC7A8F26
:100420000D77B57A8E3EF4BA2F691326D6D921609E
:100430002F213E87EEFD87160DC808002571AC2CD4
:10044000032A372DB3340991E3062C3837953B172F
:100450007AAFAC9955AB41395F8EA6438003886F64
:100460007DBD5AB42B32235AA93132394C5BF46B1F
:10047000AF666F3C8E2D82979F4A01DC999800EC05
:10048000387A7970A685D621630D459A2E5EA7B17C
:10049000EA666ABC622D7B7D85EA952FC0E86F35E0
:1004A000A03A0225BCB25F5C4396CC26D216B49625
:1004B00073D713C7AE5315318968666D2C921FCC64
:1004C0005BA78F5DBBC9DBE83B9D61748B05A158C1
:1004D0005268EE3D3979A09BDDE155C960EBADB8BE
:1004E0005BC25AB52C1855A950C3F6725FCCE2F422
:1004F00055B5D6B54A99A528749718E8C08489508F
:1005000003864D1AB70990A20104BB7362CB9722F0
:10051000705D52418ED99015AAAB0A3165B4DAD01C
:10052000EE24C941911EBC4670409DDA0E2AE4B209
:100530004C9FF2FCF38417441ED7CA231F3F5A2254
:100540003DAF9B2DFC41AD26B445670B800EF96194
:1005500037EC3BF44B14DF5A0C3A500B140C72AED0
:10056000C6C5EC35532D59ED9174E2C4C8F2256B24
:10057000976FC976CEA9B1998F5A923BC48D5450CA
:100580004072D69083FCE5498B17F5FD6B8D3202E6
:10059000E90AFEBF006BA3AD5F094B972B005865BE
:1005A0002E07490A3B6B2E506C1DACB76A26D81338
:1005B000A4CA16AEAB93B91C1CB4476A38361727C9
:1005C000C97FC764CB8958C561C2C6EA150B340C14
:1005D0005D61766E2B624092A36CEFF4E4C3A1A838
:1005E000F594790DD13DCB3D40B6D0F01054D847AD
:1005F0002551C5417900E5A072DEBB3B6217F6BC10
:100600005D00762EA73BB6F19872592A73B021D6B9
:1006100049E0C0D5EB027D4B4128702DEC2B711FBA
:100620000BB9716306E6BC60BBF49A624309184ECD
:1006300093064D76FA7FBD02E4509112E586FF6481
:100640001EAF7EB3B2DE89C1A26F407B415163EA27
:1006500025D1975792A845A1A54521437F83152908
:10066000D0305332B45A1796BCC268A9B7AFACDFCA
:10067000F1E389BA247954C614071C1E0D3A6BE5C0
:100680003D4E106096EC6CDA47AE0325391D74C8F8
:10069000AC6AF26B052A9AE7E892D6C26DFAE8A72F
:1006A0009D5F48C975F1666ADB5D9ACD27DDB92487
:1006B000049C18C26D0C913448426FE95970C47E95
:1006C000810E320A9348B0C0159E05AC3616CB5940
:1006D00065A083DF3EDAFB1D1ADB65EC9AC6C38E8C
:1006E0003C45FDC8F51C6A670D8F997D30218CEA69
:1006F000228765C9B24CE41B46BA54BD7CCAD58F6B
:100700005BA50104D80A16BFB9502E372F64F370C9
:10071000110205319BA0B2015E4F19C9D4EAA1793B
:100720005453A7DE2F49D3D163B503154EBF04B38D
:10073000268B20B245CFCD5B82328861A7A8B2A0BC
:100740007296C0DB2BE25FBAE3F58ADEF118011680
:1007500040D9861209181B050CB1B547E243ABFE20
:1007600092637E952BF0AFE1F1C34AFF2B09BB4AA0
:100770000E9AC4D8647D83A04F44DBC4A858EFFC14
:100780009E77F9A68F588B12F4E981124751418365
:10079000EFF673BC8E0F4C8F4E699077295D92B047
:1007A0006D06672960BD4B17C889692829D678CBA3
:1007B000114CBA8B68AE7E9FEF95DAE29E7FE955C9
:1007C000E5E1E2B7E65FBB2CA2E6EEC70A60A9D17D
:1007D00080DF7FD697AB1D2225FC7923E0AEC5EFE5
:1007E00016A4A10F92A9C7E33A55DF6249D9F5844F
:1007F00049C59034D3E1AC9921B102764AFAD4BB11
:10080000A49CA2E2CB3D3B147560D102B4A3B472A8
:1008100006F9199CE2E4A70F2588C686D68C744E8B
:100820006EFCA8489EA79D1A4B3709C8B010BE6F32
:10083000FEA3C47AB53DE830F10DA0B244FC9B8C18
:10084000F861ED81D16211B4E1D5395289D3A8495B
:1008500031DFB6F991F41C9D09954056E7E3CD5C74
:1008600092C11D6BE9786F8E944266A2AAD3C82EFE
:10087000E3F607720B6B1E7BB97CE0A0BCD925DFC9
:1008800087A85F9CCCF0DB428E073113016632D122
:10089000B8D6E35E127661D33889E6176FA5F27198
:1008A0000EA5E28830BBBE8AEAC762C4CFB8CD339A
:1008B0008D3D3EB5603A0392E46D1BE0B48408556B
:1008C00088A73AB93D43C3C0FA076ACA94AD99559F
:1008D000F1F1C023871D3D1CD166A0571052A27FA5
:1008E000BEF988B602BF0823A90C63172AAEF5F734
:1008F000B721839231230D20C3C20521628E45E8C2
:1009000014C1DA75B8F89201D05D189F991119F5E4
:1009100035E87F20888C0575F5D74017BB1E365209
:10092000D9A49CC29D4281D8C78AE74C81E0B757C1
:10093000ED488BF0971561D92C7C45AFC2CDFCAA50
:1009400013AD59CCB2B26EDD639C320FEC83BE782E
:10095000AC91441A1FEAFD5D8EB4C084D4ACB48758
:100960005FACEFDFCD1256C8CDFEC5DAD3C169F357
:100970006105EA25E212058F3908087C37B67E5BEF
:10098000D8B10EF2DB4BF1AD900157CDA0B452E8D7
:10099000F3D78ABD4F9F214072A4FC0B012B2FB6C9
:1009A0004C952D3533416BA093E72CF2D3728BF429
:1009B0004F153CAFD612DE3F833FFFF87FF6CCA643
:1009C0007FC99A6E1FC10CFBEE9CE7AFC92654EF9E
:1009D000B039EFB2E923C4EFD1A1A425246F8D6A09
:1009E000E58A323AAFFCDACE182542074D458BDF57
:1009F00085CF55B224FE9C6974A76EA0CEC039F491
:100A000086C68DAEB94864130B4081A2C9A8855132
:100A1000EE9FCFA28C195248E2C1A858B410240608
:100A20005851FCB912ECFD73B46D84FA068B050BBA
:100A30002DD6D61F29829F19121EB2048F7F4DBD5D
:100A4000302EE3E08829C593D66C1F294591A7581D
:100A5000CD0517D66DB3CA66CC3C4A74FD0810A606
:100A6000999210D285AB6E1D0E8B2646D16C84C038
:100A700026435968F0131DFBE3D1D2B4719EF2599D
:100A80006A332979D2D726F1AE789E1F0F3FE3E86B
:100A9000D0277877F6AC9C5639738A6B2F3478B1AF
:100AA00011DBA45C8001716AC2D12E5E762870933E
:100AB000AE3E78B01F0FDABFFB8A67654F91ED49F4
:100AC000757862A293B5707F4D084E7961A85F7FFB
:100AD000B4659F91543AE85033D3D58A7CF39E8B0A
:100AE000777BC6C60C45951FB0D00B274AFDC7F7CC
:100AF0000D5A43C97D35B07DC49C571E760DF195C6
:100B00003071CCB3663B63A86CA343A024CCB7532D
:100B1000FEFEBC6E6089AF1621C8916A89CE802C1A
:100B2000F159CEC360613B0B19FE99AC659015126B
:100B300005AC7EFF987B66640E4B5BAA8D3BD2565C
:100B4000CF9939EE2281D06006662081483C6F3A09
:100B500077BACB52AC7956AFE916170AA38208D5FB
:100B60003C97CB09FF7FF94F6005B95326AAB850CF
:100B7000AA1925AE5FEA8AD0891280435024122137
:100B800014CD77EB21CC5C0964F3C7CBC54BC3E72D
:100B9000EDE7862C1D8E19529B2A0C18720B1E1B1A
:100BA000B00F429904AED5B7891AB94FD6AFF3C981
:100BB000936FB060836E6BD15F3F1A831E240087F2
:100BC000B53EDBF94DA7162E195B8F1B0D47724200
:100BD000E90A11082D881CBCC7B4BE294D035EEC80
:100BE000DFF33D2FE81D9AD2D1AB413D871145B0CF
:100BF0000D46F5E895621C68F7A65B394EBF47BA0B
:100C00005D7FB76AF4BA1D69F6A4E7E46B3B0D2378
:100C1000164AB268F0B20D09176A638C83D3BD051A
:100C2000C9F6F0A1310B2CAC83AC803432B4ECD0DB
:100C3000BC54829AC8F6A07DC67973F42099F3B4A7
:100C400001DE9127F2C0DC81004E7E0799C83A513F
:100C5000BC38D68AA2DE3B6A8C1A7C810F3A1FE42C
:100C6000057B20356BA56AA7E7BC9C20EC0015E24C
:100C700051AF77EB293C7D2E005C8121FA356F4026
:100C8000EFFBD13FCC9D5553FB5AA556890B52EB38
:100C900057734F1B6724CBB86A1069D6FB5240FFCD
:100CA00020A5F372E13DA48C8166160D5DADA850C0
:100CB000257831770C57E4E9152DDB0787C8B04359
:100CC000DEFCFEA9EBF5B0D37BE91F6ECAE4039509
:100CD000C5D1597263F08654E816620B3529C26893
:100CE000D0D63E9060571DC9ED3FEDB02F7E9702E4
:100CF00051ECEE6F8274767FFBD6C4C3DDE8B16041
:100D0000FCC6B90D6A3378C6C1BF862C50CC9A7028
:100D10008E7BECAB95AC53A04B0788AF42ED198DA1
:100D2000F6321748471D416FFE2EA78F4BA051F397
:100D3000BF020A4858F7A16DEAA5135A5BEA0C9E58
:100D4000524F9EB9717F2383DA1B869A4129DA704C
:100D5000E764A17BD50A220D5C40C4810725354A92
:100D60001C10DB450AFF36D4E0EB5F68D667C6D0BF
:100D70008B761A7D5942A1CB964D84099A3DE0525B
:100D8000856E4890852A63B269D200433137B352E9
:100D9000AF62FAC1E003FB62AA88C9B22CD5A8F5FC
:100DA000A54C12594E065E9B156611B22792DC982F
:100DB00059DEDFFA9A322EC05D3C33416DAFB22569
:100DC0002314A57BC79B68F3DAEBE3A9E26F0E1D42
:100DD0001CBA55B6346A931F1FB834C88408B16B67
:100DE0006A287474E5EB75E97CD8BAD842A5EE1F81
:100DF00080D996B22EE7BFBAEBD169BB8FFD5A639B
:100E00008F397FDF1D37D218359DB6CCE427818915
:100E100038386833E778D876F5EED04A0769197A1A
:100E2000AD18B194614553A248DA964AF9EE942A76
:100E30001F6E183C9246D11A2818321F3A45BE043C
:100E40003592E5A3CBB52E3243AC651789991503CE
:100E50009EB1232FED764DD8AC2140C4994E6571DB
:100E60002CB345ABFBE7723956306DFB74EB99F34D
:100E7000CD575C7875E98DC3A2FB5DE090C555AD9B
:100E800091534E9EBD8C49A4A469100CC576E925EA
:100E9000868D6623A8DB5CE8D930E1157BC0990F0D
:100EA00003ECAA12EFCED4EA555C0886F4F4B083C2
:100EB000429537B638E02B5489BD4E209D3FC34B39
:100EC000B7ECFA5A1403CB64C8344A4B6EF86E562A
:100ED000F6DD5FA124E2D4D082641F8E9BFAB4CBEE
:100EE000DB0AE815FC15AB4B18BFD44214488285C9
:100EF000DDEB491B0B0B05E9B4A1330A5D0E6C4B0E
:100F0000C0D66C7CFB690B5319E4F335FCBEA134ED
:100F100002094F748692CD5D1AC1270CF2C5CFDD50
:100F2000239302BD415E42F0A09D0C72C8EC320AD0
:100F30008AFD3D5A41270C8859AD942EEF5D8FC72D
:100F4000DF66E4DD566C7BCA5581AEAE5C1B1AAB26
:100F5000AE998DCC429759F4143F75C6D188BAAA80
:100F6000844AD034083B7DDB1506B05CBD40F5A853
:100F7000ECAE3640DD901C3E0D7E73C7C2C56AFFE5
:100F800052057FBED092FDB36FFF5DB79764737B50
:100F9000CAD198246B0B0168DD278585B583C1E034
:100FA0005064C7AFF1C64DB1EFC9B40A6D65F347E0
:100FB000CCA302210CBE222905CF5FE8946CE5DCAE
:100FC000C4DFBE3EA8B418B099B86FFF5DB9FD3B51
:100FD0005D16BF3ED8B3D80834F647355B721A3376
:100FE000AD525DB8D077C6ABBA55095F02F8D45F91
:100FF000530691CD7442AE54918162136FD8A97794
:10100000C36CCBF1295ACCDA35BD5223BE59EB1251
:101010006DB753EEFCB41B135EBA167CC5F3E36DDB
:101020000778F52B2105884CC0A1E33610F81BD8B2
:1010300017FB6A4ED8B3472D99BDBB5D377DBAF11A
:10104000E17CC0C554627FCF5A4A93CCF11B34C8AF
:10105000A6054C558B5484D577EBC06D3A29BD75E8
:1010600061099A2CBBF71879349024A5817087C543
:10107000027CBAD45E148EE4EDA2616AB96EB54A00
:10108000B90146F4CFBC092F274BBD867A10E1D4B5
:10109000C8D9208D8A63006344EB540B754910A2B4
:1010A000A7ADB9D101806325C812A6CE1EBEFE7EB3
:1010B0005F3CDB34EA37EC3BD528D2078C9AB6EE9E
:1010C0005E3EDF1D99B0E246EF5C1BB4EA562EDEB1
:1010D0001F9DB8D324ABD42AD62EDE1F9DB8F2664E
:1010E0002FBDF872664E1E9F9DB8F2470C9AB6EE61
:1010F0003FFC7A570D79706227ADB9D1016140028A
:10110000672DD832E62FDC3AD72CBBF44BF549F1EA
:101110006023C40A774DF95101806325A9B1E042EB
:10112000E74C1A97ACBBF46A37CD18B2E62FDC1B3C
:1011300095A8D2076D5832E64E1E9FBCFA570D791E
:101140005120C2066F5C1B95A8B3C5E931E023C4EA
:101150000A774D1893856931C1E121C0E3440A77CC
:101160006C5A178D9893A4ABD42AB7EC5A17ACBB22
:10117000F44B14AAB7EC3BD528B3C5E931C10082C2
:10118000674CFB5528D226AFBDD911816121A1A1A1
:10119000C002866F5C1BB4CB148B94AAD62EBFDD25
:1011A00019B0E2460E7F7C5B15899083846B540BEB
:1011B000756852076D5832C7ED5832C7ED5832E6A0
:1011C0004EFF7C7A766E3FDD38D3058892A6AFDC81
:1011D0001BB4CBF56852078C7B55099083846B5404
:1011E0002AB7EC3BD50990A2C60E7F7C7A570D98A2
:1011F000B2C7ED5832C70C7B744B148B94AAB7CD91
:101200001893A4CA16AEBFDD19B0E2460E7F5D1971
:101210009181806344EB35C91083654812A6CE1EC8
:101220009FBCDB1589716023C4EB542AB7EC5A3696
:10123000CF8110AC74000101010101010101010223
:101240000202020202020202030303030303030376
:101250000404040404040405050505050606060641
:1012600006070707070708080808090909090A0AFD
:101270000A0B0B0B0C0C0C0D0D0D0E0E0E0F0F0FA1
:10128000101011111112121313141415151616172C
:1012900017181819191A1A1B1B1C1D1D1E1E1F209A
:1012A00020212222232424252626272829292A2BE7
:1012B0002C2D2D2E2F30313232333435363738390C
:1012C0003A3B3C3D3E3F4041424344454647484906
:1012D0004A4C4D4E4F50515354555658595A5B5DD8
:1012E0005E5F616264656668696B6C6D6F70727376
:1012F0007577787A7B7D7E8082838587888A8C8EDD
:101300008F91939596989A9C9EA0A2A3A5A7A9AB0E
:10131000ADAFB1B3B5B7BABCBEC0C2C4C6C9CBCD00
:10132000CFD1D4D6D8DBDDDFE2E4E7E9EBEEF0F3B2
:10133000F5F8FAFDFF14001A000800150017000464
:10134000681664076109620A001D441B0006001943
:101350000005000000000029432C422B411300121D
:10136000000C0018001C0033780F640E710D720B16
:101370000038443700360010001100000000000063
:10138000002A45284600000000000000000000E39D
:1013900000E200E000E100000000000000000000AA
:1013A00000000000000000000000000100450042B5
:1013B0000041004000460044003F003E003D004721
:1013C0000043003C003B003A0048000000000000E1
:1013D000000000000000000000000000000000E32A
:1013E00000E200E000E1000000000000000000005A
:1013F00000000000000000000001000000000000EC
:10140000000000000000004F005200510050003961
:10141000004D004B004E004A004900000000000053
:10142000002A0028000000C45CC25CC35C0000AC61
:1014300000AA00A800A900AB00000000000000DE28
:101440005C805F000000000100AE00AD000000C342
:101450005CC25CC45C0000AB00A900A800AA00ACA0
:1014600000000000000000DE5C805F000000000063
:1014700000AE00AD00000000000000815F835FE36C
:1014800000E200E000E10000000100875F855FDE10
:101490005C805F00000000F500F400F60000000032
:1014A000000000815F835FE300E200E000E10000F4
:1014B000000100875F855FDE5C805F000000000048
:1014C00000F400F6002F0024002500260030003331
:1014D000002100220023002E0035001E001F0020E6
:1014E00000310000000000370027002D0000000040
:1014F00000000000000000E300E200E000E1000066
:1015000000000000000000000000000000000000DB
:1015100000010000002F02240225022602300233BF
:10152000022102220223022E0235021E021F022085
:1015300002310200000000260227022D02000000F6
:1015400000000000000000E300E200E000E1000015
:10155000000000000000000000000000000000008B
:10156000000000010009027400040100A0FA09044F
:1015700000000103010100092111010001224000C6
:101580000705810308000A090401000203000000A6
:101590000921110100012222000705830320000117
:1015A00007050403200001090402000103010200F1
:1015B0000921110100012247000705820308000AE2
:1015C00009040300010300000009211101000122A8
:1015D00032000705850320000A1201000200000006
:1015E00008F8A832180100010200011E0343006838
:1015F00000610072007900620064006900730020DD
:10160000004E0061006E006F000000240342006184
:10161000007300740061007200640020004B0065DC
:1016200000790062006F00610072006400730000C6
:1016300000040309040011241FBECFEFDAE0DEBF6F
:10164000CDBF04B603FE27C08091C0039091C103B3
:10165000A091C203B091C3038730904BA740B04B19
:10166000D1F41092C0031092C1031092C2031092E1
:10167000C30314BE84B7877F84BF0FB6F894A895C0
:1016800080916000886180936000109260000FBEBE
:10169000E0E0F8E3099512E0A0E0B1E0E4E3F9E668
:1016A00002C005900D92A433B107D9F723E0A4E35B
:1016B000B2E001C01D92A03CB207E1F70E946E2C7F
:1016C0000C9458340C940000FC01AC014C5F5F4F4B
:1016D0008FEF91E32191822728E030E087FF09C056
:1016E000880F892721503109C9F7E417F50791F7C9
:1016F0000895880FF7CFE8EDF0E080818E7F80833A
:101700001092E2001092DA001092E100A0EEB0E038
:101710008C9181608C9380818F77808319BCA7ED39
:10172000B0E08C918E7F8C9380818F7E808310922D
:10173000A20308952091E4003091E50095E6A90107
:101740002091EC00822F817020FF06C08091E8007C
:1017500080FF06C080E008952091E80022FD1AC0B5
:101760008091AF03882389F0853089F08091EB0068
:1017700085FD0FC02091E4003091E500421753072A
:10178000F9F29150E1F684E0089582E0089583E053
:10179000089581E00895EF92FF920F931F93CF93E6
:1017A0007C018B010E949A0BC82F811117C0809178
:1017B000E80085FD0BC08091E8008E778093E800FB
:1017C0000E949A0B882399F3C82F08C0F7018191D2
:1017D0007F018093F1000150110949F78C2FCF91BF
:1017E0001F910F91FF90EF9008958091B10387FFB3
:1017F00013C08091E80082FF06C08091E8008B77DB
:101800008093E80004C08091AF038111F2CF089566
:101810008091AF038823D9F38091E80080FFF8CF4F
:101820008091E8008E77ECCF982F9093E900242FD9
:10183000762F50E0891731F07091EC002091ED0087
:101840005091F00021FD07C09F5F973071F78093A2
:10185000E90081E008953091EB003E7F3093EB008A
:101860003091ED003D7F3093ED003091EB00316021
:101870003093EB007093EC002093ED005093F00058
:101880002091EE0027FDE0CF80E00895CF92DF9217
:10189000EF92FF920F931F93CF93DF93C8EDD0E0A9
:1018A00088818F7E8883E7EDF0E08081816080838E
:1018B00084E082BF81E08093A20388818E7F888349
:1018C00002EE10E0F80110821092DA0081EEC82ECC
:1018D000D12CF601108288818F7788838881806877
:1018E000888388818F7D888319BC1092AF03109202
:1018F000B0031092AE031092AD0390EEE92EF12CDE
:10190000F70180818B7F808388818160888342E0BA
:1019100060E080E00E94140CF60180818E7F80835D
:10192000F801808181608083808188608083F701F5
:1019300080818E7F8083888180618883DF91CF91D1
:101940001F910F91FF90EF90DF90CF900895FC01D1
:101950008091B7039091B80386179707A0F061159F
:10196000710529F49091E8009E779093E80090E04B
:101970006115710551F4911108C08091E80082FF52
:1019800034C080E00895BC01F2CF8091AF0388237A
:10199000C1F18530C1F18091E80083FD30C08091B4
:1019A000E80082FDEACF8091E80080FFE1CF8091DE
:1019B000F3002091F200382F6115710519F02830DD
:1019C000310558F091E02830310509F090E0209180
:1019D000E8002E772093E800CBCF81918093F1002F
:1019E000615071092F5F3F4FE7CF8091AF0388238C
:1019F00041F0853041F08091E80083FFBECF81E067
:101A0000089582E0089583E0089508958091A403E5
:101A100008959C014FB7F89480919B0390919C038B
:101A2000A0919D03B0919E034FBF821B930B08951D
:101A30002FB7F89460919B0370919C0380919D0354
:101A400090919E032FBF08959C01FC0132969FEF59
:101A500080E04191461751F09F3F19F4411101C0B8
:101A6000982F8F5F8630A9F79F3F09F40895290FBB
:101A7000311D97FD3A95F9016283089520919803ED
:101A8000309199032817390771F090939903809347
:101A90009803E0919603F0919703309721F000842A
:101AA000F185E02D099408952091940330919503D8
:101AB0002817390771F09093950380939403E09170
:101AC0009603F0919703309721F00680F781E02D7F
:101AD00009940895FA01811101C0FB010994E5E21E
:101AE000F3E0248130E1231B08F420E0248380917B
:101AF00024038160809324030895E5E2F3E02481C8
:101B000030E1230F08F42FEF2483809124038160B8
:101B100080932403089590912503937071F080932E
:101B2000260360932703413408F040E440932803E0
:101B300080912403822B809324030895E5E2F3E04F
:101B4000438120E1421B08F440E0818121E0628171
:101B500090E00C948B0DE5E2F3E0438120E1420F2D
:101B600008F44FEF818121E0628190E00C948B0DAD
:101B7000E5E2F3E0628120E1621B08F460E081812C
:101B800021E0438190E00C948B0DE5E2F3E062816B
:101B900020E1620F08F46FEF818121E0438190E042
:101BA0000C948B0DE5E2F3E0818121E043816281B9
:101BB0008850990B0C948B0DE5E2F3E0818190E065
:101BC00021E04381628108960C948B0D909125034E
:101BD000937061F081110BC0946090932503109273
:101BE000510180912403862B809324030895833030
:101BF00010F09860F2CF880F880F982BEECF80916D
:101C0000250386958695815009F482E061E00C9465
:101C1000E60D80912503869586958F5F833008F0C9
:101C200081E061E00C94E60D80934D0180912503E5
:101C3000837080934C010E94ED1283E080935101E8
:101C40000895FF920F931F93CF93DF93182F062FC2
:101C5000F42ED0E0C0E02F2D402F612FCE010E9446
:101C600090132196C332D105B1F7DF91CF911F9127
:101C70000F91FF900895AF92BF92CF92DF92FF92A3
:101C80000F931F93CF93DF93362F472FE82FF0E06A
:101C9000EB5CFD4E71110FC0E4918E2F2E2F6E2F35
:101CA000722FDF91CF911F910F91FF90DF90CF9016
:101CB000BF90AF900895C72FD0E02491F22E022F4D
:101CC00010E056E0659FC0011124EFEFF0E0BF0186
:101CD0000E94A633832F90E0880F991F35E5369F29
:101CE000D001379FB00D11248A1B9B0B982F990FA1
:101CF000980F6F01CC1ADD0AC09ED001C19EB00DB5
:101D0000D09EB00D11248B2F499FA0011124452F87
:101D100055276F01C41AD50AC09EA001C19E500D5F
:101D2000D09E500D11245F01A91AB108AC9E60012C
:101D3000AD9ED00CBC9ED00C1124CD2CDD24EC1912
:101D4000FD09E09FE001E19FD00DF09FD00D11242F
:101D5000ED2F62307105A1F050F46115710509F4A1
:101D60009ECF6130710581F0EB2F852F98CF6430C5
:101D7000710569F080F06630710509F490CFF4CFF9
:101D8000E22F2B2F8D2F8BCFE22F252F88CFEB2FFC
:101D9000822F2D2F84CF2B2F8F2DE52F80CF0C94CA
:101DA0005F172091BD0384E690E026FD0FC027FF5A
:101DB0000FC02295237030E0A4E6B0E00E94DB3330
:101DC000DC01CB0188539F4FAF4FBF4F0C94CF0E18
:101DD0002F7030E0A8ECB0E00E94DB33DC01CB01D7
:101DE00080579E4FAF4FBF4FF1CF80E0089578945A
:101DF0000895F894E82FE295EF70F0E031A1282FD4
:101E00002F7081E090E001C0880F2A95EAF7982FA3
:101E10009095932391A392A1892B82A30C94F70E02
:101E20009091C30292FF06C0282F28712830F9F440
:101E3000877F846093FF06C0282F28712831F1F432
:101E4000877E84612091C40220FF06C0382F38713C
:101E50003830D9F4877F816021FF06C0282F287190
:101E60002831D1F4877E816194FD877E0895282FE3
:101E700024712430F9F68B7F8860DCCF282F247101
:101E8000243101F78B7E8861DDCF382F31713130FD
:101E900019F78E7F8860E0CF282F2171213121F73B
:101EA0008E7E8861E1CFCF93DF93EC01823891057C
:101EB00081F1B0F58133910509F491C020F58932A3
:101EC000910509F485C08A9709F490C0C11521E5F0
:101ED000D20708F0AAC0C11530E5D30708F0F2C058
:101EE000CF3BD10508F089C0C83AD10508F0DFC062
:101EF000C53AD10508F0D3C0C430D105F8F4C130DB
:101F0000D105E1F040C08533910509F45AC0C99765
:101F1000E9F68091C302837089F0C0EED0E00EC074
:101F2000833E910599F170F4803E910501F1823E66
:101F3000910561F68091C30282FD21C0CE01DF913F
:101F4000CF910895863E910561F1873E910571F12B
:101F5000843E910509F0BACF8091C40281FFEECF93
:101F60008091C302C7EED0E084FD0DC0E7CF809121
:101F7000C30280FDF7C09091C40290FFDFCFC3EE93
:101F8000D0E084FFDBCFD0E0C0E0D8CF8091C302A7
:101F900082FDEBC09091C40290FDBFCF84FFCECFF5
:101FA000F2CF8091C30283FDDDCFC8CF8091C30201
:101FB00083FDDEC09091C40291FFF0CFC4EED0E06B
:101FC000BDCF8091C30285FFB9CFC9E2D0E0B6CFC3
:101FD0008091C30285FFB2CFC5E3D0E0AFCF80913F
:101FE000C30286FFABCFCAE2D0E0A8CF8091C30284
:101FF00086FFA4CFC1E3D0E0A1CFC11540E2D40752
:1020000060F4C11581E0D80708F098CFCE01815E59
:102010009109079708F492CFB6CFC11590E4D9077C
:1020200008F4B1CFDF70D06A89CFC11524E5D2079B
:1020300078F4C11533E5D30708F072C0C11542E545
:10204000D40708F05CC0DC2FCC27C16FD06A76CFF4
:10205000C1158AE5D80778F4C11599E5D90708F0C4
:1020600073C0C11528E5D20708F48DCFDC2FCC272B
:10207000C06FD06A63CFCE0190568115904208F0B0
:1020800082CF8D2F8F710E94100F90E0982F88279C
:1020900088279F719C012C2BE901D0624FCFC55A34
:1020A000D0E0C45ADE4FC881D0E0D06447CFC85AD0
:1020B000D0E0CC0FDD1FC15ADE4F0990D881C02D72
:1020C000D4643CCFCE0164E0969587956A95E1F79C
:1020D00083702C2F26952695237040E2249F900133
:1020E0001124382B8C2F8370C1E0D0E002C0CC0FBC
:1020F000DD1F8A95E2F7C22BD32BDC681FCFCE0100
:102100008370992721E030E002C0220F331F8A95A7
:10211000E2F7C695C69580E2C89FE0011124EBCF97
:10212000CE018370992721E030E002C0220F331FD7
:102130008A95E2F7C695C69590E2C99FE001112401
:10214000C22BD32BDA68FACE8C2F8F700E94100F1F
:1021500034E0D695C7953A95E1F7CF709C2FEC0106
:10216000D069ECCEC9E3D0E0E9CEC2EED0E0E6CE55
:10217000C6EED0E0E3CE8091890290918802892B4F
:1021800090918702892B80933602E0919603F0911B
:102190009703309731F00280F381E02D86E392E0DF
:1021A00009940895209186029091550256E02913D2
:1021B00002C080E0089530E0529FF001539FF00D7F
:1021C0001124EA5AFD4F7181761306C0708178138D
:1021D00003C07281741304C02F5F3F4F2770E7CF95
:1021E00081E008958091860290915502981301C074
:1021F00008958F5F8770FACFE92FEE0FEE0F9E0FD5
:10220000890F982F977086958695869523E0829FF3
:10221000F0011124E05CFD4F50E040E080E02191AE
:1022200030E0092E02C0369527950A94E2F7217016
:102230003327042E01C0220F0A94EAF7822B4F5F46
:102240005F4F4330510559F70895E92FEE0FEE0F18
:102250009E0F890F982F977041E001C0440F9A9507
:10226000EAF786958695869593E0899FF00111247B
:10227000E05CFD4F30E020E070E05191DF0111970C
:10228000CB01022E02C0969587950A94E2F78170E1
:1022900081958527842385278C932F5F3F4F23309B
:1022A000310559F7089590E080E00E94540D90E0C8
:1022B00080E00E943E0D10928802109287020C94DA
:1022C000BB10CF93C82F82958170C11101C080E0EF
:1022D0009091BD0380FB97F99093BD030E94D10EAE
:1022E000C093BC03CF910C9453118091BC03982FE1
:1022F0009670963019F488600C946111877FFCCF3A
:1023000021E030E001C0220F8A95EAF72095809104
:10231000BC0382230C94611121E030E001C0220F44
:102320008A95EAF78091BC03822B0C94611180930B
:102330008A020C945311882341F080959091890270
:102340008923809389020C94BB100895882339F067
:1023500090918902982B909389020C94BB10089558
:102360008823B1F19CEF980F913A70F4E8E3F2E022
:102370009191891303C0DF0111971C9242E0EE3363
:10238000F407B1F70C94BB1090E2980F983088F4E2
:10239000877021E030E0A90102C0440F551F8A95E3
:1023A000E2F7CA018095909189028923809389027E
:1023B000E9CF9BE5980F933020F490E080E00C94F7
:1023C000540D885A873120F490E080E00C943E0D43
:1023D0000895CF93C82F882309F44EC08CEF8C0F3B
:1023E000813AF8F4E8E3F2E08EE392E0DF012D9128
:1023F000C21759F08A179B07D1F76C2F86E392E03A
:102400000E94240DCF910C94BB102191C21303C0E4
:10241000DF0111971C928E179F07B9F70E94BB101E
:10242000ECCF80E28C0F883068F4C77021E030E098
:1024300001C0220FCA95EAF780918902822B80930E
:102440008902E0CFEBE5EC0FE33040F4F0E0E45A32
:10245000FE4F808190E0CF910C94540DC85AC73143
:1024600058F4EC2FF0E0EE0FFF1FE15AFE4F808191
:102470009181CF910C943E0DCF9108958091890266
:102480000E94100F982F927281E009F480E0089565
:1024900080939F037093A1036093A0038091AF0387
:1024A000843001F585E08093E9008FEF9091E8009A
:1024B000815095FD06C095ED9A95F1F700008111C8
:1024C000F5CF8091E80085FF0DC050E040E063E06B
:1024D00070E08FE993E00E94CB0B8091E8008E774B
:1024E0008093E8000895BC0184E00C944812BC017C
:1024F00083E00C9448129C0182E08093E9009FEFF6
:102500008091E800915085FD06C085ED8A95F1F730
:1025100000009111F5CF8091E80085FF0CC050E0DC
:1025200040E065E070E0C9010E94CB0B8091E800BB
:102530008E778093E8000895CF93DF93EC0181E0DC
:102540008093E9008FEF9091E800815095FD06C0DF
:1025500095ED9A95F1F700008111F5CF8091E80093
:1025600085FF14C050E040E068E070E0CE010E94BA
:10257000CB0B8091E8008E778093E80088E0FE0125
:10258000A5EAB3E001900D928A95E1F7DF91CF9132
:10259000089581E08093E00080E28093D80010925B
:1025A000C9008FE19EE40197F1F700C0000087E0C9
:1025B00090EBDC018093C0039093C103A093C2030E
:1025C000B093C30388E19CE00FB6F894A89580937C
:1025D00060000FBE90936000FFCF539A3BB1377FEE
:1025E0002BB128604FB7F8948BE293E0FC01519136
:1025F000CF0168E02BB9000000C057FF3BB9550F71
:10260000000000C000C000C03BB900C06A9591F74F
:10261000F3E084399F0751F74FBF8FE594E00197AE
:10262000F1F700C0000008959F92AF92BF92CF9241
:10263000DF92EF92FF920F931F93CF93DF937C0172
:102640005B016A018091BE0201E010E08A3010F463
:102650000AE010E0C1E0D0E0F894B501C701F6014E
:102660000995982E0E94F70E911004C021960C1720
:102670001D076CF4892DDF91CF911F910F91FF9071
:10268000EF90DF90CF90BF90AF909F900895CC9F38
:102690009001CD9F300D300D112490E080E045E396
:1026A0004A95F1F70000019682179307C1F7D4CF3E
:1026B00080919502811110C08091D8008061809333
:1026C000D8008AE18A95F1F700C08091D90080FF97
:1026D0000AC081E08093950281E09091950291304B
:1026E00009F080E0089582E0809395020E947B0BC0
:1026F0001092AF03F1CF0E945813882351F0E0915C
:102700009603F0919703309721F00190F081E02D2E
:10271000099480E008950E94581391E08927089554
:10272000FF920F931F93CF93DF93EC01F62E042FAC
:10273000122F0E948B1381110FC0C231D10564F09A
:102740006297FE01EE0FFF1FEC0FFD1FE55DFC4FD2
:10275000F1820083128307C00E948B13882389F3C0
:10276000C231D10574F3DF91CF911F910F91FF908A
:102770000895DF92EF92FF920F931F93CF93DF9311
:10278000082F80914D01801324C0909125039370F0
:1027900020914C0130E081E09217130609F480E0AB
:1027A00081708093500180912A0390914F01981776
:1027B00039F080934F0140E060E080E00E94210EFC
:1027C000013099F0002339F0023009F468C080E04C
:1027D0003BC081E0E5CF809150018823A9F140E022
:1027E00060E080E00E94210EF2CFC0914E0187E0B0
:1027F000C89FC02D112417E01C0F143208F013E2FB
:102800000E948B13882319F0133108F012E10E9403
:102810008B13811103C0C23108F4C2E16091260319
:1028200070912703809128030E943B0EF62EE72E1D
:10283000D82ED0E0C11718F10E948B13882309F419
:102840007DC081E0123118F690914E019F5F909308
:102850004E0181110CC082E08093510180915001A2
:10286000811105C0011103C083E080935101DF9104
:10287000CF911F910F91FF90EF90DF900895FE018F
:10288000E350FE4F808190914F01892331F02D2D2F
:102890004F2D6E2DCE010E9490132196CBCFC0916B
:1028A0004E0187E0C89FC02D112417E01C0F143281
:1028B00008F013E20E948B13882319F0133108F0FB
:1028C00012E10E948B13811103C0C23108F4C2E1EE
:1028D000209129032695269531E0230F08F42FEF48
:1028E00040911F035091200390E080E0429F812D92
:1028F000529F800D911D1124F82ED0E0C11708F0D1
:102900009BCFFE01E350FE4F808190914F018923C0
:1029100099F070912703FE01EE0FFF1FE157FE4F64
:1029200060A56F19809128030E943B0E462F282F27
:10293000672FCE010E9490132196E0CF81E01332E1
:1029400008F482CF44CF0F931F930E94581388231B
:1029500021F01F910F910C94180D0E94180D0091F9
:10296000BF021091C0022091C1023091C202600FDB
:10297000711F821F931F1F910F910895CF92DF92B5
:10298000EF92FF926B017C010E9458138823A1F003
:102990002FB7F89460919B0370919C0380919D03E5
:1029A00090919E032FBF6C197D098E099F09FF909E
:1029B000EF90DF90CF9008950E94A314F4CF1F935F
:1029C000CF93DF93182FD0E0C0E0893311F4C0E536
:1029D000D0E0812F0E94E911209731F4812FDF91FF
:1029E000CF911F910C94B0118FE99FE00197F1F7FF
:1029F00000C000002197F0CFCF93DF93C7E5D2E06E
:102A000060E0CE010E941E342196C11584E0D807F3
:102A1000B9F7DF91CF9108956F927F928F929F9235
:102A2000AF92BF92CF92DF92EF92FF920F931F93DC
:102A3000CF93DF9385E3C82E83E1D82E91E8E92E6A
:102A4000F12CE701C055D10936011BC0F501859075
:102A50009490692DC8010E941E34682DC80101960A
:102A60000E941E3482E0A80EB11C0E5F1F4FC017DB
:102A7000D10761F78AE0680E711C2A96CE15DF0532
:102A800029F08E010A5011095301E0CF7E0180E543
:102A9000E80EF11C80E5C80ED11C81EBE81682E03F
:102AA000F80679F6DF91CF911F910F91FF90EF908B
:102AB000DF90CF90BF90AF909F908F907F906F905E
:102AC0000895CF93C82F6FEF811161E283E290E008
:102AD0000E941E346FEFC11161E184E290E00E9418
:102AE0001E346FEFC11169E285E290E0CF910C9442
:102AF0001E3480E00E94611560E086E290E00E9452
:102B00001E340E940C150E94FC1481E00C94611587
:102B10000F931F93CF93DF93C42FD0E0CC0FDD1F13
:102B20002AE0629FC00DD11D112430E5839FC00DA6
:102B3000D11D1124CE0187960E94FA33082F10E090
:102B4000102F0027CE0188960E94FA339801282B77
:102B5000C901DF91CF911F910F910895462F8730C2
:102B600038F4783028F4653018F4672F0C94881501
:102B700090E080E00895CF92DF92FF920F931F9331
:102B8000CF93DF936C010091BC0380918A02082BE4
:102B9000C7E0D0E010E0FC2EC8010C2E02C09595D5
:102BA00087950A94E2F780FD0CC02197A0F7F12CDD
:102BB0008F2DDF91CF911F910F91FF90DF90CF90DC
:102BC0000895B6018C2F0E94AE150E94530F0197F5
:102BD00061F3EECFCF93DF93EC010E94BB15BE01F2
:102BE0000E94AE15DF91CF910C94530FFC018081B0
:102BF00091810E94EA15292F2F7092959F70925013
:102C00009E3078F4E92FF0E0E65AFB4C0C94CE337A
:102C1000803F19F020F4883E20F481E00895843F3D
:102C2000E1F380E00895883EC0F3813FD1F7F5CF0E
:102C3000822F869586958695089583E290E00E947E
:102C4000FA33813289F484E290E00E94FA338131D0
:102C500059F485E290E00E94FA3391E0893209F05C
:102C600090E0892F8170089580E0FCCFCF9384E0BD
:102C700090E00E94FA33C82F82E290E00E94FA337B
:102C8000982F8C2FCF9108954F925F926F927F92E1
:102C90008F929F92AF92BF92CF92DF92EF92FF926C
:102CA00060911B0370911C0380911D0390911E0382
:102CB0000E94BE146B017C010E94A3144B015C01B5
:102CC00080921B0390921C03A0921D03B0921E03DE
:102CD000A091F202E2EFF2E08A2F90E04FEF5FEF77
:102CE00060E070E04C195D096E097F09A91327C0E7
:102CF0008093F20280912303811134C090912503C7
:102D0000892F837019F0892F8695869590915101AE
:102D10009130C1F1992341F1923009F441C09330CF
:102D200009F44CC0FF90EF90DF90CF90BF90AF9030
:102D30009F908F907F906F905F904F900895218D1E
:102D4000328D2901712C612C4415550566057705D6
:102D500020F481509F5F3296C9CF2C0D3D1D328FDC
:102D6000218FF8CF80E0D2CF10924E0180921F03C6
:102D700090922003A0922103B092220381E08093DD
:102D80005101D0CFFF90EF90DF90CF90BF90AF90E8
:102D90009F908F907F906F905F904F900C94B9139D
:102DA000FF90EF90DF90CF90BF90AF909F908F906B
:102DB0007F906F905F904F900C94140E809124033D
:102DC000882351F046E050E06CE170E085E293E04A
:102DD0000E940E341092240360911F03709120030F
:102DE00080912103909122030E94BE1460317105ED
:102DF0008105910508F496CF1092510193CFE5E239
:102E0000F3E089E080838091540190915501A09175
:102E1000560181839283A38380E284838FEF85832D
:102E200046E050E06CE170E0CF010E940E34109259
:102E30002403089528E030E043E060E080E30E944E
:102E4000B23095E09A95F1F700000895CF93C82F1E
:102E50000E941A178C2F0E942A310E944231C82FDB
:102E600085E08A95F1F7000085E68A95F1F7000084
:102E70000E945A318C2FCF910895CF93DF93C82FA2
:102E8000D62F803511F01092F1020E941A178C2F64
:102E900080680E942A318D2F0E942A31EC018AE637
:102EA0008A95F1F700C08FE891E00197F1F700C033
:102EB00000000E945A31CE01DF91CF910895CF9347
:102EC000DF93EC010E941A17CE0164E670E00E94C5
:102ED000A633615071096837710510F067E770E03B
:102EE0008FE00E943D17DF91CF910C945A31CF9320
:102EF000DF93209A0E94AA301092F1020E945A3168
:102F00000E941A170E945A3166EB8BE30E943D170C
:102F10002FEF85EA9EE0215080409040E1F700C00D
:102F200000000E941A17E5EDEA95F1F70000F5E0C0
:102F3000FA95F1F700000E945A3125ED2A95F1F734
:102F400000006AE58AE30E943D178FEF90E7E2E018
:102F500081509040E040E1F700C0000082E00E9414
:102F6000261783E00E94261784E00E94261785E03A
:102F70000E94261786E00E9426176DE183E10E94D9
:102F80003D178FE39CE90197F1F700C0000068E16D
:102F900083E10E943D170E941A1782EE0E942A3197
:102FA00090E59A95F1F7C7E3D2E0FE0184910E9483
:102FB0002A31F0E5FA95F1F7219622E1C533D207DF
:102FC000A1F78FE193E00197F1F700C000008AE2DA
:102FD0000E94261760E080E10E943D170E945A314E
:102FE000EFE3FCE93197F1F700C00000F5E0FA9556
:102FF000F1F700000E945A318FE39CE90197F1F745
:1030000000C0000080E496E00E945F17EFE9FFE057
:103010003197F1F700C0000060E080E10E943D17A9
:1030200067EE81E10E943D1780E00E9426178FE342
:103030000E9426178AE20E9426172898DF91CF91D6
:103040000895CF93DF93CDB7DEB72A970FB6F894E4
:10305000DEBF0FBECDBF85E0EAEEF2E0DE011696E0
:1030600001900D928A95E1F785E0E1EEF2E0DE0154
:10307000119601900D928A95E1F745E050E0BE016E
:103080006F5F7F4FCE0106960E944234892B61F01C
:10309000E0919603F0919703309731F00480F58129
:1030A000E02D8AEE92E009951092EB021092EC026C
:1030B0001092ED021092EE0285E0EAEEF2E0A1EE4F
:1030C000B2E001900D928A95E1F72A960FB6F89436
:1030D000DEBF0FBECDBFDF91CF910895CF92DF92BB
:1030E000EF92FF920F931F93CF93DF93CDB7DEB78D
:1030F00064970FB6F894DEBF0FBECDBF4091EA02D1
:103100005091EB026091EC027091ED028091EE0221
:103110000E94D629D32E2093EA024093EC025093CA
:10312000ED026093EE02132F11951093EB0285E0F0
:10313000EAEEF2E0DE01509601900D928A95E1F7F9
:103140000091EC02E090ED02F090EE020E94581324
:10315000882309F425C18091BD0386FFAFC0E091AB
:10316000E802F091E902E10FF11D17FDFA95F093E5
:10317000E902E093E8022091E6023091E702200F95
:10318000311D07FD3A953093E7022093E602CF0107
:10319000F7FF04C0882799278E1B9F0B079794F190
:1031A00066E0C62ED12CCF01B6010E94BA338B0146
:1031B000E630F1050CF05BC0882799278E1B9F0B2A
:1031C000B6010E94BA336E9FC0016F9F900D7E9F23
:1031D000900D112460E970E00E94BA33CB01800F9A
:1031E000911F51E8F52E81384FEF94073CF0F62EF1
:1031F000F00E8038910514F04FE7F42E1092E9029A
:103200001092E802C90137FF04C088279927821B62
:10321000930B07970CF44FC006E010E0C901B8010A
:103220000E94BA33FB012630310584F5882799279F
:10323000821B930BB8010E94BA33629FC001639F47
:10324000900D729F900D112460E970E00E94BA33D6
:10325000CB018E0F9F1F81382FEF920734F1E62E9E
:10326000EE0E803891051CF18FE7E82E20C0E69F16
:10327000C001E79F900DF69F900D112460E970E06A
:103280000E94BA33CB01800F911FB1CF269FC0019E
:10329000279F900D369F900D112460E970E00E94E9
:1032A000BA33CB018E0F9F1FDACF91E8E92E10922F
:1032B000E7021092E60200E010E04AC087FD48C035
:1032C000212F012E000C330B1116C4F04427552773
:1032D000421B530B429FC001439F900D529F900D84
:1032E000112468E170E00E94BA33260F371F11E8FD
:1032F00021383F4F84F0162F1D190DC01102C00157
:10330000112468E170E00E94BA33260F371F1FE7CF
:103310002038310584F3202F002E000C330B1016BB
:103320000CF46DC044275527421B530B429FC0012C
:10333000439F900D529F900D112468E170E00E9410
:10334000BA33260F371F21383F4F0CF467C0060FE2
:10335000198B0A8BEB8AFC8A85E0FE017096DE01F0
:103360001B9601900D928A95E1F785E0FE013B9650
:10337000DE01119601900D928A95E1F785E0FE013C
:103380003196DE01169601900D928A95E1F785E05F
:10339000FE013696DE01509601900D928A95E1F776
:1033A000198B0A8BEB8AFC8A85E0FE017096DE01A0
:1033B000169601900D928A95E1F785E0FE0136960A
:1033C000DE011B9601900D928A95E1F785E0FE01E2
:1033D0003B96AAEEB2E001900D928A95E1F76496D1
:1033E0000FB6F894DEBF0FBECDBFDF91CF911F9116
:1033F0000F91FF90EF90DF90CF900C942118000276
:10340000C001112468E170E00E94BA33260F371F13
:10341000203831050CF49BCF0FE79ACF01E898CF05
:1034200010928902E8E3F2E086E0DF011D928A95BE
:10343000E9F70C9453111F93CF93DF93CDB7DEB709
:10344000AA970FB6F894DEBF0FBECDBF81EB93E015
:103450002091F100DC012D93CD01B3E0893B9B0766
:10346000B9F78091B203833009F472C0B8F48130A7
:1034700009F449C0823009F4B3C08091E80083FFA9
:1034800091C28091B1039091B2039A3008F08AC240
:10349000E92FF0E0E859FB4C0C94CE338A3009F464
:1034A0008EC08B3009F471C0893039F78091B10337
:1034B000813219F78091B5039091B603009711F00E
:1034C0000397D9F68091E800877F8093E800809188
:1034D000E80082FF38C09091F3008091F2000297DB
:1034E00031F48091F100813011F0863021F4809127
:1034F000F1008093A4038091E8008B778093E8002B
:103500000E94F50BBACF8091B103813A09F0B5CF93
:103510008091E800877F8093E8008091B5039091C7
:10352000B603892B61F468E085EA93E070E00E94BD
:10353000A70C8091E8008B778093E8009ECF60E035
:1035400090E080E0F3CF8091AF038111C0CF95CFA1
:103550008091B103813A09F090CF8091B5039091A9
:10356000B603892B09F089CF8091E800877F80938B
:10357000E8008091E80080FFFCCF809152018093A9
:10358000F1008091E8008E77B9CF8091B10381324C
:1035900009F073CF8091B5039091B603892B09F0A0
:1035A0006CCF8091E800877F8093E8000E94F50B44
:1035B0008091B303809352010E94101A5ECF8091D4
:1035C000B103813209F059CF8091E800877F809361
:1035D000E8000E94F50B8091B4038093A3034DCFC4
:1035E0008091B103813A09F048CF8091E800877F4C
:1035F0008093E8008091E80080FFFCCF8091A303D6
:10360000BECF803899F0823809F0CCC18091B503E3
:103610008F70873008F0C6C18093E9008091EB007D
:1036200085FB882780F91092E90006C08091AD03E0
:103630009091AE03911182609091E800977F9093F2
:10364000E8008093F1001092F1008091E8008E77FD
:10365000A5C1882309F493C1823009F0A3C18091E8
:10366000B303811196C18091B5038F702FEF280F9E
:10367000263008F097C18093E9002091EB0020FFED
:1036800088C1933031F48091EB0080628093EB002D
:1036900080C19091EB0090619093EB0021E030E0CD
:1036A00001C0220F8A95EAF72093EA001092EA00FF
:1036B0008091EB008860EACF811174C11091B3034F
:1036C0001F778091E3008078812B8093E3008091C5
:1036D000E800877F8093E8000E94F50B8091E80066
:1036E00080FFFCCF8091E30080688093E30082E05C
:1036F000111183E08093AF0355C18058823008F0E8
:1037000051C12091B3033091B4032C3DE3E03E0757
:10371000A1F583E08A838AE289834FB7F894DE01BA
:10372000139620E03EE051E2E32FF0E05093570083
:10373000E49120FF03C0E295EF703F5FEF708E2FA2
:1037400090E0EA30C0F0C7968D939D932F5F2431AF
:1037500059F74FBF8091E800877F8093E8006AE2C5
:1037600070E0CE0101960E94A70C8091E8008B7753
:103770008093E80017C1C096E7CF8091B503909180
:10378000B603432F55274330510509F44AC078F555
:103790004130510509F47AC084E790E0E5E6F5E1AF
:1037A0004230510509F0FEC02091E800277F2093A8
:1037B000E8002091B7033091B8038217930708F40B
:1037C0009C0140E02115310509F065C0411163C03D
:1037D0008091E80082FDC9CF8091AF03882329F250
:1037E000853019F28091E80083FFF2CFBECF4132DD
:1037F000510509F43CC04232510509F0D3C0843070
:10380000910508F0CFC0FC01EE0FFF1FEC5DFD4FEE
:103810000190F081E02D805E9D4FDC018C9190E065
:103820001AC0332721303105D1F02115310561F05F
:103830002230310509F0B6C0EBEEF5E1E4918E2FB0
:1038400090E0EBEEF5E107C0E1E3F6E1E4918E2FC5
:1038500090E0E1E3F6E1009709F4A4C0A5CFEBE026
:10386000F6E1E4918E2F90E0EBE0F6E1F4CF8430C6
:10387000910508F097C0880F991FFC01E45DFD4F8A
:103880000190F081E02D89E090E08ECF82E190E020
:10389000E9EDF5E189CF8091AF03882309F465CF85
:1038A000853009F462CF8091E80083FD5ECF80917E
:1038B000E80082FD8DCF8091E80080FF83CF90915A
:1038C000F3008091F2002115310519F0883091053F
:1038D00050F041E0089709F040E08091E8008E77D1
:1038E0008093E8006FCF44914093F10031962150CE
:1038F00031090196E8CF803809F054C08091E80082
:10390000877F8093E8008091B0038093F1009DCE83
:10391000811148C01091B303123008F043C0809168
:10392000E800877F8093E8001093B0030E94F50BB6
:10393000112311F084E005C08091E30087FDFACFE8
:1039400081E08093AF0342E061EC81E00E94140CBF
:1039500042E061EC82E00E94140C42E261EC85E0FE
:103960000E94140C42E261EC83E00E94140C42E2DB
:1039700060EC84E00E94140C8091AF0313C080912E
:10398000B303813079F481E0933009F080E08093D3
:10399000AE031092E9008091E800877F8093E800F1
:1039A0000E94F50B8091E80083FF0AC08091E80037
:1039B000877F8093E8008091EB0080628093EB002A
:1039C000AA960FB6F894DEBF0FBECDBFDF91CF91A0
:1039D0001F910895CF93DF9300D000D0CDB7DEB70D
:1039E0004091B6025091B7026091B8027091B9024D
:1039F0002FB7F89480919B0390919C03A0919D0315
:103A0000B0919E032FBF841B950BA60BB70B84367A
:103A10009105A105B10568F10E94A3146E5F7F4F67
:103A20008F4F9F4F69837A838B839C838091210181
:103A3000909122018E559D4F4091200150E04530DC
:103A4000510510F044E050E0BE016F5F7F4F0E94CF
:103A50004F3483E090E00E94F232892B61F40E949F
:103A6000180D6093B6027093B7028093B8029093DA
:103A7000B90281E001C080E00F900F900F900F908D
:103A8000DF91CF9108950F931F93CF93DF9300D0D1
:103A900000D00F92CDB7DEB78B0190E080E00E949E
:103AA000F232892B09F085C04091050150E04115A3
:103AB000510511F041E050E060910601709107015D
:103AC0006E557D4FCE0105960E944F3440919A026B
:103AD00050919B0260919C0270919D022FB7F894C7
:103AE00080919B0390919C03A0919D03B0919E03B4
:103AF0002FBF841B950BA60BB70B84369105A10530
:103B0000B10540F483EA92E00E94640B9D8189171D
:103B100009F45FC081E090E00E94F232892BC1F08D
:103B200080E04091960250919702609198027091C6
:103B30009902F80140835183628373830F900F9041
:103B40000F900F900F90DF91CF911F910F910895DB
:103B500040910F0150E04530510510F044E050E035
:103B600060911001709111016E557D4FCE0101964B
:103B70000E944F3483EA92E00E94640B9D81891376
:103B8000CFCF0E94180D60939A0270939B0280938E
:103B90009C0290939D0289819A81AB81BC81809324
:103BA000960290939702A0939802B093990281E0B5
:103BB000B8CF80E04091A3025091A4026091A50289
:103BC0007091A60249835A836B837C838111E3CF72
:103BD000A8CF81E0EFCF8F929F92AF92BF92CF920A
:103BE000DF92EF92FF920F931F93CF93DF93EB013E
:103BF00088809980AA80BB809FB7F894C0909B036F
:103C0000D0909C03E0909D03F0909E039FBFC81846
:103C1000D908EA08FB0894E6C916D104E104F104C6
:103C200010F4442311F1E82E082E000CFF089AE04E
:103C30008902F0011124E050FF4F838194818E5559
:103C40009D4F428150E00417150708F4A801B901FF
:103C50000E944F34C7010E94F232892BA1F40E94C6
:103C6000180D688379838A839B8381E0DF91CF91EC
:103C70001F910F91FF90EF90DF90CF90BF90AF908A
:103C80009F908F90089580E0F1CF0F931F93CF9373
:103C9000DF9300D000D000D00F92CDB7DEB786E022
:103CA000E5E2F3E0DE01119601900D928A95E1F7CD
:103CB000809123038F8347E050E06FEA72E0CE01EA
:103CC00001960E94423441E0892B09F440E007E06C
:103CD00010E09E012F5F3F4F6AEB72E084E00E948C
:103CE000EB1D27960FB6F894DEBF0FBECDBFDF9158
:103CF000CF911F910F9108950F931F93CF93DF934F
:103D0000EC0144E050E067EA72E00E94423441E096
:103D1000892B09F440E004E010E09E016EE972E0B6
:103D200082E00E94EB1DDF91CF911F910F910895CA
:103D300090E080E00E940834893E9E4F11F40C947C
:103D40001D1680E008959091BD039F70811114C0ED
:103D50008FEF980F9F708091BD03807F982B909379
:103D6000BD030E94D10E4091BD0350E070E060E0C1
:103D70008FE090E00C94303481E0EBCF69EE7EEF81
:103D800090E080E00E943C3460E082E090E00E949D
:103D90001E3460E083E090E00E941E3410928A029C
:103DA00060E084E090E00E941E3460E082E290E0F7
:103DB0000E941E3460E085E090E00E941E3460E0C6
:103DC00086E090E00E941E346FEF87E090E00E9452
:103DD0001E3440E050E0BA0188E090E00E943034A8
:103DE00060E08DE090E00E941E3440E050E0BA01B7
:103DF00088E190E00E94303460E087E190E00E942A
:103E00001E3440E050E0BA018CE190E00E94303472
:103E100070E060E080E290E00E943C3440E050E0DE
:103E2000BA0188E190E00E94303480E00E94611580
:103E30000E9479151092BD0340E050E0BA018FE076
:103E400090E00E9430340E94D10E40E050E0BA0170
:103E500083E190E00C9430349091BD03929593707F
:103E6000811116C08FEF980F93709295907F80917B
:103E7000BD038F7C982B9093BD030E94D10E40917F
:103E8000BD0350E070E060E08FE090E00C943034CF
:103E900081E0E9CF1F920F920FB60F9211242F935A
:103EA0003F934F935F936F937F938F939F93AF93C2
:103EB000BF93CF93DF93EF93FF93D091E900DF702F
:103EC0008091EC00C82FC17080FDC0E81092E9001D
:103ED0008091F000877F8093F00078940E941B1AF5
:103EE0001092E9008091F00088608093F000CD2B63
:103EF000CF70C093E900FF91EF91DF91CF91BF9117
:103F0000AF919F918F917F916F915F914F913F9171
:103F10002F910F900FBE0F901F9018951F920F9228
:103F20000FB60F9211242F933F934F935F936F938C
:103F30007F938F939F93AF93BF93EF93FF93809162
:103F4000E10082FF09C08091E20082FF05C08091FC
:103F5000E1008B7F8093E1008091DA0080FF24C034
:103F60008091D80080FF20C08091DA008E7F8093FE
:103F7000DA008091D90080FF9DC080E189BD82E197
:103F800089BD09B400FEFDCF81E08093AF0380912D
:103F9000A203811109C00E947B0B0E94460C8091F4
:103FA000E20084608093E2008091E10080FF17C00E
:103FB0008091E20080FF13C08091E2008E7F8093A9
:103FC000E2008091E20080618093E2008091D8005D
:103FD00080628093D80019BC85E08093AF03809104
:103FE000E10084FF2BC08091E20084FF27C080E1C4
:103FF00089BD82E189BD89B5982F917080FFFBCF83
:104000008091D8008F7D8093D8008091E1008F7ED1
:104010008093E1008091E2008F7E8093E2008091A6
:10402000E20081608093E2008091B003882309F46C
:1040300047C084E08093AF038091AF038091E1009B
:1040400083FF27C08091E20083FF23C08091E100BD
:10405000877F8093E10082E08093AF031092B003EA
:104060008091E1008E7F8093E1008091E2008E7F5D
:104070008093E2008091E20080618093E20042E060
:1040800060E080E00E94140C8091F00088608093D2
:10409000F000FF91EF91BF91AF919F918F917F9130
:1040A0006F915F914F913F912F910F900FBE0F90A5
:1040B0001F90189519BC1092AF031092A20374CFF1
:1040C0008091E30087FD93E09093AF03B5CF7894A0
:1040D0001F921FB61F9211248F939F93AF93BF938C
:1040E00080919B0390919C03A0919D03B0919E03AE
:1040F0000196A11DB11D80939B0390939C03A093F7
:104100009D03B0939E03BF91AF919F918F911F909C
:104110001FBE1F9018952FB7F89480919B03909124
:104120009C03A0919D03B0919E032FBF08950F9310
:104130001F93CF93DF93C62FD42F022FFC018281D0
:104140008823A1F06093BB030E948B209093BA0355
:104150008093B903C77081E001C0880FCA95EAF760
:10416000DF91CF911F910F910C94A6118091BB0309
:10417000681335C08091B9039091BA030E94090D6C
:10418000883C910560F510E21D0FCD17B9F080E273
:104190008C0F883040F4C77081E001C0880FCA9549
:1041A000EAF70E949B11183048F481E09D2F977028
:1041B00001C0880F9A95EAF70E94A611802F0E94ED
:1041C000DF14183098F4D77081E001C0880FDA95B9
:1041D000EAF7DF91CF911F910F910C949B11C7705B
:1041E00081E001C0880FCA95EAF7F3CFDF91CF9144
:1041F0001F910F9108955F926F927F928F929F927D
:10420000AF92BF92CF92DF92EF92FF920F931F93E4
:10421000CF93DF93CDB7DEB72F970FB6F894DEBFFD
:104220000FBECDBF7C01FC0183819481892B31F0CD
:104230008081918189238F3F09F08AC52F960FB61F
:10424000F894DEBF0FBECDBFDF91CF911F910F91CC
:10425000FF90EF90DF90CF90BF90AF909F908F90A6
:104260007F906F905F9008950E94BB15182F682F64
:1042700089819A810E94251169817A81812F0E940A
:10428000AE158C01F7018281882309F456C5980187
:1042900022513F452031310508F03AC58FEF93E0B8
:1042A0000E94FA33025197E5A92E92E0B92E8111AE
:1042B000C5CF011134C01C821B82662463948AE03E
:1042C000582E85010F5F1F4FC5010E94FA33898365
:1042D0001A82882309F4B2CF9FEF980F933070F5BC
:1042E0008A83698232E0A30EB11CC8010E94FA33AE
:1042F0008B83882309F4A2CF8E010F5F1F4FF80133
:1043000020812223F1F2213009F052C09181828173
:104310009130B1F40E5F1F4F0E94DF1417C0A1143B
:10432000F4E0BF0609F48ACFC5010E94FA33811177
:1043300001C001502FEFA21AB20ABBCF5801DCCF47
:10434000923039F40E5F1F4F0E94E9110F5F1F4F2B
:10435000D6CF933029F40E5F1F4F0E94B011F6CFD5
:10436000943019F00F5F1F4FF1CF0E5F1F4F30E0F9
:1043700020E0B8016F5F7F4FF80141818053990BB6
:104380008A30910550F02150310900F38FE99FE008
:104390000197F1F700C00000F6CF529EF001539E46
:1043A000F00D11249C012E0F3F1F842F8B01E1CFB4
:1043B000E22FF0E0E954FE4F7490822F86958695A7
:1043C000869590E0FC01E955FE4FE4902770F12CB2
:1043D000022E02C0F594E7940A94E2F7E1E0EE229F
:1043E000FF24FC01E956FE4FC490D12C022E02C0DE
:1043F000D594C7940A94E2F7F1E0CF22DD24FC01C2
:10440000E957FE4F8490912C02C0959487942A9589
:10441000E2F721E082229924E114F10419F081EEFF
:104420000E94E911C114D10419F086EE0E94E9112D
:10443000872D0E94DF14CD2819F086EE0E94B0115E
:10444000EF2819F081EE0E94B011892809F47ECF7F
:104450008CE262CF81E00E948C1103C081E00E9457
:1044600080112F960FB6F894DEBF0FBECDBFDF913F
:10447000CF911F910F91FF90EF90DF90CF90BF9061
:10448000AF909F908F907F906F905F900C9475117C
:1044900082E0E1CF882309F4A9C060E080E00E94B7
:1044A000E60D20E04FEF6FEF90E080E00E948B0D73
:1044B000C801845F9109059708F0ECC085E0EAEE39
:1044C000F2E0DE01119601900D928A95E1F785E008
:1044D000FE013196DE011B9601900D928A95E1F75F
:1044E00029813CE0300F81E090E001C0880F3A95CF
:1044F000EAF7F7013281332309F4C9C0822B8B8795
:1045000085E0FE013B96DE01169601900D928A959C
:10451000E1F785E0FE013696AAEEB2E001900D9239
:104520008A95E1F70E942118F7019281992309F4F5
:1045300020C41092BB030330FDE51F0708F0F8C04C
:104540000A3F2CE5120738F4980122503C452431EB
:10455000310508F0F2C00E9436169093C402809391
:10456000C30200314CE5140709F4CDC108F045C180
:1045700008309CE5190709F4B4C108F019C10430EA
:10458000FCE51F0709F49BC108F002C102303CE5BD
:10459000130709F48EC18091C302826003301C4569
:1045A00009F48AC16091C3021091C40284E090E0D2
:1045B0000E941E34612F82E290E00E941E342F96EA
:1045C0000FB6F894DEBF0FBECDBFDF91CF911F9124
:1045D0000F91FF90EF90DF90CF90BF90AF909F90A2
:1045E0008F907F906F905F900C94101A0E94101A19
:1045F0003FEF44E38CE0315040408040E1F700C0A1
:1046000000000E94C912882309F452CF0E943E1272
:1046100091E089270E94A31E4BCF882309F448CF3D
:104620000E943E12F7CF882309F442CF0E943E1227
:1046300091E089270E942C1F3BCF882309F438CFB3
:104640000E943E12F7CF9091BD0380FB97F99093A3
:10465000BD030E94D10E2CCF882309F429CF90915D
:10466000BD03892F97FB87F980588093BD03F1CF55
:104670009091BD0380FB96F9EACF882309F418CF07
:104680009091BD03892F8F7B96FF8064EECF80953C
:10469000822335CF033FFCE51F07D9F188F4083D9D
:1046A0003CE5130791F1093D4CE51407F1F1073D95
:1046B0008CE5180709F038CF26E241EE61EE0DC017
:1046C000053F9CE5190769F140F127E245EE66EEEA
:1046D000063FFCE51F0709F027CFC7012F960FB64D
:1046E000F894DEBF0FBECDBFDF91CF911F910F9128
:1046F000FF90EF90DF90CF90BF90AF909F908F9002
:104700007F906F905F900C94972027E245EE65EEC6
:10471000E4CF26E241EE60EEE0CF27E245EE64EE24
:10472000DCCF26E241EE62EED8CF28E241E0EFCFC7
:1047300001363DE5130709F40ECF0631FCE51F07EE
:1047400009F0AFC3809189028A7A91E009F490E080
:1047500090933F0269E2811165E386E392E00E9453
:10476000240D2F960FB6F894DEBF0FBECDBFDF919C
:10477000CF911F910F91FF90EF90DF90CF90BF905E
:10478000AF909F908F907F906F905F900C94BB1034
:1047900006308CE5180709F4A0C08091C302886038
:1047A00007301C4508F488C08091C302806284C031
:1047B0008091C3028D7F0C30ECE51E0709F47CC0AC
:1047C00070F48091C3028C600A302CE5120709F462
:1047D00073C008F48AC08091C3028E7F6DC080913F
:1047E000C302877F0E304CE5140709F465C008F456
:1047F00082C08091C3028F7E5FC00C3F9CE5190789
:1048000009F47DC068F50431FCE51F0709F48FC089
:1048100080F402313CE5130709F479C08091C302AA
:104820008F7B03311C4508F447C08091C302837F0E
:1048300043C00A3F8CE5180709F445C008F049C099
:1048400005311C4509F0AECE8091C30282FB992749
:1048500090F921E0922790FB82F990FB83F92CC01C
:104860000115FDE51F0709F458C088F48091C402C2
:1048700083600E3F3CE5130749F18091C4028D7FB0
:104880000F3F1C4518F18091C4028C7F1FC002307D
:104890008DE5180709F45AC008F452C001361D45C9
:1048A00009F080CE9091C302892F8F7E94FF8061A2
:1048B00003C08091C30281608093C30273CE809154
:1048C000C3028460F9CF8091C40281608093C402E6
:1048D00069CE8091C4028260F9CF8091C302806169
:1048E000EBCF8091C3028064E7CF0E94101A8091C1
:1048F000C3028068E1CF8091C3028B7FDDCF8091BE
:10490000C4028E7FE3CF8091C3028F7DD5CF0E94FA
:10491000101A8091C3028F77CFCF8091C402982F55
:10492000909591708E7F892B90FB81F9CFCF0E945B
:10493000101A9091C302892F97FB87F98058BCCF3A
:1049400061E08EE090E00E941E342CCE60E0F9CF52
:1049500080913F0281110FC089E2E8E3F2E02EE38B
:1049600032E09191891303C0DF0111971C922E1739
:104970003F07B9F7F6CE85E3F0CF8091250391E0AC
:10498000892780932503109251018091240381602F
:104990008093240353CC4FEF5DE069E07EE02F96D7
:1049A0000FB6F894DEBF0FBECDBFDF91CF911F9140
:1049B0000F91FF90EF90DF90CF90BF90AF909F90BE
:1049C0008F907F906F905F900C946A0D49E05EE04D
:1049D0006FEF7DE0E4CF42ED5DE06CED7DE0DFCF99
:1049E0004CED5DE062ED7DE0DACF48EB5DE065EC3B
:1049F0007DE0D5CF45EC5DE068EB7DE0D0CF4BEAC4
:104A00005DE06EE97DE0CBCF4DE75DE06FE67DE0F8
:104A1000C6CF0E94101A2FEF34E34CE021503040F3
:104A20004040E1F7ECCDC8010E94FC10D82ECFC168
:104A3000092F0F70907F11F00295007F812F2223A4
:104A4000C9F0002369F090E2910F983010F0111135
:104A50000BC080918902082B009389020E94BB1031
:104A6000812F0E94E91117C080918802082B0093C2
:104A70008802F4CF0E94B011002369F00095105E07
:104A8000183010F0D11026C08091890208230093BD
:104A900089020E94BB1048E0E41AF10884E0E8169D
:104AA000F10408F0CBCB2F960FB6F894DEBF0FBE03
:104AB000CDBFDF91CF911F910F91FF90EF90DF90CD
:104AC000CF90BF90AF909F908F907F906F905F90AE
:104AD0000C947B1380918802082300938802D9CF1D
:104AE000892F8F70907F903211F08295807FF1E056
:104AF000DF120CC0222329F0363068F60E94A6117E
:104B0000CACF353040F60E949B11C5CF222319F041
:104B10003323A1F3A5CF3323B1F3193349F42FEF96
:104B200037EE43E0215030404040E1F700C0000044
:104B3000812F0E94B011AFCF892F86958695837003
:104B400061F0813009F0A7CF812F9370211102C04D
:104B500090E080E00E943E0D9ECF812F9370211146
:104B600002C090E080E00E94540D95CF892F8370A1
:104B7000A1F5211190CF812F829586958770880F9E
:104B8000880F412F4F70082E01C0440F0A94EAF796
:104B9000212F207114FF07C02FE030E001C0220F49
:104BA0008A95EAF72095969596959370923081F0C4
:104BB000822F842B933030F480918A02913029F037
:104BC000242B82230E94971166CF842B822BFACF4D
:104BD000242B80918A028227F5CF8695222311F01B
:104BE000892F8170882309F456CF812F829586956D
:104BF0008770880F880F412F4F70082E01C0440F17
:104C00000A94EAF7212F207114FF07C02FE030E04B
:104C100001C0220F8A95EAF7209596959695937094
:104C2000923081F0822F842B933030F48091BC033A
:104C3000913029F0242B82230E9461112CCF842BE8
:104C4000822BFACF242B8091BC038227F5CF092F2A
:104C50000F70222329F0802F0E948C11812F4ECFBC
:104C6000812F0E949B11802F0E94801114CF812FD1
:104C7000E1EF1E1789F1E11750F0F0EF1F17B9F0BF
:104C80002223B1F13111ECCE892F8F7129C042EF6F
:104C9000141749F1E3EF1E13F3CF80E0222361F2F2
:104CA0009F7181E001C0880F9A95EAF7C5CF222352
:104CB00079F0353008F0EFCE292F2F7181E090E0A8
:104CC00001C0880F2A95EAF79091BC038927B4CFD9
:104CD000363008F0E0CEF0CF892F8F71222321F2F9
:104CE0000E948C11D8CE892F8F712223C9F3BCCF9B
:104CF000332359F0893309F01BCFFFEF27EE33E060
:104D0000F15020403040E1F711CF892F8F71ACCFA7
:104D100000319FE5190709F49DCB0131EFE51E072E
:104D200009F4B6CBF801E058FF45E930F10508F089
:104D3000BFCBEE58FB4C0C94CE330031FFE51F0780
:104D400009F48CCB01312FE5120761F782E087CBA4
:104D500085E0DE01119601900D928A95E1F7F70149
:104D6000228189819A8121117FCA0E94FC10182F0B
:104D700083CA0631FCE51F0709F4EACD8091890258
:104D800082720A3C2CE5120709F439CE08F04EC0B5
:104D9000053C4CE5140709F41ECE98F5033CFCE5F0
:104DA0001F0709F4F8CD08F011CE023C1C4509F4A8
:104DB000E4CDF70100811181992309F434CEC801B3
:104DC0000E94BB15D82E682FC8010E942511B8017A
:104DD0008D2D0E94AE150E94530F182FD82EF7016B
:104DE0002281358132953F70892F82958F70E82E10
:104DF000F12C8C3008F04FCEF701E558FB4C0C94A9
:104E0000CE33073C4CE5140709F4EFCD08F4E8CDA8
:104E1000083CFCE51F0709F4EDCD4EE95DE06BEAC7
:104E20007DE0093C1C4509F4BACDC3CF0E3C3CE5FE
:104E3000130709F403CA30F50C3C9CE5190709F483
:104E4000E3CD4FE65DE06DE77DE00D3C1C4508F4E9
:104E5000A6CD61E081E02F960FB6F894DEBF0FBEBD
:104E6000CDBFDF91CF911F910F91FF90EF90DF9019
:104E7000CF90BF90AF909F908F907F906F905F90FA
:104E80000C94E60D063DFCE51F0730F461E082E07E
:104E9000003D1C4500F3D2C90D351D4509F4CEC9AE
:104EA00088CF01154CE5140709F4B3CD0E3D1C4520
:104EB00009F07FCF2F960FB6F894DEBF0FBECDBF9F
:104EC000DF91CF911F910F91FF90EF90DF90CF90E6
:104ED000BF90AF909F908F907F906F905F900C9459
:104EE000BE1E1F93CF93DF9380915402807FA9F45D
:104EF00080915102882389F080918602D0915502D9
:104F000060914F0270915002A0915202B0915302F1
:104F1000C62FC72316E0D81304C0DF91CF911F918D
:104F2000089590E0109711F0CF3F19F40196877023
:104F3000F2CF189F9001199F300D1124F901EA5A00
:104F4000FD4F41814713F2CF40814613EFCF42819D
:104F50004111ECCF438154814A1B5B0B483C510506
:104F600028F7809154028F70806180935402F90178
:104F7000E55AFD4F80818F70806180838FE492E0DD
:104F80000E94FB20DF91CF911F910C94F2108F9221
:104F90009F92AF92BF92CF92DF92EF92FF920F93C8
:104FA0001F93CF93DF93CDB7DEB761970FB6F89419
:104FB000DEBF0FBECDBF8C0185E0F801DE011D967E
:104FC00001900D928A95E1F7D8011296EC90129714
:104FD0008FE4882E82E0982E409152025091530225
:104FE0004115510509F431C190914F0220915002B1
:104FF000892F82238F3F09F428C1DC901196CC9031
:1050000011971396AD90BC901497F0905102F50152
:10501000E41BF50BFF2009F4F9C080915402382FEE
:10502000307FE83CF10508F0C5C0311185C0FE2C89
:105030002C1124C09D1122C0E11020C08F7080610E
:1050400080935402C4010E94FB2080915402D80135
:1050500015968C938F2D61960FB6F894DEBF0FBE18
:10506000CDBFDF91CF911F910F91FF90EF90DF9017
:10507000CF90BF90AF909F908F900895A114B104EE
:1050800029F08D2D8C218F3F09F0FDC080E080FF3D
:1050900014C04E2D6C2D8D2D0E94D210882369F0E6
:1050A0008FE492E00E94FB2086E0EFE4F2E0DF0173
:1050B0001D928A95E9F7F12CCDCFAB2829F08D2DE3
:1050C0008C218F3F09F0DCC080E0B82FB170AB2E8F
:1050D00080FF29C04E2D6C2D8D2D0E94D210B82E30
:1050E000811121C0DD86CE868D859E850E94EA15C0
:1050F000292F22952F70223050F0243078F49F70A1
:1051000051F0F8019581907F31F4FB2CA3CF9F7073
:1051100011F08823D1F3805E8830B8F3C8010E9473
:10512000FB20BA2CF2CFEE2009F494CF80915402E8
:10513000816080935402BFCF2C1112C09D1110C00A
:10514000E1100EC015968C93C8010E94FB2086E0EA
:10515000F801AFE4B2E001900D928A95E1F77ACFC1
:10516000C8010E94F615882309F1EE20F9F080911C
:105170005402803270F020914F02309150023887F3
:105180002F831986BB86AA868C87CE0107960E943C
:10519000FB2086E0F801AFE4B2E001900D928A9521
:1051A000E1F70E947127FF24F39454CFC8010E94B5
:1051B000FB20F9CF332309F473CF2C110FC09D11BD
:1051C0000DC0E1100BC0F8018583C8010E94FB20CF
:1051D00086E0D4011D928A95E9F73CCFC8010E9470
:1051E000F615882319F3EE2009F3809154028032DA
:1051F00080F220914F02309150023A8329831B8222
:10520000BD82AC828E83CE010196C1CFE83CF10510
:10521000B0F4FE2CEE2051F22C1103C09D1509F4C0
:1052200096CFC8010E94F6158111B3CF8091540228
:10523000816080935402C8010E94FB200BCF86E05E
:10524000F40111928A95E9F705CFEE2009F4AECF6B
:10525000C8010E94F615F82E882309F4A7CF86E02E
:10526000F801AFE4B2E001900D928A95E1F78091E8
:105270004F02909150020E94EA150E947127EACED7
:1052800081E08E2522CF81E08E2501CF1F93CF9321
:10529000DF93CDB7DEB767970FB6F894DEBF0FBECA
:1052A000CDBF4B8B5C8B6D8B7E8B8F8B6111109286
:1052B00088021A8A198A85E0FE017396DE011D961E
:1052C00001900D928A95E1F786E0FE013D96DE01A0
:1052D000179601900D928A95E1F7CE0107960E94EC
:1052E000C727882389F016E08091860290915502A5
:1052F000891349C067960FB6F894DEBF0FBECDBFC5
:10530000DF91CF911F91089586E0FE013796DE016F
:10531000119601900D928A95E1F78A859B85892BDC
:1053200011F38F81988589238F3FE9F220915502EF
:1053300030E0C9010196877099274091860248178D
:10534000190671F40E94101A1092550210928602EA
:1053500086E0EFE4F2E0DF011D928A95E9F7C3CF22
:1053600096E0929FD001939FB00D1124AA5ABD4F91
:10537000FE01319601900D929A95E1F780935502C6
:105380000E94F210B0CF819FC00111248A5A9D4F14
:105390000E94C727882309F4ADCF8091860290E050
:1053A000019687709927809386029ECF8F929F9255
:1053B000AF92BF92CF92DF92EF92FF920F931F9323
:1053C000CF93DF93CDB7DEB72A970FB6F894DEBF41
:1053D0000FBECDBF4E83052F5F83162F6887798759
:1053E0008A878091F102811107C060E080E50E9408
:1053F0003D1781E08093F1020E941A1780E50E9418
:105400002A318AEB8A95F1F700C00E944231B82E0A
:1054100080E00E942A310E9442317C010E94423188
:10542000982E0E9442316C010E944231A82E0E94A7
:105430005A318B2D8870882E0E945A318B2D87709F
:1054400011F01092F10281102DC0B7FE2BC0809197
:10545000EF029091F002892B31F40E948B209093FF
:10546000F0028093EF02F92801E880E8E816F104E1
:105470004CF4002711270E191F090038110514F0EC
:105480000FE710E0DA2811E880E8C816D10454F4D8
:10549000882799278C199D098038910514F08FE78A
:1054A00090E0182F0F83188785E0FE013696DE0105
:1054B000119601900D928A95E1F729813A814B81ED
:1054C0005C816D8170E080E090E02A960FB6F894E0
:1054D000DEBF0FBECDBFDF91CF911F910F91FF9027
:1054E000EF90DF90CF90BF90AF909F908F900895F6
:1054F0007F928F929F92AF92BF92CF92DF92EF9264
:10550000FF920F931F93CF93DF93CDB7DEB72C9706
:105510000FB6F894DEBF0FBECDBF8E010F5F1F4FD9
:1055200088E0D8011D928A95E9F787E3C82E81E0CB
:10553000D82EF12CE12CAA24A394B12C27E3822E9F
:1055400021E0922EF60181916F018F3F09F443C053
:10555000F894E82FE295EF70F0E021A18F70A5019B
:1055600002C0440F551F8A95E2F7CA01922F982B6B
:1055700091A392A18095892382A30E94F70E00C077
:10558000E2E3F1E0712C31E021912F3F09F47DC07D
:10559000A22FA295AF70B0E090968C9190E02F7002
:1055A00002C0959587952A95E2F780FD6EC0832FFE
:1055B000782A330F8E169F0639F7F60131978081CE
:1055C0008F3F11F00E94F90E50EA5A95F1F7F80159
:1055D000EE0DFF1D70828FEFE81AF80AA4E0EA16BC
:1055E000F10409F0AFCF48E050E0B80185EC92E05B
:1055F0000E9442347C01892B41F088E0F801A5EC3F
:10560000B2E001900D928A95E1F71091CE02E1147B
:10561000F104E9F181E080938D020E948B20909348
:105620008C0280938B0280918B0290918C020E945D
:10563000090D059790F0E12FF0E0E752FD4F8091C2
:10564000C50280838091C60281838091C7028283D4
:105650008091C802838310928D0281E090E0EF2850
:10566000D1F02C960FB6F894DEBF0FBECDBFDF9100
:10567000CF911F910F91FF90EF90DF90CF90BF904F
:10568000AF909F908F907F90089580E091CF809110
:105690008D028111C8CF0E945813F82EE091CE02DE
:1056A000882309F483C019861A861B861C860E2F50
:1056B00010E007521D4F8091BE028A3008F03FC0B3
:1056C00043E45DE1BE01675F7F4FC8010E94141390
:1056D000882309F444C04CE75EE1BE01675F7F4F59
:1056E000C8010E9414138823D1F14AEE5CE1BE0187
:1056F000675F7F4FC8010E941413882381F145E43E
:105700005EE1BE01675F7F4FC8010E9414138823CA
:1057100031F11092BE028091CD0290E044E050E061
:10572000BE01675F7F4F87529D4F0E94423421E048
:1057300020939402892B61F5F12C8F2D92CF8091CB
:105740008E0290918F020E94090D843F914008F0D3
:10575000B7CF80919402811112C080E082CF8091F6
:10576000BE028F3F29F08F5F8093BE028A3098F28D
:105770000E948B2090938F0280938E02EACFFE01CD
:10578000399684E0DF011D928A95E9F71092940220
:10579000E091CD02F0E0E752FD4F89859A85AB8517
:1057A000BC8580839183A283B383C7CFF0E0E752A7
:1057B000FD4F0091CD0210E007521D4FF89484E098
:1057C000A3EAB2E001900D928A95E1F783EA92E0B4
:1057D0000E94640B8093A2020E94F70EF89484E06A
:1057E000E7EAF2E0D80101900D928A95E1F70E9474
:1057F000F70EF894C090AB02D090AC02E090AD02EE
:10580000F090AE028091900290919102A09192024C
:10581000B0919302C816D906EA06FB06D1F0C092F1
:105820009002D0929102E0929202F09293020E9432
:10583000581381110EC00E94180DC61AD70AE80A23
:10584000F90AC092BF02D092C002E092C102F09267
:10585000C2020E94F70EF89486E0EFEAF2E0A5E2B9
:10586000B3E001900D928A95E1F71091B5021123F2
:1058700049F080912303811105C00E94B91380E093
:105880000E94140E109323030E94F70E66CF1F92FE
:105890001FB61F9211248F939F93AF93BF93809154
:1058A0009A03811113C080919B0390919C03A09156
:1058B0009D03B0919E034196A11DB11D80939B0352
:1058C00090939C03A0939D03B0939E03BF91AF91CF
:1058D0009F918F911F901FBE1F901895CDB7DEB777
:1058E000AA970FB6F894DEBF0FBECDBF84B7877FEF
:1058F00084BF0FB6F894A89580916000886180936A
:105900006000109260000FBE80E890E00FB6F8943F
:1059100080936100909361000FBE85B7806885BF5A
:1059200085B7806885BF85EF9EE0909335028093B0
:1059300034020E947B0B0E94460C8091E20084603E
:105940008093E20078948091AF038823A1F01091B6
:10595000E9001F709091EC00892F817090FD80E824
:10596000182B1092E9008091E80083FD0E941B1A19
:105970001F701093E90082E084BD93E095BD9AEF1B
:1059800097BD80936E001092BF021092C0021092D9
:10599000C1021092C2020E941D16811102C00E9413
:1059A00079150E948B1380933F010E945813811137
:1059B0000E94E53180913F0181112FC01D821E821E
:1059C0001F82188680EF898386E68A8384E98B8329
:1059D00085E38C83FE013196A7E3B1E0CE01099601
:1059E00021912D93E817F907D9F785E0E7E5F1E074
:1059F000DE01919601900D928A95E1F789A180933D
:105A000032018AA1809333018BA1809334018CA150
:105A1000809335018DA18093360180913F0194E000
:105A2000811190E09093CE0284E0891B8093CD0297
:105A300007E311E0D8018D918D018F3F11F00E9495
:105A4000F90EB1E00B331B07A9F702E311E0F801EF
:105A500081918F018F3F11F00E94F90EF1E0073321
:105A60001F07A9F788E0E9EDF2E0DF01282F1D927A
:105A70002A95E9F7E5ECF2E0DF011D928A95E9F756
:105A80000E94981E811102C00E94BE1E82E090E01A
:105A90000E94FA338093D0020E9436169093C4027B
:105AA0008093C3020E94782AEFE3FCE93197F1F773
:105AB00000C000000E94782A0E948B1325E0E6E0D7
:105AC000882311F020E0E0E0F0E0E752FD4F808114
:105AD00090E002C0959587952A95E2F780FF08C06F
