:100000000C94020A0C943A0A0C943A0A0C94782E36
:100010000C943A0A0C943A0A0C943A0A0C943A0A50
:100020000C943A0A0C943A0A0C94911D0C944D1DB0
:100030000C94222A0C943A0A0C943A0A0C943A0A28
:100040000C943A0A0C943A0A0C943A0A0C943A0A20
:100050000C943A0A0C946A1E0C943A0A0C943A0ACC
:100060000C943A0A0C943A0A0C943A0A0C943A0A00
:100070000C943A0A0C943A0A0C943A0A0C943A0AF0
:100080000C943A0A0C943A0A0C943A0A0C943A0AE0
:100090000C943A0A0C943A0A0C943A0A0C943A0AD0
:1000A0000C943A0A0C943A0A0C943A0A0501098015
:1000B000A101850319012AB700150126B700950192
:1000C00075108100C0050C0901A101850419012AE0
:1000D000A002150126A002950175108100C005013E
:1000E0000902A1010901A10005091901290815004A
:1000F0002501950875018102050109300931158135
:10010000257F95027508810609381581257F95019F
:1001100075088106050C0A38021581257F95017541
:10012000088106C0C005010906A101050719E029DB
:10013000E715002501950875018102950175088173
:10014000010507190029FF150026FF00950675080F
:100150008100050819012905950575019102950190
:1001600075039101C014001A00080015001700045F
:10017000001600070009000A001D001B00060019F8
:10018000000500015100002A612C620000130012DA
:10019000000C0018001C0033000F000E000D000BB7
:1001A000003800370036001000110002510000280E
:1001B0006800000000C35CAB00AE00AC000000E3D0
:1001C00000E200E000E1000000000000000000DFAD
:1001D0005C005C0100000000000000000030002610
:1001E00000250024002F0056002300220021005784
:1001F00000540020001F001E0055000000000001F8
:10020000000000000000000000000000000000509E
:1002100000520051004F0000004A004B004E004DBC
:10022000000000000000000100010000000000AA22
:1002300000A800A9000000E700E600E400E50000D7
:1002400000000000000000DF5C005C010000000016
:10025000000000000001048E966E773EFE7E5F1D5A
:10026000B8F2664EFF5D19B0C20469542AD62EBF9B
:10027000DD19B0C3E529B1E023A5A9B1C1008267AA
:100280004C1A978D795120C7068E7C7C7A764FFD6B
:100290005930E2460E9EBEDF1D9991A0A5A1A9D0BE
:1002A00022C6EF5C1B958990A2A7CCFB5528B3E42E
:1002B0004AF76C3BF46A562EDE1F9DB8D305889230
:1002C000A6CE1EBEDF1D99B0E246EF5C07115D9819
:1002D0000B9D9497EE4E45336B44C729562730C685
:1002E000A7D5F256DFB43862CBA0B6E30F8406245C
:1002F00005656F7689B577412782666582CCD5E63C
:1003000020D52717C5F803237C5F64A51DC1D63609
:10031000CB4CD4DB66D78BB1997E6F4C364006D67A
:10032000EBD7A2E4F495515A5496D55344D78CE0B8
:10033000B94068D218E9DD9A239248EE7F43AFEACC
:100340007738848C0A72AF69F8DDF12483A3F84A08
:10035000BFF59413DBBBD8B4B3A0FB455060305954
:10036000123171A2D313E7FAE7CE0F63150B6B942A
:10037000BB378326059DFB4692FC0A15D10D73926F
:10038000D68C1B8CB8558ACEBDFE8EFCED0912832F
:100390009182513123FBB40C76AD7CD9B44BB2675A
:1003A00014099C7F0C18BA3BD68E142AE41B529F6A
:1003B0002B7DE1FB6A3302FAAC5AF23E887EAED165
:1003C000F378E805D1E3DC21F6E19ABD170ED946B2
:1003D0009B8803EAF666BE0E1B5049964097F1F1E2
:1003E000E480A66EE87734BF294044C2FF4E98D31C
:1003F0009CA3322B76510409E7A9D1A632B123532D
:10040000E247ABD6F5695C3E5FFAAE4520E5D244E3
:10041000FF39326DFD27575CFDF0DEC1B599E5F57A
:100420001C770175C56D5892F2B247000126967A85
:1004300030FFB7F0EF77C18A5DDCC0D129301E777D
:10044000387A94F1B87A7EEFA4D1AC314AF25D6487
:100450003DB2E2F00899FC70EE24A77EEE1E206902
:100460007D44BF8742DF883B0CDA42C904F945501E
:10047000FC838F116A72BC9995F0AC3DA73BCD1CF3
:10048000E2887937115F3989950A16847AF68AA449
:1004900028E4ED83803BB123A50310F466EABB0C8E
:1004A0000FC5EC6C69C5D324ABD42AB799887608FC
:1004B000A0A8957CD8386DCD5902514BF1B52B5081
:1004C000E3B6BDD072CF9EFD6EBB44C8248A7718B8
:1004D0008A1306EF977DFA81F031E6FA77ED31065F
:1004E000315B548A9F3068DBE240F84E73FAAB749C
:1004F0008B105813DCD2E678D1322E8A9F2C580606
:100500004827C5A95E8147894621910370A43E888A
:100510009CDA330ACEBC8B8ECF9FD3718043CF6BD6
:10052000A95183763082C56A853911501A82DC1E42
:100530001CD57DA9719933471997B35AB1DFEDA442
:10054000F2E62684A2289A9EDFA66AF4D6FC2E5BE9
:100550009D1A2A2768FBC183214B90E036DD5B3171
:100560004255A013F7D089537199570929C5F32132
:10057000F8372F40F3D4AF16083602FC77C58B044A
:100580009056B9C9679A99E800D386FF972D08E974
:10059000B7B391BCDF45C6ED0F8C4C1EE65B6E38E1
:1005A00030E4AAE395DEB9E49AF5B2559A879BF652
:1005B0006AB2F2779A31F47A31D11D04C07C32A24A
:1005C0009E9AF562F8278DBF51FFD3DF64373F2A2B
:1005D0006F763A7D77069E777F5EEB3251F916662D
:1005E0009A09F3B008A470964630FFDA4FE91BED84
:1005F0008DF8741F3192B3731736DB9130D688555E
:100600006B3477877AE7EE06C61C8C190C484623B4
:100610005E9C075CBFB47ED64F749CE2C5508BC510
:100620008B159060625729D01343A18088910044B4
:10063000C74D1986CC2F2A755AFCEB972A70E378A0
:10064000D891B04F9907A395EA2421D5DE51209384
:10065000270A3073A8FF8A97E9A76A8E0DE8F0DFB2
:10066000ECEAB46C1D392A622D3D5A8B65F8900571
:100670002E7E912C78EF8E7AC12FAC78EEAF284584
:10068000064C26AF3BA2DBA39306B53CA5D8EE8F64
:10069000AF25CC3F856848A962CC978F7F2AEAE0D6
:1006A000150AAD6207BD45F841D836CB4CDB6EE686
:1006B0003AE7DA15E9291E1210A0142C0E3DF4BFFA
:1006C000394192750B257BA3CE399C1564C8FA3D40
:1006D000EF7327FE262ECEDA6EFD718EDDFE76EEEE
:1006E000DC125C02C53A4E4E4FBFCA4015C76E8D34
:1006F00041F110E04F7E977F1CAE478E6BB12531E4
:10070000B073C71B9779F980D366223007741EE453
:10071000D08021D6EE6B6C4FBFF5B7D909872FA9D2
:1007200014BE27D9725001D41373A6A751027525A0
:10073000E1B345347DA88EEBF31649CB4F8CA1B9BC
:10074000368539755D0800AEEBF6EAD7133A215AC3
:100750005F3084522695C914F257556BB110C2E12F
:10076000BD3B51C0B7554C711226C70DF951A43885
:1007700002057FB8F1724BBF718914F37738D971D4
:1007800024F30011A1D8D46927083735C9119D90E9
:100790001C0EE71CFF2D1EE892E11810957CE080EE
:1007A000F4964321F975216438DD9F1E9516DA56BB
:1007B0001D4F9A53B2E2E418CB6B1A65EB56C63B59
:1007C000E5FED8263F3A84597266A2F375FFFB60B6
:1007D000B322AD3F2D6BF9EBEA057CD88F6D2C98D9
:1007E0009E2B93F15E46F08749297368D77FF9F015
:1007F000E57DDB1D7519F3C4589B1788A892E0BEF0
:10080000BD8B1D8D9F5676ADAF29E2D9D552F6B579
:100810005635573AC8E156431994D3049B6D35D8E1
:100820000B5F4D198EECFA64910A72202BBC1A4AA8
:10083000FE8BFDBBED1B23EAAD7282A1299971BD30
:10084000F095C103DD7BC2B23C2854D368A472C8C2
:100850006696E0D1D87FF8D1262BF7ADBA55CA15E8
:10086000B932C3E588978E5CFB92258BBFA24555B4
:100870007AA76F8B575BCF0ECB1DFB208277A88C9E
:10088000CC16CE1DFADECC0B62FECCE1B7F0C381F4
:10089000647340A0C24D8911753355338DE84AFD0C
:1008A000EA6E300BD7312CDE47E3BFF85542E27FCA
:1008B00059E517EF99346991B1238E20872DA8FE51
:1008C000D58AF3843AF037E4090054EE674993E49B
:1008D0008170E3904DEFFE41B7997BC183BA6212FC
:1008E0006F7DDE6BAFDA16F95551EEA60C2B02A325
:1008F000FD8DFB3017E46FDF3671C4CA872548B021
:1009000047ECEAB4BFA54D9B9F0293C4E3E4E842E1
:100910002D6881150AEB845BD6A874FB7D1DCB2C5A
:10092000DA462A7662CEBC5C9E8BE7CFBE78F57C39
:10093000EBB33A9CAA6FCC72D159F21123D63F483F
:10094000D1B7CEB0BFCBEA80DE57D45E972F75D13A
:10095000508E802C6679BF724BBD8A816CD3E101C9
:10096000DCD21526C536DA2C1AC02794EDB79B8544
:100970000B5E8097C5EC4FEC885D50073547DC0B6C
:100980003B3DDD60AFA85D813824255D5C15D1DE7F
:10099000B3ABEC0569EF83ED5754B86464111632BC
:1009A00069DA9F2D7F36BB445A34E87FBF03EB00E2
:1009B0007F59682279CF736C2C29A7A15F38A11DBC
:1009C000F02053E01A6314587110AA080C3E161A4E
:1009D0006022827FBAA443A0D0AC1BD56B64B5144F
:1009E00093319E5350D05766EE5A4FFB032A6958F5
:1009F00076F183F74EBA8C4206605D6DCE6088AEAC
:100A0000A4C3F103A54B98A1FF67E1ACA2B862D7DC
:100A10006FA031B4D277AF211006C69AFF1D091717
:100A20000E5FF1AA54344B458A8763A6DCF9243063
:100A300067C6B2D6613369EE50615728E77EEEECA7
:100A40003A5A734EA88DE418EAEC4164C8E2E866AD
:100A5000B62DB6FB6A6C16B3DD4643B973006A71F6
:100A6000ED4E9D251AC33C4A95159935811402D641
:100A7000989BECD8233B8429AF0C9983A69A344FDA
:100A8000FAE8D03C4BD0FBB668B89E8FCDF7602D0E
:100A90007A22E57DAB651B95A7A87FB677477B5F7C
:100AA0008B1272D0D491EFDE19503CA78BC4A9B33E
:100AB00023CB76E681F0C1048FA3B8545B97AC19C1
:100AC000FF3F55272FE01D429B57FC4B4E0FCE9802
:100AD000A9435703BDE7C894DF6E367332B4EF2ED7
:100AE000857A6EFC6C188275359007F3E49F3EDCC6
:100AF00068F3B5F31980920699A2E86FFF2E7FAED6
:100B000042A45FFBD40E812BC304FF2BB3744E367B
:100B10005B9C1500C6472BE88B3DF19C039A587FE0
:100B20009B9CBF854979352E567B411439478326D6
:100B3000AA078998111B86E7737AD87D786153E9F3
:100B400079F5368D449284F91350583BA46A366582
:100B5000498E3C0EF16FD284C47E8E3F39AE7C84C8
:100B6000F163378E3CCC3E448145F14BB9ED6B3699
:100B70005DBB20601A0FA3AA55773AA9AE374DBACC
:100B8000B8866BBC0850F6CCA4BD1D4072A586FA91
:100B9000E210AE3D584B97F34374A99EEB21B70189
:100BA000A4869397EE2F4F3B86A1416F4126907804
:100BB0005C7F30384B3FAAECED5C6F0EAD4387FD98
:100BC0009335E601EF412690999EFB195BADD291DA
:100BD0008AE046AF65FA4F84C1A12DCF458BD385FE
:100BE00050557CF96788D44EE9D76B6154A1A4A60F
:100BF000A2C2BF309C409F5FD7692B24825ED9D6AA
:100C0000A712541AF7559F7650A99584E66B6DB5D7
:100C10009654D6CDB3A19B46A7944DC494B498E303
:100C2000E1E234D533160754CDB77753DB4F4D4649
:100C30009DE9D49C8A36B6B838266C0EFF9C1B43BF
:100C40008B80CCB93DDAC7F18AF26DB8D7742F7EAC
:100C50001EB7D34AB4ACFC79486CBC96B6944657E0
:100C60002DB0A3FC1EB95260852D41D043011E1C3E
:100C7000D57DFCF3960DC7CB2A299A93DD882D37B5
:100C80005DAAFB4968A09C50867F685657F9791881
:100C900039D4E001843361CAA5D2D6E4C98A4A2393
:100CA000444EBCF0DC24A1A0C4E2073C10C4B5252E
:100CB0004B6563F480E7CF61B1718221872CF59198
:100CC00000320CECA9B59A7485E3368F764F9C6D93
:100CD000CEBCAD0A4BED7604CBC3B9339E019396DF
:100CE000697DC5A245799B045C8409ED8843C7AB47
:100CF000931426A140B5CE4EBF2A42853E2C3B54CC
:100D0000E8121F0E9759B22789FAF2DF8E6859DC74
:100D100006BCB6850D0622ECB1CBE504E63DB3B0CA
:100D20004173083F3C588663EB50EE1D2C3774A985
:100D3000D318A3476E9354AD0A5DB82A555D78F673
:100D4000EEBE8E3C7669B940C234EC2AB9ED7E2005
:100D5000E48D0038C7E68F44A886CEEB2AE990F1EF
:100D60004CDF32FB731B6D921E95FEB4DB65DF4DCD
:100D700023548948BF4A2E70D6D762B43329B13A7A
:100D8000334C236DA676A5216348E6905DED9095E2
:100D90000B7A84BEB80D5E630C62264C145AB3AC59
:100DA00023A474A76F333005600142A028B7EE1961
:100DB00038F164808243E141271F1F90547AD52384
:100DC0002ED13DCB28BA587FDC7C9124E928518371
:100DD0006EC5562142EDA05622A140806BA8F79423
:100DE000CA136B0C39D9FDE9F36FA69EFC708AB368
:100DF000BC593C1E1D6CF97CAFF9887195EB57000E
:100E0000BD9F8C4FE12483C522EAFDD30CE2171865
:100E10007C6A4CDE77B4539B4C81CD2360AA0E25AF
:100E2000739C02793230DF74DF7519F4A5145CF716
:100E30007AA8A591847C6003063BCD50B6279CFE22
:100E4000B1DDCCD3B05924B2CAE21C81229D078FF8
:100E50008EB9BE4EFAFC3965BABF9D12375E977ED9
:100E6000F389F55DF5E3098C62B5209D0C538A6822
:100E70001BD28F75175DD4E5DA756219146A262DB9
:100E8000EBF8AF37F06CA455B1BCE233C09ACAB0EE
:100E900011494F689B3B6B3CCC13F6C78561684298
:100EA000AEBBDDCD4516291DEADBC803943CEE4FF1
:100EB0008211C3EC28BD970599DED7BB5E221FD4F3
:100EC000EB64D992D985B76A056AE42441F1CDF083
:100ED000D83FF89E0ECD0B7A706B5A750A6A33882C
:100EE000EC17750870102F24CFC4E942006194CA32
:100EF0001F3A7606FAD24881F077600345D961F44B
:100F0000A46F3DD930C3046B542AB7EC3BF44BF5C6
:100F1000685226CEFF5D1991A0A3A5A9B1E023C414
:100F20000A774DF95120A3A5A9B1C10082868E7F11
:100F30005D1991A0A3C4EB540B756852078C9A9766
:100F40008D79706246EF5C1B95897141E121A1A109
:100F5000A1C002674C1AB6CFFD785324ABB5C9F1D6
:100F60006023A5C812876D5813858892876D583203
:100F7000C70C9A97ACDA36EE5E3EDF1DB8F2662FEC
:100F8000BDF87247ED5813858892878C7B55099080
:100F9000A2C6EF3DF85324ABD42AB7EC5A36EE5E26
:100FA0003EDF3CFA764FFD5930E246EF3DF85305FF
:100FB0006931C10082868E7F5D19B0E227CCFB7457
:100FC0004B148B948B756833C50892878C9AB6CF77
:100FD0001CBAD70D98B2E62FDC1B9589716023C42B
:100FE0000A968F9CBAF66E3FFC5B15A8D226AFBD61
:100FF000F872662FDC1BB4CB148B94AAB7CDF951D1
:10100000018082866F3DD930E227CCFB744B14AA55
:10101000B7CDF97043046B35C9F16023A5C8F3451A
:101020000892876D5832E62FBDF872664E1EBEFEDE
:101030007E7E7E5F1D9991A0A3C40A774D1893A46C
:10104000ABD40B754910A2C6EF3DF85324ABB5E8FD
:1010500033E44A16AEDE1FBCDB15A8B3C5087345E2
:10106000E931C1E121A1A1A1C002866F5C3AD70D8F
:101070009893A4CA16AEDE1F9D99B0E246EF3DF8E4
:1010800072470C9AB6CFFD5911A0A3A5C8F3450825
:1010900092876D39F043048A96AEDE3EDF1D99914A
:1010A000A0C2066F3DF872470C9A978D9893858879
:1010B0007345E931E023A5A9D003848A96AEDE1FEB
:1010C000BCDB15A8D226CEFF5D1991818082672DE9
:1010D000D813A4ABD40B94AAB7CDF95120A3A5C8BB
:1010E000F345E95022C6EF5C3AD70D989385887393
:1010F000644AF74DF95120A3C40A96AEDE3EFE7E47
:101100007E7E5F3CFA764FFD7872662FBDD930C384
:10111000E54812878C7B5528D2078C9A97ACDA1752
:101120008D795120A3C4EB540B948B94AAD62EBF77
:10113000FC5B15A8D226AFDC1BB4EA37EC3BF46AA3
:1011400037CD1893856931C1E140E325C812878CFA
:101150009AB6CFFD5911A0C2068E7F5D38F2470CBA
:101160007B746A37EC5A36EE3FFC7A764F1C9B95BF
:10117000897141006344EB542AD60F9CBAD70D986D
:1011800093856931C10082868E9EBEDF3CFA572C62
:10119000DA36EE3FFC5B158971410082868E7F5DF9
:1011A00038F247ED5813A4CAF74DF9510180634452
:1011B000EB542AD62EBFDD1991A0A3A5A9B1E04218
:1011C000068E7F5D1991A0A3C40A968F7D78724721
:1011D0000C7B746A562EDE1FBCFA570D79510161E3
:1011E00021A1C0E325A9B1C1E14002674C1A978D46
:1011F0009893A4ABD42AD60F9C9BB4CB14AAB7CD9A
:10120000F95120A3C4EB35C9F16042068E7F7C7A88
:10121000766E3FFC7A766E5E3EFE7E5F3CDB158925
:101220007141E121C0E344EB542AB7CDF970622744
:10123000ADD832C70C7B744B14AAB7EC3BD528D27F
:10124000076D39D120C2E74C1A978D98B2C70C5957
:1012500028F39B00010101010101010101020202C9
:101260000202020202020303030303030303040452
:10127000040404040405050505050606060606071C
:101280000707070708080808090909090A0A0A0BD5
:101290000B0B0C0C0C0D0D0D0E0E0E0F0F0F101076
:1012A00011111112121313141415151616171718FD
:1012B0001819191A1A1B1B1C1D1D1E1E1F20202168
:1012C0002222232424252626272829292A2B2C2DAF
:1012D0002D2E2F30313232333435363738393A3BD0
:1012E0003C3D3E3F404142434445464748494A4CC5
:1012F0004D4E4F50515354555658595A5B5D5E5F91
:10130000616264656668696B6C6D6F707273757726
:10131000787A7B7D7E8082838587888A8C8E8F9188
:10132000939596989A9C9EA0A2A3A5A7A9ABADAFB2
:10133000B1B3B5B7BABCBEC0C2C4C6C9CBCDCFD19C
:10134000D4D6D8DBDDDFE2E4E7E9EBEEF0F3F5F845
:10135000FAFDFF09025400030100A0FA090400008D
:1013600001030101000921110100012240000705CC
:1013700081030800010904010001030102000921A1
:10138000110100012247000705820308000109043A
:1013900002000103000000092111010001223200B6
:1013A000070583032000011201000200000008F875
:1013B000A832180100010200011E03430068006109
:1013C0000072007900620064006900730020004E22
:1013D0000061006E006F0000002403420061007392
:1013E00000740061007200640020004B0065007909
:1013F0000062006F0061007200640073000000046E
:101400000309040011241FBECFEFDAE0DEBFCDBF19
:1014100004B603FE18C08091FB039091FC03A091D9
:10142000FD03B091FE038730904BA740B04B59F4B9
:101430001092FB031092FC031092FD031092FE0326
:10144000E0E0F8E3099512E0A0E0B1E0E8E7F0E6BB
:1014500002C005900D92AA33B107D9F723E0AAE3A1
:10146000B2E001C01D92AB3FB207E1F70E94492AEA
:101470000C941C300C940000E8EDF0E080818E7F2D
:1014800080831092E2001092DA001092E100A0EE48
:10149000B0E08C9181608C9380818F77808319BCC0
:1014A000A7EDB0E08C918E7F8C9380818F7E8083BE
:1014B0001092DE0308952091E4003091E50095E656
:1014C000A9012091EC00822F817020FF06C080913D
:1014D000E80080FF06C080E008952091E80022FD2A
:1014E0001AC08091EB03882389F0853089F08091C0
:1014F000EB0085FD0FC02091E4003091E50042171C
:101500005307F9F29150E1F684E0089582E00895DE
:1015100083E0089581E00895EF92FF920F931F9367
:10152000CF937C018B010E945B0AC82F811117C0E9
:101530008091E80085FD0BC08091E8008E77809354
:10154000E8000E945B0A882399F3C82F08C0F701BE
:1015500081917F018093F1000150110949F78C2F8F
:10156000CF911F910F91FF90EF9008958091ED031F
:1015700087FF13C08091E80082FF06C08091E800D9
:101580008B778093E80004C08091EB038111F2CF48
:1015900008958091EB038823D9F38091E80080FFC0
:1015A000F8CF8091E8008E77ECCF982F9093E900E8
:1015B000242F762F50E0891731F07091EC002091A4
:1015C000ED005091F00021FD07C09F5F973071F74B
:1015D0008093E90081E008953091EB003E7F3093E5
:1015E000EB003091ED003D7F3093ED003091EB004A
:1015F00031603093EB007093EC002093ED0050933A
:10160000F0002091EE0027FDE0CF80E00895CF921A
:10161000DF92EF92FF920F931F93CF93DF93C8ED6A
:10162000D0E088818F7E8883E7EDF0E08081816063
:10163000808384E082BF81E08093DE0388818E7F97
:10164000888302EE10E0F80110821092DA0081EE39
:10165000C82ED12CF601108288818F7788838881EB
:101660008068888388818F7D888319BC1092EB0302
:101670001092EC031092EA031092E90390EEE92E27
:10168000F12CF70180818B7F808388818160888342
:1016900042E060E080E00E94D50AF60180818E7F02
:1016A0008083F8018081816080838081886080836D
:1016B000F70180818E7F8083888180618883DF91BC
:1016C000CF911F910F91FF90EF90DF90CF900895F1
:1016D000FC018091F3039091F40386179707A0F023
:1016E0006115710529F49091E8009E779093E800C8
:1016F00090E06115710551F4911108C08091E800E6
:1017000082FF34C080E00895BC01F2CF8091EB03EA
:101710008823C1F18530C1F18091E80083FD30C09C
:101720008091E80082FDEACF8091E80080FFE1CF60
:101730008091F3002091F200382F6115710519F0A6
:101740002830310558F091E02830310509F090E05B
:101750002091E8002E772093E800CBCF81918093F1
:10176000F100615071092F5F3F4FE7CF8091EB038C
:10177000882341F0853041F08091E80083FFBECF9F
:1017800081E0089582E0089583E0089508958091AE
:10179000E0030895CF92DF92EF92FF922FB7F89473
:1017A000C090D703D090D803E090D903F090DA032B
:1017B0002FBFA7019601261B370B480B590BCA01F7
:1017C000B901FF90EF90DF90CF9008959C014FB743
:1017D000F8948091D7039091D803A091D903B09148
:1017E000DA034FBF821B930B08952FB7F8946091D3
:1017F000D7037091D8038091D9039091DA032FBF5A
:1018000008959C01FC0132969FEF80E041914617BC
:1018100051F09F3F19F4411101C0982F8F5F86301E
:10182000A9F79F3F09F40895290F311D97FD3A95B7
:10183000F901628308952091D4033091D5032817CC
:10184000390771F09093D5038093D403E091D203CC
:10185000F091D303309721F00084F185E02D0994B5
:1018600008952091D0033091D1032817390771F0E2
:101870009093D1038093D003E091D203F091D303EE
:10188000309721F00680F781E02D09940895FC013E
:10189000680F791F8FEF91E32191822728E030E0D4
:1018A00087FF09C0880F892721503109C9F7E6173A
:1018B000F70791F70895880FF7CF8093570180912C
:1018C00060038370809356010E94A51083E080938B
:1018D0005B010895FF920F931F93CF93DF93182F0F
:1018E000062FF42ED0E0C0E02F2D402F612FCE0127
:1018F0000E9448112196C332D105B1F7DF91CF91F3
:101900001F910F91FF900895AF92BF92CF92DF92F7
:10191000FF920F931F93CF93DF93362F472FE82F1C
:10192000F0E0ED5AFD4E71110FC0E4918E2F2E2F75
:101930006E2F722FDF91CF911F910F91FF90DF904B
:10194000CF90BF90AF900895C72FD0E02491F22E92
:10195000022F10E056E0659FC0011124EFEFF0E088
:10196000BF010E94942F832F90E0880F991F35E5C7
:10197000369FD001379FB00D11248A1B9B0B982FE7
:10198000990F980F6F01CC1ADD0AC09ED001C19E3D
:10199000B00DD09EB00D11248B2F499FA0011124B2
:1019A000452F55276F01C41AD50AC09EA001C19EBC
:1019B000500DD09E500D11245F01A91AB108AC9EA4
:1019C0006001AD9ED00CBC9ED00C1124CD2CDD242A
:1019D000EC19FD09E09FE001E19FD00DF09FD00DD3
:1019E0001124ED2F62307105A1F050F461157105DD
:1019F00009F49ECF6130710581F0EB2F852F98CFD0
:101A00006430710569F080F06630710509F490CF9B
:101A1000F4CFE22F2B2F8D2F8BCFE22F252F88CFC6
:101A2000EB2F822F2D2F84CF2B2F8F2DE52F80CFC3
:101A300080E0089578940895F894E82FE295EF7087
:101A4000F0E031A1282F2F7081E090E001C0880FD5
:101A50002A95EAF7982F9095932391A392A1892B29
:101A600082A30C941A0D9091FE0292FF06C0282FBB
:101A700028712830F9F4877F846093FF06C0282FEF
:101A800028712831F1F4877E84612091FF0220FFC4
:101A900006C0382F38713830D9F4877F816021FF34
:101AA00006C0282F28712831D1F4877E816194FDEA
:101AB000877E0895282F24712430F9F68B7F886063
:101AC000DCCF282F2471243101F78B7E8861DDCF94
:101AD000382F3171313019F78E7F8860E0CF282F91
:101AE0002171213121F78E7E8861E1CFCF93DF9381
:101AF000EC0182389105A9F1D8F58133910509F4FB
:101B000096C048F58932910509F48AC08A9709F48C
:101B100095C0C11522E5D20708F0B6C0C11531E560
:101B2000D30708F026C1C83ED10508F09CC0C03ECE
:101B3000D10560F5C83AD10508F087C0C53AD1058E
:101B400008F0EFC0C130D10509F12097F9F0C43099
:101B5000D105E0F440C08533910509F45AC0C99716
:101B6000C1F68091FE02837089F0C0EED0E00EC015
:101B7000833E910599F170F4803E910501F1823E1A
:101B8000910539F68091FE0282FD21C0CE01DF91E0
:101B9000CF910895863E910561F1873E910571F1DF
:101BA000843E910509F0B5CF8091FF0281FFEECF11
:101BB0008091FE02C7EED0E084FD0DC0E7CF80919A
:101BC000FE0280FD07C19091FF0290FFDFCFC3EEC0
:101BD000D0E084FFDBCFD0E0C0E0D8CF8091FE0220
:101BE00082FDFBC09091FF0290FDBFCF84FFCECF5E
:101BF000F2CF8091FE0283FDDDCFC8CF8091FE023F
:101C000083FDEEC09091FF0291FFF0CFC4EED0E0D3
:101C1000BDCF8091FE0285FFB9CFC9E2D0E0B6CF3B
:101C20008091FE0285FFB2CFC5E3D0E0AFCF8091B7
:101C3000FE0286FFABCFCAE2D0E0A8CF8091FE02C1
:101C400086FFA4CFC1E3D0E0A1CFCF3BD10518F6EA
:101C5000C85AD0E0CC0FDD1FC759DE4F0990D8819C
:101C6000C02DD46493CFC11540E5D40708F064C0FB
:101C7000C11580E4D80708F05CC0CE019A958115A3
:101C80009F4108F483CFA7CFC11536E5D30718F5D8
:101C9000C11545E5D40708F084C0C11584E5D8070F
:101CA00008F07AC09C2F969596959E012370332755
:101CB000C115D34508F462C0C1E0D0E002C0CC0F2A
:101CC000DD1F2A95E2F730E2939FC0011124C82B53
:101CD000D92BDA685BCFC1158AE5D80778F4C1152E
:101CE00099E5D90708F068C0C11528E5D20708F4BE
:101CF00072CFDC2FCC27C06FD06A48CFCE01905670
:101D00008115904208F067CF8D2F8F710E94330D9F
:101D100090E0982F882788279F719C012C2BE90140
:101D200049C0C55AD0E0CA59DE4FC881D0E0D0645E
:101D30002DCFDF70D06A2ACFCE01E4E0969587954B
:101D4000EA95E1F783702C2F26952695237040E2C3
:101D5000249F90011124382B8C2F8370C1E0D0E098
:101D600002C0CC0FDD1F8A95E2F7C22BD32BDC68B3
:101D70000DCFDC2FCC27C16FD06A08CFC1E0D0E0F7
:101D800002C0CC0FDD1F2A95E2F720E2929FC0012E
:101D90001124C82BD92BEBCFDC2FCC27C46FD06AF2
:101DA000F5CE8C2F0E94330DC82FD0E0DC2FCC272E
:101DB000CC27DF71D062EACE8C2F8F700E94330D5A
:101DC00034E0D695C7953A95E1F7CF709C2FEC019A
:101DD000D069DCCEC9E3D0E0D9CEC2EED0E0D6CE19
:101DE000C6EED0E0D3CE8091A10281111092A10263
:101DF000089580959091A00298239093A002089551
:101E00008091950290916402981301C008958F5FAC
:101E10008770FACFAF92BF92CF92DF92EF92FF928C
:101E20000F931F93CF93DF93C090FA02D090FB02E1
:101E3000E090FC02F090FD024091A2025091A302BA
:101E40006091A4027091A502C42AD52AE62AF72A35
:101E5000CFE1D0E0082F10E025E0929F000D111D8A
:101E6000112498E2A92EBC2ED701C6010C2E04C065
:101E7000B695A795979587950A94D2F780FD0FC0E0
:101E8000219788F7B12C8B2DDF91CF911F910F9166
:101E9000FF90EF90DF90CF90BF90AF900895AC9EF1
:101EA000F001AD9EF00D1124E00FF11FEE0FFF1FAA
:101EB000EB59FE4F859194910E94760D019701F3A5
:101EC000E2CFCF93DF93EC010E940A0FEC2FF0E0FA
:101ED00095E0D99FE00DF11D112498E2899FE00D56
:101EE000F11D1124EE0FFF1FEB59FE4F85919491C8
:101EF000DF91CF910C94760DE92FEE0FEE0F9E0F30
:101F0000890F982F977086958695869525E0829FF4
:101F1000F0011124EB5BFD4F50E040E080E02191A7
:101F200030E0092E02C0369527950A94E2F7217019
:101F30003327042E01C0220F0A94EAF7822B4F5F49
:101F40005F4F4530510559F70895E92FEE0FEE0F19
:101F50009E0F890F982F977041E001C0440F9A950A
:101F6000EAF786958695869595E0899FF00111247C
:101F7000EB5BFD4F30E020E070E05191DF01119705
:101F8000CB01022E02C0969587950A94E2F78170E4
:101F900081958527842385278C932F5F3F4F25309C
:101FA000310559F70895FC01808191810E94610FEC
:101FB00092959F70963091F058F4925F9F70923096
:101FC00058F4803F19F030F4883E30F481E00895F1
:101FD0009A5FF4CF843FD1F380E00895883EB0F358
:101FE000813FD1F7F3CF9091A1028091A002892B7C
:101FF0000E94330D982F927281E009F480E00895D9
:102000008093DB037093DD036093DC038091EB032B
:10201000843001F583E08093E9008FEF9091E80030
:10202000815095FD06C095ED9A95F1F7000081115C
:10203000F5CF8091E80085FF0DC050E040E063E0FF
:1020400070E08BED93E00E948C0A8091E8008E771F
:102050008093E8000895BC0184E00C940010BC015A
:1020600083E00C9400109C0182E08093E9009FEFD4
:102070008091E800915085FD06C085ED8A95F1F7C5
:1020800000009111F5CF8091E80085FF0CC050E071
:1020900040E065E070E0C9010E948C0A8091E80090
:1020A0008E778093E8000895CF93DF93EC0181E071
:1020B0008093E9008FEF9091E800815095FD06C074
:1020C00095ED9A95F1F700008111F5CF8091E80028
:1020D00085FF14C050E040E068E070E0CE010E944F
:1020E0008C0A8091E8008E778093E80088E0FE01FA
:1020F000A1EEB3E001900D928A95E1F7DF91CF91C7
:10210000089581E08093E00080E28093D8001092EF
:10211000C9008FE19EE40197F1F700C0000087E05D
:1021200090EBDC018093FB039093FC03A093FD03F1
:10213000B093FE0388E19CE00FB6F894A8958093D5
:1021400060000FBE90936000FFCF539A3BB1377F82
:102150002BB128604FB7F89487E693E0FC015191CA
:10216000CF0168E02BB9000000C057FF3BB9550F05
:10217000000000C000C000C03BB900C06A9591F7E4
:10218000F3E0803D9F0751F74FBF8FE594E0019743
:10219000F1F700C0000008959F92AF92BF92CF92D6
:1021A000DF92EF92FF920F931F93CF93DF937C0107
:1021B0005B016A018091EB0201E010E08A3010F4CB
:1021C0000AE010E0C1E0D0E0F894B501C701F601E3
:1021D0000995982E0E941A0D911004C021960C1793
:1021E0001D076CF4892DDF91CF911F910F91FF9006
:1021F000EF90DF90CF90BF90AF909F900895CC9FCD
:102200009001CD9F300D300D112490E080E045E32A
:102210004A95F1F70000019682179307C1F7D4CFD2
:102220008091B402811110C08091D80080618093A8
:10223000D8008AE18A95F1F700C08091D90080FF2B
:102240000AC081E08093B40281E09091B4029130A1
:1022500009F080E0089582E08093B4020E943C0A75
:102260001092EB03F1CF0E941011882351F0E091FE
:10227000D203F091D303309721F00190F081E02D4B
:10228000099480E008950E94101191E08927089533
:10229000FF920F931F93CF93DF93EC01F62E042F41
:1022A000122F0E94431181110FC0C231D1057CF061
:1022B0006297FE01EE0FFF1FEC0FFD1FE959FC4F67
:1022C000F1820083128303C0C231D10594F3DF9100
:1022D000CF911F910F91FF900895DF92EF92FF929F
:1022E0000F931F93CF93DF93082F80915701801393
:1022F00024C09091600393702091560130E081E0FA
:102300009217130609F480E0817080935A0180913E
:10231000650390915901981739F08093590140E075
:1023200060E080E00E946A0C013099F0002339F0EF
:10233000023009F468C080E03BC081E0E5CF8091C5
:102340005A018823A9F140E060E080E00E946A0C15
:10235000F2CFC091580187E0C89FC02D112417E02B
:102360001C0F143208F013E20E944311882319F065
:10237000133108F012E10E944311811103C0C231F0
:1023800008F4C2E16091610370916203809163037C
:102390000E94840CF62EE72ED82ED0E0C11718F13B
:1023A0000E944311882309F47DC081E0123118F6A0
:1023B000909158019F5F9093580181110CC082E069
:1023C00080935B0180915A01811105C0011103C006
:1023D00083E080935B01DF91CF911F910F91FF907C
:1023E000EF90DF900895FE01E95FFD4F80819091AD
:1023F0005901892331F02D2D4F2D6E2DCE010E94D4
:1024000048112196CBCFC091580187E0C89FC02DBD
:10241000112417E01C0F143208F013E20E9443113C
:10242000882319F0133108F012E10E944311811141
:1024300003C0C23108F4C2E12091640326952695B9
:1024400031E0230F08F42FEF40915C0350915D03BE
:1024500090E080E0429F812D529F800D911D1124BC
:10246000F82ED0E0C11708F09BCFFE01E95FFD4FC9
:10247000808190915901892399F070916203FE0146
:10248000EE0FFF1FE756FE4F60A56F1980916303A3
:102490000E94840C462F282F672FCE010E944811DE
:1024A0002196E0CF81E0133208F482CF44CFCF935E
:1024B000DF93EC010E944311811105C0CE01DF9131
:1024C000CF910C94E813D0932A03C0932903DF9192
:1024D000CF9108958091F80386FF04C084E690E0D0
:1024E0000C94571287FF09C08295837024E6829F5F
:1024F000C001112488539F4FF3CF8F7028EC829F27
:10250000C001112480579E4FEBCF0F931F930E9461
:102510001011882321F01F910F910C94F50B0E944C
:10252000F50B0091EC021091ED022091EE0230913A
:10253000EF02600F711F821F931F1F910F9108956B
:102540004F925F926F927F928F929F92AF92BF92C3
:10255000CF92DF92EF92FF928090570390905803B2
:10256000A0905903B0905A030E941011882309F4D7
:102570004AC0C501B4010E94CA0B6B017C010E94D4
:1025800085124B015C018092570390925803A092F0
:102590005903B0925A03A0912E03EEE2F3E08A2F82
:1025A00090E04FEF5FEF60E070E04C195D096E095D
:1025B0007F09A91331C080932E0380916603811196
:1025C0003EC090916003892F837019F0892F869502
:1025D000869590915B01913009F441C0992389F16E
:1025E000923009F44AC0933009F455C0FF90EF903F
:1025F000DF90CF90BF90AF909F908F907F906F9023
:102600005F904F9008950E9485126B017C01C8185D
:10261000D908EA08FB08B3CF218D328D2901712C2E
:10262000612C441555056605770520F481509F5FA0
:102630003296BFCF2C0D3D1D328F218FF8CF80E019
:10264000C8CF1092580180925C0390925D03A092D3
:102650005E03B0925F0381E080935B01C7CFFF9080
:10266000EF90DF90CF90BF90AF909F908F907F9032
:102670006F905F904F900C946D11FF90EF90DF90F2
:10268000CF90BF90AF909F908F907F906F905F9012
:102690004F900C945D0C80915B03882351F046E0D1
:1026A00050E06CE170E080E693E00E94D22F10923F
:1026B0005B03C0905C03D0905D03E0905E03F090FC
:1026C0005F030E941011882369F0C701B6010E94C0
:1026D000CA0B603171058105910508F487CF10920E
:1026E0005B0184CF0E9485126C197D098E099F09B8
:1026F000F0CFE0E6F3E089E0808380915E01909185
:102700005F01A091600181839283A38380E284832F
:102710008FEF858346E050E06CE170E0CF010E94CE
:10272000D22F10925B03089528E030E043E060E090
:1027300080E30E94FE2C95E09A95F1F70000089541
:10274000CF93C82F0E9494138C2F0E94762D8FE771
:1027500092E00197F1F700C000000E948E2DC82F73
:1027600095E09A95F1F700000E94A62D85E68A95DE
:10277000F1F700008C2FCF9108958FE00E94A013F5
:102780008F5F24E6829FC00111240895CF93DF93C9
:10279000C82FD62F0E949413C03511F010922D032C
:1027A0008C2F80680E94762D8D2F0E94762DEC0153
:1027B0008AEB8A95F1F700C00E94A62D83E492E08F
:1027C0000197F1F700C00000CE01DF91CF9108958D
:1027D00064E670E00E94942F6150710968377105BA
:1027E00010F067E770E08FE00C94C613CF93DF938F
:1027F000209A0E94F62C10922D030E94A62D0E9472
:1028000094130E94A62D66EB8BE30E94C6132FEF54
:1028100085EA9EE0215080409040E1F700C0000032
:102820000E949413E5EDEA95F1F700000E94A62DB1
:10283000F5EDFA95F1F700006AE58AE30E94C61308
:102840002FEF80E792E0215080409040E1F700C0F8
:10285000000082E00E94A01383E00E94A01384E0A5
:102860000E94A01385E00E94A01386E00E94A0139E
:102870006DE183E10E94C613EFE3FCE93197F1F7C4
:1028800000C0000068E183E10E94C6130E94941317
:1028900082EE0E94762DF0E5FA95F1F7C5E5D2E0DB
:1028A000FE0184910E94762DF0E5FA95F1F72196CC
:1028B00022E1C335D207A1F78FE193E00197F1F749
:1028C00000C000008AE20E94A01360E080E10E9444
:1028D000C6130E94A62DEFE3FCE93197F1F700C083
:1028E000000080E496E00E94E8138FE99FE00197E2
:1028F000F1F700C0000060E080E10E94C61367EEBF
:1029000081E10E94C61362E083E60E94C61380E064
:102910000E94A0138FE30E94A0138AE20E94A013DA
:102920002898DF91CF910895CF93DF93CDB7DEB78D
:102930002A970FB6F894DEBF0FBECDBF85E0E0E268
:10294000F3E0DE01169601900D928A95E1F785E09D
:10295000E2E1F3E0DE01119601900D928A95E1F734
:1029600045E050E0BE016F5F7F4FCE0106960E94AA
:102970000630892B61F0E091D203F091D3033097B8
:1029800031F00480F581E02D80E293E0099510920A
:10299000210310922203109223031092240385E056
:1029A000E0E2F3E0A2E1B3E001900D928A95E1F755
:1029B0002A960FB6F894DEBF0FBECDBFDF91CF9140
:1029C0000895DF92EF92FF920F931F93CF93DF93BF
:1029D000CDB7DEB769970FB6F894DEBF0FBECDBF97
:1029E0000E941011882309F417C16091250370918A
:1029F000260380912703909128030E94CA0B672B1E
:102A0000682B692B09F408C10E94F50B609325031C
:102A10007093260380932703909328030E94431109
:102A20008111F0C040912003509121036091220355
:102A300070912303809124030E9453272093200345
:102A40003093210340932203509323036093240384
:102A500085E0E0E2F3E0DE01169601900D928A95A2
:102A6000E1F7D0902103D194DF8285E0FE01369614
:102A7000DE01509601900D928A95E1F785E0FE0106
:102A80007096DE01119601900D928A95E1F785E02E
:102A9000FE013196A0E2B3E001900D928A95E1F734
:102AA00085E0E0E2F3E0DE01559601900D928A9513
:102AB000E1F7E090210310912203F09023030091AD
:102AC00024030E941011882309F46EC08091F8033A
:102AD00086FF42C02091190330911A032D0D311D3C
:102AE000D7FC3A9530931A0320931903809117036A
:102AF00090911803810F911D17FD9A9590931803DB
:102B000080931703A90137FF04C044275527421BB0
:102B1000530B473051054CF00FEF121613060CF40F
:102B200001E010921A03109219039C0197FF04C050
:102B300022273327281B390B273031055CF0FF246F
:102B4000FA941816190614F4FF24F394109218033B
:102B50001092170310E0E12CEE8A1F8BF88E098F7C
:102B600085E0FE017596DE011B9601900D928A9517
:102B7000E1F785E0FE013B96DE01119601900D9292
:102B80008A95E1F785E0FE013196DE011696019007
:102B90000D928A95E1F785E0FE013696DE015596A5
:102BA00001900D928A95E1F7EE8A1F8BF88E098FBE
:102BB00085E0FE017596DE01169601900D928A95CC
:102BC000E1F785E0FE013696DE011B9601900D923D
:102BD0008A95E1F785E0FE013B96A0E2B3E0019023
:102BE0000D928A95E1F769960FB6F894DEBF0FBE95
:102BF000CDBFDF91CF911F910F91FF90EF90DF90AC
:102C00000C94941485E0EBE1F3E0A0E2B3E00190D2
:102C10000D928A95E1F71CCF69960FB6F894DEBF46
:102C20000FBECDBFDF91CF911F910F91FF90EF901D
:102C3000DF9008958091A00290919F02892B80934C
:102C40003C029091A102992391F0892B80933C0240
:102C500020E08EE392E0FC013191CF0131112F5F32
:102C6000F2E084349F07B9F721110E94F30E48E087
:102C700050E067E972E08CE392E00E940630892B15
:102C8000A9F088E0ECE3F2E0A7E9B2E001900D9250
:102C90008A95E1F7E091D203F091D303309731F0B8
:102CA0000280F381E02D8CE392E00994089590E096
:102CB00080E00E94310C90E080E00E941B0C10929A
:102CC0009F020C941A166093FA027093FB02809391
:102CD000FC029093FD020C9457160F931F9341E052
:102CE00050E060E070E004C0440F551F661F771F7E
:102CF0008A95D2F7CB01BA01609570958095909531
:102D00000091FA021091FB022091FC023091FD0229
:102D100060237123822393231F910F910C946316D8
:102D2000909196028095892380939602282F277090
:102D300091F4282F082E000C330B9217130659F02C
:102D40009091FF0292FD07C08595859585950E941B
:102D50006D161092960208950F931F9341E050E074
:102D600060E070E004C0440F551F661F771F8A950E
:102D7000D2F78091FA029091FB02A091FC02B091EF
:102D8000FD028A019B01082B192B2A2B3B2BC90121
:102D9000B8011F910F910C9463166093A202709377
:102DA000A3028093A4029093A5020C945716882343
:102DB00021F00E94F90E0C941A160895882339F018
:102DC0009091A002982B9093A0020C941A1608954B
:102DD000882381F19CEF980F913A78F4EEE3F2E0CA
:102DE00024E432E09191891303C0DF0111971C9212
:102DF0002E173F07B9F70C941A1690E2980F9830E7
:102E000050F4877091E001C0990F8A95EAF7892FF5
:102E10000E94F90EF0CF9BE5980F933020F490E0DC
:102E200080E00C94310C885A873120F490E080E0E7
:102E30000C941B0C0895CF93C82F882309F44EC01F
:102E40008CEF8C0F813AF8F4EEE3F2E084E492E048
:102E5000DF012D91C21759F08A179B07D1F76C2F0C
:102E60008CE392E00E94010CCF910C941A162191F0
:102E7000C21303C0DF0111971C928E179F07B9F789
:102E80000E941A16ECCF80E28C0F883068F4C7706D
:102E900021E030E001C0220FCA95EAF78091A0023C
:102EA000822B8093A002E0CFEBE5EC0FE33040F4FF
:102EB000F0E0EA59FE4F808190E0CF910C94310C04
:102EC000C85AC73158F4EC2FF0E0EE0FFF1FE75956
:102ED000FE4F80819181CF910C941B0CCF9108956E
:102EE000CF9384E090E00E94BE2FC82F82E290E052
:102EF0000E94BE2F982F8C2FCF9108951092A00280
:102F0000EEE3F2E086E0DF011D928A95E9F70C948A
:102F100057161F93CF93DF93CDB7DEB7AA970FB69F
:102F2000F894DEBF0FBECDBF8DEE93E02091F1008F
:102F3000DC012D93CD01B3E0853F9B07B9F780916C
:102F4000EE03833009F472C0B8F4813009F449C04B
:102F5000823009F4B3C08091E80083FF86C280917B
:102F6000ED039091EE039A3008F07FC2E92FF0E074
:102F7000E25EFF4C0C94A82F8A3009F48EC08B308F
:102F800009F471C0893039F78091ED03813219F766
:102F90008091F1039091F203009711F00297D9F616
:102FA0008091E800877F8093E8008091E80082FFAD
:102FB00038C09091F3008091F200029731F4809133
:102FC000F100813011F0863021F48091F10080937E
:102FD000E0038091E8008B778093E8000E94B60AB6
:102FE000BACF8091ED03813A09F0B5CF8091E80026
:102FF000877F8093E8008091F1039091F203892B01
:1030000061F468E081EE93E070E00E94680B8091CB
:10301000E8008B778093E8009ECF60E090E080E04E
:10302000F3CF8091EB038111C0CF95CF8091ED0359
:10303000813A09F090CF8091F1039091F203892BAE
:1030400009F089CF8091E800877F8093E800809124
:10305000E80080FFFCCF80915C018093F1008091BB
:10306000E8008E77B9CF8091ED03813209F073CFFC
:103070008091F1039091F203892B09F06CCF80913C
:10308000E800877F8093E8000E94B60A8091EF03F2
:1030900080935C010E947E175ECF8091ED038132A8
:1030A00009F059CF8091E800877F8093E8000E9463
:1030B000B60A8091F0038093DF034DCF8091ED033A
:1030C000813A09F048CF8091E800877F8093E8003B
:1030D0008091E80080FFFCCF8091DF03BECF803875
:1030E00099F0823809F0C1C18091F1038F70873067
:1030F00008F0BBC18093E9008091EB0085FB882735
:1031000080F91092E90006C08091E9039091EA03EA
:10311000911182609091E800977F9093E8008093EE
:10312000F1001092F1008091E8008E779AC1882317
:1031300009F488C1823009F098C18091EF038111B0
:103140008BC18091F1038F702FEF280F263008F08C
:103150008CC18093E9002091EB0020FF7DC193306A
:1031600031F48091EB0080628093EB0075C1909107
:10317000EB0090619093EB0021E030E001C0220F62
:103180008A95EAF72093EA001092EA008091EB001A
:103190008860EACF811169C11091EF031F77809198
:1031A000E3008078812B8093E3008091E800877FA3
:1031B0008093E8000E94B60A8091E80080FFFCCF6F
:1031C0008091E30080688093E30082E0111183E046
:1031D0008093EB034AC18058823008F046C12091A9
:1031E000EF033091F0032C3DE3E03E07A1F583E0CF
:1031F0008A838AE289834FB7F894DE01139620E030
:103200003EE051E2E32FF0E050935700E49120FFBD
:1032100003C0E295EF703F5FEF708E2F90E0EA30D1
:10322000C0F0C7968D939D932F5F243159F74FBF00
:103230008091E800877F8093E8006AE270E0CE0129
:1032400001960E94680B8091E8008B778093E800DC
:103250000CC1C096E7CF8091F1039091F203432F08
:1032600055274330510509F44AC078F541305105DE
:1032700009F47AC084E590E0E3E5F3E142305105DA
:1032800009F0F3C02091E800277F2093E800209107
:10329000F3033091F4038217930708F49C0140E094
:1032A0002115310509F065C0411163C08091E80026
:1032B00082FDC9CF8091EB03882329F2853019F272
:1032C0008091E80083FFF2CFBECF4132510509F46F
:1032D0003CC04232510509F0C8C08330910508F066
:1032E000C4C0FC01EE0FFF1FE35DFD4F0190F081B4
:1032F000E02D865D9D4FDC018C9190E01AC0332754
:1033000021303105D1F02115310561F02230310530
:1033100009F0ABC0E9EBF3E1E4918E2F90E0E9EB2B
:10332000F3E107C0EFEFF3E1E4918E2F90E0EFEFD0
:10333000F3E1009709F499C0A5CFE9EDF3E1E49139
:103340008E2F90E0E9EDF3E1F4CF8330910508F0A2
:103350008CC0880F991FFC01ED5CFD4F0190F0813E
:10336000E02D89E090E08ECF82E190E0E7EAF3E1A2
:1033700089CF8091EB03882309F465CF853009F468
:1033800062CF8091E80083FD5ECF8091E80082FDEE
:103390008DCF8091E80080FF83CF9091F3008091E2
:1033A000F2002115310519F08830910550F041E007
:1033B000089709F040E08091E8008E778093E8005C
:1033C0006FCF44914093F10031962150310901961D
:1033D000E8CF803809F049C08091E800877F80936A
:1033E000E8008091EC038093F1009DCE81113DC0F7
:1033F0001091EF031230C8F58091E800877F809329
:10340000E8001093EC030E94B60A112311F084E047
:1034100005C08091E30087FDFACF81E08093EB0344
:1034200042E061EC81E00E94D50A42E061EC82E07A
:103430000E94D50A42E261EC83E00E94D50A8091A5
:10344000EB0313C08091EF03813079F481E0933076
:1034500009F080E08093EA031092E9008091E8008F
:10346000877F8093E8000E94B60A8091E80083FF7E
:103470000AC08091E800877F8093E8008091EB008C
:1034800080628093EB00AA960FB6F894DEBF0FBE61
:10349000CDBFDF91CF911F910895DF92EF92FF9200
:1034A0000F931F93CF93DF937901C82F880FDD0B04
:1034B00041155105A9F0FE0193E0EE0FFF1F9A950B
:1034C000E1F7E050FF4F818192818B549D4F208125
:1034D00030E04217530708F49A01A9010E94133003
:1034E000CE010E941E2FD82E8823D1F00115110580
:1034F000B9F083E0CC0FDD1F8A95E1F7FE01E050C3
:10350000FF4F438150E00417150708F4A801C0508D
:10351000DF4F6C817D816B547D4FC7010E9413305A
:103520008D2DDF91CF911F910F91FF90EF90DF9044
:1035300008950F931F93CF93DF9300D000D0CDB7A2
:10354000DEB76091DD027091DE028091DF02909122
:10355000E0020E94CA0B11E06436710581059105F5
:1035600018F10E9485126E5F7F4F8F4F9F4F6983C6
:103570007A838B839C8310E000E030E020E044E01D
:1035800050E0BE016F5F7F4F83E00E944D1A182FFD
:10359000882351F00E94F50B6093DD027093DE02E8
:1035A0008093DF029093E002812F0F900F900F9095
:1035B0000F90DF91CF911F910F910895AF92BF921D
:1035C000CF92DF92EF92FF920F931F93CF93DF93EF
:1035D000C82F7B01D42F69015801FB0160817181E3
:1035E000828193810E94CA0B643671058105910521
:1035F00010F4DD23F9F010E000E030E020E0A50158
:10360000B6018C2F0E944D1AC82F882339F00E94D2
:10361000F50BF70160837183828393838C2FDF9195
:10362000CF911F910F91FF90EF90DF90CF90BF90BF
:10363000AF900895C1E0F2CF0F931F93CF93DF9324
:1036400000D000D000D00F92CDB7DEB786E0E0E624
:10365000F3E0DE01119601900D928A95E1F78091D9
:1036600066038F8347E050E062EC72E0CE01019682
:103670000E94063041E0892B09F440E007E010E0A9
:103680009E012F5F3F4F61EE72E084E00E94DE1AE0
:1036900027960FB6F894DEBF0FBECDBFDF91CF9156
:1036A0001F910F9108950F931F93CF93DF93EC0118
:1036B00044E050E06AEB72E00E94063041E0892B62
:1036C00009F440E004E010E09E0169ED72E082E060
:1036D0000E94DE1ADF91CF911F910F9108957F9282
:1036E0008F929F92AF92BF92CF92DF92EF92FF9212
:1036F0000F931F93CF93DF930F92CDB7DEB7762E44
:103700004A015901680101E010E09E012F5F3F4F1F
:1037100050E040E070E060E00E944D1A182F8823CE
:1037200009F43EC0F40160817181828193810E941D
:10373000CA0B643671058105910538F4B701C601DD
:103740000E94470C9981891759F18701950150E032
:1037500040E070E060E0872D0E944D1AB82EB7015E
:10376000C6010E94470C11E09981981310E01B21BB
:1037700039F00E94F50BF401608371838283938397
:10378000812F0F90DF91CF911F910F91FF90EF90BC
:10379000DF90CF90BF90AF909F908F907F900895D3
:1037A000A701B601C5010E941330EACFEF92FF9244
:1037B0000F931F93CF93DF93CDB7DEB72A970FB642
:1037C000F894DEBF0FBECDBF0E94431111E08823E5
:1037D00009F44DC085E0E82EF12C0AEC12E09E01C0
:1037E0002A5F3F4F47EE52E066E085E00E946F1B84
:1037F000182F882391F085E0FE013696DE011196A0
:1038000001900D928A95E1F785E0FE013196ABE1DA
:10381000B3E001900D928A95E1F7E0902903F090D2
:103820002A03FA82E982E114F10409F142E050E04E
:10383000BE016F5F7F4F85EE92E00E940630892BBC
:10384000B1F0F092D002E092CF0210E000E030E060
:1038500020E042E050E06FEC72E087E00E944D1AF9
:10386000182F882321F0F092E602E092E502812FE2
:103870002A960FB6F894DEBF0FBECDBFDF91CF9171
:103880001F910F91FF90EF900895CF92DF92EF92EA
:10389000FF920F931F93CF93DF9300D000D0CDB74B
:1038A000DEB76B0184E0E82EF12C06EB12E09E01FE
:1038B0002F5F3F4F45ED52E061E080E00E946F1BBB
:1038C000882361F049815A816B817C814093D102C8
:1038D0005093D2026093D3027093D4024091D102EC
:1038E0005091D2026091D3027091D402F6014083CC
:1038F0005183628373830F900F900F900F90DF912D
:10390000CF911F910F91FF90EF90DF90CF9008958E
:103910009091F8039F70811114C08FEF980F9F70E2
:103920008091F803807F982B9093F8030E946A128D
:103930004091F80350E070E060E08FE090E00C947C
:10394000F42F81E0EBCF9091F80392959370811161
:1039500016C08FEF980F93709295907F8091F80327
:103960008F7C982B9093F8030E946A124091F80381
:1039700050E070E060E08FE090E00C94F42F81E084
:10398000E9CF69EE7EEF90E080E00E94003060E0D9
:1039900082E090E00E94E22F60E083E090E00E94ED
:1039A000E22F1092A2021092A3021092A40210928F
:1039B000A50260E084E090E00E94E22F60E082E2F5
:1039C00090E00E94E22F60E085E090E00E94E22F0C
:1039D00060E086E090E00E94E22F6FEF87E090E0E9
:1039E0000E94E22F40E050E0BA0188E090E00E949F
:1039F000F42F60E08DE090E00E94E22F40E050E084
:103A0000BA0188E190E00E94F42F60E087E190E045
:103A10000E94E22F40E050E0BA018CE190E00E9469
:103A2000F42F70E060E080E290E00E94003040E01F
:103A300050E0BA0188E190E00E94F42F1092F80360
:103A400040E050E0BA018FE090E00E94F42F0E9425
:103A50006A1240E050E0BA0183E190E00C94F42F48
:103A6000CF93C091FF02C2FB992790F9981799F064
:103A700080FBC2F9C093FF026091FE0284E090E0F7
:103A80000E94E22F6C2F82E290E00E94E22F82E0FF
:103A9000CF910C949016CF9108951F920F920FB66C
:103AA0000F9211242F933F934F935F936F937F93C4
:103AB0008F939F93AF93BF93CF93DF93EF93FF9336
:103AC000D091E900DF708091EC00C82FC17080FDBB
:103AD000C0E81092E9008091F000877F8093F000A9
:103AE00078940E9489171092E9008091F000886014
:103AF0008093F000CD2BCF70C093E900FF91EF9140
:103B0000DF91CF91BF91AF919F918F917F916F91F5
:103B10005F914F913F912F910F900FBE0F901F908B
:103B200018951F920F920FB60F9211242F933F9367
:103B30004F935F936F937F938F939F93AF93BF93B5
:103B4000EF93FF938091E10082FF09C08091E20032
:103B500082FF05C08091E1008B7F8093E10080911E
:103B6000DA0080FF24C08091D80080FF20C08091BF
:103B7000DA008E7F8093DA008091D90080FF9DC0AB
:103B800080E189BD82E189BD09B400FEFDCF81E0FD
:103B90008093EB038091DE03811109C00E943C0AEF
:103BA0000E94070B8091E20084608093E200809184
:103BB000E10080FF17C08091E20080FF13C0809178
:103BC000E2008E7F8093E2008091E200806180932A
:103BD000E2008091D80080628093D80019BC85E013
:103BE0008093EB038091E10084FF2BC08091E20081
:103BF00084FF27C080E189BD82E189BD89B5982F06
:103C0000917080FFFBCF8091D8008F7D8093D8008A
:103C10008091E1008F7E8093E1008091E2008F7EB1
:103C20008093E2008091E20081608093E2008091C5
:103C3000EC03882309F447C084E08093EB03809170
:103C4000EB038091E10083FF27C08091E20083FFB6
:103C500023C08091E100877F8093E10082E0809320
:103C6000EB031092EC038091E1008E7F8093E100E2
:103C70008091E2008E7F8093E2008091E20080617B
:103C80008093E20042E060E080E00E94D50A8091EB
:103C9000F00088608093F000FF91EF91BF91AF91A9
:103CA0009F918F917F916F915F914F913F912F9154
:103CB0000F900FBE0F901F90189519BC1092EB0338
:103CC0001092DE0374CF8091E30087FD93E0909320
:103CD000EB03B5CF78941F921FB61F9211248F93D8
:103CE0009F93AF93BF938091D7039091D803A091F6
:103CF000D903B091DA030196A11DB11D8093D703BA
:103D00009093D803A093D903B093DA03BF91AF91F6
:103D10009F918F911F901FBE1F9018952FB7F894F9
:103D20008091D7039091D803A091D903B091DA0381
:103D30002FBF08950F931F93CF93DF93C62FD42FD8
:103D4000022FFC0182818823A1F06093F7030E9477
:103D50008E1E9093F6038093F503C77081E001C037
:103D6000880FCA95EAF7DF91CF911F910F910C94BC
:103D7000DE168091F703681338C08091F5039091A7
:103D8000F6030E94E60B883C910578F510E21D0FC2
:103D9000CD17B9F080E28C0F883040F4C77081E015
:103DA00001C0880FCA95EAF70E94D716183048F468
:103DB00081E09D2F977001C0880F9A95EAF70E94C5
:103DC000DE16802F0E941B17802F0E94E8161830E5
:103DD00098F4D77081E001C0880FDA95EAF7DF9197
:103DE000CF911F910F910C94D716C77081E001C03D
:103DF000880FCA95EAF7F3CFDF91CF911F910F910A
:103E000008954F925F926F927F928F929F92AF929E
:103E1000BF92CF92DF92EF92FF920F931F93CF93B7
:103E2000DF93CDB7DEB72F970FB6F894DEBF0FBE86
:103E3000CDBF7C01DC0113968D919C911497892B49
:103E400041F01C911196DC90812F8D218F3F09F05C
:103E500011C52F960FB6F894DEBF0FBECDBFDF9110
:103E6000CF911F910F91FF90EF90DF90CF90BF9077
:103E7000AF909F908F907F906F905F904F9008953C
:103E80000E940A0F082F682F89819A810E94A50F2E
:103E9000E12FF0E0B5E0DB9EE00DF11D112428E2FA
:103EA000029FE00DF11D1124EE0FFF1FEB59FE4F95
:103EB00005911491F801E75AFD45E830F10578F4D1
:103EC000E85DFF4CD70112968C910C94A82F8823A3
:103ED00031F00E94F30F91E089270E94881CC801ED
:103EE000815F9109089708F0C3C085E0E0E2F3E044
:103EF000DE01169601900D928A95E1F785E0FE01AC
:103F00003696DE011B9601900D928A95E1F72E817F
:103F10003FE0300F81E090E001C0880F3A95EAF76A
:103F2000F7013281332309F4A0C0822B8B8785E00F
:103F3000FE013B96DE01119601900D928A95E1F704
:103F400085E0FE013196A0E2B3E001900D928A95E2
:103F5000E1F70E949414D70112968C91882309F4FA
:103F60009CC41092F7030430BDE51B0708F0E4C0C1
:103F70000B3FECE51E0730F4C80182509C45449786
:103F800008F0E4C00E9470179093FF028093FE0235
:103F900001313CE5130709F4B0C108F02DC1093027
:103FA0009CE5190709F49BC108F0F7C00530BCE592
:103FB0001B0709F488C108F0E0C00330FCE51F07C7
:103FC00009F477C108F07BC18091FE028160023064
:103FD0001C4509F471C16091FE021091FF0284E05A
:103FE00090E00E94E22F612F82E290E00E94E22F97
:103FF0000E947E1767C0882309F471CF0E94F30FD7
:104000006CCF882309F46BCF0E94F30F91E08927CE
:104010000E94A31C64CF882309F461CF0E94F30F90
:10402000F7CF9091F80380FB97F99093F8030E94E3
:104030006A1255CF882309F452CF9091F803892F43
:1040400097FB87F980588093F803F1CF9091F8039C
:1040500080FB96F9EACF882309F441CF9091F803C9
:10406000892F8F7B96FF8064EECF809582235ECF71
:10407000043FFCE51F0709F450C098F4093D3CE5F6
:10408000130709F446C00A3D8CE5180709F451C02E
:10409000083D9CE5190709F05ECF26E241EE61EE8E
:1040A0000EC0063FACE51A0709F43FC0D0F127E285
:1040B00045EE66EE073FECE51E0709F04CCFC70161
:1040C0000E949A1E80919602877009F4C2CEF70171
:1040D0008281882309F4BDCE8091FF0282FDB9CE92
:1040E00082E02F960FB6F894DEBF0FBECDBFDF91F2
:1040F000CF911F910F91FF90EF90DF90CF90BF90E5
:10410000AF909F908F907F906F905F904F900C94A6
:10411000901627E245EE65EED2CF26E241EE60EE44
:10412000CECF27E245EE64EECACF26E241EE62EE44
:10413000C6CF28E241E0EFCF0236FDE51F0709F4C4
:1041400021CF063A2DE5120709F41CCF06318CE584
:10415000180709F0BAC38091A0028A7A91E009F4A5
:1041600090E09093440269E2811165E38CE392E070
:104170000E94010C0E941A16A5CF07308CE5180783
:1041800009F4A9C08091FE02806108301C4508F442
:1041900093C08091FE0280648FC08091FE028B7F6D
:1041A0000D30ACE51A0709F487C098F48091FE023F
:1041B0008E7F0B30ECE51E0709F47EC08091FE0275
:1041C0008C600C301C4508F477C08091FE028D7F16
:1041D00073C08091FE028F7E0F302CE5120709F428
:1041E0006BC08091FE02877F00311C4508F464C0DB
:1041F0008091FE028F7D60C00E3F8CE5180709F4A8
:1042000078C050F50531ACE51A0709F480C098F480
:104210008091FE02837F0331ECE51E0709F44CC058
:1042200008F46FC00E947E179091FE02892F97FBC1
:1042300087F9805841C00C3F2CE5120709F447C0AC
:1042400008F053C00B3F1C4509F0C5CE8091FF021A
:1042500081608093FF02BFCE02309DE5190709F40B
:1042600062C0B8F48091FF028C7F0115BDE51B0789
:1042700081F38091FF02836001301D4550F38091EE
:10428000FF02982F909591708E7F892B90FB81F97A
:10429000E0CF0236FDE51F0709F44BC0063A2DE5D5
:1042A000120709F44DC003301D4509F094CE60E0BB
:1042B0003BC08091FE0282608093FE028CCE809192
:1042C000FE028460F9CF8091FE028860F5CF809174
:1042D000FF028260BECF8091FE028062EDCF0E941D
:1042E0007E178091FE028068E7CF8091FF028E7F6B
:1042F000B0CF8091FF028D7FACCF8091FE028F7B8B
:10430000DBCF0E947E178091FE028F77D5CF809100
:10431000FE0282FB992790F921E0922790FB82F917
:1043200090FB83F9C9CF61E08EE090E00E94E22F1C
:1043300052CE9091FE02892F8F7E94FF8061BCCF78
:104340009091FE02892F8E7F90FF8160B5CF85E32B
:10435000AEC20E947E179FEFA4E3BCE09150A04044
:10436000B040E1F700C000000E94811081E0CDC2A2
:1043700080E0CBC2812F902F0E947C0FD82EDBC211
:10438000E12FEF70CE2E107F19F0C29420EFC222E1
:10439000DD20B9F0CC2069F080E2800F883010F089
:1043A000811009C08091A002C82AC092A0020E9478
:1043B0001A16802F4BC080919F02C82AC0929F027C
:1043C000F6CF802F0E94E816CC2009F441C0005E91
:1043D000083010F0811004C08C2D0E94F90E06C028
:1043E000C09480919F02C822C0929F020E941A1618
:1043F0002FC0F12FFF70CF2E107F103219F0C29412
:1044000090EFC922882089F021E0821609F488C043
:10441000DD2009F492C0992009F488C0F701858154
:1044200080FFC7CF8F70858381C02091FF0222FF5C
:1044300054C0DD2009F44AC0CC2039F08091A0029C
:10444000C82AC092A0020E941A1680E00E941B1780
:10445000AA2DA850BB0B149710F40E943311BB2057
:10446000A9F08091960280FD11C0F7011282859516
:10447000859585950E94AC16C7010E94011F809109
:1044800096028595859585950E946D1685E0F701C4
:10449000DE01119601900D928A95E1F789819A814A
:1044A0000E947C0F9A81E981F0E025E0929FE00D67
:1044B000F11D112438E2839FE00DF11D1124EE0F50
:1044C000FF1FEB59FE4F85919491C3CC80E00E9471
:1044D000E816CC2009F4BCCF7FCFDD20A1F090916D
:1044E000A1028C2D892B911003C00E94DE16B0CF43
:1044F00031E09312FACF22FDABCF981709F4A8CF81
:104500008093A102A5CF911006C00E94F30E8C2DBE
:104510000E94D7169DCF81E0981609F499CFF5CF68
:10452000DD2031F095E0991508F492CF8C2DDDCF88
:10453000A4E0A91508F48CCFEACF992041F3F9E360
:104540008F1209C02FEF37EE83E0215030408040BA
:10455000E1F700C00000802F0E94E81679CF812F7C
:1045600086958695837061F0813009F071CFC8011E
:104570009370D11002C090E080E00E941B0C68CFC5
:10458000C8019370D11002C090E080E00E94310C0D
:104590005FCF812F837009F066C0D11059CF802F73
:1045A000829586958770880F880F602F6F70462ED2
:1045B000512C712C612C082E04C0440C551C661C17
:1045C000771C0A94D2F740E050E0BA0104FF0FC014
:1045D0004FE050E060E070E004C0440F551F661FDC
:1045E000771F8A95D2F74095509560957095812FE9
:1045F000869586958370823019F1D8F40091A202D5
:104600001091A3022091A4023091A502813069F09B
:104610004429552966297729CB01BA0160237123E2
:10462000822393230E94CD1613CF402A512A622A57
:10463000732ACB01BA016429752986299729F2CFFB
:1046400044295529662977290091A2021091A302D5
:104650002091A4023091A502CB01BA0160277127F5
:1046600082279327DFCF8695DD2011F0812F81707F
:10467000882309F4EDCE802F829586958770880F68
:10468000880F602F6F70462E512C712C612C082ED4
:1046900004C0440C551C661C771C0A94D2F740E0F9
:1046A00050E0BA0104FF0FC04FE050E060E070E05E
:1046B00004C0440F551F661F771F8A95D2F7409597
:1046C000509560957095812F869586958370823080
:1046D00019F1D8F40091FA021091FB022091FC022A
:1046E0003091FD02813069F04429552966297729E6
:1046F000CB01BA0160237123822393230E946316A6
:10470000A7CE402A512A622A732ACB01BA01642912
:10471000752986299729F2CF4429552966297729B1
:104720000091FA021091FB022091FC023091FD02EF
:10473000CB01BA016027712782279327DFCF1F7033
:10474000DD2029F0812F0E94AC16802FCECE802F45
:104750000E94D716812F0E946D167ACE802F92EF7D
:10476000891609F43FC0981570F0A0EF8A16D1F0B1
:10477000B1EF8B1691F0DD2009F46CC0911019CEC9
:10478000812F8F7133C0E3EF8E1699F1F4EF8F1202
:10479000F2CF8091FF0282FF3FC0812F8F71DD2019
:1047A000D1F224C0DD20C9F024E0291508F450CE50
:1047B0001F7161E070E080E090E004C0660F771F39
:1047C000881F991F1A95D2F70091FA021091FB02E7
:1047D0002091FC023091FD02ADCF35E0391508F48F
:1047E00037CEE6CF812F8F71D110B5CF0E94AC1696
:1047F0002FCE60E070E0CB01DD2009F47FCF1F7188
:1048000061E070E080E090E004C0660F771F881FD1
:10481000991F1A95D2F772CFDD2089F01F71812F71
:104820000E94AC168091FF0282FD07C0A8E01A9F8B
:10483000C0011124836080939602812FD7CF81E03D
:104840000E949016B1E0B91508F002CE82E00E94F5
:104850009016FECD992059F0893309F07CCEEFEF08
:10486000F7EE23E0E150F0402040E1F772CE812FD7
:104870008F7171CF85E0F701DE01119601900D92E5
:104880008A95E1F7D70112962C9189819A8121119D
:10489000F7CA0E947C0F082FFBCA0631BCE51B0734
:1048A00009F093C080914402811151CD89E2EEE379
:1048B000F2E024E432E09191891303C0DF01119703
:1048C0001C922E173F07B9F755CC0B35EDE51E07A7
:1048D00009F44CCD58F401152CE5120709F439CD33
:1048E0000F3D1C45A1F40E94C11CECCB0C358DE59D
:1048F000180709F43DCD0D351D4549F48091FF029F
:1049000082FB882780F991E089270E94301DD7011A
:1049100012968C9112971C9111960C91882309F490
:1049200029CD812F902F0E940A0FD82E682F812F1A
:10493000902F0E94A50FE12FF0E0B5E00B9FE00D56
:10494000F11D112428E2D29EE00DF11D1124EE0F7D
:10495000FF1FEB59FE4F859194910E94760D8C01BB
:10496000882ED7011296DC90129715969C909294FF
:104970005FE09522809196028770C1F0BD2CDD200A
:10498000B1F0812F807F803421F080E2800F883069
:1049900068F08091FF0282FD09C082E00E949016BB
:1049A000809196028770BB24B3948111B12CA12E03
:1049B000A2943FE0A322BBE0BA1508F449CDEA2D4A
:1049C000F0E0E05DFF4C0C94A82F033CACE51A0727
:1049D00008F49DCF073DBCE51B0708F473CB0E35EB
:1049E0001D4509F46FCB93CF1F93CF93DF93809135
:1049F0006302807FA9F480916002882389F080910E
:104A00009502D091640260915E0270915F02A09164
:104A10006102B0916202C62FC72316E0D81304C00A
:104A2000DF91CF911F91089590E0109711F0CF3F43
:104A300019F401968770F2CF189F9001199F300DDD
:104A40001124F901EB59FD4F41814713F2CF408109
:104A50004613EFCF42814111ECCF438154814A1B71
:104A60005B0B483C510528F7809163028F70806191
:104A700080936302F901E659FD4F80818F70806158
:104A800080838EE592E00E94011FDF91CF911F91FC
:104A90000C94000FAF92BF92CF92DF92EF92FF92F1
:104AA0000F931F93CF93DF93CDB7DEB761970FB608
:104AB000F894DEBF0FBECDBF8C0185E0F801DE01AA
:104AC0001D9601900D928A95E1F7F801E2808EE53E
:104AD000A82E82E0B82E6091610270916202611589
:104AE000710509F432C190915E0240915F02892FF5
:104AF00084238F3F09F429C120813181C380D48070
:104B0000F0906002F601E61BF70BFF2009F4E8C005
:104B100080916302582F507FE83CF10508F0ABC04C
:104B2000511177C0FE2C431321C092131FC0E11016
:104B30001DC08F70806180936302C5010E94011FB8
:104B400080916302F80185838F2D61960FB6F894EA
:104B5000DEBF0FBECDBFDF91CF911F910F91FF90B0
:104B6000EF90DF90CF90BF90AF900895CD2829F0BF
:104B7000822F83238F3F09F003C180E0F82FF1706B
:104B8000DF2E80FF3CC0809195024091640256E088
:104B9000841315C02D873E878D859E850E94610FE9
:104BA000292F22952F702230F0F0243018F59F70B5
:104BB000F1F0F8019581907FD1F4D12C1EC090E0E6
:104BC000589FF001599FF00D1124EB59FD4F618161
:104BD000361306C06081261303C06281E6120FC03F
:104BE00001968770D5CF9F7011F0882331F3805ED6
:104BF000883018F3C8010E94011FFD2CA5CFEE20BC
:104C000009F4A2CF80916302816080936302F12C4A
:104C10009BCF431306C0921304C0F801EE2009F4A1
:104C200079C0C8010E94D30F882309F1EE20F9F062
:104C300080916302803270F020915E0230915F02B9
:104C400038872F831986DB86CA868C87CE01079624
:104C50000E94011F86E0F801AEE5B2E001900D92DE
:104C60008A95E1F70E94F424FF24F3946DCFC801E4
:104C70000E94011FF9CF51110AC08EE592E00E94F7
:104C8000011F86E0F50111928A95E9F7C0CF431321
:104C90000FC092130DC0E1100BC0F8018583C8014D
:104CA0000E94011F86E0F50111928A95E9F74CCF29
:104CB000C8010E94D30F8823D1F2EE20C1F2809167
:104CC0006302803238F220915E0230915F023A83B3
:104CD00029831B82DD82CC828E83CE010196B8CFE0
:104CE000E83CF105F8F6FE2CEE2009F243131FC054
:104CF00092131DC08091630280FD10C0982F907F99
:104D000069F0F8018583903F31F0982F907F905F94
:104D10008F70892B8583C8010E94011F86E0F801EE
:104D2000AEE5B2E001900D928A95E1F70DCFC80192
:104D30000E94D30F81118ECF809163028160809396
:104D40006302C8010E94011FFFCEEE2009F48FCF3D
:104D5000C8010E94D30FF82E882309F488CF86E07B
:104D6000F801AEE5B2E001900D928A95E1F78091ED
:104D70005E0290915F020E94610F0E94F424E4CED3
:104D800081E08E25FBCE1F93CF93DF93CDB7DEB7A7
:104D900067970FB6F894DEBF0FBECDBF4B8B5C8B11
:104DA0006D8B7E8B8F8B611110929F021A8A198AEC
:104DB00085E0FE017396DE011D9601900D928A95A5
:104DC000E1F786E0FE013D96DE01179601900D9217
:104DD0008A95E1F7CE0107960E944A25882389F03B
:104DE00016E08091950290916402891349C06796FC
:104DF0000FB6F894DEBF0FBECDBFDF91CF911F91EC
:104E0000089586E0FE013796DE01119601900D921D
:104E10008A95E1F78A859B85892B11F38F81988587
:104E200089238F3FE9F22091640230E0C9010196A5
:104E300087709927409195024817190671F40E94CE
:104E40007E17109264021092950286E0EEE5F2E081
:104E5000DF011D928A95E9F7C3CF96E0929FD001BA
:104E6000939FB00D1124AB59BD4FFE0131960190B7
:104E70000D929A95E1F7809364020E94000FB0CFE3
:104E8000819FC00111248B599D4F0E944A25882380
:104E900009F4ADCF8091950290E001968770992733
:104EA000809395029ECF9F92AF92BF92CF92DF9256
:104EB000EF92FF920F931F93CF93DF93CDB7DEB79F
:104EC0002A970FB6F894DEBF0FBECDBF4E83052FD5
:104ED0005F83162F688779878A8780912D038111D8
:104EE00007C060E080E50E94C61381E080932D0337
:104EF0000E94941380E50E94762D8AEB8A95F1F743
:104F000000C00E948E2DB82E0E948E2D0E948E2DE4
:104F10007C010E948E2D982E0E948E2D6C010E9485
:104F20008E2DA82E8B2D877011F010922D030E94CC
:104F3000A62DB3FC2DC0B7FE2BC080912B03909102
:104F40002C03892B31F40E948E1E90932C038093A6
:104F50002B03F92801E880E8E816F1044CF4002757
:104F600011270E191F090038110514F00FE710E082
:104F7000DA2811E880E8C816D10454F48827992764
:104F80008C199D098038910514F08FE790E0182F57
:104F90000F83188785E0FE013696DE011196019099
:104FA0000D928A95E1F729813A814B815C816D816F
:104FB00070E080E090E02A960FB6F894DEBF0FBE56
:104FC000CDBFDF91CF911F910F91FF90EF90DF90B8
:104FD000CF90BF90AF909F9008959F92AF92BF9255
:104FE000CF92DF92EF92FF920F931F93CF93DF93B5
:104FF000CDB7DEB72F970FB6F894DEBF0FBECDBF8B
:105000008E010F5F1F4F88E0D8011D928A95E9F746
:1050100090E4E92E91E0F92E99249394CC24C39442
:10502000D12C39E4A32E31E0B32EF70181917F0119
:105030008F3F09F444C0F894E82FE295EF70F0E058
:1050400021A18F70A60102C0440F551F8A95E2F777
:10505000CA01922F982B91A392A18095892382A3B4
:105060000E941A0D00C065E471E0F801492D4095D9
:10507000DB019D91BD0180819F3F09F477C0292FFD
:1050800022952F7030E0D90190962C9130E09F70DE
:1050900002C0359527959A95E2F720FD67C08929CA
:1050A00080833196A616B70619F7F70131978081EC
:1050B0008F3F11F00E941C0DB0EABA95F1F7990CE0
:1050C000E5E4EE16E1E0FE0609F0AFCF48E050E07F
:1050D000B80180EF92E00E9406307C01892B41F0FC
:1050E00088E0F801A0EFB2E001900D928A95E1F717
:1050F0001091F902E114F104D9F181E08093A80242
:105100000E948E1E9093A7028093A6028091A60211
:105110009091A7020E94E60B059790F0E12FF0E036
:10512000E050FD4F8091F00280838091F1028183F5
:105130008091F20282838091F30283831092A8020D
:1051400081E090E0EF28C1F02F960FB6F894DEBF13
:105150000FBECDBFDF91CF911F910F91FF90EF90C8
:10516000DF90CF90BF90AF909F900895842398CF09
:105170008091A8028111CACF0E941011F82EE091EF
:10518000F902882309F48EC019861A861B861C86AC
:105190000E2F10E000501D4F8091EB028A3008F076
:1051A0004AC045E45CE1BE01675F7F4FC8010E94D1
:1051B000CC10882309F44FC043E55BE1BE01675F73
:1051C0007F4FC8010E94CC10882309F444C049E9EC
:1051D0005AE1BE01675F7F4FC8010E94CC1088234F
:1051E000D1F14CE15BE1BE01675F7F4FC8010E94D6
:1051F000CC10882381F146ED5BE1BE01675F7F4FF4
:10520000C8010E94CC10882331F11092EB028091EA
:10521000F80290E044E050E0BE01675F7F4F8050AD
:105220009D4F0E94063021E02093B302892B61F547
:10523000F12C8F2D89CF8091A9029091AA020E9412
:10524000E60B843F914008F0ACCF8091B30281110E
:1052500012C080E079CF8091EB028F3F29F08F5F01
:105260008093EB028A3098F20E948E1E9093AA02DD
:105270008093A902EACFFE01399684E0DF011D92F6
:105280008A95E9F71092B302E091F802F0E0E0505D
:10529000FD4F89859A85AB85BC8580839183A283E8
:1052A000B383C7CFF0E0E050FD4F0091F80210E06B
:1052B00000501D4FF89484E0A6EBB2E001900D92EF
:1052C0008A95E1F764E070E086EB92E00E94470C7B
:1052D0008093B5020E941A0DF89484E0EAEBF2E0A4
:1052E000D80101900D928A95E1F70E941A0DF89469
:1052F000C090BE02D090BF02E090C002F090C10208
:105300008091AB029091AC02A091AD02B091AE023F
:10531000C816D906EA06FB06D1F0C092AB02D092BD
:10532000AC02E092AD02F092AE020E941011811127
:105330000EC00E94F50BC61AD70AE80AF90AC092F5
:10534000EC02D092ED02E092EE02F092EF020E94A7
:105350001A0DF89486E0E2ECF2E0A0E6B3E00190EA
:105360000D928A95E1F71091C802112349F08091BE
:105370006603811105C00E946D1180E00E945D0CE2
:10538000109366030E941A0DF8940E944311811134
:1053900056C06091AF027091B0028091B1029091BD
:1053A000B2020E94CA0B672B682B692B09F447C015
:1053B0000E94F50B6093AF027093B0028093B1022C
:1053C0009093B2020E94BD139F878E870091CF02F7
:1053D0001091D0020115110571F042E050E0BE01BC
:1053E000625F7F4F8FEC92E00E940630892B19F0AC
:1053F000C8010E94E8138E01075F1F4F85E0F82E59
:10540000F8012F2D11922A95E9F749855A856B8568
:105410007C858D850E94532729873A874B875C8737
:105420006D87F801AAECB2E001900D92FA94E1F7D1
:1054300065E070E0C8010E94470C8093C9020E9499
:105440001A0D07CF1F921FB61F9211248F939F939F
:10545000AF93BF938091D603811113C08091D7037E
:105460009091D803A091D903B091DA034196A11D80
:10547000B11D8093D7039093D803A093D903B09321
:10548000DA03BF91AF919F918F911F901FBE1F9024
:105490001895CDB7DEB72A970FB6F894DEBF0FBECA
:1054A000CDBF84B7877F84BF0FB6F894A89580914D
:1054B0006000886180936000109260000FBE80E8F9
:1054C00090E00FB6F89480936100909361000FBE56
:1054D00085B7806885BF85B7806885BF88E19DE016
:1054E00090933B0280933A020E943C0A0E94070B71
:1054F0008091E20084608093E20078948091EB03D5
:105500008823A1F01091E9001F709091EC00892F81
:10551000817090FD80E8182B1092E9008091E800DE
:1055200083FD0E9489171F701093E90082E084BDFB
:1055300093E095BD9AEF97BD80936E001092EC02B8
:105540001092ED021092EE021092EF020E944311AF
:10555000809349010E94101181110E94312E809187
:105560004901811124C080EF8093450186E6809334
:10557000460184E98093470185E38093480185E0F3
:10558000E1E6F1E0DE01119601900D928A95E1F7D6
:105590008981809340018A81809341018B8180932E
:1055A00042018C81809343018D81809344018091DD
:1055B000490194E0811190E09093F90284E0891B05
:1055C0008093F80220E4E22E21E0F22E35E4C32E8F
:1055D00031E0D32ED7018D917D018F3F11F00E94D4
:1055E0001C0DCE14DF04B1F795E4E92E91E0F92EFD
:1055F000F70181917F018F3F11F00E941C0DF9E4AA
:10560000EF16F1E0FF06A1F788E0E0E0F3E0DF014C
:10561000282F1D922A95E9F7E0EFF2E0DF011D92B5
:105620008A95E9F78FE090E00E94C62F6F73609330
:10563000F80390E080E00E94CC2F893E9E4F11F04D
:105640000E94C11C82E090E00E94BE2F809308035C
:105650000E9470179093FF028093FE020E94ED2734
:10566000EFE3FCE93197F1F700C000000E94ED275D
:105670000E944311E4E08111E0E0F0E0E050FD4FD2
:10568000808180FF08C06FEF7FEF90E080E00E9494
:1056900000300E94811083E090E00E94BE2F682FAE
:1056A00070E090E080E00E94CD1610922E038FEF04
:1056B0009FEF909348038093470390934A0380930E
:1056C000490390934C0380934B0390934E03809334
:1056D0004D039093500380934F0390935203809314
:1056E00051039093540380935303909356038093F4
:1056F000550390E080E00E94CC2F893E9E4F21F020
:105700000E94C11C0E94791346E050E06CE170E0F9
:1057100080E693E00E94AE2F10925B0380916003BD
:105720008C7F11F40E9479130E944311811104C0EF
:105730000E94F6130E946A120E941011811102C089
:105740000E94342E8AE491E09093D3038093D20395
:1057500018E1E12EF12C80E4782E66246394B8E001
:10576000CB2ED12C8091EB03A0E1BA2E12E1853033
:1057700009F4E7C00E94ED2781110E94F50BE0E0DB
:10578000F3E0A9E0B3E0B12CA12C5A2C11918D913A
:10579000811709F4FCC08127912C88248394982DCB
:1057A000982309F4EFC00E9410111821882399F062
:1057B00099825A8281E0111101C080E08B830E949E
:1057C0008E1E8160782F9D838C8349815A816B81E5
:1057D0008D810E94C326F501E75FFC4F80818826FA
:1057E0008082112381F085E08A9DF0018B9DF00D70
:1057F0001124E756FE4FE90DF11D808110E08F3F27
:1058000011F0082F11E0A12EB12C80912E038A0DEA
:105810009B2D911D09975CF146018A189B08B501E3
:10582000615D7C4FA4018FE293E00E941330B501CB
:10583000695C7C4FA40187E393E00E941330A401CC
:10584000440F551FB501660F771F695B7C4F87E4D6
:1058500093E00E941330B501615C7C4FA4018FE39B
:1058600093E00E94133088E0811B80932E03809187
:105870002E0390E0A02FB0E09D01220F331F2F5385
:105880003E4FAA0FBB1FBD016E537E4F41E0480F34
:10589000911708F462C080932E030E9410110E9499
:1058A000A0120E94E1140E943311909111038917F4
:1058B00009F458CF8093110352CF8091EB038430C9
:1058C00009F430C00E94A01280916603811105C0C6
:1058D0000E946D1180E00E945D0C609266030E9440
:1058E000E1141092D6030FB6F894A895E0926000E8
:1058F0000FBE7092600083B7817F846083BF83B7DF
:10590000816083BF7894889583B78E7F83BF0FB6FD
:10591000F894A8958091600088618093600010924F
:1059200060000FBE8091EA03882359F00E94ED27A2
:10593000E0E0F3E08191811143C023E0E830F20719
:10594000C9F78091EB03853009F4B7CF0E947E1729
:105950000E943311109266030DCF90E0FC01E25DCE
:10596000FC4FD9015C915183DB015C915187018B24
:10597000880F991FFC01E25DFC4F128E118E91E0A1
:10598000842F84CF9394880C25E0921208CF8FEF58
:10599000A81AB80A98E0A916B10409F0F6CE8FEF5C
:1059A0008E838F8318860E948E1E8160782F9A873F
:1059B00089874E815F8168858A850E94C3266DCF65
:1059C000B9BC19BD09B400FEFDCF8091D8008F7D10
:1059D0008093D8008091E00082608093E000809105
:1059E000E00081FDFCCF0E947E17ABCF289A219A60
:1059F000229A23982B9880E58CBD089590915D01A3
:105A00009F3F09F071C08F3F09F46EC0611144C01F
:105A10001092FA039091FA03423009F441C04330E6
:105A200009F442C094604130E1F141E050E0421796
:105A30005307E0F19091FA034031510509F452C047
:105A4000C0F54230510509F446C04830510509F40B
:105A500046C09CB52091FA03922B9CBD9091F9030E
:105A6000992319F09DB591609DBD80935D01E82F4C
:105A7000E295EF70F0E031A1282F2F7081E090E0E7
:105A800001C0880F2A95EAF7382B31A392A180959F
:105A9000892382A381E0089590E29093FA03BACF1C
:105AA00098609093FA03C1CF9C60FBCF440F551FC1
:105AB000BECF4034510549F04038510541F04032E5
:105AC000510539F621E02093F903926001C09360FB
:105AD0009093FA03BECF91E09093F903BACF21E0FF
