:100000000C9491020C94D8020C94D8020C94B32452
:100010000C94D8020C94D8020C94D8020C94D802F8
:100020000C94D8020C94D8020C94AA2C0C947E2D1B
:100030000C94BA270C94D8020C94D8020C94D802D1
:100040000C94D8020C94D8020C94D8020C94D802C8
:100050000C94D8020C942D280C94D8020C94D8023D
:100060000C94D8020C94D8020C94D8020C94D802A8
:100070000C94D8020C94D8020C94D8020C94D80298
:100080000C94D8020C94D8020C94D8020C94D80288
:100090000C94D8020C94D8020C94D8020C94D80278
:1000A0000C94D8020C94D8020C94D8021A000800C0
:1000B000000015001700000014001A0008000000DE
:1000C0001A000800150000001600070000000700D5
:1000D000090000003E0014001A0008001500170077
:1000E0002B6104681664076209610A00E1001D6162
:1000F0001B640600196105000000000000002B448D
:100100002A414C422900130012000C0018001C0068
:10011000344333780F640E720D710B00E5003871B3
:100120003764360010001100000000000000E300FA
:100130002C41284229001E001F002000210022001F
:10014000E000B668B7644A624D616500E1003A615B
:100150003B643C003D003E00000000000000010048
:1001600001000100310027002600250024002300A3
:1001700045003F004F00520051005000447243615F
:100180004264250040003E00000000000000010025
:100190000100010029001E021F022002210222028A
:1001A000390034003402260227024B0001002900E6
:1001B0001450290028004E0000000000000001003B
:1001C000010001002A002702260225022402230240
:1001D0003500317830022F022E712D003572310238
:1001E00030002F002E022D02000000000000010050
:1001F00001000100005C00000000000000000000A1
:10020000C35CC65CC85CCA5C00000000C45CC75C20
:10021000C95CCB5C00000000000000000000010091
:1002200001000100D05CC35C145000000000005CC1
:10023000000000006500B700B600000000000000EC
:100240000000000000000000000000000000A90005
:10025000AA00AE003D0400000000000000000453AE
:100260003D0100005000527251004F000000E100BB
:100270004300440045003E00000000000000010073
:10028000010001002A002502610060005F002302D6
:100290004C002E005E005D005C002D000000380068
:1002A0005B005A0059002E020000000000006300AD
:1002B00062002800643214783C1E00010101010133
:1002C000010101010202020202020202020303030F
:1002D00003030303030404040404040405050505DF
:1002E000050606060606070707070708080808099F
:1002F0000909090A0A0A0B0B0B0C0C0C0D0D0D0E4B
:100300000E0E0F0F0F1010111111121213131414DF
:10031000151516161717181819191A1A1B1B1C1D54
:100320001D1E1E1F202021222223242425262627AD
:100330002829292A2B2C2D2D2E2F303132323334DF
:1003400035363738393A3B3C3D3E3F4041424344E5
:1003500045464748494A4C4D4E4F505153545556C7
:1003600058595A5B5D5E5F616264656668696B6C73
:100370006D6F7072737577787A7B7D7E80828385EE
:1003800087888A8C8E8F91939596989A9C9EA0A22E
:10039000A3A5A7A9ABADAFB1B3B5B7BABCBEC0C238
:1003A000C4C6C9CBCDCFD1D4D6D8DBDDDFE2E4E7FC
:1003B000E9EBEEF0F3F5F8FAFDFF0C0343006F00F4
:1003C00072006E0065000000100366006F006F0091
:1003D0007300740061006E00000004030904090248
:1003E0003B00020100A0FA09040000010301010022
:1003F0000921110100012240000705810308000ABC
:10040000090401000103000000092111010001227B
:10041000B6000705820320000A1201000200000056
:10042000085346010001000102000105010902A173
:100430000185020901A100050919012908150025F6
:1004400001950875018102050109300931158125E1
:100450007F95027508810609381581257F950175FC
:10046000088106050C0A38021581257F950175085B
:100470008106C0C005010980A101850319012AB7C1
:1004800000150126B700950175108100C0050C0903
:1004900001A101850419012AA002150126A00295D7
:1004A0000175108100C005010906A1018506050737
:1004B00019E029E715002501950875018102050756
:1004C000190029EF1500250195F075018102050835
:1004D0001901290595057501910295017503910191
:1004E000C005010906A101050719E029E715002546
:1004F00001950875018102950175088101050719AB
:100500000029FF150026FF009506750881000508E3
:100510001901290595057501910295017503910150
:10052000C00011241FBECFEFDAE0DEBFCDBF04B69E
:1005300003FE27C08091070490910804A09109044C
:10054000B0910A048730904BA740B04BD1F4109281
:100550000704109208041092090410920A0414BEB1
:1005600084B7877F84BF0FB6F894A8958091600008
:10057000886180936000109260000FBEE0E0F8E3B5
:10058000099511E0A0E0B1E0E2E0F0E602C00590DC
:100590000D92A23FB107D9F724E0A2EFB1E001C06C
:1005A0001D92A730B207E1F70E9463160C94DB2F6F
:1005B0000C94000082309105C1F028F4009751F0AE
:1005C000019769F0089584309105C9F098F0059776
:1005D000C9F008958BE291E0611105C008958BE2A6
:1005E00093E06623D9F30C9467038FE499E06623C4
:1005F000A9F3F9CF80E599E0662381F3F4CF8BE28C
:1006000094E0F1CF662351F38BE298E0ECCF9C01AC
:100610003A9521153F4150F5FC01EE27F170BC01E0
:1006200066277270AC01442754709C0122273870F1
:1006300094FF0EC080E1EF2B09F480E0672B09F0F6
:100640008062452B09F08064232B89F0806808952F
:1006500081E0EF2B09F480E0672B09F08260452BE5
:1006600009F08460232B19F08860089580E00895D4
:10067000CF93DF93EC010E9407039E01205E3109B6
:100680002830310510F0209739F40E9446058C2F50
:10069000DF91CF910C94AA040E94C107F8CFCF93A9
:1006A000DF93EC010E94F804CE010E9407039E0133
:1006B000205E31092830310510F0CD2B21F4DF9177
:1006C000CF910C944D05DF91CF910C94C807CF9337
:1006D000DF93EC010E943803CE01DF91CF910C949F
:1006E0004F0381E0089581E008950C947303089509
:1006F0000C9477031F93CF93DF9300D000D00F9219
:10070000CDB7DEB749835A836B833091F401898179
:100710009A8131111DC06623B9F02223A9F00E94ED
:100720009D09182F682F89819A810E944609698145
:100730007A81812F0F900F900F900F900F90DF9183
:10074000CF911F910C9481100E947409182FEFCF44
:100750000E949D0969817A81EDCFFC01262F868157
:100760009781009739F4408151816281738184813E
:100770000C947A030895CF93DF93EC0161E00E941B
:10078000AD03BE01DF91CF910C945621CF93DF933F
:10079000EC0160E00E94AD03BE01DF91CF910C94AB
:1007A00078030E94DD110E945A040C9402120E94E8
:1007B00012210C94051280E00E945B040C94B21B81
:1007C000089508950E94E5070E94E1032FEF84E356
:1007D0009CE0215080409040E1F700C000000C9464
:1007E00051280F931F93CF93DF938C0161E00E94F8
:1007F000AD03EC01B8010E9475038823D9F1B8015B
:10080000CE010E94B9238823A9F1B801CE010E942C
:10081000661E882379F1B801CE010E942323882324
:1008200049F1B801CE010E94871D882319F1F80112
:100830008281882361F0CB35FDE5DF0721F170F47B
:10084000C115ECE5DE07A1F0CF3DDC45C9F0C801DC
:10085000DF91CF911F910F910C947103CC358DE5F1
:10086000D807A1F0CD35DD4591F70E94EA0DEFCF15
:100870000E94E20380E0DF91CF911F910F910895D4
:100880000E94A40EF7CF0E94F30DE1CF0E94F60D57
:10089000DECF0C94E0030E9437260E945B040E9486
:1008A000AA1C0C94490408950C94530481E0089503
:1008B0000C9456040895CF93C82F0E9454048C2F93
:1008C000CF910C945804CF93DF93CDB7DEB72D971B
:1008D0000FB6F894DEBF0FBECDBF49875A876B872E
:1008E0007C878D8761110E94450D1D821E821F82AB
:1008F000188685E0FE013996DE01119601900D9271
:100900008A95E1F78C819D81892B99F429813A811F
:100910004B815C816D817E818F8198850E94600C06
:100920002D960FB6F894DEBF0FBECDBFDF91CF91ED
:10093000089589819A8189238F3F41F3CE010196E1
:100940000E94BB038111E2CFEBCFFC01808191813A
:100950000C94DF09CF93C82F882309F447C08CEF8C
:100960008C0F813AA0F46C2F80912C0190912D0175
:100970000E94B226882329F08C2F0E94070D0E9426
:10098000680D8C2F0E94000DCF910C94680D80E2B1
:100990008C0F883048F4C77081E001C0880FCA9579
:1009A000EAF70E94280DF0CFEBE5EC0FE33040F4BE
:1009B000F0E0ED55FE4F808190E0CF910C947226CF
:1009C000E8E5EC0FE73150F4F0E0EE0FFF1FEB58D5
:1009D000FE4F80819181CF910C948826CD3E30F0DE
:1009E0008C2F0E94F316CF910C94C617CF910895C7
:1009F000882361F19CEF980F913A20F40E94070D33
:100A00000C94680D90E2980F983050F4877091E044
:100A100001C0990F8A95EAF7892F0E942E0DF0CF19
:100A20009BE5980F933020F490E080E00C947226C0
:100A300098E5980F973120F490E080E00C94882698
:100A40008D3E20F00E944D170C94C61708951F93F9
:100A5000CF93DF93182FEB010E94AA04209731F463
:100A6000812FDF91CF911F910C94F8048FE99FE0C3
:100A70000197F1F700C000002197F0CF70E060E02F
:100A8000893311F460E570E00C942705882321F088
:100A90000E94280D0C94680D0895882321F00E946F
:100AA0002E0D0C94680D0895BF92CF92DF92EF92B5
:100AB000FF920F931F93CF93DF936C01D62FC72F15
:100AC000FC011281058102950F700E941E0DE82E17
:100AD0008823B9F0E12E1123A1F08C2F807F803480
:100AE00021F080E28D0F8830C8F080918C0382FD68
:100AF00015C082E00E94B90D0E941E0D91E0E82E03
:100B0000E926BC2EB2949FE0B922FBE0FB15B8F1B8
:100B1000EB2DF0E0E352F04D0C946A2FE12CF1CF75
:100B20000C2F0F70C07F11F00295007F112399F0F8
:100B3000002359F080E28D0F883010F0D11107C0EA
:100B4000802F0E94280D0E94680D8D2F5FC0802F7E
:100B50000E94380DF8CF8D2F0E94F804002379F001
:100B600080E28D0F883010F0D11104C0802F0E94D8
:100B70002E0D03C0802F0E943E0D0E94680DEB2DAC
:100B8000E850FF0B349720F40E9437260E945B0444
:100B9000EE2009F4A2C10E941A0D80FD9EC1F6014B
:100BA00012820E94140D0E94AA08C6010E94950795
:100BB0000E94140DDF91CF911F910F91FF90EF9044
:100BC000DF90CF90BF900C94CB082C2F2F70F22E7B
:100BD000C07FC03219F0F29480EFF822DD2341F09B
:100BE000D130E9F1112309F445C00023E9F1ADCF7B
:100BF00080918C0382FF15C0112359F0FF2029F04A
:100C00008F2D0E94280D0E94680D80E00E94AA048A
:100C1000B6CF80E00E94F804FF2009F4B0CF8F2DFA
:100C2000A6CF112381F0011106C00E944B0D8F2920
:100C30000E944605A4CF0130C1F70E944B0D8F29B9
:100C40000E94510D9CCF011106C00E945E0D8F2D98
:100C50000E944D0594CF013009F491CFF6CF1123B6
:100C600029F0063008F08BCF8F2DE2CF053008F049
:100C700086CFEDCF002359F3D93349F43FEF87EE08
:100C800093E0315080409040E1F700C000008D2F8C
:100C90000E94F80474CF8C2F86958695837069F036
:100CA000813009F06CCF8D2F9C2F9370111102C0F1
:100CB00090E080E00E94882662CF8D2F9C2F937059
:100CC000111102C090E080E00E94722658CF8D2F53
:100CD000112329F00E94F3160E94C61750CF0E94DC
:100CE0004D17FACF8C2F837009F041C0111147CFF7
:100CF0004D2F429546954770440F440F0D2F0F70AE
:100D000010E030E020E0042E04C0000F111F221F6D
:100D1000331F0A94D2F760E070E0CB01D4FF0FC01C
:100D20006FE070E080E090E004C0660F771F881FDE
:100D3000991F4A95D2F76095709580959095C695C4
:100D4000C695C370602B712B822B932BC23049F058
:100D500058F4C13019F00E945C0811CF0E944A0873
:100D60000ECF0E946E080BCF0E94480808CF8695D0
:100D7000112311F08C2F8170882309F400CF4D2F9F
:100D8000429546954770440F440F0D2F0F7010E0A9
:100D900030E020E0042E04C0000F111F221F331F7B
:100DA0000A94D2F760E070E0CB01D4FF0FC06FE08F
:100DB00070E080E090E004C0660F771F881F991FE5
:100DC0004A95D2F76095709580959095C695C69591
:100DD000C370602B712B822B932BC23049F058F4D7
:100DE000C13019F00E942109CACE0E940F09C7CE56
:100DF0000E943309C4CE0E948408C1CECF70112353
:100E000029F08C2F0E94AA088D2F12CF8D2F0E94BF
:100E10004D058C2F0E94CB08B2CED23F41F160F439
:100E2000D03FB9F0D13F81F0112309F446C0011140
:100E30008CCE8C2F8F711FC0D33F01F1D43FA1F70F
:100E400080918C0382FF24C08C2F8F71112311F3AA
:100E500012C0112341F0053008F091CE8C2F8F7114
:100E60000E94EE088CCE063008F089CEF7CF8C2F8A
:100E70008F711111CFCF0E94AA0881CE112329F0C2
:100E80008C2F8F710E9495087ACE0E94900877CEA1
:100E9000112349F0CF718C2F0E94AA0863E08C2F98
:100EA0000E949E0D6CCE81E00E94B90D023008F4C4
:100EB00066CE82E00E94B90D62CE002359F0D9338C
:100EC00009F0E5CEEFEFF7EE23E0E150F0402040EF
:100ED000E1F7DBCE8C2F8F719DCFDF91CF911F91EA
:100EE0000F91FF90EF90DF90CF90BF9008950F93F8
:100EF0001F93CF93DF93EC018E819F81009779F050
:100F00000E94890F8C010E9445090E944708B80180
:100F1000CE01DF91CF911F910F910C945405688100
:100F200079818A810E94E909EDCFCF93DF93EC01AB
:100F30008B819C81892B29F08881998189238F3F1E
:100F400059F4DF91CF910895CE010E947707CE0129
:100F5000DF91CF910C94C603CE010E94F103811161
:100F6000F3CF0E941E0D882361F38A81882349F301
:100F700080918C0382FDE5CF82E0DF91CF910C94CC
:100F8000B90D882321F00E94380D0C94680D089546
:100F9000882321F00E943E0D0C94680D089590E086
:100FA00080E00E94722690E080E00E9488260E94E5
:100FB000450D0E94480D0E94680D0E94ED180C948A
:100FC000C6170E940E0D0C94CF070E94350D0C948D
:100FD000E107E92FE295EF70E250EE3070F4F0E0B7
:100FE000E751F04D0C946A2F803F19F020F4883EB1
:100FF00020F481E00895843FE1F380E00895883E85
:10100000C0F3813FD1F7F5CF93FB882780F908958E
:10101000FC0186819781009721F00E94890F0C9432
:10102000E907808191810E94DF09F9CFCF93DF9397
:1010300000D000D00F92CDB7DEB70F900F900F9079
:101040000F900F90DF91CF910895CF93DF93CDB79D
:10105000DEB728970FB6F894DEBF0FBECDBF289637
:101060000FB6F894DEBF0FBECDBFDF91CF910895CC
:1010700008950C9438080E94390860931702709301
:1010800018028093190290931A020C94CF070895C6
:101090000C943B080F931F930091170210911802B4
:1010A0002091190230911A02602B712B822B932B05
:1010B0001F910F910C943B080F931F9300911702FF
:1010C000109118022091190230911A0260237123A5
:1010D000822393231F910F910C943B080F931F932E
:1010E00000911702109118022091190230911A02F2
:1010F00060277127822793271F910F910C943B083B
:101100000C9438080C9480080E94820860931302A3
:101110007093140280931502909316020C94CF07DB
:1011200060E070E0CB010C9484080F931F9341E0C2
:1011300050E060E070E08A019B0104C0000F111FC5
:10114000221F331F8A95D2F7C901B8011F910F9151
:101150000C9484080F931F9341E050E060E070E02E
:1011600004C0440F551F661F771F8A95D2F78091E0
:10117000130290911402A0911502B09116028A01F7
:101180009B01082B192B2A2B3B2BC901B8011F915E
:101190000F910C9484080F931F9341E050E060E09E
:1011A00070E004C0440F551F661F771F8A95D2F761
:1011B000CB01BA01609570958095909500911302CE
:1011C00010911402209115023091160260237123B0
:1011D000822393231F910F910C9484080F931F93E4
:1011E00041E050E060E070E004C0440F551F661F0E
:1011F000771F8A95D2F78091130290911402A091E3
:101200001502B09116028A019B01082719272A2787
:101210003B27C901B8011F910F910C9484080F93CB
:101220001F93009113021091140220911502309126
:101230001602602B712B822B932B1F910F910C9414
:1012400084080F931F9300911302109114022091B0
:1012500015023091160260237123822393231F917C
:101260000F910C9484080F931F9300911302109117
:1012700014022091150230911602602771278227EF
:1012800093271F910F910C9484080895E92FEE0F76
:10129000E90FEE0F8E0F982F977041E001C0440FB9
:1012A0009A95EAF786958695869595E0899FF0014F
:1012B0001124EB50FE4F30E020E070E05191DF014F
:1012C0001197CB01022E02C0969587950A94E2F7FA
:1012D000817081958527842385278C932F5F3F4FCD
:1012E0002530310559F70895E92FEE0FE90FEE0F7C
:1012F0008E0F982F977086958695869525E0829F0C
:10130000F0011124EB50FE4F50E040E080E02191CD
:1013100030E0092E02C0369527950A94E2F7217035
:101320003327042E01C0220F0A94EAF7822B4F5F65
:101330005F4F4530510559F70895BF92CF92DF9224
:10134000EF92FF920F931F93CF93DF938C01C09086
:101350001302D0901402E0901502F09016028091D2
:10136000170290911802A0911902B0911A02C82A8E
:10137000D92AEA2AFB2ACFE1D0E0BC2ED701C60148
:101380000C2E04C0B695A795979587950A94D2F729
:1013900080FD0EC0219788F7B12C8B2DDF91CF9166
:1013A0001F910F91FF90EF90DF90CF90BF90089525
:1013B000B8018C2F0E949510019761F3EECFCF9367
:1013C000DF93EC010E949D09BE01DF91CF910C9447
:1013D00095101F93CF93DF93EB019091F401992324
:1013E00031F0CB01DF91CF911F910C94DF0988235D
:1013F00079F0CB010E949D09182F682FCE010E9421
:101400004609BE01812FDF91CF911F910C94951059
:10141000CB010E947409182FF4CFCF93DF93C091B2
:101420001B0280911C028C1303C0DF91CF910895A1
:10143000D0E0FE0183E0EE0FFF1F8A95E1F7E35E47
:10144000FD4F208131814281538164817581868184
:1014500097810E9425082196C770E3CF20915D02F5
:1014600030915E0240915F02509160026091610292
:101470007091620280916302909164020C9425083D
:101480000F931F93CF93DF9380916202807FC1F40B
:1014900080915F028823A1F080911B0210911C02B1
:1014A00060915D0270915E02A0916002B091610254
:1014B000062F0723C0912A01D0912B01181305C0D4
:1014C000DF91CF911F910F91089590E0109711F047
:1014D0000F3F19F401968770F1CF9C0143E0220F72
:1014E000331F4A95E1F7F901E35EFD4F4181471350
:1014F000F1CF40814613EECF42814111EBCF4381C2
:1015000054814A1B5B0B4C175D0720F780916202E8
:101510008F70806180936202F901EE5DFD4F8081E2
:101520008F70806180838DE592E00E949507DF9146
:10153000CF911F910F910C940D0AAF92BF92CF9251
:10154000DF92EF92FF920F931F93CF93DF93CDB76C
:10155000DEB765970FB6F894DEBF0FBECDBF8C0126
:1015600085E0F801DE01519601900D928A95E1F730
:10157000F801E2804DE5C42E42E0D42E6091600275
:10158000709161026115710509F47EC190915D024F
:1015900020915E02892F82238F3F09F475C140811B
:1015A0005181A380B480F0905F02F501E61BF70B38
:1015B000BF01E0912A01F0912B01FF2009F42CC119
:1015C00080916202382F307F6E177F0708F0D6C0F7
:1015D000311183C0FE2C25132DC094132BC06091B4
:1015E000630270916402F8012681378162177307E4
:1015F00009F5E1101FC08F708061809362020E9424
:101600002E0AC6010E94950780916202F801858327
:101610008F2D65960FB6F894DEBF0FBECDBFDF915C
:10162000CF911F910F91FF90EF90DF90CF90BF90DF
:10163000AF900895AB2829F0842F85238F3F09F0C0
:101640003CC180E0F82FF170DF2E80FF3CC080911C
:101650001B0220911C02821315C0498B5A8B898969
:101660009A890E94DF09292F22952F702230F8F0E5
:10167000243020F59F70F9F0F8019581907FD9F41E
:10168000D12C1FC090E0FC0133E0EE0FFF1F3A9514
:10169000E1F7E35EFD4F3181351306C0308134132D
:1016A00003C032813E110FC001968770D4CF9F7066
:1016B00011F0882329F3805E883010F3C8010E945E
:1016C0009507FD2CA5CFEE2009F4A2CF80916202F0
:1016D000816080936202F12C9BCF25131DC094136F
:1016E0001BC04091630250916402F801268137814A
:1016F0004217530789F4E1100FC08583C8010E9487
:10170000950788E0F801ADE5B2E001900D928A9569
:10171000E1F70E942E0A7CCFC8010E9408088823A6
:1017200049F1EE2039F1809162028032A0F02091DF
:101730005D0230915E023A8729871B86BD86AC86A2
:101740008E878091630290916402988B8F87CE017F
:1017500009960E94950788E0F801ADE5B2E0019096
:101760000D928A95E1F70E94400A0E942E0AFF24FA
:10177000F3944ECFC8010E949507F9CF311113C0E1
:101780007A2DBD8AAC8A6E2D8D890E9416088DE552
:1017900092E00E94950788E0F60111928A95E9F798
:1017A0000E942E0A98CF251318C0941316C040919A
:1017B000630250916402F801268137814217530772
:1017C00061F4E1100AC08583C8010E94950788E092
:1017D000F60111928A95E9F71BCFC8010E9408080B
:1017E000882341F2EE2031F280916202803208F4C7
:1017F000B2CF20915D0230915E023A8329831B8231
:10180000BD82AC828E83809163029091640298873E
:101810008F83CE0101969DCF6E177F0740F5FE2C7A
:10182000EE2009F4A7CF251314C0941312C0209101
:10183000630230916402F801868197812817390785
:1018400041F488E0ADE5B2E001900D928A95E1F7B0
:10185000DFCEC8010E94080881117DCF809162020D
:10186000816080936202C8010E949507D1CE7A2DD3
:10187000BD8AAC8A6E2D8D890E94160888E0F6011B
:1018800011928A95E9F745CFEE2009F473CFC8018C
:101890000E940808F82E882309F46CCF88E0F8012C
:1018A000ADE5B2E001900D928A95E1F78DE592E009
:1018B0000E94A5040E94400A2CCF81E08E25C2CE52
:1018C000CF93DF93CDB7DEB760970FB6F894DEBF46
:1018D0000FBECDBF29873A874B875C876D877E8790
:1018E0008F87988BCE0109960E949D0A8823D1F09C
:1018F0008C859D85892B39F029853A85822F832314
:101900008F3F09F074C080911B0290911C028913D3
:1019100048C060960FB6F894DEBF0FBECDBFDF9112
:10192000CF91089588E0FE013996DE01119601906D
:101930000D928A95E1F78C859D85892B21F3898508
:101940009A8589238F3FF9F2A0911C02B0E0CD0166
:1019500001968770992720911B022817190671F4A8
:101960000E94E50710921C0210921B0288E0EDE530
:10197000F2E0DF011D928A95E9F7C5CF93E0AA0F47
:10198000BB1F9A95E1F7A35EBD4F98E0FE0131962B
:1019900001900D929A95E1F780931C020E940D0A26
:1019A000B2CFB8E08B9FC0011124835E9D4F0E948F
:1019B0009D0A882309F4ADCFE0911B0228E0E29F45
:1019C000F0011124E35EFD4F20813181428153817A
:1019D00064817581868197810E94250880911B0210
:1019E00090E001968770992780931B028CCF4B85DE
:1019F0005C856D857E858F8598890E94250883CFBB
:101A0000682F80912C0190912D010C943227682F22
:101A100080912C0190912D010C943D2780912C01F7
:101A200090912D010C9448278091650285958595AC
:101A3000859508958091650287700895909165025B
:101A4000977081E009F480E00895809189020895FB
:101A500090918902892B80938902089580959091B5
:101A6000890298239093890208951092890208951B
:101A700090918802892B8093880208958095909197
:101A800088029823909388020895109288020895FE
:101A900010928702089580916602089508950C942B
:101AA0004E0D90918C0392FD08C09091660298179C
:101AB00021F0809366020C944F0D08958091660288
:101AC000882329F01092660280E00C944F0D08954F
:101AD000E0912C01F0912D01809189028083E091A9
:101AE0002C01F0912D01808190918802892B8083B7
:101AF000E0912C01F0912D01808190918702892B3A
:101B0000808390916602992381F0E0912C01F091FD
:101B10002D018081892B808380912C0190912D0152
:101B20000E949E2681110E945E0D80912C01909151
:101B30002D010C944A2608950C949B0D90918C03D2
:101B400092FD10C098E0899F90011124622B609350
:101B500065020E94AA088091650285958595859504
:101B60000C949C0D0C94AA081092650280E00C94D1
:101B70009C0D909165028095892380936502282FA2
:101B8000277091F4282F082E000C330B92171306A0
:101B900059F090918C0392FD07C0859585958595A8
:101BA0000E94CB080C94B40D089590918C0392FB85
:101BB000222720F9281769F080FB92F990938C0373
:101BC00080918B0390918C030E94200E82E00C94F4
:101BD000B90D089580918C0382FB882780F991E0EC
:101BE00089270C94D50D81E00C94D50D80E00C94E0
:101BF000D50D6FEF7FEF90E080E00C94C52F90E063
:101C000080E00E94A12F21E0893E9E4F09F020E054
:101C1000822F089582E090E00C94932F83E090E06F
:101C20000C94932FCF9384E090E00E94932FC82FC1
:101C300082E290E00E94932F982F8C2FCF910895ED
:101C4000CF93C92F682F84E090E00E94A72F6C2FBC
:101C500082E290E0CF910C94A72FAB01BC018FE002
:101C600090E00C94B92FAB01BC0183E190E00C949F
:101C7000B92F60E070E0CB010C94330E60E070E0AF
:101C8000CB010E942D0E0C94390E69EE7EEF90E090
:101C900080E00E94C52F60E082E090E00E94A72FC4
:101CA00060E083E090E00E94A72F1092170210924C
:101CB00018021092190210921A0260E084E090E07B
:101CC0000E94A72F60E082E290E00E94A72F60E0D0
:101CD00085E090E00E94A72F60E086E090E00E94FF
:101CE000A72F6FEF87E090E00E94A72F40E050E021
:101CF000BA0188E090E00E94B92F60E08DE090E0AA
:101D00000E94A72F40E050E0BA0188E190E00E94D5
:101D1000B92F60E087E190E00E94A72F40E050E0FB
:101D2000BA018CE190E00E94B92F70E060E080E29F
:101D300090E00E94C52F40E050E0BA0188E190E0B9
:101D40000E94B92F0C943E0E0C94450E682F8EE025
:101D500090E00C94A72F0E94F6276093970270934F
:101D600098028093990290939A02609393027093E1
:101D700094028093950290939602089585B78068A7
:101D800085BF85B7806885BF0895089508950C9430
:101D9000C50E08950C94C90E0E94BE0E8DEB91E104
:101DA0000E942D260E94C60E0C94C70E0C94C613DA
:101DB000089508950E94D80E0C94D90E0E94E12730
:101DC0000E9473110E94B1120E944E1E0E946A1C52
:101DD0000C94CA0EAF92BF92CF92DF92EF92FF9215
:101DE0000F931F93CF93DF93CDB7DEB72A970FB62C
:101DF000F894DEBF0FBECDBF0E943C1381110E943C
:101E0000AB0E8BE8A82E82E0B82E10E000E0C02ECA
:101E1000802F0E940712E82EF501F1905F01F8165D
:101E200009F44FC080919B0281FD0E940D128F2DFD
:101E30008E25D12CFF24F394982F9F21E9F10E9445
:101E4000D60E882399F0DE82CF82EF2081E009F45C
:101E500080E088870E94EA278160782F9A878987A7
:101E60004E815F8168858A850E946304F801E55789
:101E7000FD4F8081F826F0820E94E81C0E94E11745
:101E80000E94372690918A02891791F10E94372685
:101E900080938A022A960FB6F894DEBF0FBECDBF9C
:101EA000DF91CF911F910F91FF90EF90DF90CF9036
:101EB000BF90AF900C945B04D394FF0CF6E0DF125C
:101EC000BBCF0F5F1F4F0830110509F0A0CF8FEF78
:101ED00089838A831B820E94EA278160782F9D83F1
:101EE0008C8349815A816B818D810E946304C4CFA8
:101EF0002A960FB6F894DEBF0FBECDBFDF91CF910B
:101F00001F910F91FF90EF90DF90CF90BF90AF9017
:101F10000895CF93DF930E949910EC01811521E57C
:101F2000920708F042C0811530E5930708F09DC084
:101F3000883E910530F5803E910508F092C0883AC0
:101F4000910588F4853A910508F084C081309105A7
:101F500009F487C0009709F484C0049708F081C091
:101F6000D0E0C0E07EC08F3B9105D0F7C85AD0E0EA
:101F7000CC0FDD1FCA55DE4F0990D881C02DD46427
:101F800070C08115904250F4C11581E0D80708F067
:101F900068C0CD3ED10520F3D06563C0C11590E483
:101FA000D907F0F2DF70D06A5CC0811525E5920791
:101FB00000F5811534E5930708F08BC0811543E5E2
:101FC000940708F073C0C11582E5D80708F469C00A
:101FD000CE018370992721E030E002C0220F331F29
:101FE0008A95E2F7C695C69580E2C89FE001112464
:101FF00054C0C11599E5D907A8F4C11528E5D20741
:1020000008F06CC0C11536E5D30708F0A9CF8C2FB6
:102010000E943011C82FD0E0DC2FCC27CC27DF71F5
:10202000D0621FC0C1154AE5D40708F45CC0CE01D8
:1020300090568115904208F093CF8D2F8F710E949A
:10204000301190E0982F882788279F719C012C2BB6
:10205000E901E6CFC55AD0E0CC52DE4FC881D0E0CE
:10206000D064CE01DF91CF910895E4E096958795F5
:10207000EA95E1F783702C2F26952695237040E290
:10208000249F90011124382B8C2F8370C1E0D0E065
:1020900002C0CC0FDD1F8A95E2F7C22BD32BDC6880
:1020A000E0CFDC2FCC27C16FD06ADBCF83709927BC
:1020B00021E030E002C0220F331F8A95E2F7C69577
:1020C000C69590E2C99FE0011124C22BD32BDA6898
:1020D000C8CFD82FCC27C46FD06AC3CFDC2FCC2772
:1020E000C06FD06ABECF8C2F8F700E94301134E049
:1020F000D695C7953A95E1F7CF709C2FEC01D06942
:10210000B0CF972F70E026E0929F600D711D1124D3
:10211000FB0190E3899FE00DF11D1124EE0FFF1FDD
:10212000EC52FF4F8591949108950E9481100C9478
:10213000890F82389105B1F1B0F48133910509F42A
:1021400075C048F48932910509F469C08A32910555
:1021500009F473C008958533910509F459C0893392
:10216000910501F10895833E9105A9F138F4803E6F
:102170009105F9F0823E910549F10895863E910559
:10218000A9F1873E9105C9F1843E910519F5209189
:102190008C0321FF1FC080918B0384FD14C087EE48
:1021A00090E0089520918B032370A1F080EE90E0E1
:1021B000089520918B0320FD47C030918C0330FFA0
:1021C00009C024FF44C090E080E004C020918B034C
:1021D00022FDF7CF089520918B0322FD3BC0309163
:1021E0008C0330FDE3CF24FFF5CFEDCF20918B039F
:1021F00023FFF0CF24FDE7CFD2CF20918B0323FD27
:102200002CC030918C0331FFEECF84EE90E0089526
:1022100020918B0325FFDECF89E290E00895209185
:102220008B0325FFD7CF85E390E0089520918B03A2
:1022300026FFD0CF8AE290E0089520918B0326FFFD
:10224000C9CF81E390E0089589E390E0089583EE9B
:1022500090E0089582EE90E0089586EE90E0089573
:1022600090918B0392FF06C0282F28712830F9F433
:10227000877F846093FF06C0282F28712831F1F4EE
:10228000877E846120918C0320FF06C0382F38712F
:102290003830D9F4877F816021FF06C0282F28714C
:1022A0002831D1F4877E816194FD877E0895282F9F
:1022B00024712430F9F68B7F8860DCCF282F2471BD
:1022C000243101F78B7E8861DDCF382F31713130B9
:1022D00019F78E7F8860E0CF282F2171213121F7F7
:1022E0008E7E8861E1CF109287031092880310924E
:1022F000890310928A030895CF92DF92EF92FF92A2
:102300006B017C010E94C61381110EC00E94F6274A
:10231000C61AD70AE80AF90AC0928703D09288033E
:10232000E0928903F0928A03FF90EF90DF90CF90C4
:1023300008950F931F930E94C613882321F01F91C5
:102340000F910C94F6270E94F627009187031091B5
:1023500088032091890330918A03600F711F821FC7
:10236000931F1F910F9108950E94C61381110C9421
:10237000EA270E949911CB01089580E008950C94FA
:10238000F90D0E943C138FE39CE90197F1F700C01F
:1023900000000E943C130E94DE13811109C084E0FA
:1023A0000E94071281FF06C00E94BF110C945128A1
:1023B00080E0F6CF08950C94C1110E94FF0D8111A9
:1023C00002C00E94A40E0E940A0E80939B020E94EB
:1023D000120E90938C0380938B030E94DB110E945A
:1023E0000E0E682F70E090E080E00E944808609137
:1023F00013027091140280911502909116020C94B0
:10240000820808950C94011208950C940412E82F88
:10241000F0E0EB56FC4F80810895089580EA8A959C
:10242000F1F7089500C008950C940E12F894E82F67
:10243000E295EF70F0E031A1282F2F7081E090E05D
:1024400001C0880F2A95EAF7982F9095932391A3BE
:1024500092A1892B82A37894089508950C942D124B
:10246000CF93DF9384E90E94161286E60E9416122B
:1024700087E90E94161286EC0E941612C7EDD1E081
:1024800089918F3F11F00E94161281E0CD3DD8074F
:10249000B9F7DF91CF910895CF92DF92EF92FF923B
:1024A0000F931F93CF93DF93EC01D62E062F10E0EE
:1024B000C80183529E4F7C01FC0180818F3F09F44B
:1024C00045C0F894E82FE295EF70F0E091A18F708D
:1024D00021E030E001C0220F8A95EAF7892F822B94
:1024E00081A382A12095282322A378940E9412120E
:1024F000E7EDF1E04DED51E031E0C12C21912F3FAE
:1025000071F1A22FA295AF70B0E090968C9190E0FF
:102510002F7002C0959587952A95E2F780FD1FC020
:10252000832FC82A330F4E175F0741F7F7018081C9
:102530008F3F11F00E94161261E0C11001C060E0EF
:102540008D2D0E941412C00FD11FC882DF91CF9130
:102550001F910F91FF90EF90DF90CF90089580E052
:10256000E0CF0E94E31380912E0180912E0194E030
:10257000811190E090939E0384E0891B80939D03DA
:102580000E94301288E0E5E9F3E0DF01982F1D9208
:102590009A95E9F7EDE8F3E0DF011D928A95E9F7F6
:1025A00084E00E948F130E94D1030C94ED13EF92EC
:1025B000FF921F93CF93DF9300D000D0CDB7DEB74B
:1025C0000E94C613182F60919E03882309F447C008
:1025D00019821A821B821C82862F90E09E012F5F37
:1025E0003F4F7901B9018B569C4F0E94FB13882302
:1025F000E9F080919D0390E044E050E0B7018B56F4
:102600009C4F0E947D2F21E020939C02892BC9F4CE
:1026100010E00E94D703812F0F900F900F900F9022
:10262000DF91CF911F91FF90EF90089580919C02D0
:10263000882371F384E0F70111928A95E9F71092EB
:102640009C02E0919D03F0E0EB56FC4F89819A815A
:10265000AB81BC8180839183A283B383DACF70E0A6
:102660006B567C4F80919D0390E08B569C4F0E944F
:1026700088140E942E12CFCFEF92FF920F931F93D8
:10268000CF93DF93CDB7DEB728970FB6F894DEBFB0
:102690000FBECDBF8E010F5F1F4F88E0F801119272
:1026A0008A95E9F7F12C6F2DC8010E944C12F39422
:1026B000F4E0FF12F8CF48E050E0B8018DE893E075
:1026C0000E947D2F7C0121E0892B09F420E0E11498
:1026D000F10441F088E0F801ADE8B3E001900D921B
:1026E0008A95E1F760919E0370E06B567C4F44E061
:1026F0008DE893E00E94901381E090E0EF2811F4C0
:102700000E94D71228960FB6F894DEBF0FBECDBF39
:10271000DF91CF911F910F91FF90EF900895089551
:10272000FF920F931F93CF93DF93F82E092F162F4D
:10273000D72FC42F222349F081E080939F020E946B
:10274000EA2790939E0280939D0280919F028823A6
:10275000A1F080919D0290919E020E94022805970F
:1027600060F0EF2DF02FA12FBD2FCE0FDF2FD11D49
:10277000EC17FD0741F410929F02DF91CF911F915A
:102780000F91FF90089581918D93F2CF8091A202D5
:10279000811107C00E94352F882351F081E080937A
:1027A000A20281E09091A202913009F080E00895A8
:1027B00082E08093A2020E94302FF3CF0E94C613C2
:1027C00091E0892708950E94DE1380932E010E94D4
:1027D000C61381110C94311408950E94C6138111FF
:1027E00002C00C943314089581E09091A3029A30B2
:1027F00008F080E008950F931F93CF93DF93EC01CF
:102800008B018091A3028A30B8F4B801CE010E94F6
:102810008614C82F811122C08091A3028F3FB9F482
:102820000E94EA279093A1028093A0028C2FDF914F
:10283000CF911F910F9108958091A0029091A102D4
:102840000E940228843F914000F7C0E0EFCF8F5FE5
:102850008093A3028A3020F7C1E0E8CF1092A30250
:10286000E5CF0C946C240C946F24EF92FF920F939D
:102870001F93CF93DF937901C82F880FDD0B41158C
:102880005105A9F08AE08C9FF0018D9FF00D112475
:10289000E15DFE4F838194818C559D4F228130E014
:1028A0004217530708F49A01A9010E948A2FCE010A
:1028B0000E947925892B11F501151105E9F08AE0AF
:1028C0008C9FF0018D9FF00D1124E15DFE4F45813D
:1028D00050E00417150708F4A8018AE08C9FF00166
:1028E0008D9FF00D1124E15DFE4F668177816C555F
:1028F0007D4FC7010E948A2F81E001C080E0DF91F7
:10290000CF911F910F91FF90EF9008950C94EE15C9
:102910000C9412160F931F93CF93DF9300D000D027
:10292000CDB7DEB76091C1027091C2028091C3023F
:102930009091C4020E94112811E06436710581054E
:10294000910518F10E9499116E5F7F4F8F4F9F4F35
:1029500069837A838B839C8310E000E030E020E081
:1029600044E050E0BE016F5F7F4F82E00E9435146B
:10297000182F882351F00E94F6276093C1027093AC
:10298000C2028093C3029093C402812F0F900F90D4
:102990000F900F90DF91CF911F910F9108950F939A
:1029A0001F93CF93DF93CDB7DEB728970FB6F89478
:1029B000DEBF0FBECDBFCE0101960E94811B1885E0
:1029C0006091C5027091C6028091C7029091C802C1
:1029D0000E941128643671058105910510F41123B8
:1029E000C1F010E000E030E020E048E050E0BE013F
:1029F0006F5F7F4F83E00E943514882369F00E9447
:102A0000F6276093C5027093C6028093C702909325
:102A1000C8020E947E1B81E028960FB6F894DEBFA4
:102A20000FBECDBFDF91CF911F910F910895AF924F
:102A3000BF92CF92DF92EF92FF920F931F93CF93AB
:102A4000DF9300D000D00F92CDB7DEB75B01E090EE
:102A5000E501F090E60101E010E09E012B5F3F4FA1
:102A600050E040E070E060E080E00E943514182FF4
:102A7000882309F44BC067018FEFC81AD80A609108
:102A8000BD027091BE028091BF029091C0020E946F
:102A90001128643671058105910580F104E010E08C
:102AA0009E012F5F3F4F50E040E070E060E081E02A
:102AB0000E943514F82E64E070E0C6010E944F1E9B
:102AC00011E09D81981310E01F2159F10E94F62713
:102AD0006093BD027093BE028093BF029093C002C8
:102AE00089819A81AB81BC818093B9029093BA02AB
:102AF000A093BB02B093BC0211E013C064E070E08D
:102B0000C6010E944F1E9D818913C8CFF7018181A4
:102B10009281A381B48189839A83AB83BC83111191
:102B2000DFCF8091B9029091BA02A091BB02B0911F
:102B3000BC02F50180839183A283B383812F0F9020
:102B40000F900F900F900F90DF91CF911F910F91E9
:102B5000FF90EF90DF90CF90BF90AF900895AF922D
:102B6000BF92CF92DF92EF92FF920F931F93CF937A
:102B7000DF937C015B016A010E94F41301E010E025
:102B8000882311F00AE010E0C1E0D0E0F894B5012C
:102B9000C701F60109957894811104C021960C179C
:102BA0001D075CF4DF91CF911F910F91FF90EF9083
:102BB000DF90CF90BF90AF900895CC9F9001CD9FB4
:102BC000300D300D112490E080E045E34A95F1F797
:102BD0000000019682179307C1F7D8CF0F931F9378
:102BE000CF93DF93EC018B0147E155E10E94AF15D4
:102BF000882391F04AE854E1B801CE010E94AF1554
:102C0000882351F04FEC54E1B801CE01DF91CF9110
:102C10001F910F910C94AF1580E0DF91CF911F9120
:102C20000F9108950F931F93CF93DF93F894C09162
:102C3000E501D091E601CE01019624E0FB01DC0123
:102C400001900D922A95E1F764E070E00E944F1E1A
:102C500088837894F8946D817E818F819885009126
:102C6000B5021091B6022091B7023091B8026017F8
:102C700071078207930751F06093B5027093B60213
:102C80008093B7029093B8020E947C117894F894D4
:102C90008889882331F060E0CE0109960E94B31C38
:102CA000188A7894DF91CF911F910F9108950E9417
:102CB000042A0E94DE0E0C94102A0E94142A0E94FC
:102CC000EA0E0C942E2A0E9474270E94EB290E947F
:102CD000CC0E0E9457160E945D160E94DA0EFBCFA2
:102CE0008091CF0280FF12C060915C0185E0689FF7
:102CF000B0011124759567957595679560387105D4
:102D0000A8F561157105A1F1862F089581FF09C00D
:102D100060915C0185E0689FB0011124759567950D
:102D2000EDCF60915C0182FD0AC08091CE028823C4
:102D3000D1F090915B0160915C01891728F085E0EA
:102D4000689FB0011124DACF869FB001112485E07D
:102D5000869F9001879F300D1124692F70E0C90173
:102D60000E94562FCBCF65E070E0CECF8FE708955D
:102D700081E008958091CF0280FF0CC060915801DE
:102D800070E075956795759567956115710549F1C1
:102D9000862F089581FF06C06091580170E07595F7
:102DA0006795F3CF6091580182FD0BC09091CD02E1
:102DB0009923A1F06091570180915801961738F03E
:102DC000682F70E06038710500F38FE70895899FE0
:102DD000C001112470E00E94562FF4CF61E070E032
:102DE000D7CF81E008958D3E31F40E947016819511
:102DF0008093D30208958E3E19F40E947016F8CF86
:102E00008F3E31F40E94701681958093D20208950E
:102E1000803F19F40E947016F8CF893F29F40E9470
:102E2000BA168093D40208958A3F21F40E94BA16FC
:102E30008195F7CF8B3F31F40E94BA16819580932C
:102E4000D50208958C3F19F40E94BA16F8CF9FE07E
:102E5000980F983070F4815F990B21E030E001C049
:102E6000220F8A95EAF78091D102822B8093D102BA
:102E700008958D3F31F48091CF0281608093CF021D
:102E800008958E3F21F48091CF028260F7CF8F3F6B
:102E9000B9F78091CF028460F1CF4091D2028D3E8C
:102EA00059F48091D30287FF0DC01092D3024111D3
:102EB0000BC01092CE0208C08E3E81F48091D302E6
:102EC00018169CF3442381F08091D4029091D5028E
:102ED000892B09F05AC01092CD0208958F3E49F413
:102EE00047FFF0CF1092D2028091D3028111ECCF34
:102EF000E0CF803F19F41416ACF3E4CF9091D402E4
:102F0000893F29F41916F4F61092D402DBCF8A3FD8
:102F100019F497FFD7CFF8CF9091D5028B3F29F4C2
:102F200097FFD0CF1092D502CDCF8C3F19F4191650
:102F3000CCF3C8CF9FE0980F983090F4815F990B45
:102F400021E030E0B90102C0660F771F8A95E2F7F1
:102F5000CB0180959091D10289238093D102B2CF89
:102F60008D3F31F48091CF028E7F8093CF02AACF24
:102F70008E3F21F48091CF028D7FF7CF8F3F09F0F4
:102F8000A1CF8091CF028B7FF0CF08950E94EA27D6
:102F90009C019091D2028091D302982B21F0309322
:102FA000CC022093CB029091D4028091D502982B31
:102FB00021F03093CA022093C90280ED92E00C9474
:102FC0006426EF92FF920F931F93CF93DF9300D06D
:102FD00000D000D0CDB7DEB786E0E0EDF2E0DE0154
:102FE000119601900D928A95E1F7E090D202F0904F
:102FF000D3020091D4021091D5021092D202109205
:10300000D3021092D4021092D5028E2D8F2991F006
:103010008091CB029091CC020E940228AC01909149
:10302000CE02992309F43FC080915D0184171506F3
:1030300008F447C0802F812B91F08091C9029091B4
:10304000CA020E940228AC019091CD02992309F492
:1030500077C0809159018417150608F47FC08091CC
:10306000D2029091D302892B9091D402892B909116
:10307000D502892B11F00E94C61786E0FE01319619
:10308000A0EDB2E001900D928A95E1F726960FB679
:10309000F894DEBF0FBECDBFDF91CF911F910F918E
:1030A000FF90EF90089520915E018AE0289F9001A3
:1030B00011242417350708F0BDCF9F5F9093CE02EF
:1030C00002C09F3FD1F7EE2059F00E9470169FEF8B
:1030D0001E140CF491E0899F802D11248093D2025C
:1030E000FF2059F00E9470169FEF1F140CF491E01E
:1030F000899F802D11248093D3023091D2023323F3
:1031000009F498CF2091D302222309F493CF45EB01
:103110003403C0011124992359F09093D20245EB56
:10312000240390011124332339F03093D30282CF4A
:1031300081E08093D202F3CF81E08093D3027ACFF3
:1031400020915A018AE0289F900111242417350705
:1031500008F085CF9F5F9093CD0202C09F3FD1F7CB
:10316000002359F00E94BA169FEF10160CF491E05C
:10317000899F802D11248093D402112359F00E943D
:10318000BA169FEF11160CF491E0899F802D11243F
:103190008093D5023091D402332309F460CF20917B
:1031A000D502222309F45BCF45EB3403C00111247F
:1031B000992359F09093D40245EB240390011124F4
:1031C000332339F03093D5024ACF81E08093D40283
:1031D000F3CF81E08093D50242CF86E0E0EDF2E0CC
:1031E000DF011D928A95E9F71092CE021092CD026E
:1031F0001092CF020895EF92FF920F931F93CF93F7
:10320000DF93EB01E82FD11110C0442321F0F0E04F
:10321000E654FD4FE4916E2F7E2F8E2FDF91CF91DC
:103220001F910F91FF90EF9008950D2F10E0282F20
:1032300030E0442329F026543D4FF901249130E039
:10324000F6E0CF9FC0011124EFEFF0E0BF010E9434
:10325000422FAB018C2F90E0880F991FA5E5A49F0A
:10326000B001A59F700D1124861B970B982F990F05
:10327000980FBF01601B710B629FD001639FB00D5F
:10328000729FB00D11248B2F9D9FB0011124672FC9
:103290007727EF01C61BD70BBE01629FE001639F3A
:1032A000D00D729FD00D11247F01E91AF108E09E24
:1032B000B001E19E700DF09E700D1124672F7727ED
:1032C000E61BF70BE29F8001E39F100DF29F100DAC
:1032D0001124E12F722F4230510599F048F4411525
:1032E000510569F04130510581F0EB2F8D2F07C05A
:1032F0004430510569F080F046305105B1F76E2F2A
:103300008DCFE22F7B2F812FFACFE22F7D2FF7CFAA
:10331000EB2F822F712FF3CF7B2F822FED2FEFCF4B
:1033200041E00C94FB1808950C949019CF93DF930F
:10333000762FE901682F842F0E949419798368837E
:103340008A83DF91CF910895473908F046E90C94BC
:1033500096198091A003982F9E7F61F481708260FE
:103360008093A0038091A303873918F086E98093A6
:10337000A30308958631B0F381708461F1CF88E0B2
:1033800090E00C949B2FCF92DF92EF92FF926B0113
:103390007C010E94A919B701A60188E090E0FF9086
:1033A000EF90DF90CF900C94B92FE0EAF3E083E048
:1033B000808311828FEF828386E983831482A2EE59
:1033C000B2E012968C911297836012968C93608172
:1033D0007181828193810C94C3198091A00380FF35
:1033E00002C08695089580E008959091A4039330DB
:1033F00018F49F5F9093A403882351F06091A00379
:103400007091A1038091A2039091A3030C94C3191E
:10341000089581E00C94F5199091A403992319F073
:1034200091509093A403882351F06091A003709170
:10343000A1038091A2039091A3030C94C319089552
:1034400081E00C940C1A70E00C94221E60916001D3
:103450008091A00380FF0AC080915F0123E0829FDA
:10346000C00111248B559C4F0C94231A809161014B
:103470009091620123E0829FF0011124EB55FC4FF3
:10348000891750F71182108212828F5F3396F8CF1E
:103490009091A00390FF14C090916101209162016E
:1034A00033E0939FF0011124EB55FC4F921710F07D
:1034B0000C94261A8183608342839F5F3396F6CFF4
:1034C0000895CF93DF9300D00F92CDB7DEB79091E0
:1034D000A00390FF0AC09E012F5F3F4F0E94A419D6
:1034E0004B8169818A810E94481A0F900F900F903A
:1034F000DF91CF910895CF93DF93EC01E0EAF3E001
:10350000438162818C810E94611A8C818F5F8C83E0
:10351000DF91CF910895EF92FF920F931F93CF9376
:10352000DF9300D00F92CDB7DEB7182FF62E042F01
:10353000E22E8091A00380FF39C0E82FE695F0E0ED
:10354000E951FE4F90819093E2028E7F8230C1F567
:103550009E012F5F3F4F812F0E94A4194B816981EB
:103560008A810E94481A8091A103811308C080912A
:10357000A2038F1104C08091A303801729F08091CA
:10358000E40282608093E4021093A103F092A2030C
:103590000093A303EE2051F06091A0037091A1036A
:1035A0008091A2039091A3030E94C3190F900F90E2
:1035B0000F90DF91CF911F910F91FF90EF900895A1
:1035C0008091A103923011F0953069F6182FCBCF7E
:1035D000E0EAF3E09181282F4381628180E1890F45
:1035E0000C948B1A81E00C94E81AE0EAF3E09181E4
:1035F000282F4381628180EF890F0C948B1A81E020
:103600000C94F51AE0EAF3E0628120E2620F08F41C
:103610006FEF282F438181810C948B1A81E00C94E9
:10362000021BE0EAF3E0628120E2621B08F460E042
:10363000282F438181810C948B1A81E00C94111BFB
:10364000E0EAF3E0438120E2420F08F44FEF282F35
:10365000628181810C948B1A81E00C94201BE0EA3A
:10366000F3E0438120E2421B08F440E0282F62810E
:1036700081810C948B1A81E00C942F1B20E00C9418
:103680008B1AEF92FF921F93CF93DF93EC0110E020
:10369000EE24EA94F12C60916301161770F00E94F9
:1036A000261A9A818C8190FF27C08F5F8C83DF91CF
:1036B000CF911F91FF90EF90089520916101422FCB
:1036C000410F5527551FCA019A01220F331F280F9A
:1036D000391F2B553C4F70E0C7010E94562F962F83
:1036E0008C814091A3036091A203199F800D112446
:1036F0000E94A4191F5FCFCF8150D8CF1092E4024F
:10370000089525E0E0EAF3E0DC0101900D922A95AE
:10371000E1F72091E2023091E3024091E402FC01E2
:103720002583368347830895E2EEF2E01182828199
:10373000846082830895E0EAF3E080818E7F808355
:103740000E94941BE2EEF2E08281816082832FEF7F
:1037500080E792E0215080409040E1F700C00000F7
:103760000C94261A0E94941B8091E00281110AC0D9
:1037700081E08093E0028091A00381708093DF025A
:103780000C949B1B0895E0EAF3E080818E7F808398
:1037900060817181828193810E94C3190E94941B70
:1037A000E2EEF2E08281816082832FEF80E792E097
:1037B000215080409040E1F700C000000C94261A90
:1037C0006091A003669570E041E050E084E691E0EE
:1037D0000E94702F892B19F481E08093E3020E94EC
:1037E000B4119093DA028093D9028091E40284604C
:1037F0008093E40208959091A00390FF3AC09170E5
:1038000081112DC092609093A0038091E4028160A9
:103810008093E402662351F06091A0037091A103AC
:103820008091A2039091A3030E94C3196091A00309
:10383000669570E041E050E084E691E00E94702FD0
:10384000892BA1F00E94941B81E08093DC024091BF
:10385000A3036091A2038091A1030C943E1B8B30C3
:1038600010F09461D0CF880F982BCDCF0E94E01B31
:10387000EBCF0895682F9091A003969581E0890F72
:103880008B3008F081E00C94FB1B81E00C943A1C17
:10389000682F9091A00396958FEF890F09F48AE025
:1038A0000C94FB1B81E00C94481C61E00C94FB1B06
:1038B000E0EAF3E080818160808386950C94551C5A
:1038C0008091A00380FD0C94C31B0C94581C60E0F5
:1038D0000C94FB1B8091E102811133C00E94FF0D0B
:1038E000811104C00E94A40E0E94D5190E94BF1924
:1038F0006093A0037093A1038093A2039093A3030A
:103900008091E40283608093E4026E7F61F40E9400
:10391000D5190E94BF196093A0037093A1038093EF
:10392000A2039093A3030E94A9190E94941B809163
:10393000A00380FF03C086950E94671C81E08093EE
:10394000E1020895E0EAF3E080818160808386955A
:103950000C94671C1092E0028091DF0281110E949A
:10396000A21C0C94E01B1F93CF93DF93EC01162F46
:103970008F8180FF0CC0888180FF24C08091A003CC
:1039800081608093A003888186950E94FB1B8F81B4
:1039900081FF06C0212F4B816A8189810E948B1A89
:1039A0008F8182FF05C08E81882379F00E94E01B01
:1039B0008F8183FF03C081E08093DC02DF91CF9190
:1039C0001F9108950E949B1BE2CF0E94941BF0CF91
:1039D000EF92FF920F931F93CF93DF938091E302B7
:1039E000882309F462C08091E202E091A003E69589
:1039F000E81BE093DB02823009F05EC0F0E0E9549E
:103A0000FD4FE491CE2FD0E00BE71AE18091DC026C
:103A1000882361F01092DC020E94B4119093DA02C4
:103A20008093D9021092DE021092DD020E94B4113E
:103A3000E091D902F091DA029C012E1B3F0B2F3F3F
:103A40003F4798F52091D8022223B1F01092D80276
:103A50002091D6023091D702821B930B8F3F9F4754
:103A600058F4205D3A483093D7022093D6028091D3
:103A7000E40288608093E402E090DD02F090DE02D0
:103A8000CE0FDF1FD093DA02C093D90289ED92E006
:103A9000F80109958091DD029091DE02892B29F4CD
:103AA000EF2819F081E08093D802DF91CF911F9128
:103AB0000F91FF90EF900895C0EDD7E003E919E171
:103AC000853009F0A3CFE695F0E0EC54FD4FE4918A
:103AD000CE2FD0E001E41BE199CFFA01811101C0A2
:103AE000FB010994CF93DF93C82FD62F0E94ED19C5
:103AF0008C1740F00E94ED198D1720F4DF91CF91C3
:103B00000C94451C8C2FDF91CF910C94551C1F9366
:103B1000CF93DF93EC01FB011281111147C00E948A
:103B2000250D8272CB3CFCE5DF0709F475C048F532
:103B3000C63CECE5DE0709F45BC068F4C43C9CE5D8
:103B4000D90709F44BC008F04EC0C33CDC4509F46A
:103B500042C011E02BC0C83C9CE5D90709F452C013
:103B600008F44BC0C93CFCE5DF0709F450C04BE347
:103B70005BE16CE27BE1CA3CDC4559F70E946D1DBC
:103B800015C0C03DECE5DE0709F459C0A0F4CD3CFA
:103B90009CE5D90709F44AC008F443C0CE3CFCE5D3
:103BA000DF0709F448C0CF3CDC4599F6812FDF914F
:103BB000CF911F910895C73D9CE5D90740F46AE075
:103BC00085E0C23DDC4590F70E94721DEFCFCE35F7
:103BD000DD4561F3BECF0E94601CE8CF42E55CE1A9
:103BE00065E47CE1CBCF45E45CE162E57CE1C6CFF6
:103BF0004FEF5AE162EF7AE1C1CF42EF5AE16FEF46
:103C00007AE1BCCF4DE15BE16EE07BE1B7CF4EE006
:103C10005BE16DE17BE1B2CF4CE25BE16BE37BE129
:103C2000ADCF40E25AE169E07AE1A8CF49E05AE13C
:103C300060E27AE1A3CF81E00E94551CB7CF64E037
:103C400082E0C2CF539A4BB1477F5BB15860EFB768
:103C5000F8949B01220F331F260F371F280F391F9F
:103C60002817390741F4EFBF8FE594E00197F1F78A
:103C700000C000000895DC016D91CD0178E05BB9D2
:103C8000000000C067FF4BB9660F000000C000C015
:103C900000C04BB900C07A9591F7E2CF0895FC01BE
:103CA000680F791F8FEF91E36E177F0709F408956E
:103CB0002191822728E030E087FF06C0880F8927FE
:103CC00021503109C9F7F0CF880FFACFCF93DF9396
:103CD000EC01FB018281882309F420C1C430FDE599
:103CE000DF07C8F5CB3F9CE5D90730F49E01225091
:103CF0003C452431310598F50E94120E90938C03B7
:103D000080938B03C031FCE5DF0709F4E0C008F0C5
:103D100061C0C8309CE5D90709F4CBC088F5C43030
:103D2000FCE5DF0709F4B3C0E8F4C2309CE5D9072D
:103D300009F4A7C080918B038260C330DC4509F48D
:103D4000A3C080918B0390918C030E94200E0E944F
:103D5000E50780E004C0C236EDE5DE0769F2DF91D9
:103D6000CF91089580918B038061C630FCE5DF0719
:103D700009F48AC008F48FC080918B03806284C0EC
:103D800080918B038D7FCC309CE5D90709F47CC0F2
:103D900070F480918B038C60CA30FCE5DF0709F476
:103DA00073C008F48AC080918B038E7F6DC08091B0
:103DB0008B03877FCE309CE5D90709F465C08091DD
:103DC0008B038B7FCF30DC4508F45EC080918B0382
:103DD0008F7E5AC0CD3FFCE5DF0709F474C040F583
:103DE000C4319CE5D90709F48AC058F4C231FCE516
:103DF000DF0709F474C008F46EC080918B03837FE1
:103E000043C0CB3F9CE5D90709F449C008F04DC039
:103E1000C531DC4509F095CF80918B0382FB992752
:103E200090F921E0922790FB82F990FB83F92CC056
:103E3000C1308DE5D80709F458C088F480918C030F
:103E40008360CF3FECE5DE0769F180918C038D7FC5
:103E5000C115DD4538F180918C038C7F23C0C330C0
:103E60008DE5D80709F458C008F452C0C236DD45C4
:103E700009F067CF90918B03892F8F7E94FF80612B
:103E800003C080918B03816080938B035ACF809114
:103E90008B038460F9CF80918B038860F5CF80918C
:103EA0008C03816080938C034CCF80918C03826063
:103EB000F9CF80918B038064E7CF0E94E507809162
:103EC0008B038068E1CF80918C038E7FEBCF809154
:103ED0008B038F7DD9CF80918B038F7BD5CF0E94B1
:103EE000E50780918B038F77CFCF80918C03982F3C
:103EF000909591708E7F892B90FB81F9D3CF0E9492
:103F0000E50790918B03892F97FB87F98058BCCFE9
:103F100081E00E94A60E15CF80E0FBCF81E01FCF8D
:103F20000F931F93CF93DF9380915003E091E502AD
:103F30001CE081111AC0DF91CF911F910F9108955C
:103F400001E00E0F0093E502CE2FD0E0E19FF001DB
:103F50001124E051FD4F83819481892B29F08081C8
:103F6000918189238F3FE9F4E02F80915003E81776
:103F700038F3109250031092E502DDCF18968D9120
:103F80009C918F3F9807D1F061E00E94DA021C9F5C
:103F9000F0011D9FF00D1124E051FD4F148213829A
:103FA000E3CF1C9FD0011D9FB00D1124A051BD4F28
:103FB00016968D919C911797892B01F32081318161
:103FC0004281538164817581868197810E94600C52
:103FD000DECF10925203109251032091660130916E
:103FE0006701E0E0F1E090E080E02817390709F48C
:103FF00008954581411102C01482168201963796B8
:10400000F4CFDC016091EE028091EF02962F8913CC
:1040100001C00895292F30E0F901EE0FFF1FEA518A
:10402000FD4F408151814A175B07A1F487E08A9FC9
:10403000A0018B9F500D112440505F4F81E0FA0189
:1040400084839613E6CF2F5F3F4F2370332720934F
:10405000EE0208952F5F3F4F922F9370D8CF7F923B
:104060008F929F92AF92BF92CF92DF92EF92FF9288
:104070000F931F93CF93DF93EB012C81211165C028
:1040800070905003A0EFB2E030E020E0812C61E0BE
:1040900070E0271508F042C01A96CD90DC901B976F
:1040A000A880B9804FEF5FEF912CE92CF12CF7013C
:1040B000EE0FFF1FEA0DFB1D05911491C016D106EE
:1040C00009F4A701012B11F09394EFCF4F3F540750
:1040D000C1F1FB0102C0EE0FFF1F4A95E2F78E2AE5
:1040E000AB0102C0440F551F9A94E2F741505109A9
:1040F0008416150611F54A815B816CE0629FF00120
:10410000639FF00D1124E051FD4F578346832EEF3E
:10411000208321839187808721E02D83DF91CF91B8
:104120001F910F91FF90EF90DF90CF90BF90AF90D5
:104130009F908F907F900C94012014961C921E9259
:1041400013972F5F3F4F1C96A4CFDF91CF911F9104
:104150000F91FF90EF90DF90CF90BF90AF909F9026
:104160008F907F9008951F93CF93DF93C091EE02BD
:1041700017E08091EF028C1307C00E94901FDF911F
:10418000CF911F910C94E91FD0E0FE01EE0FFF1FAD
:10419000EA51FD4F80819181189FB001199F700DE8
:1041A000112460507F4F0E942F202196C370E1CFD1
:1041B000EF92FF921F93CF93DF93FC012081318117
:1041C00010E040E050E0E52FF0E0EE0FFF1FE20FBF
:1041D000F31FA591B4911097B9F0FB01C081D18173
:1041E00040E005C0AE15BF0509F411E04F5FE42FB4
:1041F000F0E0EE0FFF1FEC0FFD1FE590F490E114CF
:10420000F10481F75F5FDFCF112349F0451708F410
:10421000CB01DF91CF911F91FF90EF90089590E037
:1042200080E0F7CF80916501882341F180915303AD
:1042300090915403009711F10E940228209151039C
:104240003091520328173907C8F49091EE028091FB
:10425000EF02981759F00E94B32010925203109267
:104260005103109254031092530308950E94901F1B
:1042700010925403109253030C94E91F0895109266
:10428000540310925303109265018091EF028093C2
:10429000EE020E94E91F0C94901F8091650181112C
:1042A0000C943F2181E08093650108952F923F9205
:1042B0004F925F926F927F928F929F92AF92BF9236
:1042C000CF92DF92EF92FF920F931F93CF93DF93E2
:1042D000CDB7DEB729970FB6F894DEBF0FBECDBFBE
:1042E0006C013B01FB011281883FFCE59F07F9F45B
:1042F000112321F181E080936501812F29960FB66A
:10430000F894DEBF0FBECDBFDF91CF911F910F910B
:10431000FF90EF90DF90CF90BF90AF909F908F90E5
:104320007F906F905F904F903F902F900895893FBE
:104330002CE5920709F04DC0111148C000E011E0D2
:10434000F12CE12C198688248394912C80916601AC
:1043500090916701E816F90608F445C0F3018281DF
:10436000882309F45EC1F985FF2309F45AC10E942C
:10437000EA2790935403809353038091500388302D
:1043800008F591E0980F9093500398E0F301DE0157
:10439000119601900D929A95E1F72CE0829FC00151
:1043A000112480519D4F28E0FE013196DC010190DF
:1043B0000D922A95E1F72FEF3FEFFC01318720871F
:1043C000D386C28611E0F9851F2797CF0E943F212F
:1043D00094CF8A3F9C4509F0B1CF112309F4AECFA9
:1043E0000E944D218ACFF80160817181AA24AA948C
:1043F000BA2C20E0422F50E0FA01EE0FFF1FE60F2B
:10440000F71F85919491C816D90609F45A01892B92
:1044100011F02F5FEFCF312CFFEFAF16BF0609F47D
:1044200044C0F801448130906501832D411180E042
:10443000F82FF1703F2EF80155808681F3019281AB
:10444000992309F48DC0332009F48AC0511014C097
:10445000A40101C0440FAA94EAF7842BF8018683D3
:104460008091510390915203C29730F462E370E05F
:104470007093520360935103C40102C0880F991FC7
:104480002A95E2F70197F80126812817190669F4A1
:104490008091530390915403009781F00E94022869
:1044A000C39760F021E0F8012483F985F329F987A7
:1044B0002FEFE21AF20A095F1F4F48CF2090EE0259
:1044C00090E080E02091EF02221215C08017910742
:1044D00061F3A22CB12CF501EE0FFF1FEA51FD4F45
:1044E000F182E0826FEFA61AB60A73E0A722BB241E
:1044F000A092EF02DACFA22CB12CF501EE0FFF1F34
:10450000EA51FD4F2081318147E0429FC001439F26
:10451000900D1124BC0160507F4F2B01B801C201E6
:104520000E94D8200097A9F021E0FC012483801785
:10453000910709F4BACF2091EE0222120AC0481660
:10454000590639F495012F5F3F4F2370332720938D
:10455000EE023FEFA31AB30A4A2D4370242EB2CFC6
:1045600090E051101FC0F40102C0EE0FFF1F2A950A
:10457000E2F79F01215031092817390731F444230C
:1045800009F44DC0C7010E940120C40101C0880F79
:10459000AA94EAF7982F9095F8018681892386835B
:1045A000352C83CF9C010A2C02C0359527950A949F
:1045B000E2F7A90141705527BC01615071098623BA
:1045C0009723892B41F5452B31F1F80182819381A5
:1045D000892BE1F01B821C821D821E82FEEFF98373
:1045E000FA830E94EA278160582F9D838C83F8010B
:1045F000828193818F83988729813A814B816D8154
:104600007E810E94600CF8011582BFCF60E0C70177
:104610000E94DA02F8CFF22FF1705F2EB6CF532C42
:10462000B4CF9091EE028091EF02981719F00E949A
:10463000B320C8CE0E94901F1092540310925303CF
:104640000E94E91FBFCECF93DF93EB0186319C45DB
:1046500011F50E94250D9A81992399F08A7A91E0AB
:1046600009F490E090935503811109C089E20E94FA
:10467000000D0E94680D80E0DF91CF91089585E3E1
:10468000F6CF80915503811104C089E20E94070D85
:10469000F0CF85E3FBCF81E0EFCF0F931F93CF9354
:1046A000DF93C42FD22FFC0182818823C9F040936D
:1046B00058030E94EA27909357038093560380E2A1
:1046C0008C0F883008F050C0C77081E001C0880F9F
:1046D000CA95EAF7DF91CF911F910F910C9446058F
:1046E00010915803141335C08091560390915703CD
:1046F0000E9402288639910560F5C0E2CD0F1D1792
:10470000B9F080E2810F883040F4177081E001C079
:10471000880F1A95EAF70E944D05C83048F481E0E9
:104720009D2F977001C0880F9A95EAF70E94460561
:10473000802F0E943E05C830B8F4D77081E001C0D8
:10474000880FDA95EAF7DF91CF911F910F910C94C2
:104750004D0580E28C0F883038F4C77081E001C0CD
:10476000880FCA95EAF7EFCFDF91CF911F910F9194
:1047700008950F939C01CB01243F4CE5340759F178
:10478000A8F4293DFCE53F0701F12A3D4CE534073B
:10479000D1F1283D3C4591F406E221EE41EE68ED71
:1047A0007CE50E944D2380E00F910895263FFCE5B3
:1047B0003F07E9F0B0F0273F3C45F9F0FC0182816A
:1047C000882339F110925803EFCF07E225EE45EE2A
:1047D00069ED7CE5E6CF06E221EE40EE64EF7CE594
:1047E000E0CF07E225EE44EE65EF7CE5DACF06E2A6
:1047F00021EE42EE66EF7CE5D4CF07E225EE46EEF1
:1048000067EF7CE5CECF08E221E045EE6AED7CE57E
:10481000C8CF81E0C9CF8EE14A9B02C08150E1F749
:104820004A9BFECF08955A9880E28A95F1F75A9AEA
:104830000895FC013BE03A95F1F798E020E080E034
:1048400031E040E14A95F1F7880F4A9B02C0816050
:10485000232742E04A95F1F7000040E14A95F1F73D
:10486000915079F790E19A95F1F799B132E03A9544
:10487000F1F7000040E14A95F1F792FB992790F992
:1048800092272081920F90830895EF92FF920F93C9
:104890001F93CF93DF930F92CDB7DEB719828C01B0
:1048A0007C01E60EF11C0E151F0561F481E0998173
:1048B000911180E00F90DF91CF911F910F91FF90A8
:1048C000EF9008950E940B24CE0101960E941924B6
:1048D000F80181938F01E7CF529A5A9A089552981E
:1048E0005A9AEA9AE9E6F0E080818F7C8083089505
:1048F0006150770B91E001C0990F6A95EAF720E0CB
:1049000031E0911108C0222391F05A9A80E28A95F1
:10491000F1F75A980895492F482339F05A9A2327D6
:1049200040E24A95F1F79695ECCF5A98F9CF5A980C
:10493000EDCFFF920F931F93CF93DF93EC018C0188
:10494000060F111DC017D10731F4DF91CF911F91D0
:104950000F91FF900895F9900E94132468E08F2D25
:104960000E947824EFCF1F920F920FB60F9211245E
:10497000EF92FF920F931F932F933F934F935F9369
:104980006F937F938F939F93AF93BF93EF93FF9317
:10499000CF93DF930F92CDB7DEB719820E940B241D
:1049A000CE0101960E941924A82FA695A695A6953A
:1049B000282F229525709A2F9570290F922F93708A
:1049C00026952695920F982797708981982B09F044
:1049D00075C0A53008F072C080E18A95F1F75A9A47
:1049E000529AB2E0BA95F1F700C05A98EA2EF12C2B
:1049F000EAE0AE9FD0011124A15DBE4F1896ED9163
:104A0000FC9119973097B1F06091E5017091E60142
:104A100016962D913C911797260F371F13968D915F
:104A20009C911497680F791F15964C9115971296C3
:104A30008C9109958AE08E9DF0018F9DF00D1124D7
:104A4000E15DFE4F6581662351F02091E5013091D3
:104A5000E60186819781820F931F0E9499240E940C
:104A60001324F0E1FA95F1F75A9852985A9A80E196
:104A70008A95F1F78AE08E9D80018F9D100D11249B
:104A8000015D1E4FD80112966C911297662371F149
:104A90002091E5013091E60113968D919C91820F52
:104AA000931F0E944524D801ED91FC91882311F0B9
:104AB00088E001C082E080830E940B240F90DF9188
:104AC000CF91FF91EF91BF91AF919F918F917F9186
:104AD0006F915F914F913F912F911F910F91FF9097
:104AE000EF900F900FBE0F901F901895ED91FC91D5
:104AF000DFCF0F931F93CF93DF93EC0105970CF05B
:104B0000A9C08AE08C9FF0018D9FF00D1124E15D1A
:104B1000FE4F80819181892B09F49CC0F894529AB0
:104B20005A9885E08A95F1F700008C2F869585705C
:104B30009C2F9570890F982F937086958695890F75
:104B40008E0193E0000F111F9A95E1F7082B0E9448
:104B5000132400C068E0802F0E947824A0E1AA9569
:104B6000F1F752985A9A4A9B27C087E090E04A99F9
:104B700025C08AE08C9F80018D9F100D1124015D5E
:104B80001E4FF80165816623A1F12091E501309166
:104B9000E60186819781820F931F0E94452481112F
:104BA00028C0529A5A9AD801ED91FC9182E08083F4
:104BB000789482E090E016C000C0D5CF0197B9F498
:104BC000529A5A9A8AE08C9FF0018D9FF00D112421
:104BD000E15DFE4F0190F081E02D81E080837894CB
:104BE00081E090E0DF91CF911F910F91089500C077
:104BF000BECF0E940B24B0E2BA95F1F75A98529AB0
:104C0000E0E1EA95F1F78AE08C9FF0018D9FF00DCD
:104C10001124E15DFE4F6281662351F02091E50190
:104C20003091E60183819481820F931F0E94992421
:104C30000E9413248AE08C9FF0018D9FF00D1124B7
:104C4000E15DFE4F0190F081E02D1082789490E0BC
:104C500080E0C8CF84E090E0C5CF9093F3018093CB
:104C6000F201089590935F0380935E0308950E947C
:104C7000C613811103C0809159030895E0915E032A
:104C8000F0915F03309721F00190F081E02D0994BD
:104C900080E00895E0915E03F0915F03309799F012
:104CA00020917401222359F020918B0327FF07C024
:104CB000DC012C9111962C93119726E02C93028005
:104CC000F381E02D09940895E0915E03F0915F0374
:104CD000309739F022E0DC012C930480F581E02D3F
:104CE0000994089520915C0330915D0328173907DA
:104CF00071F090935D0380935C03E0915E03F0910B
:104D00005F03309721F00680F781E02D0994089524
:104D100020915A0330915B032817390771F0909363
:104D20005B0380935A03E0915E03F0915F03309739
:104D300021F00084F185E02D09940895FC0132965C
:104D400080917401882321F080918B039EE187FF7D
:104D500096E080E0915008F4089521912223D1F348
:104D60008F5FF8CF662301F1209174012223F1F0C7
:104D700020918B0327FF1AC0462F469546954695EE
:104D80004E3190F4677021E030E002C0220F331FF3
:104D90006A95E2F7840F911DFC01828190E028233F
:104DA000392381E0232B69F480E00895FC013296D9
:104DB00008962191261721F0E817F907D1F7F4CFCB
:104DC00081E008959C01FC0132969FEF80E04191C3
:104DD000461751F09F3F19F4411101C0982F8F5F82
:104DE0008630A9F79F3F09F40895290F311D97FDDB
:104DF0003A95F90162830895FC0132960896219153
:104E0000261303C0DF0111971C92E817F907B9F7C1
:104E10000895E62FE695E695E695EE3168F4E80FFD
:104E2000F92FF11D677021E030E001C0220F6A9573
:104E3000EAF78281822B82830895E62FE695E69534
:104E4000E695EE3170F4E80FF92FF11D677021E05F
:104E500030E001C0220F6A95EAF72095828128236D
:104E60002283089520917401222329F020918B033D
:104E700027FD0C9409270C94E2262091740122232B
:104E800029F020918B0327FD0C941D270C94FC2600
:104E9000FC01329680917401882351F080918B033C
:104EA00087FF06C08EE1DF011D928A95E9F708951C
:104EB00086E0F9CF08950C945A27811105C081E04E
:104EC000809360030C945B2782E0FACF83E08093A9
:104ED00060030C945B270C945D2781E08093600352
:104EE0000C945B270C946D2708958091FE03843009
:104EF00031F10E94DB031092610388E190E020E42D
:104F00000FB6F894A895809360000FBE20936000C0
:104F100083B7817F846083BF83B7816083BF7894C8
:104F2000889583B78E7F83BF0FB6F894A89580913C
:104F30006000886180936000109260000FBE089549
:104F400008950895CF930E94A0270E943C130E94C9
:104F5000A127C0E08C2F0E940712811105C0CF5FEE
:104F6000C830C1F7CF91089581E0FCCF0E94E507DA
:104F70000C944B041F921FB61F9211248F939F9382
:104F8000AF93BF9380916103811113C08091F603A9
:104F90009091F703A091F803B091F9034196A11DF8
:104FA000B11D8093F6039093F703A093F803B09399
:104FB000F903BF91AF919F918F911F901FBE1F90DA
:104FC000189582E084BD93E095BD9AEF97BD8093DC
:104FD0006E0008952FB7F8948091F6039091F7032F
:104FE000A091F803B091F9032FBF08952FB7F8945B
:104FF0006091F6037091F7038091F8039091F903A3
:105000002FBF08959C014FB7F8948091F6039091BB
:10501000F703A091F803B091F9034FBF821B930BE4
:105020000895CF92DF92EF92FF922FB7F894C0903D
:10503000F603D090F703E090F803F090F9032FBF48
:10504000A7019601261B370B480B590BCA01B90162
:10505000FF90EF90DF90CF90089578941F921FB645
:105060001F9211248F939F93AF93BF938091F60368
:105070009091F703A091F803B091F9030196A11D57
:10508000B11D8093F6039093F703A093F803B093B8
:10509000F903BF91AF919F918F911F901FBE1F90F9
:1050A000189587E797E7909301088093000888E1B7
:1050B0009AE00FB6F894A895809360000FBE909385
:1050C0006000FFCF80918503089508959C0182E0E0
:1050D0008093E9009FEF8091E800915085FD06C024
:1050E00085ED8A95F1F700009111F5CF8091E800E8
:1050F00085FF0CC050E040E066E070E0C9010E940E
:105100009F2A8091E8008E778093E8000895CF93DE
:10511000DF93EC01809174018823B1F180918B03BE
:1051200087FF32C060E282E08093E9008FEF9091C8
:10513000E800815095FD06C095ED9A95F1F70000C5
:105140008111F5CF8091E80085FF1BC0809174012B
:1051500070E050E040E0811104C050E040E068E0C1
:1051600070E0CE010E949F2A8091E8008E778093A4
:10517000E80080E2FE01A5E6B3E001900D928A9579
:10518000E1F7DF91CF91089568E081E0CDCF809382
:10519000620370936403609363038091FE03843021
:1051A00001F582E08093E9008FEF9091E800815053
:1051B00095FD06C095ED9A95F1F700008111F5CFA8
:1051C0008091E80085FF0DC050E040E063E070E0B2
:1051D00082E693E00E949F2A8091E8008E77809378
:1051E000E8000895BC0184E00C94C728BC0183E06A
:1051F0000C94C7288091FD03811109C00E942F2CB7
:105200000E948C2C8091E20084608093E2000895DB
:105210001092FD0308950C946D276091FA0381E0CC
:10522000611101C080E00C9466279091FE0381E03B
:10523000943009F080E06091FA030C946B2742E00F
:1052400061EC81E00E94AB2B42E261EC82E00E94C3
:10525000AB2B9091FE0381E0943009F080E06091E7
:10526000FA030C945D2780910004833009F460C038
:1052700030F48130C9F1823009F49CC008958A303D
:1052800009F488C08B3009F46EC0893009F04FC032
:105290008091FF03813209F04AC08091030490910C
:1052A0000404029708F043C08091E800877F809350
:1052B000E8008091E80082FF36C09091F300809171
:1052C000F200029731F48091F100813011F08630C4
:1052D00021F48091F100809385038091E8008B7721
:1052E0008093E8000C94DF2B8091FF03813AF9F45E
:1052F0008091E800877F8093E8008091030490917B
:105300000404892B61F460E285E693E070E00E947A
:10531000EE2A8091E8008B778093E800089560E0A2
:1053200090E080E0F3CF8091FE038111C2CF089519
:105330008091FF03813AD9F780910304909104048E
:10534000892BA9F78091E800877F8093E8008091FE
:10535000E80080FFFCCF809174018093F100809180
:10536000E8008E77BDCF8091FF03813201F78091F5
:10537000030490910404892BD1F68091E800877F83
:105380008093E8000E94DF2B8091010480937401D8
:105390000C94E5078091FF03813249F68091E80083
:1053A000877F8093E8000E94DF2B80910204809326
:1053B000860308958091FF03813A09F0B8CF809168
:1053C000E800877F8093E8008091E80080FFFCCFB1
:1053D00080918603C2CF84B7877F84BF0FB6F894CD
:1053E000A8958091600088618093600010926000B1
:1053F0000FBE80E890E00FB6F89480936100909320
:1054000061000FBE0C9472270E942F2C0E948C2CDE
:10541000E2EEF0E080818460808378940C94152F14
:1054200088E691E00C9432268091FE038530A9F441
:105430008091FE03853011F00C94B6270E947527E9
:105440008091FC038823A1F30E94A227882381F383
:105450000E94892A0E94E507EBCF089508950C94D5
:10546000312A292F33272330310519F168F42130EF
:10547000310509F444C02230310509F445C090E0FB
:1054800080E030E020E025C02132310549F12232B0
:105490003105A9F780E490E021EE34E06115710553
:1054A000C1F086EB90E02BE234E06130710589F0C9
:1054B000E6CF99278130910581F0009729F0029776
:1054C000F1F6EAEBF3E002C0EAEDF3E0849190E05C
:1054D0009F01FA01318320830895E8ECF3E0F6CFD1
:1054E00089E090E020EF33E06115710591F389E0E8
:1054F00090E029E034E06130710559F3C0CF82E1DA
:1055000090E029E134E0E5CF8BE390E02EED33E04D
:10551000E0CF80E189BD82E189BD09B400FEFDCF05
:105520008091D8008F7D8093D8008091E0008260C8
:105530008093E0008091E00081FDFCCF0895AF9260
:10554000BF92CF92DF92FF920F931F93CF93DF937F
:105550006C01EB018A010E94FE2BF82E811123C001
:105560000115110539F0F80180819181C81BD90B13
:10557000C80ED91EB12CA12C2097A9F08091E8006B
:1055800085FD22C08091E8008E778093E8000115A8
:105590001105A1F0F80180819181A80EB91EB18298
:1055A000A08285E0F82E8F2DDF91CF911F910F9172
:1055B000FF90DF90CF90BF90AF9008950E94FE2B98
:1055C0008823D1F2F82EEFCFF60181916F018093FD
:1055D000F1002197FFEFAF1ABF0ACECFFC018091F7
:1055E00005049091060486179707A0F061157105D0
:1055F00029F49091E8009E779093E80090E061157F
:10560000710551F4911108C08091E80082FF34C007
:1056100080E00895BC01F2CF8091FE038823C1F1A0
:105620008530C1F18091E80083FD30C08091E800B1
:1056300082FDEACF8091E80080FFE1CF8091F30006
:105640002091F200382F6115710519F028303105CD
:1056500058F091E02830310509F090E02091E80001
:105660002E772093E800CBCF81918093F100615099
:1056700071092F5F3F4FE7CF8091FE03882341F0F0
:10568000853041F08091E80083FFBECF81E008952E
:1056900082E0089583E00895FC01809105049091D3
:1056A000060486179707A0F06115710529F480910B
:1056B000E8008E778093E80090E06115710551F461
:1056C000911108C08091E80082FF35C080E0089504
:1056D000BC01F2CF8091FE038823C9F18530C9F166
:1056E0008091E80083FD31C08091E80082FDEACF1F
:1056F0008091E80080FFE1CF8091F3002091F200DB
:10570000382F6115710519F02830310558F091E0F6
:105710002830310509F090E08091E8008E77809381
:10572000E800CBCF84918093F100319661507109EC
:105730002F5F3F4FE6CF8091FE03882341F08530F5
:1057400041F08091E80083FFBDCF81E0089582E0C1
:10575000089583E00895982F973028F08F708093F4
:10576000E90081E008959093E900242F762F50E01E
:10577000981731F07091EC002091ED005091F000FD
:1057800021FD02C09F5FE8CF3091EB003E7F309358
:10579000EB003091ED003D7F3093ED003091EB0058
:1057A00031603093EB007093EC002093ED00509348
:1057B000F0002091EE0027FDE5CF80E00895809174
:1057C000FF0387FF13C08091E80082FF06C080912D
:1057D000E8008B778093E80004C08091FE0381117C
:1057E000F2CF08958091FE038823D9F38091E800D9
:1057F00080FFF8CF8091E8008E77ECCF2091E40015
:105800003091E50095E6A9012091EC00822F81708E
:1058100020FF06C08091E80080FF06C080E0089568
:105820002091E80022FD1AC08091FE03882389F0B0
:10583000853089F08091EB0085FD0FC02091E40058
:105840003091E50042175307F9F29150E1F684E0F8
:10585000089582E0089583E0089581E008950E940C
:105860009D2C0E94A52CE0EEF0E080818160808379
:10587000E8EDF0E080818F77808319BCA7EDB0E080
:105880008C918E7F8C9380818F7E80831092FD031C
:1058900008950F931F93CF93DF930E949D2C0E9436
:1058A000A52CC8EDD0E088818F77888388818068B7
:1058B000888388818F7D888319BC1092FE031092A3
:1058C000FA031092FC031092FB0300EE10E0F801C3
:1058D00080818B7F808388818160888342E060E063
:1058E00080E00E94AB2BE1EEF0E080818E7F808330
:1058F000E2EEF0E080818160808380818860808337
:10590000F80180818E7F8083888180618883DF9128
:10591000CF911F910F910895E8EDF0E080818F7E87
:105920008083E7EDF0E080818160808384E082BF46
:1059300081E08093FD030C94492CE8EDF0E0808138
:105940008E7F80831092E20008951092DA00109208
:10595000E10008951F920F920FB60F9211242F931A
:105960003F934F935F936F937F938F939F93AF93E7
:10597000BF93EF93FF938091E10082FF0BC0809172
:10598000E20082FF07C08091E1008B7F8093E100FD
:105990000E94142F8091DA0080FF19C08091D800F6
:1059A00080FF15C08091DA008E7F8093DA008091AD
:1059B000D90080FF96C080E189BD82E189BD09B42C
:1059C00000FEFDCF81E08093FE030E94FA288091C3
:1059D000E10080FF19C08091E20080FF15C0809136
:1059E000E2008E7F8093E2008091E20080618093EC
:1059F000E2008091D80080628093D80019BC85E0D5
:105A00008093FE030E940D298091E10084FF2BC04A
:105A10008091E20084FF27C080E189BD82E189BDD9
:105A200089B5982F917080FFFBCF8091D8008F7D32
:105A30008093D8008091E1008F7E8093E100809177
:105A4000E2008F7E8093E2008091E200816080938B
:105A5000E2008091FA03882309F449C084E080932E
:105A6000FE030E9415298091E10083FF29C08091E7
:105A7000E20083FF25C08091E100877F8093E100F1
:105A800082E08093FE031092FA038091E1008E7F02
:105A90008093E1008091E2008E7F8093E20080910C
:105AA000E20080618093E20042E060E080E00E94DA
:105AB000AB2B8091F00088608093F0000E940B294E
:105AC000FF91EF91BF91AF919F918F917F916F91D6
:105AD0005F914F913F912F910F900FBE0F901F90AC
