:100000000C9408040C944F040C944F040C94E016C8
:100010000C944F040C944F040C944F040C944F0414
:100020000C944F040C944F040C9421290C94F52942
:100030000C940E240C944F040C944F040C944F0415
:100040000C944F040C944F040C944F040C944F04E4
:100050000C944F040C9465240C944F040C944F049E
:100060000C944F040C944F040C944F040C944F04C4
:100070000C944F040C944F040C944F040C944F04B4
:100080000C944F040C944F040C944F040C944F04A4
:100090000C944F040C944F040C944F040C944F0494
:1000A0000C944F040C944F040C944F042E01240123
:1000B0001A0110010601FC00E300D900C000000095
:1000C000000655FFFF090255FFFF110255FFFF17FC
:1000D0000255FFFFFF00000000000AEA80FFFF005A
:1000E000000000000A1CFFFF0A05AAFFFF0F03AA79
:1000F000FFFF1203AAFFFFFF00000000000A1CFF21
:10010000FFFF00000000000ABFFFFFFF000000002B
:10011000000AAAFFFFFF00000000000A80FF80FF26
:1001200000000000000A00FFFFFF00000000000ABE
:100130008466FFFF000000002B4614001A0009002F
:1001400013000A00E1000400150016001700070064
:10015000E0001D001B000600190005000000000063
:100160000000E30003512C002A0033001C0018009B
:100170000F000D47340012460C00080011000B0060
:10018000E50038003700360010000E0000000000C7
:100190000000E200045128002B4614001A00090058
:1001A00013000500E10004001500160017000A0006
:1001B000E0001D001B000600070019000000000001
:1001C0000000E30003512C002A0033001C0018003B
:1001D0000F000D47340012460C00080011001000FB
:1001E000E5003800370036000B000E00000000006C
:1001F0000000E20004512800010014001A00080069
:1002000015001700010004001600070009000A008D
:1002100001001D001B000600190005000000000081
:1002200000000100010001000100130012000C0099
:1002300018001C47010033460F000E000D000B0094
:1002400001003800370036001000110000000000E7
:10025000000001000100010029001E001F00200015
:10026000210022000100000000000000F9004B0006
:100270000100000000000000FA004E000000000035
:1002800000000100010001002A00270026002500CF
:10029000240023004C0000004F0052005100500089
:1002A000000000000000000000000000000000004E
:1002B000000001000551010029001E021F0220025A
:1002C00021022202010000000000000000000000E6
:1002D000010000000000000000000000000000001D
:1002E00000000100055101002A0027022602250214
:1002F000240223023500310230022F022E002D008D
:100300003502310030002F002E022D0200000000C7
:100310000000010001000100005C3A003B003C00CD
:100320003D003E00C35CC65CC85CCA5C0152005222
:10033000C45CC75CC95CCB5C0000025200000000DA
:1003400000000100010001000000430042004100E4
:1003500040003F00000000004F090000000050096D
:10036000000000000000000000000000000000008D
:10037000000001000100010000400000000000003A
:10038000000000000000000000000000000000006D
:10039000000000000000000000000000000000005D
:1003A00000000755000001002A00250261006000DE
:1003B0005F0023024C002E005E005D005C002D00FB
:1003C000000038005B005A0059002E0200000000B7
:1003D00000006300620028001050115012501350AA
:1003E0001450155000000000BD0000000000000087
:1003F000A6000000BE000000000000000000000099
:100400000000000000000000005C00000000000090
:1004100017500000DF5C000000000000000000003A
:1004200000000000000000000000000000000000CC
:10043000000000000000000000400000000000007C
:1004400000000000000000000000000000000000AC
:100450006500000000000000000000000000000037
:1004600000000000000000000000000000004B0041
:1004700052004A000000000000004F002800500019
:10048000000000004C004E0051004D000000000034
:1004900000000000000001007F3F1F64321464323E
:1004A00014783C1E1E140A052223252628292A2CEE
:1004B0002D2F3032333536383A3B3D3E40424345AE
:1004C00047494A4C4E5051535557595A5C5E6062E9
:1004D000646668696B6D6F71737577797B7D7F81F9
:1004E000838587898A8C8E90929496989A9C9E9FF9
:1004F000A1A3A5A7A8AAACAEAFB1B3B4B6B8B9BB17
:10050000BCBEBFC1C2C3C5C6C7C9CACBCCCDCED085
:10051000D1D2D2D3D4D5D6D7D7D8D9D9DADADBDB72
:10052000DBDCDCDCDCDCDDDDDDDDDCDCDCDCDCDB09
:10053000DBDBDADAD9D9D8D7D7D6D5D4D3D2D2D152
:10054000D0CECDCCCBCAC9C7C6C5C3C2C1BFBEBC45
:10055000BBB9B8B6B4B3B1AFAEACAAA8A7A5A3A1B6
:100560009F9E9C9A98969492908E8C8A8987858378
:10057000817F7D7B79777573716F6D6B6968666458
:1005800062605E5C5A5957555351504E4C4A494728
:10059000454342403E3D3B3A3836353332302F2DCD
:1005A0002C2A29282625232200010101010101010D
:1005B0000101020202020202020202030303030318
:1005C00003030304040404040404050505050506E7
:1005D00006060606070707070708080808090909A5
:1005E000090A0A0A0B0B0B0C0C0C0D0D0D0E0E0E4E
:1005F0000F0F0F10101111111212131314141515DF
:1006000016161717181819191A1A1B1B1C1D1D1E50
:100610001E1F2020212222232424252626272829A4
:10062000292A2B2C2D2D2E2F3031323233343536D2
:100630003738393A3B3C3D3E3F40414243444546D2
:100640004748494A4C4D4E4F5051535455565859AE
:100650005A5B5D5E5F616264656668696B6C6D6F55
:100660007072737577787A7B7D7E808283858788C8
:100670008A8C8E8F91939596989A9C9EA0A2A3A502
:10068000A7A9ABADAFB1B3B5B7BABCBEC0C2C4C603
:10069000C9CBCDCFD1D4D6D8DBDDDFE2E4E7E9EBBF
:1006A000EEF0F3F5F8FAFDFF0C0343006F00720063
:1006B0006E0065000000100366006F006F0073009D
:1006C000740061006E0000000403090409023B008D
:1006D000020100A0FA090400000103010100092140
:1006E000110100012240000705810308000A0904E6
:1006F0000100010300000009211101000122B600E0
:100700000705820320000A120110010000000853AF
:1007100046010001000102000105010902A1018555
:10072000020901A1000509190129081500250195F3
:1007300008750181020501093009311581257F9570
:10074000027508810609381581257F950175088194
:1007500006050C0A38021581257F9501750881066A
:10076000C0C005010980A101850319012AB7001540
:100770000126B700950175108100C0050C0901A183
:1007800001850419012AA002150126A00295017510
:10079000108100C005010906A1018505050719E0C2
:1007A00029E7150025019508750181020507190043
:1007B00029EF1500250195F0750181020508190141
:1007C0002905950575019102950175039101C005F3
:1007D000010906A101050719E029E7150025019582
:1007E0000875018102950175088101050719002925
:1007F000FF150026FF009506750881000508190100
:100800002905950575019102950175039101C000B7
:1008100011241FBECFEFDAE0DEBFCDBF04B603FE6A
:1008200027C08091360390913703A0913803B0918F
:1008300039038730904BA740B04BD1F41092360368
:1008400010923703109238031092390314BE84B704
:10085000877F84BF0FB6F894A89580916000886167
:1008600080936000109260000FBEE0E0F8E309950D
:1008700011E0A0E0B1E0EAE0F9E502C005900D92D8
:10088000A63BB107D9F723E0A6EBB1E001C01D926A
:10089000A633B207E1F70E945D260C945F2C0C94FE
:1008A00000008CEA90E09093D0018093CF018AE021
:1008B0000C944F11CF92DF92EF92FF926B017C016B
:1008C00040E00E94C51F60E0882361F060916A02E9
:1008D00070916B0280916C0290916D0242E00E94D7
:1008E000C51F682F617080E00E94A41140E0C7011D
:1008F000B6010E94C51F60E0882361F060916A0222
:1009000070916B0280916C0290916D0242E00E94A6
:10091000C51F682F617081E00E94A41143E0C701E8
:10092000B6010E94C51F682F82E00E94A41144E016
:10093000C701B6010E94C51F682F83E00E94A41161
:1009400045E0C701B6010E94C51F682F84E00E94E0
:10095000A41146E0C701B6010E94C51F682F85E0BB
:100960000E94A4110E946109811109C046E0C701DB
:10097000B6010E94C51F682F86E00E94A41148E0BE
:10098000C701B6010E94C51F682F87E00E94A4110D
:1009900047E0C701B6010E94C51F682F88E00E948A
:1009A000A411C701B601FF90EF90DF90CF9008959A
:1009B00081E0089581E008950C94DA0408950C9480
:1009C000DE041F93CF93DF9300D000D00F92CDB7FA
:1009D000DEB749835A836B8330910F0289819A81F4
:1009E00031111DC06623B9F02223A9F00E94E22034
:1009F000182F682F89819A810E948B2069817A81C2
:100A0000812F0F900F900F900F900F90DF91CF914B
:100A10001F910C94A5050E94B920182FEFCF0E94BA
:100A2000E22069817A81EDCFFC01262F408151813E
:100A30006281738184810C94E104CF93DF93EC0194
:100A400060E00E941405BE01DF91CF910C94DF0499
:100A50000E94AB070C94D0070C94D30708950E9412
:100A60006C1C0E942E052FEF84E39CE021508040F7
:100A70009040E1F700C000000C94D3240F931F9323
:100A8000CF93DF938C0161E00E941405EC01B80163
:100A90000E94DC048823D9F1B801CE010E9417140A
:100AA0008823A9F1B801CE010E946914882379F145
:100AB000B801CE010E948C15882349F1B801CE01FE
:100AC0000E94CB12882319F1F8018281882361F0FA
:100AD000CB35FDE5DF0721F170F4C115ECE5DE074C
:100AE000A1F0CF3DDC45C9F0C801DF91CF911F9146
:100AF0000F910C94D804CC358DE5D807A1F0CD35F5
:100B0000DD4591F70E948921EFCF0E942F0580E0FB
:100B1000DF91CF911F910F9108950E94F522F7CF99
:100B20000E949221E1CF0E949521DECF08950C947E
:100B3000960581E008950C949905CF93C82F0E94E3
:100B400097058C2FCF910C949B05972F70E026E092
:100B5000929F600D711D1124FB0190E3899FE00DB0
:100B6000F11D1124EE0FFF1FE85CFE4F859194915B
:100B70000895CF93DF930E94A5050E94B306EC0170
:100B8000811521E5920708F042C0811530E59307F1
:100B900008F09DC0883E910530F5803E910508F033
:100BA00092C0883A910588F4853A910508F084C08E
:100BB0008130910509F487C0009709F484C0049737
:100BC00008F081C0D0E0C0E07EC08F3B9105D0F737
:100BD000C85AD0E0CC0FDD1FC25DDE4F0990D8812E
:100BE000C02DD46470C08115904250F4C11581E0CD
:100BF000D80708F068C0CD3ED10520F3D06563C0AA
:100C0000C11590E4D907F0F2DF70D06A5CC081159D
:100C100025E5920700F5811534E5930708F08BC0B0
:100C2000811543E5940708F073C0C11582E5D80724
:100C300008F469C0CE018370992721E030E002C03A
:100C4000220F331F8A95E2F7C695C69580E2C89FAA
:100C5000E001112454C0C11599E5D907A8F4C115C4
:100C600028E5D20708F06CC0C11536E5D30708F0B7
:100C7000A9CF8C2F0E944A07C82FD0E0DC2FCC27A9
:100C8000CC27DF71D0621FC0C1154AE5D40708F434
:100C90005CC0CE0190568115904208F093CF8D2F05
:100CA0008F710E944A0790E0982F882788279F71AC
:100CB0009C012C2BE901E6CFC55AD0E0C45ADE4F87
:100CC000C881D0E0D064CE01DF91CF910895E4E0F7
:100CD00096958795EA95E1F783702C2F26952695B2
:100CE000237040E2249F90011124382B8C2F8370B5
:100CF000C1E0D0E002C0CC0FDD1F8A95E2F7C22B25
:100D0000D32BDC68E0CFDC2FCC27C16FD06ADBCFE0
:100D10008370992721E030E002C0220F331F8A95AB
:100D2000E2F7C695C69590E2C99FE0011124C22B57
:100D3000D32BDA68C8CFD82FCC27C46FD06AC3CFE3
:100D4000DC2FCC27C06FD06ABECF8C2F8F700E9453
:100D50004A0734E0D695C7953A95E1F7CF709C2FB6
:100D6000EC01D069B0CF82389105B1F1B0F4813394
:100D7000910509F475C048F48932910509F469C0F8
:100D80008A32910509F473C008958533910509F4F9
:100D900059C08933910501F10895833E9105A9F168
:100DA00038F4803E9105F9F0823E910549F10895AD
:100DB000863E9105A9F1873E9105C9F1843E9105D2
:100DC00019F52091B80221FF1FC08091B70284FD60
:100DD00014C087EE90E008952091B7022370A1F02F
:100DE00080EE90E008952091B70220FD47C0309139
:100DF000B80230FF09C024FF44C090E080E004C086
:100E00002091B70222FDF7CF08952091B70222FD6D
:100E10003BC03091B80230FDE3CF24FFF5CFEDCFDA
:100E20002091B70223FFF0CF24FDE7CFD2CF20914E
:100E3000B70223FD2CC03091B80231FFEECF84EE13
:100E400090E008952091B70225FFDECF89E290E07F
:100E500008952091B70225FFD7CF85E390E008954C
:100E60002091B70226FFD0CF8AE290E0089520912A
:100E7000B70226FFC9CF81E390E0089589E390E0AF
:100E8000089583EE90E0089582EE90E0089586EE56
:100E900090E008959091B70292FF06C0282F287124
:100EA0002830F9F4877F846093FF06C0282F2871CB
:100EB0002831F1F4877E84612091B80220FF06C0BA
:100EC000382F38713830D9F4877F816021FF06C010
:100ED000282F28712831D1F4877E816194FD877E87
:100EE0000895282F24712430F9F68B7F8860DCCF99
:100EF000282F2471243101F78B7E8861DDCF382FB4
:100F00003171313019F78E7F8860E0CF282F217141
:100F1000213121F78E7E8861E1CF0C944A220E9414
:100F2000A8088FE39CE90197F1F700C000000E9438
:100F3000A8080E947909811109C084E00E94D507A0
:100F400081FF06C00E948D070C94D32480E0F6CF69
:100F500008950C948F070E945022811102C00E94B4
:100F6000F5220E945B22809393020E946322909359
:100F7000B8028093B7020E94A9070E945F22682FDF
:100F800070E090E080E00E947A1F609166027091AC
:100F9000670280916802909169020C94B21F0895D3
:100FA0000C94CF0708950C94D207E82FF0E0EF538C
:100FB000FD4F80810895089580EA8A95F1F708959C
:100FC00000C008950C94DC07F894E82FE295EF70C8
:100FD000F0E031A1282F2F7081E090E001C0880F50
:100FE0002A95EAF7982F9095932391A392A1892BA4
:100FF00082A37894089508950C94FB070E947B09BE
:10100000809100018091000194E0811190E0909323
:10101000CA0284E0891B8093C90284E90E94E40724
:1010200086E60E94E40787E90E94E40786EC0E94B6
:10103000E40784EF0E94E40785EF0E94E40786EF4F
:101040000E94E40787EF0E94E40781E30E94E4071F
:1010500083E30E94E407E9EBF2E0A1ECB2E081EC6B
:1010600092E011921D928E179F07D9F784E00E949B
:101070002A090E9428050C9490091F93CF93DF93AF
:1010800000D000D0CDB7DEB70E946109182F609163
:10109000CA02882309F44FC019821A821B821C825B
:1010A000862F90E0BE016F5F7F4F8F539D4F0E9450
:1010B000DF15811120C08091B8018F5F8093B80146
:1010C0008630B8F1E091C902F0E0EF53FD4FDE0148
:1010D0001196CE01059611921D92A817B907D9F75E
:1010E0000E942C05812F0F900F900F900F90DF9191
:1010F000CF911F9108951092B801A091C902B0E05C
:10110000AF53BD4FBE016F5F7F4F9E012B5F3F4FBF
:1011100010E04D91FB019191BF01491731F0AD01F4
:1011200041505109FA019083182F6217730789F70C
:10113000D7CF10E0D5CF70E06F537D4F8091C902BB
:1011400090E08F539D4F0E940A160E94FC07CACF61
:10115000CF92DF92EF92FF920F931F93CF93DF9383
:1011600005E611E089EBE82E82E0F82EC0E0CC2401
:10117000C394D12CF80181918F01F894E82FE29566
:10118000EF70F0E021A18F70A60102C0440F551F3F
:101190008A95E2F7CA01922F982B91A392A180958C
:1011A000892382A378940E94E007EFE5F1E030E024
:1011B00020E0D0E04191A42FA295AF70B0E09096CE
:1011C0008C9190E04F7002C0959587954A95E2F713
:1011D00080FD3CC08C2D022E01C0880F0A94EAF7D6
:1011E000D82B2F5F3F4F2630310521F7F80131977B
:1011F00080810E94E4070E94E207F7018081D817EE
:1012000039F1D08381E0C82BFFEFEF1AFF0A41E0EC
:101210000936140709F0AECF6091CA0270E06F532F
:101220007D4F2C2F44E089EB92E00E942B090E9415
:101230003D08C11101C0C82F8C2FDF91CF911F91A4
:101240000F91FF90EF90DF90CF90089580E0C8CF8E
:1012500080E0D9CF0895FF920F931F93CF93DF9330
:10126000F82E092F162FD72FC42F222349F081E003
:101270008093BB010E943E249093BA018093B901F0
:101280008091BB018823A1F08091B9019091BA01AE
:101290000E945624069760F0EF2DF02FA12FBD2F4E
:1012A000CE0FDF2FD11DEC17FD0741F41092BB01CB
:1012B000DF91CF911F910F91FF90089581918D93B0
:1012C000F2CF8091BC01811107C00E94AC2B882312
:1012D00051F081E08093BC0181E09091BC0191309C
:1012E00009F080E0089582E08093BC010E94A72B62
:1012F000F3CF0C9461090E947909809300018091D9
:10130000000166E0882349F080E00E94BB0C0E9447
:101310006109882321F00C94B61586E0F6CF089574
:101320000E946109811102C00C94BC15089580913E
:10133000C30180FF12C06091060185E0689FB00183
:101340001124759567957595679560387105A8F5B1
:1013500061157105A1F1862F089581FF09C0609183
:10136000060185E0689FB001112475956795EDCF62
:101370006091060182FD0AC08091C2018823D1F0EC
:101380009091050160910601891728F085E0689F1A
:10139000B0011124DACF869FB001112485E0869F29
:1013A0009001879F300D1124692F70E0C9010E94C0
:1013B000DB2BCBCF65E070E0CECF8FE7089581E0E7
:1013C00008958091C30180FF0CC06091020170E01C
:1013D00075956795759567956115710549F1862F26
:1013E000089581FF06C06091020170E075956795D0
:1013F000F3CF6091020182FD0BC09091C10199234E
:10140000A1F06091010180910201961738F0682FD8
:1014100070E06038710500F38FE70895899FC0017F
:10142000112470E00E94DB2BF4CF61E070E0D7CF95
:1014300081E008958D3E31F40E9497098195809353
:10144000C70108958E3E19F40E949709F8CF8F3E88
:1014500031F40E94970981958093C6010895803FD9
:1014600019F40E949709F8CF893F29F40E94E109F5
:101470008093C80108958A3F21F40E94E109819573
:10148000F7CF8B3F31F40E94E10981958093C90128
:1014900008958C3F19F40E94E109F8CF9FE0980F5E
:1014A000983070F4815F990B21E030E001C0220F89
:1014B0008A95EAF78091C501822B8093C501089532
:1014C0008D3F31F48091C30181608093C301089501
:1014D0008E3F21F48091C3018260F7CF8F3FB9F72F
:1014E0008091C3018460F1CF4091C6018D3E59F4D3
:1014F0008091C70187FF0DC01092C70141110BC039
:101500001092C20108C08E3E81F48091C701181666
:101510009CF3442381F08091C8019091C901892BEB
:1015200009F05AC01092C10108958F3E49F447FF57
:10153000F0CF1092C6018091C7018111ECCFE0CFAE
:10154000803F19F41416ACF3E4CF9091C801893FA1
:1015500029F41916F4F61092C801DBCF8A3F19F46A
:1015600097FFD7CFF8CF9091C9018B3F29F497FF10
:10157000D0CF1092C901CDCF8C3F19F41916CCF3FE
:10158000C8CF9FE0980F983090F4815F990B21E0CD
:1015900030E0B90102C0660F771F8A95E2F7CB01F0
:1015A00080959091C50189238093C501B2CF8D3F6D
:1015B00031F48091C3018E7F8093C301AACF8E3F07
:1015C00021F48091C3018D7FF7CF8F3F09F0A1CF28
:1015D0008091C3018B7FF0CF08950E943E249C012F
:1015E0009091C6018091C701982B21F03093C001E2
:1015F0002093BF019091C8018091C901982B21F0DF
:101600003093BE012093BD0184EC91E00C94181836
:10161000EF92FF920F931F93CF93DF9300D000D0F0
:1016200000D0CDB7DEB786E0E4ECF1E0DE01119644
:1016300001900D928A95E1F7E090C601F090C70104
:101640000091C8011091C9011092C6011092C70102
:101650001092C8011092C9018E2D8F2991F08091AE
:10166000BF019091C0010E945624AC019091C2012B
:10167000992309F43FC0809107018417150608F4E7
:1016800047C0802F812B91F08091BD019091BE01C8
:101690000E945624AC019091C101992309F477C0AE
:1016A000809103018417150608F47FC08091C6015C
:1016B0009091C701892B9091C801892B9091C90104
:1016C000892B11F00E94ED0A86E0FE013196A4EC10
:1016D000B1E001900D928A95E1F726960FB6F89445
:1016E000DEBF0FBECDBFDF91CF911F910F91FF9055
:1016F000EF900895209108018AE0289F900111241D
:101700002417350708F0BDCF9F5F9093C20102C038
:101710009F3FD1F7EE2059F00E9497099FEF1E14CA
:101720000CF491E0899F802D11248093C601FF2045
:1017300059F00E9497099FEF1F140CF491E0899FC4
:10174000802D11248093C7013091C601332309F401
:1017500098CF2091C701222309F493CF45EB34039E
:10176000C0011124992359F09093C60145EB24033D
:1017700090011124332339F03093C70182CF81E0E7
:101780008093C601F3CF81E08093C7017ACF209187
:1017900004018AE0289F900111242417350708F0DE
:1017A00085CF9F5F9093C10102C09F3FD1F7002377
:1017B00059F00E94E1099FEF10160CF491E0899F07
:1017C000802D11248093C801112359F00E94E10952
:1017D0009FEF11160CF491E0899F802D11248093C6
:1017E000C9013091C801332309F460CF2091C901A8
:1017F000222309F45BCF45EB3403C0011124992364
:1018000059F09093C80145EB240390011124332330
:1018100039F03093C9014ACF81E08093C801F3CFFA
:1018200081E08093C90142CF86E0E4ECF1E0DF0182
:101830001D928A95E9F71092C2011092C10110928F
:10184000C3010895EF92FF920F931F93CF93DF93FD
:10185000EB01E82FD11110C0442321F0F0E0E8554E
:10186000FA4FE4916E2F7E2F8E2FDF91CF911F9133
:101870000F91FF90EF9008950D2F10E0282F30E08A
:10188000442329F028553A4FF901249130E0F6E03D
:10189000CF9FC0011124EFEFF0E0BF010E94C72BE2
:1018A000AB018C2F90E0880F991FA5E5A49FB00194
:1018B000A59F700D1124861B970B982F990F980FD9
:1018C000BF01601B710B629FD001639FB00D729FBF
:1018D000B00D11248B2F9D9FB0011124672F772706
:1018E000EF01C61BD70BBE01629FE001639FD00DC5
:1018F000729FD00D11247F01E91AF108E09EB0011A
:10190000E19E700DF09E700D1124672F7727E61B66
:10191000F70BE29F8001E39F100DF29F100D112441
:10192000E12F722F4230510599F048F441155105CD
:1019300069F04130510581F0EB2F8D2F07C0443005
:10194000510569F080F046305105B1F76E2F8DCF0B
:10195000E22F7B2F812FFACFE22F7D2FF7CFEB2FB6
:10196000822F712FF3CF7B2F822FED2FEFCF41E00E
:101970000C94220C0895EBE0F1E0808361830895DC
:101980000C94B70CCF93DF93762FE901682F842F47
:101990000E94C00C798368838A83DF91CF91089578
:1019A000493708F048E70C94C20C8091CB02982F7D
:1019B0009E7F61F4817082608093CB028091CE0221
:1019C000893718F088E78093CE0208958033B0F30A
:1019D00081708E62F1CF88E090E00C941F2CCF9242
:1019E000DF92EF92FF926B017C010E94D50CB70150
:1019F000A60188E090E0FF90EF90DF90CF900C94EC
:101A00003D2CEBECF2E083E0808311828FEF828348
:101A100088E783831482AAEDB1E012968C91129725
:101A2000836012968C9360817181828193810C9482
:101A3000EF0C8091CB0280FF02C08695089580E074
:101A400008959091CF02933018F49F5F9093CF0246
:101A5000882351F06091CB027091CC028091CD022D
:101A60009091CE020C94EF0C089581E00C94210D1E
:101A70009091CF02992319F091509093CF0288232F
:101A800051F06091CB027091CC028091CD02909187
:101A9000CE020C94EF0C089581E00C94380D21E0F7
:101AA00030E001C0220F8A95EAF79091DD01922380
:101AB00081E009F480E0089570E00C947F136F9248
:101AC0007F928F929F92AF92BF92CF92DF92EF92CE
:101AD000FF920F931F93CF93DF9300D000D00F920C
:101AE000CDB7DEB770900C019091CB0290FF26C06D
:101AF000C090CF01D090D001C114D10489F580915C
:101B00000B0133E0839FC0011124672D80539D4F4B
:101B10000E945C0D0F900F900F900F900F90DF912F
:101B2000CF911F910F91FF90EF90DF90CF90BF90DA
:101B3000AF909F908F907F906F90089580910D014E
:101B400020910E0133E0839FF0011124E053FD4FFB
:101B5000821770F61182108212828F5F3396F8CF4F
:101B600090FFCDCFF12CE12C43E0642E8E2D0E940E
:101B70004F0D882309F43CC0F701EE0FFF1FEC0D59
:101B8000FD1DA590B490A114B10409F4B8CF45E0AF
:101B900050E0B501CE0101960E94012C09810F3F52
:101BA00039F18A81800F9927991F8C31910514F0A2
:101BB0008BE190E04C01880C991C880D991D9C01CB
:101BC00020533D4F4901069D8001112400531D4FB4
:101BD0000815190520F035E0A30EB11CD8CF9801E7
:101BE0004D816C818B810E94D00C0D5F1F4FF0CF17
:101BF0008FEFE81AF80A28E0E216F10409F0B6CFF0
:101C00007ECF9091CB0290FF14C090910D01209156
:101C10000E0133E0939FF0011124E053FD4F921722
:101C200010F00C945F0D8183608342839F5F339635
:101C3000F6CF0895CF93DF9300D00F92CDB7DEB7E4
:101C40009091CB0290FF0AC09E012F5F3F4F0E94F0
:101C5000D00C4B8169818A810E94010E0F900F90F8
:101C60000F90DF91CF910895CF93DF93EC01EC813A
:101C7000F0E0E855FB4F4491EBECF2E062818181AA
:101C80000E941A0E8C818F5F8C83DF91CF91089513
:101C9000CF93DF93EC01EBECF2E0438162818C8126
:101CA0000E941A0E8C818F5F8C83DF91CF910895F3
:101CB000EF92FF920F931F93CF93DF9300D00F9279
:101CC000CDB7DEB7182FF62E042FE22E8091CB026F
:101CD00080FF39C0E82FE695F0E0E359FE4F908190
:101CE0009093DA018E7F8230C1F59E012F5F3F4FC6
:101CF000812F0E94D00C4B8169818A810E94010E44
:101D00008091CC02811308C08091CD028F1104C054
:101D10008091CE02801729F08091DC01826080934F
:101D2000DC011093CC02F092CD020093CE02EE20A3
:101D300051F06091CB027091CC028091CD029091D4
:101D4000CE020E94EF0C0F900F900F90DF91CF9179
:101D50001F910F91FF90EF900895923019F4009128
:101D6000CE02CECF8091CC02963011F0993041F660
:101D7000182FC6CFEBECF2E09181282F43816281CE
:101D80008AE0890F0C94580E81E00C94BA0EEBECAB
:101D9000F2E09181282F4381628186EF890F0C94B4
:101DA000580E81E00C94C70EEBECF2E0628121E169
:101DB000620F08F46FEF282F438181810C94580E35
:101DC00081E00C94D40EEBECF2E0628121E1621B25
:101DD00008F460E0282F438181810C94580E81E043
:101DE0000C94E30EEBECF2E0438121E1420F08F4A6
:101DF0004FEF282F628181810C94580E81E00C9462
:101E0000F20EEBECF2E0438121E1421B08F440E0EA
:101E1000282F628181810C94580E81E00C94010F6F
:101E200020E00C94580EEF92FF921F93CF93DF9314
:101E3000EC0110E0EE24EA94F12C60910F011617EA
:101E400070F00E945F0D9A818C8190FF27C08F5F98
:101E50008C83DF91CF911F91FF90EF900895209197
:101E60000D01422F410F5527551FCA019A01220F1C
:101E7000331F280F391F20533D4F70E0C7010E94C8
:101E8000DB2B962F8C814091CE026091CD02199F61
:101E9000800D11240E94D00C1F5FCFCF8150D8CF6E
:101EA0008F929F92AF92BF92CF92DF92EF92FF926A
:101EB0000F931F93CF93DF93EC018A81BB24BA94D5
:101EC00080FD02C0BB24B3948C8181110AC081E0E3
:101ED000B8122AC080910F0181508093CB0181E01C
:101EE0008C83A12C4BE1942E80910F01A816F8F061
:101EF0000E945F0D8091CB0191E0B91261C0811108
:101F00005AC080910F0181508093CB011C82DF91D8
:101F1000CF911F910F91FF90EF90DF90CF90BF90E6
:101F2000AF909F908F9008951092CB01D8CF0091E1
:101F30000D01CA2CD12C0C0D1D2D111DC801880FAF
:101F4000991F080F191F00531D4FF80111821082AD
:101F5000128234E0E32EF12C812C8091CB01880D8C
:101F60008C311CF1692D0E94B92B892F082E000C91
:101F7000990BC816D90691F48091CE028E9DA001CE
:101F80008F9D500D1124559547955595479598016E
:101F90006091CD028091CC020E94D00C8B0CF1E0BC
:101FA000EF1AF108D1F6A3949FCF87FFDFCF90916E
:101FB0000F01890FDBCF81508093CB01BC82A7CF6B
:101FC00090E0019660910F0170E00E94DB2B8093FE
:101FD000CB018C839CCFEF92FF920F931F93CF93F3
:101FE000DF93EC018C81811109C081E08C83109218
:101FF000CA0192E090930A018093090180910D013A
:1020000090910E0123E0829FF0011124E053FD4FD7
:10201000891768F110E003E060910F01161768F16D
:102020000E945F0D809109012091CA01280F209321
:10203000CA0190910A01980F90930A01191654F45D
:10204000022E000C330B40910F014150550B241709
:10205000350734F0819580930901813009F41C82A1
:10206000DF91CF911F910F91FF90EF900895118212
:10207000108212828F5F3396CBCFE12EF12C70E06D
:10208000C7010E94DB2B20910D01820F482F50E0E9
:102090002091CA01022E000C330BE216F306BCF0AD
:1020A00020910A01022E000C330B2E153F057CF007
:1020B000809F9001112420533D4F4091CE026091AA
:1020C000CD028091CC020E94D00C1F5FA5CFFA01F7
:1020D000EE0FFF1FE40FF51FE053FD4F118210823A
:1020E0001282F3CF8091DC0108951092DC010895F3
:1020F00025E0EBECF2E0DC0101900D922A95E1F78E
:102100004091DA015091DB016091DC017091DD01B9
:10211000FC0145835683678370870895EAEDF1E0FB
:1021200011828281846082830895EBECF2E08081E9
:102130008E7F80830E948E10EAEDF1E082818160C3
:1021400082832FEF80E792E0215080409040E1F7BA
:1021500000C000000C945F0D0E948E108091D80189
:1021600081110AC081E08093D8018091CB028170F7
:102170008093D7010C9495100895EBECF2E08081E8
:102180008E7F808360817181828193810E94EF0CB8
:102190000E948E10EAEDF1E08281816082832FEF50
:1021A00080E792E0215080409040E1F700C00000BD
:1021B0000C945F0D6091CB02669570E041E050E0B9
:1021C00080E191E00E940A2C892B19F481E0809330
:1021D000DB010E94CA249093D2018093D1018091A7
:1021E000DC0184608093DC0108959091CB0290FF24
:1021F0003AC0917081112DC092609093CB02809172
:10220000DC0181608093DC01662351F06091CB0298
:102210007091CC028091CD029091CE020E94EF0C81
:102220006091CB02669570E041E050E080E191E082
:102230000E940A2C892BA1F00E948E1081E08093CD
:10224000D4014091CE026091CD028091CC020C94D9
:10225000100F883110F09E62D0CF880F982BCDCF11
:102260000E94DA10EBCF0895682F9091CB029695DB
:1022700081E0890F883108F081E00C94F51081E04D
:102280000C943411682F9091CB0296958FEF890FA3
:1022900009F487E10C94F51081E00C94421161E09F
:1022A0000C94F510EBECF2E08081816080838695E0
:1022B0000C944F118091CB0280FD0C94BD100C94B6
:1022C000521160E00C94F5108091D901811133C056
:1022D0000E945022811104C00E94F5220E94010D2B
:1022E0000E94EB0C6093CB027093CC028093CD02E2
:1022F0009093CE028091DC0183608093DC016E7F3D
:1023000061F40E94010D0E94EB0C6093CB0270936C
:10231000CC028093CD029093CE020E94D50C0E94F5
:102320008E108091CB0280FF03C086950E946111C0
:1023300081E08093D9010895EBECF2E08081816027
:10234000808386950C94611121E030E0A90102C0E0
:10235000440F551F8A95E2F7CA012091DD016623DB
:1023600089F0822B8093DD018091DC018061809374
:10237000DC018091DB01811108C08091CB02869540
:102380000C94611180958223EDCF08951092D801AD
:102390008091D70181110E949C110C94DA101F9337
:1023A000CF93DF93EC01162F8F8184FF03C09885B4
:1023B0009093DD0180FF0DC0888180FF25C0809152
:1023C000CB0281608093CB028881612F86950E9429
:1023D000F5108F8181FF06C0212F4B816A81898191
:1023E0000E94580E8F8182FF05C08E81882379F06C
:1023F0000E94DA108F8183FF03C081E08093D401B3
:10240000DF91CF911F9108950E949510E2CF0E9415
:102410008E10F0CFEF92FF920F931F93CF93DF9325
:102420008091DB01882309F462C08091DA01E09198
:10243000CB02E695E81BE093D301823009F05EC041
:10244000F0E0EC55FB4FE491CE2FD0E004E31EE02A
:102450008091D401882361F01092D4010E94CA2493
:102460009093D2018093D1011092D6011092D501A0
:102470000E94CA24E091D101F091D2019C012E1B4F
:102480003F0B2F3F3F4798F52091CE012223B1F01B
:102490001092CE012091CC013091CD01821B930B83
:1024A0008F3F9F4758F4205D3A483093CD012093E9
:1024B000CC018091DC0188608093DC01E090D50143
:1024C000F090D601EC0FFD1FF093D201E093D10103
:1024D00081ED91E0F80109958091D5019091D601A7
:1024E000892B29F4EF2819F081E08093CE01DF9148
:1024F000CF911F910F91FF90EF900895863049F48E
:10250000F0E0EF55FB4FE491CE2FD0E008E41EE061
:102510009FCF893051F4E695F0E0E256FB4FE4910D
:10252000CE2FD0E003E11FE093CF8F3051F4E6953A
:10253000F0E0E556FB4FE491CE2FD0E000E51FE040
:1025400087CFC0EDD7E00AEB1CE0853109F080CFE2
:10255000F0E0E856FB4FE491CE2FD0E00BEE1FE009
:1025600077CFFA01811101C0FB010994CF93DF936A
:10257000C82FD62F0E94190D8C1740F00E94190DFC
:102580008D1720F4DF91CF910C943F118C2FDF91A8
:10259000CF910C944F111F93CF93DF93EC01FB016C
:1025A000128111116FC00E9498218272CC3CFCE50F
:1025B000DF0709F48DC0A8F5C73CECE5DE0709F498
:1025C00073C0D8F4C43C9CE5D90709F463C030F467
:1025D000C33CDC4509F45BC011E054C0C53C9CE53C
:1025E000D90709F45CC041ED5EE064EC7EE0C63CD6
:1025F000DC4591F70E94B11245C0C93CFCE5DF07FC
:1026000009F45CC008F455C0CA3CECE5DE0709F4E7
:102610005AC04EEF5EE06DE07FE0CB3CDC4551F30D
:10262000DBCFC13D9CE5D90709F463C0A0F4CE3CE3
:10263000FCE5DF0709F456C008F44FC0CF3CECE5D9
:10264000DE0709F453C068E086E0C03DDC4521F6B2
:102650000E94B61217C0C73D8CE5D80778F4C43D78
:102660009CE5D90778F4C23DECE5DE0709F444C0E7
:1026700067E185E1C33DDC4559F3AECFCE35DD459D
:1026800009F0AACF812FDF91CF911F9108950E9469
:102690005A11F8CF4CE451E16FE371E1ABCF4FE356
:1026A00051E16CE471E1A6CF44EC5EE061ED7EE0C7
:1026B000A1CF4FEE5EE060EE7EE09CCF40EE5EE0AC
:1026C0006FEE7EE097CF4DE05FE06EEF7EE092CF61
:1026D0004CE45DE065E37DE08DCF45E35DE06CE4D7
:1026E0007DE088CF81E00E944F11CCCF65E082E091
:1026F000AFCF6EE089E0ACCF64E18FE0A9CF539A11
:102700004BB1477F5BB15860EFB7F8949B01220F44
:10271000331F260F371F280F391F2817390741F499
:10272000EFBF8FE594E00197F1F700C00000089536
:10273000DC016D91CD0178E05BB9000000C067FF5E
:102740004BB9660F000000C000C000C04BB900C00C
:102750007A9591F7E2CF0F931F93CF93DF93C42F16
:10276000D22FFC0182818823C9F04093E0010E94AE
:102770003E249093DF018093DE0180E28C0F88304D
:1027800008F050C0C77081E001C0880FCA95EAF711
:10279000DF91CF911F910F910C94001A1091E001DD
:1027A000141335C08091DE019091DF010E94562400
:1027B000883C910560F5C0E2CD0F1D17B9F080E2AD
:1027C000810F883040F4177081E001C0880F1A959E
:1027D000EAF70E94071AC83048F481E09D2F9770ED
:1027E00001C0880F9A95EAF70E94001A802F0E9474
:1027F000F819C830B8F4D77081E001C0880FDA95B5
:10280000EAF7DF91CF911F910F910C94071A80E2A4
:102810008C0F883038F4C77081E001C0880FCA95EA
:10282000EAF7EFCFDF91CF911F910F9108950F93AA
:102830009C01CB01243F4CE5340759F1A8F4293D14
:10284000FCE53F0701F12A3D4CE53407D1F1283D75
:102850003C4591F406E221EE41EE68ED7CE50E94F4
:10286000AB1380E00F910895263FFCE53F07E9F0A8
:10287000B0F0273F3C45F9F0FC018281882339F113
:102880001092E001EFCF07E225EE45EE69ED7CE521
:10289000E6CF06E221EE40EE64EF7CE5E0CF07E212
:1028A00025EE44EE65EF7CE5DACF06E221EE42EE5E
:1028B00066EF7CE5D4CF07E225EE46EE67EF7CE5D8
:1028C000CECF08E221E045EE6AED7CE5C8CF81E09D
:1028D000C9CFCF93DF93EC01FB018281882309F4F8
:1028E00019C1C230FCE5DF07C0F1C6319CE5D9074C
:1028F00030F09E012B5F3C452930310570F50E9478
:1029000063229093B8028093B702C031ECE5DE07F2
:1029100009F4CFC008F05BC0C8308CE5D80709F4D3
:10292000B6C088F5C430ECE5DE0709F4A8C0C0F4F1
:10293000C2308CE5D80709F49CC08091B702826050
:10294000C330DC4509F498C08091B7029091B80279
:102950000E9471220E946C1C80E0DF91CF9108954B
:102960008091B7028061C630ECE5DE0709F484C0CF
:102970008091B7028860C730DC4508F47DC0809143
:10298000B702806279C0CC308CE5D80709F489C0E1
:1029900070F48091B7028C60CA30ECE5DE0709F470
:1029A0006BC008F478C08091B7028E7F65C0CE30CE
:1029B0008CE5D80709F479C08091B7028B7FCF30BE
:1029C000DC4508F459C08091B7028F7E55C0CC3FDA
:1029D000ECE5DE0709F457C030F5C3318CE5D807C4
:1029E00009F46FC078F4C131ECE5DE0709F465C085
:1029F000C231DC4509F0A8CF0E946C1C8091B7025F
:102A00008F773AC0C5318CE5D80709F462C008F465
:102A100076C08091B8028160CB3FDC4509F094CF4D
:102A20008093B80291CFC115FDE5DF0709F44DC0D1
:102A300088F48091B8028D7FCE3F9CE5D90781F361
:102A40008091B8028E7FCF3FDC4550F38091B80271
:102A50008360E6CFC230FDE5DF0709F459C008F412
:102A600044C080E0C330DD4509F06ECF0E94F722FC
:102A70006BCF8091B70281608093B70265CF809160
:102A8000B7028460F9CF8091B8028260C9CF80918B
:102A9000B7028064F1CF0E946C1C8091B7028068FD
:102AA000EBCF8091B7028D7FE7CF8091B702877F10
:102AB000E3CF8091B7028F7DDFCF8091B7028F7B0C
:102AC000DBCF8091B702837FD7CF8091B8028C7F14
:102AD000A7CF8091B70282FB992790F921E0922736
:102AE00090FB82F990FB83F9C7CF8091B802982FB1
:102AF000909591708E7F892B90FB81F991CF0E94E8
:102B00006C1C9091B702892F97FB87F98058B4CF3E
:102B100081E0ACCF81E021CFCF93DF93EB01863111
:102B20009C4511F50E9498219A81992399F08A7AFF
:102B300091E009F490E09093E101811109C089E2EC
:102B40000E9452210E94DB2180E0DF91CF91089505
:102B500085E3F6CF8091E101811104C089E20E94F2
:102B60005921F0CF85E3FBCF81E0EFCF62E070E049
:102B700081E191E00C948D1662E070E081E191E0DA
:102B80000C9496160E947210882361F08CEE91E0EE
:102B90000E94781081E090E00E946F17892B11F459
:102BA0000C94751008958091EB01883039F460E041
:102BB0008CEE91E00E94CF111092EB010895CF931B
:102BC000DF93D62FC72F0E94C21590E080E00E94AD
:102BD0006F170097E9F4ED2FFC2FDC01A951BE4FD0
:102BE0002C912193019684309105B9F70E94AF246E
:102BF0006E5F7F4F8F4F9F4F6093E3017093E401AF
:102C00008093E5019093E60181E0DF91CF910895F3
:102C100080E0FBCFCF93DF93D62FC72F0E94D31531
:102C20006091E3017091E4018091E5019091E601EA
:102C30000E949224ED2FFC2F90E080E02191DC0196
:102C4000A951BE4F2C93019684309105B9F7DF91BD
:102C5000CF9108958EE14A9B02C08150E1F74A9BD3
:102C6000FECF08955A9880E28A95F1F75A9A08950E
:102C7000FC013BE03A95F1F720E090E080E031E0A4
:102C800040E14A95F1F7880F4A9B02C081602327F3
:102C900042E04A95F1F7000040E14A95F1F79F5F65
:102CA0006913EECF90E19A95F1F799B132E03A9538
:102CB000F1F7000040E14A95F1F792FB992790F96E
:102CC00092272081920F90830895EF92FF920F93A5
:102CD0001F93CF93DF930F92CDB7DEB719828C018C
:102CE0007C01E60EF11C0E151F0561F481E099814F
:102CF000911180E00F90DF91CF911F910F91FF9084
:102D0000EF9008950E942A1668E0CE0101960E9475
:102D10003816F80181938F01E6CF9093F7018093E5
:102D2000F6016093F501529A5A9A08959093F7012B
:102D30008093F6016093F50152985A9AEA9AE9E66F
:102D4000F0E080818F7C808308956150770B91E063
:102D500001C0990F6A95EAF720E031E0911108C0AF
:102D6000222391F05A9A80E28A95F1F75A980895B1
:102D7000492F482339F05A9A232740E24A95F1F720
:102D80009695ECCF5A98F9CF5A98EDCFFF920F93C2
:102D90001F93CF93DF93EC018C01060F111DC01719
:102DA000D10731F4DF91CF911F910F91FF900895DA
:102DB000F9900E94321668E08F2D0E94A516EFCF81
:102DC0001F920F920FB60F9211240F931F932F9300
:102DD0003F934F935F936F937F938F939F93AF93A3
:102DE000BF93EF93FF93CF93DF930F92CDB7DEB7EF
:102DF00019820E942A1667E0CE0101960E943816B9
:102E0000082F069506950695982F92959570202F78
:102E10002570920F292F2370969596958770920FA3
:102E2000891344C08981811141C08091F5018017C7
:102E3000E8F120E12A95F1F75A9A529A82E08A95B0
:102E4000F1F700C0A8E00A9FC00111240091F6012B
:102E50001091F701080F191F5A98F8016581662330
:102E600021F0868197810E94C6160E943216F0E1F9
:102E7000FA95F1F75A9852985A9A20E12A95F1F763
:102E8000D80112966C911297662331F113968D91A9
:102E90009C910E946516D801ED91FC91882311F058
:102EA00088E001C082E080830E942A160F90DF91A3
:102EB000CF91FF91EF91BF91AF919F918F917F91B2
:102EC0006F915F914F913F912F911F910F910F90B3
:102ED0000FBE0F901F901895ED91FC91E1CF0F93CD
:102EE0001F93CF93DF932091F501281719060CF457
:102EF00071C08C0193E0000F111F9A95E1F7C0910A
:102F0000F601D091F701C00FD11FF894529A5A9848
:102F100025E02A95F1F70000982F96959570857019
:102F2000980F892F837096959695980F092B0E947C
:102F3000321600C067E0802F0E94A51680E18A95B6
:102F4000F1F752985A9A4A9B17C087E090E04A9945
:102F500015C06D81662321F18E819F810E946516C7
:102F600081111EC0529A5A9AE881F98182E08083C9
:102F7000789482E090E00DC000C0E5CF019771F435
:102F8000529A5A9AE881F98181E08083789481E0AD
:102F900090E0DF91CF911F910F91089500C0D7CF9E
:102FA0000E942A1620E22A95F1F75A98529A80E157
:102FB0008A95F1F76A81662321F08B819C810E94BA
:102FC000C6160E943216E881F9811082789490E04A
:102FD00080E0DFCF84E090E0DCCF9093FD01809330
:102FE000FC010895E091FC01F091FD01309721F082
:102FF0000190F081E02D099480E00895E091FC01BA
:10300000F091FD01309799F020912D01222359F084
:103010002091B70227FF07C0DC012C9111962C9359
:10302000119725E02C930280F381E02D09940895F7
:10303000E091FC01F091FD01309739F022E0DC01D4
:103040002C930480F581E02D099408952091FA01D4
:103050003091FB012817390771F09093FB018093A1
:10306000FA01E091FC01F091FD01309721F006801A
:10307000F781E02D099408952091F8013091F9012C
:103080002817390771F09093F9018093F801E091C6
:10309000FC01F091FD01309721F00084F185E02DD5
:1030A000099408950E944A2460930B0270930C02C5
:1030B00080930D0290930E026093070270930802B2
:1030C0008093090290930A02089585B7806885BFAE
:1030D00085B7806885BF0895089508950C946C188D
:1030E0000C9451040E94651888E492E20E94E42442
:1030F0000E946D180C946E180C946109089508953F
:103100000E947E180C947F180E9435240E94892406
:103110000E94FE070E9464110C947018AF92BF9237
:10312000CF92DF92EF92FF920F931F93CF93DF9393
:10313000CDB7DEB72A970FB6F894DEBF0FBECDBF6E
:103140000E94A80881110E9452188FEFA82E81E0DA
:10315000B82E10E000E0C02E802F0E94D507E82E88
:10316000F501F1905F01F81609F44FC080919302C8
:1031700081FD0E94DB078F2D8E25D12CFF24F39437
:10318000982F9F21E9F10E947C18882399F0DE8214
:10319000CF82EF2081E009F480E088870E943E24FE
:1031A0008160782F9A8789874E815F8168858A85BB
:1031B0000E942D19F801E150FE4F8081F826F0821F
:1031C0000E940A120E94080B0E94F2179091FE01C1
:1031D000891791F10E94F2178093FE012A960FB68B
:1031E000F894DEBF0FBECDBFDF91CF911F910F913D
:1031F000FF90EF90DF90CF90BF90AF900C949D0523
:10320000D394FF0CF6E0DF12BBCF0F5F1F4F0830E7
:10321000110509F0A0CF8FEF89838A831B820E945A
:103220003E248160782F9D838C8349815A816B81F4
:103230008D810E942D19C4CF2A960FB6F894DEBF57
:103240000FBECDBFDF91CF911F910F91FF90EF90F7
:10325000DF90CF90BF90AF900895DF92EF92FF92F2
:103260000F931F93CF93DF93CDB7DEB72B970FB696
:10327000F894DEBF0FBECDBF7A878B87F42E052F63
:10328000162FE72ED82E61110E94B8211E821D82B2
:103290007E2DEC82DD824F2D502F612F8D2D9E8152
:1032A0002B960FB6F894DEBF0FBECDBFDF91CF9146
:1032B0001F910F91FF90EF90DF900C94D01EFC01B6
:1032C000808191810C942421CF93C82F882309F405
:1032D00047C08CEF8C0F813AA0F46C2F80912101B4
:1032E000909122010E941023882329F08C2F0E94A4
:1032F00059210E94DB218C2F0E945221CF910C94E6
:10330000DB2180E28C0F883048F4C77081E001C077
:10331000880FCA95EAF70E949B21F0CFEBE5EC0FEE
:10332000E33040F4F0E0ED54FE4F808190E0CF9127
:103330000C942618E8E5EC0FE73150F4F0E0EE0FBE
:10334000FF1FEB57FE4F80819181CF910C943C1869
:10335000CD3E30F08C2F0E941A0ACF910C94ED0ACA
:10336000CF910895882361F19CEF980F913A20F452
:103370000E9459210C94DB2190E2980F983050F470
:10338000877091E001C0990F8A95EAF7892F0E9412
:10339000A121F0CF9BE5980F933020F490E080E0DE
:1033A0000C94261898E5980F973120F490E080E06F
:1033B0000C943C188D3E20F00E94740A0C94ED0A87
:1033C00008951F93CF93DF93182FEB010E94641988
:1033D000209731F4812FDF91CF911F910C94B21976
:1033E0008FE99FE00197F1F700C000002197F0CF2F
:1033F00070E060E0893311F460E570E00C94E1194D
:10340000882321F00E949B210C94DB2108958823BE
:1034100021F00E94A1210C94DB210895BF92CF924C
:10342000DF92EF92FF920F931F93CF93DF936C0184
:10343000D62FC72FFC011281058102950F700E94C3
:103440007021E82E8823A1F0E12E112389F08C2F22
:10345000807F803429F080E28D0FE12C883040F0AD
:1034600082E00E942C220E94702191E0E82EE92641
:10347000BC2EB2949FE0B922FBE0FB1598F1EB2D36
:10348000F0E0EF59F34D0C94EF2B0C2F0F70C07F31
:1034900011F00295007F1123A9F0002359F080E27A
:1034A0008D0F883010F0D11109C0802F0E949B2110
:1034B0000E94DB218D2F0E94641914C0802F0E946E
:1034C000AB21F6CF8D2F0E94B219002359F080E274
:1034D0008D0F883010F0D1112CC0802F0E94A121B7
:1034E0000E94DB212B2D2850330B2430310520F492
:1034F0000E94F2170E949D05EE2009F48EC10E94E1
:103500006C2180FD8AC1F60112820E9466210E9410
:10351000EF1FC6010E942E1C0E946621DF91CF91F1
:103520001F910F91FF90EF90DF90CF90BF900C9480
:103530001020802F0E94B121D3CF2C2F2F70F22E7C
:10354000C07FC03219F0F29480EFF822DD2369F0D9
:10355000D13049F1112391F1002351F1F601858118
:1035600080FFA8CF8F70858323C0112381F00111C4
:1035700006C00E94BE218F290E94001AB3CF0130DD
:10358000C1F70E94BE218F290E94C421ABCF011137
:1035900006C00E94D1218F2D0E94071AA3CF0130AF
:1035A00009F4A0CFF6CF112329F0063008F09ACF06
:1035B0008F2DE2CF053008F095CFEDCF002359F3E2
:1035C000D93349F4FFEF27EE33E0F150204030408B
:1035D000E1F700C000008D2F0E94B21983CF8C2F1D
:1035E00086958695837069F0813009F07BCF8D2FA9
:1035F0009C2F9370111102C090E080E00E943C1853
:1036000071CF8D2F9C2F9370111102C090E080E03C
:103610000E94261867CF8D2F112329F00E941A0AC5
:103620000E94ED0A5FCF0E94740AFACF8C2F83703C
:1036300009F041C0111156CF4D2F42954695477064
:10364000440F440F0D2F0F7010E030E020E0042EE7
:1036500004C0000F111F221F331F0A94D2F760E02D
:1036600070E0CB01D4FF0FC06FE070E080E090E02D
:1036700004C0660F771F881F991F4A95D2F760957F
:10368000709580959095C695C695C370602B712BEB
:10369000822B932BC23049F058F4C13019F00E94AC
:1036A0008E1F20CF0E947C1F1DCF0E94A01F1ACF0B
:1036B0000E947A1F17CF8695112311F08C2F8170ED
:1036C000882309F40FCF4D2F429546954770440F3C
:1036D000440F0D2F0F7010E030E020E0042E04C0E6
:1036E000000F111F221F331F0A94D2F760E070E011
:1036F000CB01D4FF0FC06FE070E080E090E004C029
:10370000660F771F881F991F4A95D2F760957095AD
:1037100080959095C695C695C370602B712B822BB2
:10372000932BC23049F058F4C13019F00E94662042
:10373000D9CE0E945420D6CE0E947820D3CE0E94AB
:10374000B41FD0CECF70112329F08C2F0E94EF1F11
:103750008D2F12CF8D2F0E94071A8C2F0E941020C0
:10376000C1CED23F89F160F4D03FC9F0D13F29F1F9
:10377000112309F442C001119DCE8C2F8F7121C0FD
:10378000D33F39F1D43FA1F7112369F1CF718C2FC9
:103790000E94EF1F63E08C2F0E941122A3CE112301
:1037A00041F0053008F09ECE8C2F8F710E9433209F
:1037B00099CE063008F096CEF7CF8C2F8F7111235B
:1037C00069F20E94EF1F8ECE8C2F8F711123C9F3E7
:1037D000C5CF112329F08C2F8F710E94DA1F82CE62
:1037E0000E94C01F7FCE81E00E942C22023008F48C
:1037F00079CE82E00E942C2275CE002359F0D93375
:1038000009F0E9CE8FEF97EEE3E081509040E04081
:10381000E1F7DFCE8C2F8F71A1CFDF91CF911F9178
:103820000F91FF90EF90DF90CF90BF9008950F938E
:103830001F93CF93DF93EC01688179818A810E9485
:103840002E218C010E948A200E94791FB801CE018E
:10385000DF91CF911F910F910C940E1ACF93DF93AC
:10386000EC018B819C81892B29F0888199818923A6
:103870008F3F59F4DF91CF910895CE010E94171C1C
:10388000CE01DF91CF910C941D05CE010E943E0523
:103890008111F3CF0E947021882361F38A818823EC
:1038A00049F382E0DF91CF910C942C2290E080E0EC
:1038B0000E94261890E080E00E943C180E94B821E7
:1038C0000E94BB210E94DB210E94140C0C94ED0A83
:1038D0000E9460210C94561C0E94A8210C94681C24
:1038E000E92FE295EF70E250EE3070F4F0E0E3592A
:1038F000F34D0C94EF2B803F19F020F4883E20F418
:1039000081E00895843FE1F380E00895883EC0F3AC
:10391000813FD1F7F5CF93FB882780F908950E9466
:1039200024210C94701CCF93DF9300D000D00F9211
:10393000CDB7DEB70F900F900F900F900F90DF91E3
:10394000CF910895CF93DF9300D000D000D0CDB7B2
:10395000DEB726960FB6F894DEBF0FBECDBFDF915F
:10396000CF9108951F93CF93DF93C091100216E07B
:10397000809111028C1304C0DF91CF911F910895A3
:10398000D0E01C9FF0011D9FF00D1124EE5EFD4F55
:103990004081518162817381848195810E94A21C42
:1039A0002196C770E5CF4091420250914302609149
:1039B00044027091450280914602909147020C9416
:1039C000A21C1F93CF93DF9380914702807FA9F4BD
:1039D00080914402882389F080911002C0911102E5
:1039E0006091420270914302A0914502B09146025B
:1039F000D62FD72316E0C81304C0DF91CF911F91B3
:103A0000089590E0109711F0DF3F19F40196877048
:103A1000F2CF189F9001199F300D1124F901EE5E2D
:103A2000FD4F41814713F2CF40814613EFCF4281D2
:103A30004111ECCF438154814A1B5B0B483C51053B
:103A400028F7809147028F70806180934702F901C7
:103A5000E95EFD4F80818F708061808382E492E017
:103A60000E942E1CDF91CF911F910C94B21CAF923B
:103A7000BF92CF92DF92EF92FF920F931F93CF935B
:103A8000DF93CDB7DEB761970FB6F894DEBF0FBEF8
:103A9000CDBF8C0185E0F801DE011D9601900D92ED
:103AA0008A95E1F7F80140815181E28082E4C82ED5
:103AB00082E0D82E60914502709146026115710531
:103AC00009F44FC19091420220914302892F822331
:103AD0008F3F09F446C1A380B480F0904402F50101
:103AE000E61BF70BFF2009F40AC180914702382F2B
:103AF000307FE83CF10508F0C0C0311179C0FE2CE0
:103B0000251323C0941321C0E1101FC08F70806162
:103B1000809347020E94D31CC6010E942E1C8091F4
:103B20004702F80185838F2D61960FB6F894DEBFAA
:103B30000FBECDBFDF91CF911F910F91FF90EF90FE
:103B4000DF90CF90BF90AF900895AB2829F0842FDD
:103B500085238F3F09F021C180E0F82FF170DF2E1F
:103B600080FF3CC0809110022091110236E0821348
:103B700015C04D875E878D859E850E942421292F43
:103B800022952F702230F0F0243018F59F70F1F05C
:103B9000F8019581907FD1F4D12C1EC090E0389F20
:103BA000F001399FF00D1124EE5EFD4F6181651328
:103BB00006C06081641303C062816E110FC001965C
:103BC0008770D5CF9F7011F0882331F3805E8830E5
:103BD00018F3C8010E942E1CFD2CA5CFEE2009F47D
:103BE000A2CF80914702816080934702F12C9BCF46
:103BF000251314C0941312C0E11010C0F80185837E
:103C0000C8010E942E1C86E0F801A2E4B2E00190F7
:103C10000D928A95E1F70E94D31C85CF4D875E8770
:103C20008D859E850E948F1C882319F1EE2009F155
:103C300080914702803270F020914202309143021D
:103C400038872F831986BB86AA868C87CE01079674
:103C50000E942E1C86E0F801A2E4B2E001900D92D1
:103C60008A95E1F70E94E11C0E94D31CFF24F39483
:103C70005ACFC8010E942E1CF9CF311113C07A2DE2
:103C8000B98AA88A6E2D89890E94931C82E492E0E9
:103C90000E942E1C86E0F60111928A95E9F70E9497
:103CA000D31CA4CF25130FC094130DC0E1100BC07B
:103CB000F8018583C8010E942E1C86E0F60111924E
:103CC0008A95E9F730CF4D875E878D859E850E9466
:103CD0008F1C882371F2EE2061F2809147028032BE
:103CE00008F4B8CF20914202309143023A832983ED
:103CF0001B82BD82AC828E83CE010196A9CFE83CA7
:103D0000F10510F5FE2CEE2009F4B3CF25130BC0FE
:103D1000941309C086E0F801A2E4B2E001900D928C
:103D20008A95E1F700CF4D875E878D859E850E943D
:103D30008F1C81118FCF8091470281608093470251
:103D4000C8010E942E1CEFCE7A2DB98AA88A6E2D4A
:103D500089890E94931C86E0F60111928A95E9F701
:103D60005ACFEE2009F485CF4D875E878D859E85DD
:103D70000E948F1CF82E882309F47BCF86E0F8017F
:103D8000A2E4B2E001900D928A95E1F782E492E01C
:103D90000E945F190E94E11C3ECF81E08E25DDCE9E
:103DA0001F93CF93DF93CDB7DEB72C970FB6F89460
:103DB000DEBF0FBECDBF4F83588769877A878B8759
:103DC0009C87CE0107960E94371D882369F08A855B
:103DD0009B85892B39F04F815885842F85238F3F10
:103DE00009F071C016E05FC086E0FE013796DE0183
:103DF000119601900D928A95E1F78A859B85892B12
:103E000089F38F81988589238F3F61F32091110277
:103E100030E0C90101968770992740911002481738
:103E2000190671F40E946C1C10921102109210027B
:103E300086E0E2E4F2E0DF011D928A95E9F7D2CF55
:103E400096E0929FD001939FB00D1124AE5EBD4FBE
:103E5000FE01319601900D929A95E1F7809311023F
:103E60000E94B21CBFCF819FC00111248E5E9D4F66
:103E70000E94371D8823E9F0E09110021E9FF00197
:103E80001124EE5EFD4F40815181628173818481F6
:103E900095810E94A21C8091100290E0019687708B
:103EA000992780931002809110029091110289133A
:103EB000DACF2C960FB6F894DEBF0FBECDBFDF91E0
:103EC000CF911F91089569857A858B859C850E9485
:103ED000A21C88CF08950C946A1F0E946B1F6093E8
:103EE0006A0270936B0280936C0290936D020C9443
:103EF000561C08950C946D1F0F931F9300916A0236
:103F000010916B0220916C0230916D02602B712B2D
:103F1000822B932B1F910F910C946D1F0F931F9366
:103F200000916A0210916B0220916C0230916D0237
:103F300060237123822393231F910F910C946D1F93
:103F40000F931F9300916A0210916B0220916C02F3
:103F500030916D0260277127822793271F910F915F
:103F60000C946D1F0C945A040E94B21F6093660259
:103F70007093670280936802909369020C94561CB8
:103F800060E070E0CB010C94B41F611571058105F0
:103F9000910529F481E0442361F080E00895DC017B
:103FA000CB0104C0B695A795979587954A95D2F70A
:103FB000817008950F931F9341E050E060E070E03E
:103FC0008A019B0104C0000F111F221F331F8A9515
:103FD000D2F7C901B8011F910F910C94B41F0F9330
:103FE0001F9341E050E060E070E004C0440F551FB3
:103FF000661F771F8A95D2F78091660290916702BB
:10400000A0916802B09169028A019B01082B192BCB
:104010002A2B3B2BC901B8011F910F910C94B41F9F
:104020000F931F9341E050E060E070E004C0440F44
:10403000551F661F771F8A95D2F7CB01BA0160958D
:10404000709580959095009166021091670220917D
:1040500068023091690260237123822393231F91A8
:104060000F910C94B41F0F931F9341E050E060E058
:1040700070E004C0440F551F661F771F8A95D2F762
:104080008091660290916702A0916802B0916902E6
:104090008A019B01082719272A273B27C901B80154
:1040A0001F910F910C94B41F0F931F930091660200
:1040B000109167022091680230916902602B712B88
:1040C000822B932B1F910F910C94B41F0F931F936E
:1040D0000091660210916702209168023091690296
:1040E00060237123822393231F910F910C94B41F9B
:1040F0000F931F930091660210916702209168024E
:104100003091690260277127822793271F910F91B1
:104110000C94B41F0895E92FEE0FE90FEE0F8E0FE8
:10412000982F977041E001C0440F9A95EAF7869561
:104130008695869595E0899FF0011124E85BFD4FF7
:1041400030E020E070E05191DF011197CB01022EA9
:1041500002C0969587950A94E2F78170819585272C
:10416000842385278C932F5F3F4F2530310559F7E6
:104170000895E92FEE0FE90FEE0F8E0F982F97702D
:1041800086958695869525E0829FF0011124E85B4F
:10419000FD4F50E040E080E0219130E0092E02C068
:1041A000369527950A94E2F721703327042E01C033
:1041B000220F0A94EAF7822B4F5F5F4F453051057B
:1041C00059F70895BF92CF92DF92EF92FF920F932B
:1041D0001F93CF93DF938C01C0906602D09067024B
:1041E000E0906802F090690280916A0290916B02FF
:1041F000A0916C02B0916D02C82AD92AEA2AFB2A42
:10420000CFE1D0E0BC2ED701C6010C2E04C0B6957C
:10421000A795979587950A94D2F780FD0EC02197B0
:1042200088F7B12C8B2DDF91CF911F910F91FF90CB
:10423000EF90DF90CF90BF900895B8018C2F0E942F
:10424000B905019761F3EECFCF93DF93EC010E94A4
:10425000E220BE01DF91CF910C94B9051F93CF935B
:10426000DF93EB0190910F02992331F0CB01DF91A5
:10427000CF911F910C942421882379F0CB010E94C7
:10428000E220182F682FCE010E948B20BE01812FC3
:10429000DF91CF911F910C94B905CB010E94B920F9
:1042A000182FF4CF682F80912101909122010C9456
:1042B0009023682F80912101909122010C949B23DF
:1042C00080912101909122010C94A62380916E028D
:1042D000859585958595089580916E0287700895DE
:1042E00090916E02977081E009F480E008959091BA
:1042F000B80292FB222720F9281751F080FB92F98F
:104300009093B8028091B7029091B8020C947122F8
:1043100008958091B80282FB882780F991E089276F
:104320000C94772181E00C94772180E00C94772124
:1043300080919202089590919202892B809392022B
:1043400008958095909192029823909392020895F7
:1043500010929202089590919102892B809391027C
:1043600008958095909191029823909391020895D9
:1043700010929102089510929002089580916F0218
:10438000089508950C94C1219091B80292FD08C03F
:1043900090916F02981721F080936F020C94C221C4
:1043A000089580916F02882329F010926F0280E0B7
:1043B0000C94C2210895E0912101F0912201809195
:1043C00092028083E0912101F091220180819091FD
:1043D0009102892B8083E0912101F091220180815B
:1043E00090919002892B808390916F02992381F0A4
:1043F000E0912101F09122018081892B80838091BD
:104400002101909122010E94FC2281110E94D12160
:1044100080912101909122010C94FE1708950C9433
:104420000E229091B80292FD10C098E0899F9001F1
:104430001124622B60936E020E94EF1F80916E0226
:104440008595859585950C940F220C94EF1F1092FD
:104450006E0280E00C940F2290916E028095892369
:1044600080936E02282F277039F4282F082E000C15
:10447000330B9217130621F49091B80292FF07C0F4
:104480008595859585950E9410200C942722089586
:1044900080E008956FEF7FEF90E080E00C94492C6E
:1044A00090E080E00E94252C21E08A3E9E4F09F09A
:1044B00020E0822F089582E090E00C94172C83E096
:1044C00090E00C94172CCF9384E090E00E94172C7E
:1044D000C82F82E290E00E94172C982F8C2FCF914A
:1044E0000895CF93C92F682F84E090E00E942B2C71
:1044F0006C2F82E290E0CF910C942B2CAB01BC018D
:104500008FE090E00C943D2CAB01BC0183E190E086
:104510000C943D2C60E070E0CB010C94842260E0B0
:1045200070E0CB010E947E220C948A226AEE7EEF1C
:1045300090E080E00E94492C60E082E090E00E94E0
:104540002B2C60E083E090E00E942B2C10926A02FA
:1045500010926B0210926C0210926D0260E084E087
:1045600090E00E942B2C60E082E290E00E942B2CD5
:1045700060E085E090E00E942B2C60E086E090E017
:104580000E942B2C6FEF87E090E00E942B2C40E0E4
:1045900050E0BA0188E090E00E943D2C60E08DE0A0
:1045A00090E00E942B2C40E050E0BA0188E190E0BE
:1045B0000E943D2C60E087E190E00E942B2C40E0BF
:1045C00050E0BA018CE190E00E943D2C70E060E088
:1045D00080E290E00E94492C40E050E0BA0188E17E
:1045E00090E00E943D2C0C948F220C949622682F10
:1045F0008EE090E00C942B2CFC01329680912D01E2
:10460000882321F08091B7029EE187FF96E080E049
:10461000915008F4089521912223D1F38F5FF8CFB0
:10462000662301F120912D012223F1F02091B702A0
:1046300027FF1AC0462F4695469546954E3190F471
:10464000677021E030E002C0220F331F6A95E2F765
:10465000840F911DFC01828190E02823392381E0A1
:10466000232B69F480E00895FC013296089621918D
:10467000261721F0E817F907D1F7F4CF81E0089564
:104680009C01FC0132969FEF80E04191461751F06A
:104690009F3F19F4411101C0982F8F5F8630A9F711
:1046A0009F3F09F40895290F311D97FD3A95F901AF
:1046B00062830895FC01329608962191261303C067
:1046C000DF0111971C92E817F907B9F70895E62F53
:1046D000E695E695E695EE3168F4E80FF92FF11DC1
:1046E000677021E030E001C0220F6A95EAF782810D
:1046F000822B82830895E62FE695E695E695EE31C6
:1047000070F4E80FF92FF11D677021E030E001C06F
:10471000220F6A95EAF72095828128232283089543
:1047200020912D01222329F02091B70227FD0C941E
:1047300067230C94402320912D01222329F02091FE
:10474000B70227FD0C947B230C945A23FC0132966C
:1047500080912D01882351F08091B70287FF06C018
:104760008EE1DF011D928A95E9F7089586E0F9CF81
:10477000089508950C94B92380912D03843059F144
:104780000E94BA2380E00E949D050E94AC10109206
:10479000940288E190E020E40FB6F894A895809305
:1047A00060000FBE2093600083B7817F846083BF69
:1047B00083B7816083BF7894889583B78E7F83BFEA
:1047C0000FB6F894A895809160008861809360008E
:1047D000109260000FBE08950895CF930E94B823F1
:1047E0000E94A8080E94EC23C0E08C2F0E94D507ED
:1047F000811105C0CF5FC830C1F7CF91089581E026
:10480000FCCF08950C9401240E946C1C0E94F217A6
:104810000E949D050E94C6110C9402241F921FB68F
:104820001F9211248F939F93AF93BF938091940213
:10483000811113C08091210390912203A091230341
:10484000B09124034196A11DB11D80932103909343
:104850002203A0932303B0932403BF91AF919F91B0
:104860008F911F901FBE1F90189582E084BD93E02A
:1048700095BD9AEF97BD80936E0008952FB7F89479
:104880008091210390912203A0912303B0912403EE
:104890002FBF08952FB7F8946091210370912203E0
:1048A00080912303909124032FBF08959C014FB75B
:1048B000F8948091210390912203A0912303B09159
:1048C00024034FBF821B930B089578941F921FB649
:1048D0001F9211248F939F93AF93BF9380912103D5
:1048E00090912203A0912303B09124030196A11D6E
:1048F000B11D8093210390932203A0932303B093CF
:104900002403BF91AF919F918F911F901FBE1F9065
:1049100018951092250310922603109227031092E7
:1049200028030895CF92DF92EF92FF926B017C01F2
:104930000E94610981110EC00E944A24C61AD70A3A
:10494000E80AF90AC0922503D0922603E0922703D1
:10495000F0922803FF90EF90DF90CF9008950F938F
:104960001F930E946109882321F01F910F910C94DD
:104970004A240E944A240091250310912603209185
:10498000270330912803600F711F821F931F1F910F
:104990000F9108950E94610981110C943E240E9498
:1049A000AF24CB01089587E797E7909301088093A0
:1049B000000888E19AE00FB6F894A895809360000B
:1049C0000FBE90936000FFCF9093B7018093B60124
:1049D00008958091B5020895CF93DF9300D00F9290
:1049E000CDB7DEB790912D03943019F589837B8381
:1049F0006A8382E08093E9008FEF9091E800815014
:104A000095FD06C095ED9A95F1F700008111F5CF5F
:104A10008091E80085FF0DC050E040E063E070E069
:104A2000CE0101960E9416278091E8008E77809330
:104A3000E8000F900F900F90DF91CF910895BC0187
:104A400084E00C94EC24BC0183E00C94EC249C01E5
:104A500082E08093E9009FEF8091E800915085FD0E
:104A600006C085ED8A95F1F700009111F5CF809190
:104A7000E80085FF0CC050E040E066E070E0C9014E
:104A80000E9416278091E8008E778093E8000895B1
:104A9000CF93DF93EC0180912D018823B1F18091B8
:104AA000B70287FF32C060E282E08093E9008FEFB7
:104AB0009091E800815095FD06C095ED9A95F1F72B
:104AC00000008111F5CF8091E80085FF1BC0809127
:104AD0002D0170E050E040E0811104C050E040E062
:104AE00068E070E0CE010E9416278091E8008E7782
:104AF0008093E80080E2FE01A5E9B2E001900D920A
:104B00008A95E1F7DF91CF91089568E081E0CDCFFC
:104B100080912C03811109C00E94A6280E940329BC
:104B20008091E20084608093E200089510922C034B
:104B3000089508950895089542E061EC81E00E948F
:104B4000222842E261EC82E00C94222880912F031B
:104B5000833009F45FC030F48130C1F1823009F450
:104B60009BC008958A3009F487C08B3009F46DC06A
:104B7000893009F04EC080912E03813209F049C07E
:104B80008091320390913303029708F042C08091E4
:104B9000E800877F8093E8008091E80082FF35C0BD
:104BA0009091F3008091F200029729F48091F10036
:104BB0008B7F813021F48091F1008093B502809148
:104BC000E8008B778093E8000C94562880912E03A0
:104BD000813AF9F48091E800877F8093E800809122
:104BE000320390913303892B61F460E285E992E00E
:104BF00070E00E9465278091E8008B778093E80041
:104C0000089560E090E080E0F3CF80912D03811162
:104C1000C3CF089580912E03813AD9F78091320352
:104C200090913303892BA9F78091E800877F8093C7
:104C3000E8008091E80080FFFCCF80912D018093F7
:104C4000F1008091E8008E77BDCF80912E038132F4
:104C500001F78091320390913303892BD1F6809133
:104C6000E800877F8093E8000E94562880913003F7
:104C700080932D010C946C1C80912E03813249F697
:104C80008091E800877F8093E8000E9456288091F9
:104C900031038093B602089580912E03813A09F082
:104CA000B8CF8091E800877F8093E8008091E8008A
:104CB00080FFFCCF8091B602C2CF84B7877F84BFCC
:104CC0000FB6F894A8958091600088618093600089
:104CD000109260000FBE80E890E00FB6F8948093C9
:104CE0006100909361000FBE0E9472180E94A62876
:104CF0000E9403298091E20084608093E20078940E
:104D00000E948C2B0E94841883E291E00E94ED1790
:104D100080912D03853099F00E948E180E94801892
:104D2000F7CF0E94BC2380912B03882341F00E947F
:104D3000ED23882321F00E9400270E946C1C8091A3
:104D40002D03853071F30E940424E6CF0C94A8262D
:104D5000292F33272330310519F168F4213031052B
:104D600009F444C02230310509F445C090E080E0E8
:104D700030E020E025C02132310549F122323105F1
:104D8000A9F780E490E02FEC37E061157105C1F0E0
:104D900086EB90E029E137E06130710589F0E6CFDC
:104DA00099278130910581F0009729F00297F1F65B
:104DB000E8EAF6E002C0E8ECF6E0849190E09F01BA
:104DC000FA01318320830895E6EBF6E0F6CF89E01F
:104DD00090E02EED36E06115710591F389E090E0E9
:104DE00027EF36E06130710559F3C0CF82E190E0E2
:104DF00027E037E0E5CF8BE390E02CEC36E0E0CF26
:104E000080E189BD82E189BD09B400FEFDCF8091BA
:104E1000D8008F7D8093D8008091E00082608093DD
:104E2000E0008091E00081FDFCCF0895AF92BF9239
:104E3000CF92DF92FF920F931F93CF93DF936C017A
:104E4000EB018A010E947528F82E811123C00115FB
:104E5000110539F0F80180819181C81BD90BC80E6A
:104E6000D91EB12CA12C2097A9F08091E80085FDD6
:104E700022C08091E8008E778093E800011511052B
:104E8000A1F0F80180819181A80EB91EB182A082A3
:104E900085E0F82E8F2DDF91CF911F910F91FF901C
:104EA000DF90CF90BF90AF9008950E94752888231F
:104EB000D1F2F82EEFCFF60181916F018093F100CE
:104EC0002197FFEFAF1ABF0ACECFFC0180913403C8
:104ED0009091350386179707A0F06115710529F4A5
:104EE0009091E8009E779093E80090E0611571053D
:104EF00051F4911108C08091E80082FF34C080E035
:104F00000895BC01F2CF80912D038823C1F1853033
:104F1000C1F18091E80083FD30C08091E80082FDFE
:104F2000EACF8091E80080FFE1CF8091F3002091EB
:104F3000F200382F6115710519F02830310558F04D
:104F400091E02830310509F090E02091E8002E77BB
:104F50002093E800CBCF81918093F10061507109DB
:104F60002F5F3F4FE7CF80912D03882341F085309D
:104F700041F08091E80083FFBECF81E0089582E098
:104F8000089583E00895FC018091340390913503E6
:104F900086179707A0F06115710529F48091E80044
:104FA0008E778093E80090E06115710551F49111BE
:104FB00008C08091E80082FF35C080E00895BC0100
:104FC000F2CF80912D038823C9F18530C9F18091FA
:104FD000E80083FD31C08091E80082FDEACF809136
:104FE000E80080FFE1CF8091F3002091F200382F9C
:104FF0006115710519F02830310558F091E028301D
:10500000310509F090E08091E8008E778093E80008
:10501000CBCF84918093F1003196615071092F5F5D
:105020003F4FE6CF80912D03882341F0853041F03A
:105030008091E80083FFBDCF81E0089582E008956C
:1050400083E00895982F973028F08F708093E900BF
:1050500081E008959093E900242F762F50E098176F
:1050600031F07091EC002091ED005091F00021FDA5
:1050700002C09F5FE8CF3091EB003E7F3093EB00A2
:105080003091ED003D7F3093ED003091EB003160C9
:105090003093EB007093EC002093ED005093F00000
:1050A0002091EE0027FDE5CF80E0089580912E034A
:1050B00087FF13C08091E80082FF06C08091E8005E
:1050C0008B778093E80004C080912D038111F2CF8B
:1050D000089580912D038823D9F38091E80080FF03
:1050E000F8CF8091E8008E77ECCF2091E4003091EA
:1050F000E50095E6A9012091EC00822F817020FF48
:1051000006C08091E80080FF06C080E008952091ED
:10511000E80022FD1AC080912D03882389F0853094
:1051200089F08091EB0085FD0FC02091E400309163
:10513000E50042175307F9F29150E1F684E0089533
:1051400082E0089583E0089581E008950E94142983
:105150000E941C29E0EEF0E0808181608083E8ED10
:10516000F0E080818F77808319BCA7EDB0E08C914F
:105170008E7F8C9380818F7E808310922C03089584
:105180000F931F93CF93DF930E9414290E941C2931
:10519000C8EDD0E088818F77888388818068888394
:1051A00088818F7D888319BC10922D03109229036A
:1051B00010922B0310922A0300EE10E0F801808178
:1051C0008B7F808388818160888342E060E080E01B
:1051D0000E942228E1EEF0E080818E7F8083E2EE63
:1051E000F0E0808181608083808188608083F80125
:1051F00080818E7F8083888180618883DF91CF91D9
:105200001F910F910895E8EDF0E080818F7E8083FB
:10521000E7EDF0E080818160808384E082BF81E0FF
:1052200080932C030C94C028E8EDF0E080818E7F01
:1052300080831092E20008951092DA001092E1004B
:1052400008951F920F920FB60F9211242F933F9340
:105250004F935F936F937F938F939F93AF93BF937E
:10526000EF93FF938091E10082FF0BC08091E200F9
:1052700082FF07C08091E1008B7F8093E1000E9454
:105280008B2B8091DA0080FF19C08091D80080FFBD
:1052900015C08091DA008E7F8093DA008091D9006A
:1052A00080FF96C080E189BD82E189BD09B400FE1E
:1052B000FDCF81E080932D030E9488258091E1003D
:1052C00080FF19C08091E20080FF15C08091E2004C
:1052D0008E7F8093E2008091E20080618093E20003
:1052E0008091D80080628093D80019BC85E08093BB
:1052F0002D030E949A258091E10084FF2BC08091AC
:10530000E20084FF27C080E189BD82E189BD89B5C3
:10531000982F917080FFFBCF8091D8008F7D809374
:10532000D8008091E1008F7E8093E1008091E200BF
:105330008F7E8093E2008091E20081608093E200A2
:1053400080912903882309F449C084E080932D03C8
:105350000E949B258091E10083FF29C08091E2009B
:1053600083FF25C08091E100877F8093E10082E088
:1053700080932D03109229038091E1008E7F80930A
:10538000E1008091E2008E7F8093E2008091E20054
:1053900080618093E20042E060E080E00E94222889
:1053A0008091F00088608093F0000E949925FF9121
:1053B000EF91BF91AF919F918F917F916F915F918D
:1053C0004F913F912F910F900FBE0F901F90189506
:1053D00019BC10922D030E94962570CF8091E30096
:1053E00087FD93E090932D03B3CF1F920F920FB6DA
:1053F0000F9211242F933F934F935F936F937F935B
:105400008F939F93AF93BF93CF93DF93EF93FF93CC
:10541000D091E900DF708091EC00C82FC17080FD51
:10542000C0E81092E9008091F000877F8093F0003F
:1054300078940E94392A1092E9008091F0008860E7
:105440008093F000CD2BCF70C093E900FF91EF91D6
:10545000DF91CF91BF91AF919F918F917F916F918C
:105460005F914F913F912F910F900FBE0F901F9022
:1054700018951F93CF93DF93CDB7DEB7AA970FB6DA
:10548000F894DEBF0FBECDBF8EE293E02091F10015
:10549000FC012193CF01F3E086339F07B9F70E9407
:1054A000A6258091E80083FF1EC180912E03909174
:1054B0002F039A3008F017C1E92FF0E0E558F34DBB
:1054C0000C94EF2B803899F0823809F00CC1809150
:1054D00032038F70873008F006C18093E900809115
:1054E000EB0085FB882780F91092E90006C08091C7
:1054F0002A0390912B03911182609091E800977F8D
:105500009093E8008093F1001092F1008091E80000
:105510008E77E5C0882309F4D3C0823009F0E3C058
:10552000809130038111D6C0809132038F702FEFAC
:10553000280F263008F0D7C08093E9002091EB00B7
:1055400020FFC8C0933031F48091EB0080628093DB
:10555000EB00C0C09091EB0090619093EB0021E0D4
:1055600030E001C0220F8A95EAF72093EA001092FA
:10557000EA008091EB008860EACF8111B4C01091FD
:1055800030031F778091E3008078812B8093E300C4
:105590008091E800877F8093E8000E9456288091E0
:1055A000E80080FFFCCF8091E30080688093E300F7
:1055B00082E0111183E080932D0395C080588230E2
:1055C00008F091C080913003909131038C3D23E02D
:1055D0009207A1F583E08A838AE289834FB7F89422
:1055E000DE01139620E03EE051E2E32FF0E050931D
:1055F0005700E49120FF03C0E295EF703F5FEF702A
:105600008E2F90E0EA30C0F0C7968D939D932F5F68
:10561000243159F74FBF8091E800877F8093E800DD
:105620006AE270E0CE0101960E9465278091E80051
:105630008B778093E80057C0C096E7CF6091320324
:1056400070913303AE014F5F5F4F0E94A626BC01ED
:10565000892B09F448C09091E800977F9093E80067
:1056600089819A810E94C327E1CF8038E1F580913A
:10567000E800877F8093E800809129038093F10000
:1056800045CF811130C090913003923060F5809108
:10569000E800877F8093E800909329030E945628B2
:1056A00080912903882311F084E005C08091E300F4
:1056B00087FDFACF81E080932D030E949C2513C0C3
:1056C00080913003813079F481E0933009F080E0FB
:1056D00080932B031092E9008091E800877F8093EC
:1056E000E8000E9456288091E80083FF0AC080915C
:1056F000E800877F8093E8008091EB0080628093D0
:10570000EB00AA960FB6F894DEBF0FBECDBFDF91B7
:10571000CF911F9108950895CF9380912D038823F1
:10572000A1F0C091E900CF709091EC00892F8170B9
:1057300090FD80E8C82B1092E9008091E80083FD7D
:105740000E94392ACF70C093E900CF9108950E943A
:10575000A62810922D030895E8EDF0E08081806185
:1057600080838AE18A95F1F700C08091D900817029
:10577000089587FB082E062687FD819567FD6195B4
:105780000E94F52B0EF4919507FC81950895AA1BB4
:10579000BB1B51E107C0AA1FBB1FA617B70710F01C
:1057A000A61BB70B881F991F5A95A9F7809590954E
:1057B000BC01CD01089597FB072E16F4009407D085
:1057C00077FD09D00E94C72B07FC05D03EF49095C9
:1057D00081959F4F0895709561957F4F0895EE0FC5
:1057E000FF1F0590F491E02D0994991B79E004C006
:1057F000991F961708F0961B881F7A95C9F7809510
:105800000895FB01DC0102C005900D92415050400B
:10581000D8F70895FC014150504030F00190061631
:10582000D1F73197CF010895882799270895F999DD
:10583000FECF92BD81BDF89A992780B50895A6E163
:10584000B0E044E050E00C94512CA8E1B0E042E01C
:1058500050E00C94512C262FF999FECF92BD81BDBA
:10586000F89A019700B4021639F01FBA20BD0FB69E
:10587000F894FA9AF99A0FBE08950396272F0E947A
:105880002C2C0E942B2C252F0E942C2C242F0C9486
:105890002C2C0196272F0E942C2C0C942B2CDC01F5
:1058A000CB01FC01F999FECF06C0F2BDE1BDF89A2B
:1058B000319600B40D9241505040B8F70895F894D5
:1058C000FFCF451A451A9D1A9D1AEF1A0B1B721A23
:1058D000721A161BA21BB11BB11B7B1C7B1C841CE8
:1058E000841C861C841C841C841C7B1C7B1C8B1CC1
:1058F000841C841C8B1C622A8A2A732B8A2A732B91
:0A590000BD2ADE2A732B352B412B44
:10590A00012808641E140A321E0102001B001B1B18
:10591A0001E20104E30104E701EB0109EC010000E3
:10592A00007002E9244825272523251F2501E200C6
:10593A00E900EA00B500B600B700CD008301CC004B
:10594A008A019201940121022302240225022602DD
:10595A0027022A02B300B4006F007000818283F428
:10596A00F5F6F73133946697C6000000000001028D
:10597A000202020606060909090909090F0F0F0F93
:10598A000F0F151515E200E900EA00B500B600B7D9
:10599A0000CD008301CC008A0192019401210223E7
:1059AA000224022502260227022A02B300B4006F4B
:0659BA00007000818283F1
:00000001FF
