:100000000C94AA050C94F1050C94F1050C943D2F69
:100010000C94F1050C94F1050C94F1050C94F10588
:100020000C94F1050C94F1050C949D150C94591544
:100030000C94942A0C94F1050C94F1050C94F105A0
:100040000C94F1050C94082B0C94F1050C94F1051B
:100050000C94F1050C94AC160C94F1050C94F1057C
:100060000C94F1050C94F1050C94F1050C94F10538
:100070000C94F1050C94F1050C94F1050C94F10528
:100080000C94F1050C94F1050C94F1050C94F10518
:100090000C94F1050C94F1050C94F1050C94F10508
:1000A0000C94F1050C94F1050C94F105000101018B
:1000B0000101010101010202020202020202020325
:1000C00003030303030303040404040404040505F5
:1000D00005050506060606060707070707080808B8
:1000E00008090909090A0A0A0B0B0B0C0C0C0D0D67
:1000F0000D0E0E0E0F0F0F101011111112121313FF
:100100001414151516161717181819191A1A1B1B77
:100110001C1D1D1E1E1F20202122222324242526D3
:1001200026272829292A2B2C2D2D2E2F303132320B
:10013000333435363738393A3B3C3D3E3F40414217
:10014000434445464748494A4C4D4E4F50515354FD
:10015000555658595A5B5D5E5F61626465666869B1
:100160006B6C6D6F7072737577787A7B7D7E808231
:10017000838587888A8C8E8F91939596989A9C9E7A
:10018000A0A2A3A5A7A9ABADAFB1B3B5B7BABCBE8A
:10019000C0C2C4C6C9CBCDCFD1D4D6D8DBDDDFE257
:1001A000E4E7E9EBEEF0F3F5F8FAFDFF00AF00AE9F
:1001B000202020206162636465666768696A6B6CF1
:1001C0006D6E6F707172737475767778797A31327B
:1001D000333435363738393014131B1A162D3D5B3E
:1001E0005D5C233B27602C2E2F80202020202020A8
:1001F00020202020202050532020202010202020AC
:1002000020202020202020202020202020202020EE
:1002100020202020202020202020202020202020DE
:1002200020202020202020202020202020202020CE
:1002300020202020202020202020202020202020BE
:1002400020202020202020202020202020202020AE
:10025000202020202020202020202020202020209E
:10026000202020202020202020202020202020208E
:10027000202020202020202020202020202020207E
:10028000202020202020202020202020202020206E
:1002900043534143202020202020202020202020C4
:1002A0002020202020202020202020202020202B43
:1002B0000014001A000800150017002E62046216D0
:1002C00000070009000A00E0001D611B000600197C
:1002D000000500000000000000E2002C412E423129
:1002E00000130012000C0018001C00347233720F4F
:1002F000000E000D000B003543387137003600103A
:10030000001100000000000000E3002A41284229FB
:10031000001E001F002000210022000100360237CD
:1003200002260227024B000100000000002F0030CF
:10033000004E00000000000000010001000100016B
:10034000002700260025002400230001002E024F74
:1003500000520050002D00010000004D0051004AE5
:10036000002D0200000000000001004C41010029A6
:1003700000200221022F023002000001001E021F95
:10038000022602270200000100220223022F003071
:10039000000000000000000000010001000100005A
:1003A0000025021E0231022402000000003702363E
:1003B000022E002D0200000100310000002E022D4F
:1003C000000000000000000000010001000100002A
:1003D00000255C245C235C205CC35C0000C65CC818
:1003E0005CCA5CCC5CC45C0000C75CC95CCB5CCD07
:1003F0005C635D00000000000001000100010000DE
:10040000004200410040004500285C005C3F003E87
:10041000003D004400295C01003C003B003A0043E1
:10042000001F5C000000000000A900AA00010000FD
:10043000DA0281FFD9F1DB20A4A62EAF00A0C00014
:10044000A1C800AED580A81FD300408D1420007F26
:100450003F1F643214783C1E8081828384A0A1A255
:10046000A3A4C0C1C2C3C4008A8B8C8D8EAAABACBE
:10047000ADAECACBCCCDCE003E20202020003E2009
:100480005F2020003E20616A20003E20616A5F00FC
:100490003E20686920003E2068695F003E206C6F46
:1004A00020003E206C6F5F00BABBBCBDBEDADBDC57
:1004B000DDDE00858687888900A5A6A7A8A900C5D6
:1004C000C6C7C8C9009A9B9C9D9E00CFD000D1D2C0
:1004D000008F90009192002000939400D3D400B339
:1004E000B40095960020200020002020002020004D
:1004F000200020200005010980A101850319012A9F
:10050000B700150126B700950175108100C0050CD4
:100510000901A101850419012AA002150126A002E2
:10052000950175108100C005010906A10185050529
:100530000719E029E71500250195087501810205D5
:1005400007190029EF1500250195F07501810205B5
:100550000819012905950575019102950175039109
:1005600001C005010906A101050719E029E71500E9
:10057000250195087501810295017508810105071E
:10058000190029FF150026FF009506750881000552
:1005900008190129059505750191029501750391C9
:1005A00001C009023B00020100A0FA090400000199
:1005B000030101000921110100012240000705810A
:1005C0000308000A090401000103000000092111C9
:1005D000010001226D000705820320000A120110AC
:1005E0000100000008534601000100010200010C57
:1005F0000343006F0072006E006500000010036688
:10060000006F006F007300740061006E0000000452
:100610000309040000000000003E5B4F5B3E003E0B
:100620006B4F6B3E001C3E7C3E1C00183C7E3C1811
:10063000001C577D571C001C5E7F5E1C0000183C90
:10064000180000FFE7C3E7FF00001824180000FFB0
:10065000E7DBE7FF0030483A060E00262979292615
:1006600000407F05050700407F05253F005A3CE715
:100670003C5A007F3E1C1C0800081C1C3E7F0014D6
:10068000227F2214005F5F005F5F0006097F017F09
:1006900000006689956A0060606060600094A2FF57
:1006A000A2940008047E04080010207E2010000898
:1006B000082A1C0800081C2A0808001E1010101028
:1006C000000C1E0C1E0C0030383E383000060E3E6A
:1006D0000E060000000000000000005F00000000A7
:1006E0000700070000147F147F1400242A7F2A12B9
:1006F00000231308646200364956205000000807A2
:10070000030000001C224100000041221C00002ABE
:100710001C7F1C2A0008083E08080000807030007A
:1007200000080808080800000060600000201008A9
:100730000402003E5149453E0000427F40000072E5
:1007400049494946002141494D33001814127F1090
:10075000002745454539003C4A49493100412111AE
:10076000090700364949493600464949291E000013
:100770000014000000004034000000000814224172
:10078000001414141414000041221408000201592A
:100790000906003E415D594E007C1211127C007F1B
:1007A00049494936003E41414122007F4141413E95
:1007B000007F49494941007F09090901003E414143
:1007C0005173007F0808087F0000417F410000202E
:1007D00040413F01007F08142241007F40404040DB
:1007E000007F021C027F007F0408107F003E414111
:1007F000413E007F09090906003E4151215E007F0C
:10080000091929460026494949320003017F01039D
:10081000003F4040403F001F2040201F003F403825
:10082000403F00631408146300030478040300616C
:1008300059494D4300007F41414100020408102006
:1008400000004141417F0004020102040040404099
:100850004040000003070800002054547840007F07
:100860002844443800384444442800384444287F0D
:100870000038545454180000087E0902001824243B
:100880001C78007F080404780000447D40000020AC
:1008900040403D00007F102844000000417F4000A0
:1008A000007C04780478007C080404780038444410
:1008B0004438007C1824241800182424187C007C58
:1008C000080404080048545454240004043F4424F9
:1008D000003C4040207C001C2040201C003C40305C
:1008E000403C004428102844004C9090907C0044E8
:1008F00064544C44000008364100000000770000BA
:10090000000041360800000201020402003C2623D8
:10091000263C000000000000000000C0603018F815
:100920001800C0701C06030101010101C37E000014
:100930000000000808080000080808001C224141C7
:1009400041221C00080808000008080800000000F8
:1009500000002020F80C04E7E4E40704E4E7E404E2
:1009600007E4E4E7040CF8202000000000001C1C51
:100970003E7F7F001408140000001C1C3E7F7F0097
:10098000221C413E00000000000030180C060C182C
:10099000307777770077777700000000000000005D
:1009A0003E4A4F4A3E0000000000000000000000E8
:1009B0000000080000000008000060703E1F1918C9
:1009C0000C0000080000000008000000000000000B
:1009D00000000000F80C0607FC00FF01000000FF0B
:1009E00080FF01000000000000F01C070100000073
:1009F0000000001C224100001C2200001C3E7F63FE
:100A000041221C0000080000000008000000000057
:100A100000004949FF00000F1F3F3830FFFFFF3043
:100A2000383F1F0F0000FF49490000000000004050
:100A3000606A646A604000000000044269656565A0
:100A400069420400000000000606060C18306666C5
:100A5000660000FC2424FC2424FC2424FC2424FC24
:100A60002424FC2424FC2424FC2424FC000000F086
:100A70009090F09090F0989CF22221E1010101F118
:100A80009191FA4C4CF84848F84848F800000000AA
:100A900000000000030E18302121311810302060B2
:100AA000416020301830604040474C4868381C0F87
:100AB0000000000008000000000800001C22416344
:100AC0007F3E1C0000221C000041221C0000000090
:100AD000000002020F181070101070101373131022
:100AE0007010107010180F02020000000000001CAF
:100AF00022C9D1C9221C00000000100238FCEDFC04
:100B00003802100000080C7E7F7E0C0800000000F8
:100B10000000000F0909090F09090F09090909094E
:100B2000090909090F09090F0909090F0000000740
:100B300004040704040704040F09090F0000000758
:100B40000404070202030202030202030000000081
:100B50000000000011241FBECFEFDAE0DEBFCDBFE2
:100B600004B603FE27C08091370690913806A09105
:100B70003906B0913A068730904BA740B04BD1F47C
:100B800010923706109238061092390610923A06E3
:100B900014BE84B7877F84BF0FB6F894A895809160
:100BA0006000886180936000109260000FBEE0E0FA
:100BB000F8E3099512E0A0E0B1E0E6E1F8E602C052
:100BC00005900D92A837B107D9F726E0A8E7B2E063
:100BD00001C01D92A733B207E1F70E9494250C943F
:100BE000E5330C940000CF92DF92EF92FF92E091F8
:100BF0001604EE2309F1E15088E0E802F001112427
:100C0000EA52FC4FC280D380E480F58020E030E0DF
:100C1000A901C701B6010E941B3218166CF480911D
:100C2000D503811102C01092D403C701B601FF9011
:100C3000EF90DF90CF900895C12CD12C7601F5CFA5
:100C4000E8EDF0E080818E7F80831092E2001092C8
:100C5000DA001092E100A0EEB0E08C9181608C93FC
:100C600080818F77808319BCA7EDB0E08C918E7F57
:100C70008C9380818F7E80831092920308952091BF
:100C8000E4003091E50095E6A9012091EC00822F67
:100C9000817020FF06C08091E80080FF06C080E0E0
:100CA00008952091E80022FD1AC08091B70388239F
:100CB00089F0853089F08091EB0085FD0FC020918F
:100CC000E4003091E50042175307F9F29150E1F644
:100CD00084E0089582E0089583E0089581E0089516
:100CE000EF92FF920F931F93CF937C018B010E9491
:100CF0003F06C82F811117C08091E80085FD0BC009
:100D00008091E8008E778093E8000E943F06882358
:100D100099F3C82F08C0F70181917F018093F100FA
:100D20000150110949F78C2FCF911F910F91FF901E
:100D3000EF9008958091B90387FF13C08091E80078
:100D400082FF06C08091E8008B778093E80004C0A2
:100D50008091B7038111F2CF08958091B703882362
:100D6000D9F38091E80080FFF8CF8091E8008E777A
:100D7000ECCF982F9093E900242F762F50E089171D
:100D800031F07091EC002091ED005091F00021FDC8
:100D900007C09F5F973071F78093E90081E0089565
:100DA0003091EB003E7F3093EB003091ED003D7FC2
:100DB0003093ED003091EB0031603093EB00709395
:100DC000EC002093ED005093F0002091EE0027FD01
:100DD000E0CF80E00895CF92DF92EF92FF920F93E1
:100DE0001F93CF93DF93C8EDD0E088818F7E8883F7
:100DF000E7EDF0E080818160808384E082BF81E064
:100E00008093920388818E7F888302EE10E0F80140
:100E100010821092DA0081EEC82ED12CF6011082D9
:100E200088818F77888388818068888388818F7D97
:100E3000888319BC1092B7031092B8031092B603BE
:100E40001092B50390EEE92EF12CF70180818B7F93
:100E5000808388818160888342E060E080E00E9436
:100E6000B906F60180818E7F8083F80180818160E0
:100E70008083808188608083F70180818E7F80837A
:100E8000888180618883DF91CF911F910F91FF90BE
:100E9000EF90DF90CF900895FC018091BF03909177
:100EA000C00386179707A0F06115710529F490918A
:100EB000E8009E779093E80090E06115710551F489
:100EC000911108C08091E80082FF34C080E008954D
:100ED000BC01F2CF8091B7038823C1F18530C1F105
:100EE0008091E80083FD30C08091E80082FDEACF68
:100EF0008091E80080FFE1CF8091F3002091F20023
:100F0000382F6115710519F02830310558F091E03E
:100F10002830310509F090E02091E8002E772093E9
:100F2000E800CBCF81918093F100615071092F5F70
:100F30003F4FE7CF8091B703882341F0853041F0E0
:100F40008091E80083FFBECF81E0089582E008959C
:100F500083E00895089580E00895089580919403B2
:100F6000089587E797E7909301088093000888E148
:100F70009AE00FB6F894A895809360000FBE909306
:100F80006000FFCF9C014FB7F894809124039091AB
:100F90002503A0912603B09127034FBF821B930B1B
:100FA00008952FB7F89460912403709125038091E0
:100FB0002603909127032FBF089520911102222329
:100FC000C9F02091300327FF15C0E62FE695E6957E
:100FD000E695EE31D8F4E80FF92FF11D677021E0A6
:100FE00030E001C0220F6A95EAF72095828128231C
:100FF00022830895FC01329608962191621303C062
:10100000DF0111971C92E817F907B9F708952091AD
:1010100011022223C1F02091300327FF14C0E62FD4
:10102000E695E695E695EE31F8F4E80FF92FF11D17
:10103000677021E030E001C0220F6A95EAF78281F3
:10104000822B82830895FC0132962FEF30E041918C
:10105000641751F02F3F19F4411101C0232F3F5F56
:101060003630A9F72F3F09F40895820F911D27FD0F
:101070009A95FC016283089580915B0390911F0310
:10108000892B90911E03892B80937A02E0913D0376
:10109000F0913E03309799F090911102992349F015
:1010A0009091300397FF05C080937B0285E0809389
:1010B0007A020280F381E02D8AE792E00994089594
:1010C000E92FEE0FE90FEE0F8E0F982F9770869590
:1010D0008695869525E0829FF0011124E050FD4F12
:1010E00050E040E080E0219130E0092E02C03695CA
:1010F00027950A94E2F721703327042E01C0220FAE
:101100000A94EAF7822B4F5F5F4F4530510559F73C
:101110000895E92FEE0FE90FEE0F8E0F982F9770BD
:1011200041E001C0440F9A95EAF786958695869529
:1011300095E0899FF0011124E050FD4F30E020E060
:1011400070E05191DF011197CB01022E02C09695FC
:1011500087950A94E2F781708195852784238527F6
:101160008C932F5F3F4F2530310559F70895282F75
:1011700080912C0390912D03A0912E03B0912F0309
:101180000097A105B10549F004C0B695A7959795BC
:1011900087952A95D2F78170089580E0089520916F
:1011A000FF029091CE0256E0291302C080E008951C
:1011B00030E0529FF001539FF00D1124E153FD4F99
:1011C0007181761306C07081781303C07281741325
:1011D00004C02F5F3F4F2770E7CF81E008958091D3
:1011E000FF029091CE02981301C008958F5F87701F
:1011F000FACF882341F0809590915B0389238093F7
:101200005B030C943C080895882339F090915B03AC
:10121000982B90935B030C943C0808952091C50291
:101220003091C6022817390771F09093C602809357
:10123000C502E0913D03F0913E03309721F0008418
:10124000F185E02D099408952091C3023091C402E4
:101250002817390771F09093C4028093C302E0917C
:101260003D03F0913E03309721F00680F781E02D99
:101270000994089590E080E00E94240990E080E0C5
:101280000E940E0910921F0310921E030C943C083A
:101290006093200370932103809322039093230390
:1012A0000C943A09882379F19CEF980F913A38F41D
:1012B000682F8AE792E00E94DD070C943C0890E2D8
:1012C000980F983088F4877021E030E0A90102C0BF
:1012D000440F551F8A95E2F7CA01809590915B03F0
:1012E000892380935B03E9CF9BE5980F933020F42B
:1012F00090E080E00C942409885A873120F490E033
:1013000080E00C940E090895CF93C82F882309F428
:1013100067C08CEF8C0F813AC0F580911102882351
:1013200011F18091300387FF1EC0EC2FE695E69502
:10133000E695F0E0E658FD4F828190E04C2F477033
:1013400021E030E002C0220F331F4A95E2F78223EA
:101350009323892B91F06C2F8AE792E00E94DD079E
:101360000E943C080AC0ECE7F2E082E892E021919A
:10137000C21789F38E179F07D1F76C2F8AE792E087
:101380000E940708CF910C943C0880E28C0F8830B3
:1013900068F4C77021E030E001C0220FCA95EAF777
:1013A00080915B03822B80935B03ECCFEBE5EC0F2A
:1013B000E33040F4F0E0E05DFD4F808190E0CF91BC
:1013C0000C942409C85AC73158F4EC2FF0E0EE0F02
:1013D000FF1FED5CFD4F80819181CF910C940E0930
:1013E000CF910895E0913D03F0913E03309721F0B5
:1013F0000190F081E02D099480E00895FA018111B7
:1014000001C0FB010994E3E5F3E01182828184606D
:101410008283089580915603982F9E7F61F4817096
:1014200082608093560380915903873918F086E9CA
:101430008093590308958C31B0F381708A61F1CFA4
:10144000AF92BF92DF92EF92FF920F931F93CF93D1
:10145000DF93082F162FE901E42FF0E0E455FF4F4A
:10146000611110C0E4915E2F4E2F4983E8835A83A7
:10147000DF91CF911F910F91FF90EF90DF90BF9080
:10148000AF900895E62EF12C4491D42EE42FF0E095
:1014900026E0829FC00111242FEF30E0B9010E94A5
:1014A0005630802F90E0880F991F55E5569FD00148
:1014B000579FB00D11248A1B9B0B982F990F890FF2
:1014C0005901AE18BF08AE9ED001AF9EB00DBE9EB2
:1014D000B00D11245B2F189F80011124012F1127BB
:1014E0005901A01AB10AAE9E8001AF9E100DBE9E9A
:1014F000100D11245901A81AB108AE9CC001AF9C6F
:10150000900DBE9C900D1124892F9927281B390B13
:101510002E9FC0012F9F900D3E9F900D1124E92F0B
:1015200062307105A1F050F46115710509F49DCF89
:101530006130710581F0EB2F512F97CF6430710529
:1015400069F080F06630710509F48FCFF4CFE42F95
:101550004B2F592F8ACFE42F412F87CFEB2F542FBA
:10156000492F83CF4B2F5D2DE12F7FCFEFE6F0E0AA
:1015700080818D7F8083E0E8F0E080818F738083BD
:101580000895CF92DF92EF92FF926B017C0120E0F1
:1015900030E0A9010E941B3281110AC080918000B5
:1015A0008F7380938000FF90EF90DF90CF9008952D
:1015B00080918000806880938000C092A802D092C1
:1015C000A902E092AA02F092AB0220E030E040E0F3
:1015D00051E4C701B6010E9478339B01AC0160E081
:1015E00074E284E79BE40E9420326B017C010E943C
:1015F0009232709387006093860020E030E048E4E8
:1016000052E4C701B6010E94783320E030E048EC94
:1016100052E40E9420320E949232709389006093BB
:101620008800C1CF80913C01811122C01092160424
:101630000E94B60A1092D0031092D1031092C503F3
:101640001092C403E6EDF3E080E090E0A0E8BFEB89
:101650001182108282839383A483B58317821682BA
:10166000389624E0E631F20799F781E080933C0157
:101670000895F894E82FE295EF70F0E031A1282F5B
:101680002F7081E090E001C0880F2A95EAF7982F2B
:101690009095932391A392A1892B82A37894089586
:1016A0009091300392FF06C0282F28712830F9F45A
:1016B000877F846093FF06C0282F28712831F1F4BA
:1016C000877E84612091310320FF06C0382F387156
:1016D0003830D9F4877F816021FF06C0282F287118
:1016E0002831D1F4877E816194FD877E0895282F6B
:1016F00024712430F9F68B7F8860DCCF282F247189
:10170000243101F78B7E8861DDCF382F3171313084
:1017100019F78E7F8860E0CF282F2171213121F7C2
:101720008E7E8861E1CFCF93DF93972F70E026E024
:10173000929F600D711D1124FB0130E3839FE00D2A
:10174000F11D1124EE0FFF1FE155FD4FC591D491FE
:10175000CE01C238D10589F1B8F5C133D10509F4FC
:1017600093C020F5C932D10509F487C0CA32D1052A
:1017700009F491C0C11521E5D20708F0ABC0C1152D
:1017800030E5D30708F0F0C0CF3BD10508F08AC0A0
:10179000C83AD10508F0DEC0C53AD10508F0D2C07C
:1017A000C430D105F8F42197E9F040C0C533D10524
:1017B00009F45CC0C933D105E9F6209130032370E8
:1017C00089F080EE90E00EC0C33ED10591F168F43F
:1017D000C03ED105F9F0C23ED10561F6209130033B
:1017E00022FD20C0DF91CF910895C63ED10561F161
:1017F000C73ED10581F1C43ED10509F0BBCF209190
:10180000310321FFEFCF8091300384FD0FC087EEBD
:1018100090E0E8CF2091300320FDF6C030913103F5
:1018200030FFE0CF83EE90E024FFDCCF90E080E05B
:10183000D9CF2091300322FDEAC03091310330FD31
:10184000C0CF24FFCFCFF2CF2091300323FFCACFE8
:1018500024FDECCFDCCF2091300323FDDBC03091A1
:10186000310331FFEECF84EE90E0BCCF2091300306
:1018700025FFB8CF89E290E0B5CF2091300325FF56
:10188000B1CF85E390E0AECF2091300326FFAACF01
:101890008AE290E0A7CF2091300326FFA3CF81E317
:1018A00090E0A0CFC11520E2D20758F4C11531E075
:1018B000D30708F097CFC15ED109279708F492CFDC
:1018C000B5CFC11580E4D80708F4B0CFCE019F7022
:1018D000906A88CFC11594E5D90778F4C11523E53E
:1018E000D20708F070C0C11532E5D30708F058C020
:1018F0009C2F8827816F906A75CFC1158AE5D8071C
:1019000078F4C11599E5D90708F071C0C11528E52B
:10191000D20708F48BCF9C2F8827806F906A62CF04
:10192000CE0190568115904208F080CF8D2F8F7197
:101930000E94500B90E0982F882788279F718C2B4E
:10194000906250CFC55AD0E0C05DDD4F888190E0F5
:10195000906448CFC85AD0E0CC0FDD1FCD5CDD4F7E
:101960008881998194643ECF9E0164E036952795E5
:101970006A95E1F723708C2F86958695837030E207
:10198000839FC0011124922BC37021E030E002C07C
:10199000220F331FCA95E2F7822B932B9C6822CF2C
:1019A0009E012370332781E090E002C0880F991FC9
:1019B0002A95E2F7C695C69520E2C29FE001112460
:1019C0008C2B9D2BEBCF9E012370332781E090E081
:1019D00002C0880F991F2A95E2F7C695C69530E296
:1019E000C39FE00111248C2B9D2B9A68FBCE8C2F7A
:1019F0008F700E94500B34E0D695C7953A95E1F769
:101A0000CF709C2F9069EECE89E390E0EBCE82EE12
:101A100090E0E8CE86EE90E0E5CEBF92CF92DF92E6
:101A2000EF92FF920F931F93CF93DF938C01C0909F
:101A30002C03D0902D03E0902E03F0902F03809183
:101A4000200390912103A0912203B0912303C82A7F
:101A5000D92AEA2AFB2ACFE1D0E0BC2ED701C60161
:101A60000C2E04C0B695A795979587950A94D2F742
:101A700080FD0EC0219788F7B12C8B2DDF91CF917F
:101A80001F910F91FF90EF90DF90CF90BF9008953E
:101A9000B8018C2F0E94930B019761F3EECFCF9387
:101AA000DF93EC010E940D0DBE01DF91CF910C94EC
:101AB000930B0E944F0D292F2F7092959F7092507B
:101AC0009E3078F4E92FF0E0E951FC4C0C947E3024
:101AD000803F19F020F4883E20F481E00895843F8F
:101AE000E1F380E00895883EC0F3813FD1F7F5CF60
:101AF000822F869586958695089580915603982F16
:101B0000917020919A0290FB20F920939A02869579
:101B1000911101C080E0880F90919A029170892BF9
:101B200080939A0280915A0380939E02809157037A
:101B300080939B028091580380939C02809159036B
:101B400080939D02089510925B0380911102ECE74F
:101B5000F2E0882359F08091300387FF07C08EE1BF
:101B6000DF011D928A95E9F70C943A0986E0F8CFD7
:101B70001F93CF93DF93CDB7DEB7AA970FB6F89434
:101B8000DEBF0FBECDBF89EB93E02091F100FC01D9
:101B90002193CF01F3E0813C9F07B9F78091BA030D
:101BA000833009F46FC0B8F4813009F446C0823044
:101BB00009F4B0C08091E80083FF7BC28091B90333
:101BC0009091BA039A3008F074C2E92FF0E0EB501C
:101BD000FC4C0C947E308A3009F48BC08B3009F4B5
:101BE0006EC0893039F78091B903813219F780913D
:101BF000BD039091BE030297E8F68091E800877FCD
:101C00008093E8008091E80082FF37C09091F30054
:101C10008091F200029729F48091F1008B7F81304E
:101C200021F48091F100809394038091E8008B77F8
:101C30008093E8000E949A06BDCF8091B903813A53
:101C400009F0B8CF8091E800877F8093E800809109
:101C5000BD039091BE03892B61F460E285E993E0B6
:101C600070E00E944C078091E8008B778093E80039
:101C7000A1CF60E090E080E0F3CF8091B7038111C5
:101C8000C1CF98CF8091B903813A09F093CF809169
:101C9000BD039091BE03892B09F08CCF8091E800A1
:101CA000877F8093E8008091E80080FFFCCF8091DF
:101CB00011028093F1008091E8008E77B9CF809176
:101CC000B903813209F076CF8091BD039091BE03B4
:101CD000892B09F06FCF8091E800877F8093E8001F
:101CE0000E949A068091BB03809311020E94A30D6B
:101CF00061CF8091B903813209F05CCF8091E80017
:101D0000877F8093E8000E949A068091BC038093AD
:101D1000930350CF8091B903813A09F04BCF809162
:101D2000E800877F8093E8008091E80080FFFCCF87
:101D300080919303BECF803899F0823809F0B9C101
:101D40008091BD038F70873008F0B3C18093E900A4
:101D50008091EB0085FB882780F91092E90006C08E
:101D60008091B5039091B603911182609091E80043
:101D7000977F9093E8008093F1001092F10080919A
:101D8000E8008E7792C1882309F480C1823009F07F
:101D900090C18091BB03811183C18091BD038F707D
:101DA0002FEF280F263008F084C18093E90020919E
:101DB000EB0020FF75C1933031F48091EB0080621D
:101DC0008093EB006DC19091EB0090619093EB00DC
:101DD00021E030E001C0220F8A95EAF72093EA0063
:101DE0001092EA008091EB008860EACF811161C116
:101DF0001091BB031F778091E3008078812B809343
:101E0000E3008091E800877F8093E8000E949A06B3
:101E10008091E80080FFFCCF8091E3008068809390
:101E2000E30082E0111183E08093B70342C1805840
:101E3000823008F03EC18091BB039091BC038C3D81
:101E400023E09207A1F583E08A838AE289834FB772
:101E5000F894DE01139620E03EE051E2E32FF0E03B
:101E600050935700E49120FF03C0E295EF703F5F6D
:101E7000EF708E2F90E0EA30C0F0C7968D939D935F
:101E80002F5F243159F74FBF8091E800877F8093FF
:101E9000E8006AE270E0CE0101960E944C07809152
:101EA000E8008B778093E80004C1C096E7CF4091AB
:101EB000BD035091BE03292F33272330310509F488
:101EC00044C078F52130310509F46FC08BE390E010
:101ED000E2EAF5E02230310509F0EBC02091E8009C
:101EE000277F2093E8002091BF033091C003821721
:101EF000930708F49C0140E02115310509F064C006
:101F0000411162C08091E80082FDC9CF8091B70382
:101F1000882329F2853019F28091E80083FFF2CFFF
:101F2000BECF21323105A9F12232310509F0C1C0FD
:101F30004115510509F443C04130510509F0B9C0BC
:101F40008DE690E0E5EFF4E0C9CF99278130910567
:101F5000C1F0009759F0029709F0ABC0EFEEF5E041
:101F6000E4918E2F90E0EFEEF5E007C0EFE0F6E0B1
:101F7000E4918E2F90E0EFE0F6E0009709F499C02D
:101F8000ADCFEDEFF5E0E4918E2F90E0EDEFF5E0D1
:101F9000F4CF4115510571F04130510509F089C068
:101FA00089E090E0EDECF5E099CF82E190E0EDED95
:101FB000F5E094CF89E090E0E4EBF5E08FCF80E4AA
:101FC00090E0E2E6F5E08ACF8091B703882309F438
:101FD00066CF853009F463CF8091E80083FD5FCF41
:101FE0008091E80082FD8ECF8091E80080FF84CF51
:101FF0009091F3008091F2002115310519F088309D
:10200000910550F041E0089709F040E08091E80028
:102010008E778093E80070CF44914093F100319621
:10202000215031090196E8CF803809F042C08091F3
:10203000E800877F8093E8008091B8038093F100E7
:102040009ECE811136C01091BB03123090F5809165
:10205000E800877F8093E8001093B8030E949A06F7
:10206000112311F084E005C08091E30087FDFACFD1
:1020700081E08093B70342E061EC81E00E94B90601
:1020800042E261EC82E00E94B90613C08091BB037A
:10209000813079F481E0933009F080E08093B603D9
:1020A0001092E9008091E800877F8093E8000E9409
:1020B0009A068091E80083FF0AC08091E800877F3C
:1020C0008093E8008091EB0080628093EB00AA96F9
:1020D0000FB6F894DEBF0FBECDBFDF91CF911F9139
:1020E0000895CF93DF93682F81E06A3019F06D3047
:1020F00029F480E0DF91CF910C94001180912006AB
:102100009091210626E0FC01AAE1B6E001900D9233
:102110002A95E1F7603E08F45AC026E0FC011192CE
:102120002A95E9F7C0912006D091210646E050E0BB
:10213000BE018AE196E00E94F6309E012A513440A9
:10214000892B41F1C90145E0969587954A95E1F7BC
:1021500041E050E0BA0102C0660F771F8A95E2F7AE
:10216000CB016091180470911904862B972BB9014B
:102170006B5F7F4FE5E076956795EA95E1F702C0E2
:10218000440F551F6A95E2F7842B952B9093190401
:10219000809318042A5F3F4F40911704642F70E02A
:1021A000C9010E945630481B463010F4240F311DDF
:1021B000211572E0370710F030E020E0265E3B4F3B
:1021C0003093210620932006DF91CF910895F6E009
:1021D0006F9FB00111246D5E794F46E050E00E9480
:1021E000E030A0CFCF93DF93EC01FE018491811109
:1021F00003C0DF91CF9108950E9471102196F5CF11
:10220000CF93382FE0912006F0912106EA51F44057
:1022100020911704622F70E0CF010E945630281BD6
:10222000822F332361F066E00E944A30C82FC150EC
:1022300010F4CF91089580E20E947110F8CF9F01B1
:10224000280F311D2115324018F080E0F0E0E0E069
:102250008E0F9F2F911D865E9B4F9093210680933A
:102260002006E7CF81E00C940011CF92DF92EF922D
:10227000FF920F931F93CF93DF936C017B0164E672
:1022800070E088E70E94A42DEC0197FD12C010E0D9
:1022900000E0F601E00FF11F849164E670E00E9417
:1022A000002EEC01892B29F40F5F1F4F0E151F051F
:1022B00081F70E94832ECE01DF91CF911F910F9164
:1022C000FF90EF90DF90CF900895809184039091DC
:1022D0008703911103C091E089270895882369F04D
:1022E00062E070E08EEA91E00E943511892B19F0CE
:1022F0008091840308951092840380918403EBCF2E
:10230000CF93C0918403809187038823D1F00E94EA
:10231000D107605A75418F4F9F4F60938003709330
:1023200081038093820390938303C11108C062E00C
:1023300070E08CEA91E00E943511892B29F0C09160
:1023400084038C2FCF91089581E080938403F7CF8D
:10235000CF93DF9300D00F92CDB7DEB79091B70344
:10236000943019F589837B836A8382E08093E90046
:102370008FEF9091E800815095FD06C095ED9A95FC
:10238000F1F700008111F5CF8091E80085FF0DC0C5
:1023900050E040E063E070E0CE0101960E947006DC
:1023A0008091E8008E778093E8000F900F900F9057
:1023B000DF91CF910895BC0184E00C94A811BC0179
:1023C00083E00C94A811CF93DF93EC01809111026C
:1023D0008823B1F18091300387FF32C060E282E050
:1023E0008093E9008FEF9091E800815095FD06C041
:1023F00095ED9A95F1F700008111F5CF8091E800F5
:1024000085FF1BC08091110270E050E040E0811117
:1024100004C050E040E068E070E0CE010E94700629
:102420008091E8008E778093E80080E2FE01A5E9C4
:10243000B3E001900D928A95E1F7DF91CF91089575
:1024400068E081E0CDCF6091FB018091560380FF71
:1024500020C08091FA0143E0849FC001112480557F
:102460009D4F539A2BB1277F3BB138605FB7F894EB
:10247000FC01649FE00DF11D1124BF01681779076D
:10248000D1F45FBF8FE594E00197F1F700C0000041
:1024900008958091FC019091FD0123E0829FF0015D
:1024A0001124E055FD4F8917A0F611821082128287
:1024B0008F5F3396F8CFFC014191CF01E8E03BB943
:1024C000000000C047FF2BB9440F000000C000C04F
:1024D00000C02BB900C0EA9591F7D0CFEF92FF92E0
:1024E0000F931F93CF93DF93EC018C81811109C06F
:1024F00081E08C831092C20292E090933F0180931E
:102500003E018091FC019091FD0123E0829FF0014A
:102510001124E055FD4F891768F110E003E0609148
:10252000FE01161768F10E94231280913E0120914E
:10253000C202280F2093C20290913F01980F9093FE
:102540003F01191654F4022E000C330B4091FE018A
:102550004150550B2417350734F0819580933E0187
:10256000813009F41C82DF91CF911F910F91FF9070
:10257000EF9008951182108212828F5F3396CBCF35
:10258000E12EF12C70E0C7010E946A302091FC011D
:10259000820F482F50E02091C202022E000C330B14
:1025A000E216F306D4F020913F01022E000C330B0B
:1025B0002E153F0594F0809F9001112420553D4F2A
:1025C00040915903473908F046E9609158038091DA
:1025D00057030E94200A1F5FA2CFFA01EE0FFF1FD0
:1025E000E40FF51FE055FD4F118210821282F3CFE8
:1025F000EF92FF921F93CF93DF93EC0110E0EE2454
:10260000EA94F12C6091FE01161770F00E942312DB
:102610009A818C8190FF2AC08F5F8C83DF91CF914C
:102620001F91FF90EF9008952091FC01422F410FE0
:102630005527551FCA019A01220F331F280F391F32
:1026400020553D4F40915903473908F046E970E065
:10265000C7010E946A30962F8C8160915803199FA0
:10266000800D11240E94200A1F5FCCCF8150D5CF4E
:102670009091560390FF14C09091FC012091FD01B0
:1026800033E0939FF0011124E055FD4F921710F0B5
:102690000C9423128183608342839F5F3396F6CF2D
:1026A00008950F931F93CF93DF9300D00F92CDB770
:1026B000DEB78C018091560380FF13C0409159030F
:1026C000473908F046E99E012F5F3F4F609158035C
:1026D000F80184810E94200A4B8169818A810E94CD
:1026E0003813F80184818F5F84830F900F900F90CF
:1026F000DF91CF911F910F910895E6E5F3E080817E
:102700008E7F80830E94030AE3E5F3E0828181608B
:1027100082832FEF80E792E0215080409040E1F7E4
:1027200000C000000C9423128091A602811118C0F1
:1027300088EC9091E30097FD10C0EFE3FCE931973E
:10274000F1F700C000008150A1F782E08093A6025B
:102750000E9420061092B70303C081E08093A60276
:1027600081E09091A602913011F080E008950895E3
:10277000CF9384E090E00E940331C82F82E290E082
:102780000E940331982F8C2FCF910895CF92DF9222
:10279000EF92FF926B017C010E940A0AB701A60129
:1027A00088E090E0FF90EF90DF90CF900C9429317B
:1027B000EF92FF920F931F93CF93DF9300D00F926E
:1027C000CDB7DEB7182FF62E042FE22E80915603D8
:1027D00080FF3DC0E82FE695F0E0EE5DFD4F908173
:1027E000909353038E7F8230E1F5473908F046E934
:1027F0009E012F5F3F4F6F2D812F0E94200A4B813A
:1028000069818A810E94381380915703811308C01F
:10281000809158038F1104C080915903801729F0CB
:102820008091550382608093550310935703F09273
:10283000580300935903EE2051F0609156037091B4
:10284000570380915803909159030E94C6130F902B
:102850000F900F90DF91CF911F910F91FF90EF900C
:10286000089580915703923011F0953069F6182F32
:10287000CBCFE6E5F3E0438120E2421B08F440E0E1
:1028800021E0628181810C94D813E6E5F3E0438175
:1028900020E2420F08F44FEF21E0628181810C9425
:1028A000D813E6E5F3E0628120E2621B08F460E001
:1028B00021E0438181810C94D813E6E5F3E0628145
:1028C00020E2620F08F46FEF21E0438181810C94D4
:1028D000D813E6E5F3E0818121E0438162818051F4
:1028E0000C94D813E6E5F3E0818121E04381628115
:1028F000805F0C94D81380915A03882319F081507B
:1029000080935A0360915603709157038091580346
:10291000909159030C94C61380915A03833018F494
:102920008F5F80935A036091560370915703809193
:102930005803909159030C94C613E6E5F3E083E045
:10294000808311828FEF828386E983831482A3E5DB
:10295000B3E012968C911297836012968C936081EB
:102960007181828193810C94C6136AEE7EEF90E0B0
:1029700080E00E94353160E082E090E00E941731F3
:1029800060E083E090E00E941731109220031092E3
:102990002103109222031092230360E084E090E070
:1029A0000E94173160E082E290E00E94173160E0FF
:1029B00085E090E00E94173160E086E090E00E94A0
:1029C00017316FEF87E090E00E94173140E050E050
:1029D000BA0188E090E00E94293160E08DE090E04B
:1029E0000E94173140E050E0BA0188E190E00E9477
:1029F000293160E087E190E00E94173140E050E02B
:102A0000BA018CE190E00E94293170E060E080E240
:102A100090E00E94353140E050E0BA0188E190E05A
:102A20000E94293140E050E0BA018FE090E00E941E
:102A3000293140E050E0BA0183E190E00C94293163
:102A40008091D203811134C090E080E00E94113166
:102A50008A3E9E4F11F00E94B51487E090E00E94DC
:102A600003318093D303E6EDF3E080E090E0A0E84B
:102A7000BFEB1182108282839383A483B583178274
:102A80001682389624E0E631F20799F78091D20356
:102A900081110CC00E94B60A259A82E080938000C2
:102AA0008AE18093810081E08093D2030C94120B21
:102AB00008951F920F920FB60F9211242F933F93F8
:102AC0004F935F936F937F938F939F93AF93BF9336
:102AD000CF93DF93EF93FF93D091E900DF70809164
:102AE000EC00C82FC17080FDC0E81092E900809111
:102AF000F000877F8093F00078940E94B80D1092C8
:102B0000E9008091F00088608093F000CD2BCF70B9
:102B1000C093E900FF91EF91DF91CF91BF91AF9109
:102B20009F918F917F916F915F914F913F912F91E5
:102B30000F900FBE0F901F9018951F920F920FB617
:102B40000F9211242F933F934F935F936F937F9333
:102B50008F939F93AF93BF93EF93FF938091E10087
:102B600082FF09C08091E20082FF05C08091E100F0
:102B70008B7F8093E1008091DA0080FF24C08091F8
:102B8000D80080FF20C08091DA008E7F8093DA0029
:102B90008091D90080FF9BC080E189BD82E189BD21
:102BA00009B400FEFDCF81E08093B70380919203CA
:102BB000811109C00E9420060E94EB068091E2006C
:102BC00084608093E2008091E10080FF17C08091D3
:102BD000E20080FF13C08091E2008E7F8093E200CC
:102BE0008091E20080618093E2008091D800806251
:102BF0008093D80019BC85E08093B7038091E100F1
:102C000084FF29C08091E20084FF25C080E189BD56
:102C100082E189BD89B5982F917080FFFBCF8091AB
:102C2000D8008F7D8093D8008091E1008F7E8093C3
:102C3000E1008091E2008F7E8093E2008091E200CB
:102C400081608093E2008091B803882309F445C035
:102C500084E08093B7038091E10083FF27C08091D7
:102C6000E20083FF23C08091E100877F8093E10031
:102C700082E08093B7031092B8038091E1008E7FC9
:102C80008093E1008091E2008E7F8093E20080914A
:102C9000E20080618093E20042E060E080E00E9418
:102CA000B9068091F00088608093F000FF91EF9169
:102CB000BF91AF919F918F917F916F915F914F9154
:102CC0003F912F910F900FBE0F901F90189519BC38
:102CD0001092B7031092920376CF8091E30087FDA4
:102CE00093E09093B703B7CF0F931F930E94941371
:102CF000882321F01F910F910C94D1070E94D107D6
:102D0000009128031091290320912A0330912B036D
:102D1000600F711F821F931F1F910F910895CF9213
:102D2000DF92EF92FF926B017C010E94941381115C
:102D30000EC00E94D107C61AD70AE80AF90AC09243
:102D40002803D0922903E0922A03F0922B03FF90EC
:102D5000EF90DF90CF90089578941F921FB61F9246
:102D600011248F939F93AF93BF93809124039091ED
:102D70002503A0912603B09127030196A11DB11D43
:102D80008093240390932503A0932603B0932703F5
:102D9000BF91AF919F918F911F901FBE1F9018956B
:102DA0002FB7F8948091240390912503A0912603D6
:102DB000B09127032FBF08950F931F93CF93DF93F5
:102DC000C62FD42F022FFC0182818823A1F06093AB
:102DD000C3030E94D0169093C2038093C103C770AF
:102DE00081E001C0880FCA95EAF7DF91CF911F916A
:102DF0000F910C9404098091C303681338C080912B
:102E0000C1039091C2030E94C2078A3F910578F5E1
:102E100010E21D0FCD17B9F080E28C0F883040F41E
:102E2000C77081E001C0880FCA95EAF70E94F908CF
:102E3000183048F481E09D2F977001C0880F9A9553
:102E4000EAF70E940409802F0E948409802F0E94C3
:102E50005209183098F4D77081E001C0880FDA95D4
:102E6000EAF7DF91CF911F910F910C94F908C77089
:102E700081E001C0880FCA95EAF7F3CFDF91CF91C7
:102E80001F910F9108950E94941381110C94D016F4
:102E90000E947416CB01089560915603669570E008
:102EA00041E050E08DE391E00E94E930892B19F474
:102EB00081E0809354030E94431790934E038093C4
:102EC0004D0380915503846080935503089590913C
:102ED000560390FF3BC0917081112EC09260909379
:102EE000560380915503816080935503662351F00A
:102EF0006091560370915703809158039091590344
:102F00000E94C61360915603669570E041E050E060
:102F10008DE391E00E94E930892BA9F00E94030A19
:102F200081E08093500320E0409159036091580361
:102F3000809157030C94D8138E3010F09A61CFCF44
:102F4000880F982BCCCF0E944C17EACF0895809120
:102F500056038695815009F48DE061E00C94671763
:102F60008091560386958F5F8E3008F081E061E096
:102F70000C9467179091560390FF07C09695981789
:102F800020F0961710F40C94B01761E00C946717BA
:102F9000CF939C01FB01C281C1116DC080915B0385
:102FA00082722C3CFCE53F0709F4B2C0A8F5273C2F
:102FB000ECE53E0709F498C0D8F4243C9CE53907B9
:102FC00009F488C030F4233C3C4509F457C0C1E003
:102FD00052C0253C9CE5390709F481C049E654E11B
:102FE00062E774E1263C3C4591F70E94FE0943C02C
:102FF000293CFCE53F0709F481C008F47AC02A3C6B
:10300000ECE53E0709F47FC045E454E169E374E16F
:103010002B3C3C4551F3DBCF213D9CE5390709F4BE
:1030200084C098F42E3CFCE53F0709F47BC008F40B
:1030300074C02F3CECE53E07F1F064E082E0203DF7
:103040003C4529F60E94BA1716C0273D8CE5380783
:1030500070F4243D9CE5390770F4223DECE53E0711
:1030600051F06DE08BE0233D3C4561F3B0CF2E3550
:103070003D4509F0ACCF8C2FCF9108958091560338
:1030800080FF20C08E7F809356036091560370911D
:10309000570380915803909159030E94C6130E94D0
:1030A000030A809155038160809355039FEFE0E709
:1030B000F2E09150E040F040E1F700C000000E94D3
:1030C0002312D9CF81608093560361E086950E94D8
:1030D0006717D1CF47EA57E160EB77E186CF40EB46
:1030E00057E167EA77E181CF42E754E169E674E1AD
:1030F0007CCF41E554E16DE574E177CF4DE554E1D6
:1031000061E574E172CF49E354E165E474E16DCFA8
:103110004BE754E16CE874E168CF4CE854E16BE7AD
:1031200074E163CF61E081E0D2CF6AE085E08ACFCD
:1031300080919E0280935A039091560380919A0247
:1031400098279E7F21F060E086950E946717809106
:103150009B0260919C0240919D02909157038913BC
:1031600008C090915803961304C090915903941786
:1031700019F020E00E94D8138091560380FF07C009
:1031800081608093560360E086950C9467170C94D9
:103190007D13CF92DF92EF92FF92CF936B017C0170
:1031A000C114D104E104F10411F060FF0AC00E94CF
:1031B0009818C701B601CF91FF90EF90DF90CF90A4
:1031C0000895C701AA27BB27C0E10097A105B10553
:1031D00019F4D701CB01C0E0492F5A2F6B2F772765
:1031E000411551056105710519F0C85FDB01CA0180
:1031F000AC01BD01E4E07695679557954795EA9552
:10320000D1F7411551056105710519F0CC5FDB015E
:10321000CA01AC01BD0132E0769567955795479597
:103220003A95D1F7411551056105710519F0CE5F49
:10323000DB01CA01B695A79597958795892B8A2BAF
:103240008B2B09F0CF5F80912C0390912D03A091DF
:103250002E03B0912F030097A105B10509F080FD61
:103260000E947D0D60E081E00E946717C23081F00E
:10327000C33039F0C13089F420E04FEF6FEF85EDB6
:1032800004C020E04FEF6FEF89E00E94D81391CF88
:1032900020E04FEF6FEF80E8F8CF20E04FEF6FEFC7
:1032A00080E0F3CF0E94C91860932C0370932D0324
:1032B00080932E0390932F030C943A090F931F933E
:1032C00041E050E060E070E004C0440F551F661F0D
:1032D000771F8A95D2F7CB01BA01609570958095DA
:1032E000909500912C0310912D0320912E03309185
:1032F0002F0360237123822393231F910F910C943A
:1033000052190F931F9341E050E060E070E004C059
:10331000440F551F661F771F8A95D2F780912C03A3
:1033200090912D03A0912E03B0912F038A019B0150
:10333000082B192B2A2B3B2BC901B8011F910F9188
:103340000C9452197F928F929F92AF92BF92CF921C
:10335000DF92EF92FF920F931F93CF93DF934B0176
:103360005C017A018091D30380FF81C08091D203F8
:10337000811102C00E94201520E030E0A901C501A2
:10338000B4010E941B3287FF04C0B7FAB094B7F8AB
:10339000B09470901604872D8150990B6C01EC014C
:1033A000CF3FDC0709F04DC081E0870D893008F47C
:1033B00085C088E08093160486ED93E028E0FC0148
:1033C0003896DC0101900D922A95E1F7089624E0E9
:1033D0008E30920799F781E08093A7028093D10302
:1033E000C0911604C150DD0B0E94D016FE0123E0EF
:1033F000EE0FFF1F2A95E1F7EA52FC4F918380837D
:1034000082829382A482B582F782E6820E94D016DD
:1034100080913C01882359F180916F0082608093F4
:103420006F00809180008068809380008091D1033C
:10343000882321F00E94F3050E94C10A10923C01EA
:1034400016C08E0133E0000F111F3A95E1F70A52C2
:103450001C4FA5019401F8016281738184819581DB
:103460000E941B32811128C0CC15DD0574F0DF915C
:10347000CF911F910F91FF90EF90DF90CF90BF9071
:10348000AF909F908F907F900895219688E0F801EB
:103490003896D80101900D928A95E1F70E94D016D6
:1034A000F8019187808782869386A486B586F78601
:1034B000E686085F1F4FD8CF219772CF80931604FE
:1034C0008ACFCF92DF92EF92FF92CF93DF93EC01FE
:1034D0007B018091D30380FD08C0DF91CF91FF90E5
:1034E000EF90DF90CF900C94120B8091D20381115A
:1034F00002C00E9420158091D10381110E94120BFD
:1035000081E08093D0031092CF03D093CE03C09379
:10351000CD03F092CC03E092CB031092CA03109239
:10352000C9031092C8036C817D818E819F810E94A6
:1035300092329B01A0E6BAEE0E949F31C12C2EE18F
:10354000D22EE12CF12CA70196010E947D316881D9
:1035500079818A819B81A9010E94A2190E94D016BB
:103560009093C7038093C603E091CD03F091CE03FF
:103570008091C8039091C90333E0880F991F3A9551
:10358000E1F7E80FF91F64817581868197810E94B8
:1035900092329B01A0E6BAEE0E949F31A7019601EC
:1035A0000E947D313093C5032093C403DF91CF91F6
:1035B000FF90EF90DF90CF90089562E070E08CE292
:1035C00091E00E94611A2FEF81EE94E0215080403B
:1035D0009040E1F700C000000E94120B6091D303FD
:1035E0006E7F6093D30387E090E00C941731609175
:1035F000D30361606093D30387E090E00E941731AA
:1036000062E070E08CE191E00C94611A8F929F92DD
:10361000AF92BF92CF92DF92EF92FF920F931F93E0
:10362000CF93DF9300D000D00F92CDB7DEB77C01EF
:10363000FC0183819481892B39F01081D180812F05
:103640008D218F3F09F0A1C60F900F900F900F9022
:103650000F90DF91CF911F910F91FF90EF90DF902E
:10366000CF90BF90AF909F908F9008950E940D0DC6
:10367000082F682F89819A810E948908E12FF0E044
:1036800026E0D29EE00DF11D112440E3049FE00DE1
:10369000F11D1124EE0FFF1FE155FD4F059114910F
:1036A000F70182810032FCE51F0709F066C088231C
:1036B00061F08091D303682F6D7F81FF626060931A
:1036C000D30387E090E00E941731F7018281053231
:1036D000FCE51F0709F094C0882361F080E090E0CA
:1036E000ACEDB3E48093580190935901A0935A0133
:1036F000B0935B018091D3038370833009F010C1D4
:10370000F7018281882309F40FC1C8018E519C45BD
:10371000029708F09FC00E94D01690935D0380939B
:103720005C03C80190568115904258F0C80190542E
:103730008115F0E19F0728F0915C81159F4108F009
:103740001EC1F801FF2780915F0180936001809185
:103750005E0180935F0180915D0180935E018091A5
:103760005C0180935D01EF3FF10509F4DDC0E05598
:10377000FE4FE491E0935C01D7C001322CE51207C3
:10378000A1F102324CE5140709F09FCF882349F0DC
:103790006091D3036D7F6093D30387E090E00E9434
:1037A0001731F70182810432FCE51F0709F0A2CF2F
:1037B000882309F49FCF29E038E348E95FE360916B
:1037C00058017091590180915A0190915B010E94BA
:1037D00020324B015C0120E030E042E852E40E94DC
:1037E000733318160CF086CF2CC0882349F06091F3
:1037F000D30362606093D30387E090E00E941731A7
:10380000F70182810332FCE51F0759F6882309F48A
:1038100071CF29E038E348E95FE360915801709186
:10382000590180915A0190915B010E9478334B01BC
:103830005C0120E030E84BEB54E40E941B3287FF30
:1038400059CF8092580190925901A0925A01B0929A
:103850005B0150CF609158017091590180915A01DC
:1038600090915B019B01AC010E94AF314B015C0167
:103870000E94D030BC01990F880B990B0E94C33273
:1038800020E03EEF4FEF56E40E9420322DEC3CEC5E
:103890004CE45DE30E94783320E030E040E85FE3F1
:1038A0000E94AF31A50194010E94783360934801D2
:1038B0007093490180934A0190934B010E94D0304C
:1038C000BC01990F880B990B0E94C33220E03EEF98
:1038D0004FEF56E40E9420322DEC3CEC4CE45DE3CB
:1038E0000E94783320E030E040E85FE30E94AF318F
:1038F000209158013091590140915A0150915B013A
:103900000E9478336093500170935101809352016B
:103910009093530163E070E080E491E00E94611AAB
:10392000F70182818111F7CE0E3C4CE5140780F53A
:10393000063C8CE5180728F4C801835C9C45029777
:1039400088F5F7018281882309F47ECE0E949818B9
:10395000B701C8010E94C8170F900F900F900F90E9
:103960000F90DF91CF911F910F91FF90EF90DF901B
:10397000CF90BF90AF909F908F900C947D0DF0E012
:10398000E0E00F3F110511F008F0DDCEF801DBCECD
:1039900001369DE5190709F468C008F50036FDE514
:1039A0001F07B9F10D318CE5180709F06EC0F7015A
:1039B0008281882309F4CAC00F900F900F900F9056
:1039C0000F90DF91CF911F910F91FF90EF90DF90BB
:1039D000CF90BF90AF909F908F900C94F71A0236C3
:1039E0002DE5120709F449C003364DE51407D1F659
:1039F000F7018281882309F427CE0E949D148091CB
:103A0000560381608093560361E086950E94671794
:103A1000A3CFF70182818823A1F081E00F900F905E
:103A20000F900F900F90DF91CF911F910F91FF900A
:103A3000EF90DF90CF90BF90AF909F908F900C94BD
:103A4000811981E00F900F900F900F900F90DF91F0
:103A5000CF911F910F91FF90EF90DF90CF90BF908B
:103A6000AF909F908F900C945E19F701828188230C
:103A700011F082E0D3CF82E0E5CFF7018281882385
:103A800011F083E0CBCF83E0DDCF0E31FCE51F07E3
:103A9000C1F4F7018281882309F458C00F900F9078
:103AA0000F900F900F90DF91CF911F910F91FF908A
:103AB000EF90DF90CF90BF90AF909F908F900C943D
:103AC000DD1A0F31FCE51F0749F4F70182818823D5
:103AD000E9F18091D30380FDE1CF6ECFC8018A5216
:103AE0009C450297E8F4F7018281882379F11092CE
:103AF000D50364E070E082E691E00F900F900F90A4
:103B00000F900F90DF91CF911F910F91FF90EF9049
:103B1000DF90CF90BF90AF909F908F900C94611AE0
:103B2000043FFCE51F0709F494C008F069C0093D93
:103B30004CE5140709F489C00A3D8CE5180709F41F
:103B400094C0083D9CE5190709F468C0F70182811B
:103B5000882309F42BC41092C3030230FCE51F072D
:103B600008F48AC106312CE5120730F0C8018B5FDA
:103B70009C45099708F080C10E94B81390933103C7
:103B80008093300300314CE5140709F430C108F08C
:103B9000A6C008309CE5190709F40BC108F07BC0EA
:103BA0000430FCE51F0709F4FCC008F061C00230D6
:103BB0004CE5140709F4EBC003301C4509F4EDC0D3
:103BC000609130031091310384E090E00E9417313E
:103BD000612F82E290E00E9417310F900F900F90BA
:103BE0000F900F90DF91CF911F910F91FF90EF9069
:103BF000DF90CF90BF90AF909F908F900C94A30DCB
:103C0000063FECE51E0769F140F1073F2CE512077E
:103C100009F09CCF27E245EE66EE03C026E241EEB6
:103C200061EEC7010F900F900F900F900F90DF91F2
:103C3000CF911F910F91FF90EF90DF90CF90BF90A9
:103C4000AF909F908F900C94DC1627E245EE65EEC6
:103C5000E8CF26E241EE60EEE4CF27E245EE64EEE7
:103C6000E0CF26E241EE62EEDCCF28E241E0EFCF8A
:103C700080913003806106309CE5190709F48AC001
:103C800080913003886007301C4508F483C0809120
:103C9000300380627FC00C30FCE51F0709F49FC031
:103CA00058F40A304CE5140709F48DC008F485C0B7
:103CB000809130038E7F6EC080913003877F0E30FD
:103CC0009CE5190709F466C0809130038B7F0F30A3
:103CD0001C4508F45FC0809130038F7E5BC00C3FB1
:103CE000FCE51F0709F461C030F503314CE514070A
:103CF00009F485C078F401319CE5190709F47BC00B
:103D000002311C4509F05CCF0E94A30D8091300365
:103D10008F7740C00531FCE51F0709F484C008F423
:103D2000A0C08091310381600B3F1C4509F048CF52
:103D30008093310345CF01158DE5180709F469C05B
:103D4000A8F40E3FECE51E0709F44DC08091310345
:103D50008E7F0F3F1C4560F3809131038360809319
:103D6000310364E070E082EA91E036C002302DE574
:103D7000120709F47FC008F466C060E003301D45F7
:103D800009F01ECF8EE090E00E94173119CF80918C
:103D9000300381608093300313CF809130038260C1
:103DA000F9CF809130038460F5CF80913103826038
:103DB000BFCF809130038064EDCF0E94A30D80912E
:103DC00030038068E7CF809130038C6080933003AC
:103DD00064E070E082EC91E00E94611AF1CE809183
:103DE00030038D7FD7CF809131038D7FA1CF80911C
:103DF00030038F7DCFCF809130038F7BCBCF8091ED
:103E00003003837F8093300362E070E082E991E0C9
:103E1000E3CF809131038C7F8093310362E070E0C7
:103E200082E891E0D9CF8091300382FB992790F905
:103E300021E0922790FB82F990FB83F98093300375
:103E400083FFE2CFC5CF80913103982F9095917079
:103E50008E7F892B90FB81F98093310381FFDECF28
:103E600080CF0E94A30D90913003892F97FB87F993
:103E7000805890CF61E086CF06319CE5190711F597
:103E800080915B038A7A91E009F490E09093C702F5
:103E900069E2811165E38AE792E00E9407080F90CA
:103EA0000F900F900F900F90DF91CF911F910F9176
:103EB000FF90EF90DF90CF90BF90AF909F908F904A
:103EC0000C943C08B701C8010E94C817882309F464
:103ED000BBCBF7018281882341F00115FCE51F0768
:103EE00051F10F3D1C4509F442C0F70100811181D9
:103EF000882309F44FC0C8010E940D0DD82E682FE9
:103F0000C8010E948908B8018D2D0E94930B182FBB
:103F1000B82EF7012281358132953F70892F829525
:103F20008F70C82ED12C8C3008F06CC0F601E15097
:103F3000FC4C0C947E300E94A30D0E94D0168C0184
:103F400063E070E082EE91E00E94611AC8010E9475
:103F5000C2078A3F910520F00E94120B0E94B10710
:103F60008FE99FE00197F1F700C00000EFCF0F90BD
:103F70000F900F900F900F90DF91CF911F910F91A5
:103F8000FF90EF90DF90CF90BF90AF909F908F9079
:103F90000C94B514C8010E946008D82EB4CF092F24
:103FA0000F70907F11F00295007F812F2223C9F0BE
:103FB000002369F090E2910F983010F011110BC0BE
:103FC00080915B03082B00935B030E943C08812FC8
:103FD0000E94840917C080911F03082B00931F03C0
:103FE000F4CF0E945209002369F00095105E18304A
:103FF00010F0B11030C080915B03082300935B0385
:104000000E943C0888E0C81AD10894E0C916D1047F
:1040100010F40E94F20985E0F701DE01119601908B
:104020000D928A95E1F789819A810E9460089A81B0
:10403000E981F0E026E0929FE00DF11D112440E3BC
:10404000849FE00DF11D1124EE0FFF1FE155FD4F80
:1040500085919491F9CA80911F03082300931F034F
:10406000CFCF892F8F70907F903211F08295807F13
:10407000F1E0BF120EC0222331F0363008F0C2CF7B
:104080000E940409BFCF353008F0BCCF0E94F90868
:10409000B9CF222319F0332399F399CF3323B1F306
:1040A000193349F42FEF47EE83E021504040804020
:1040B000E1F700C00000812F0E945209A3CF892F91
:1040C00086958695837061F0813009F09BCF812FB2
:1040D0009370211102C090E080E00E940E0992CFFF
:1040E000812F9370211102C090E080E00E9424098A
:1040F00089CF892F837009F065C0211183CF812F6B
:10410000829586958770880F880F612F6F70862E35
:10411000912CB12CA12C082E04C0880C991CAA1C2F
:10412000BB1C0A94D2F740E050E0BA0114FF0FC064
:104130004FE050E060E070E004C0440F551F661F80
:10414000771F8A95D2F74095509560957095969512
:1041500096959370923019F1D8F400912003109144
:1041600021032091220330912303913069F04829E3
:1041700059296A297B29CB01BA0160237123822343
:1041800093230E9448093ECF802A912AA22AB32A6B
:10419000CB01BA01682979298A299B29F2CF4829BC
:1041A00059296A297B29009120031091210320912C
:1041B000220330912303CB01BA01602771278227A4
:1041C0009327DFCF8695222311F0892F81708823D2
:1041D00009F418CF812F829586958770880F880FF4
:1041E000612F6F70862E912CB12CA12C082E04C04B
:1041F000880C991CAA1CBB1C0A94D2F740E050E022
:10420000BA0114FF0FC04FE050E060E070E004C05E
:10421000440F551F661F771F8A95D2F7409550951A
:1042200060957095969596959370923019F1D8F4A3
:1042300000912C0310912D0320912E0330912F0318
:10424000913069F0482959296A297B29CB01BA01A3
:1042500060237123822393230E945219D3CE802A94
:10426000912AA22AB32ACB01BA01682979298A297D
:104270009B29F2CF482959296A297B2900912C03CF
:1042800010912D0320912E0330912F03CB01BA0101
:104290006027712782279327DFCF092F0F702223F2
:1042A00029F0802F0E948119812FEACE812F0E9450
:1042B000F908802F0E945E19A5CE812FE1EF1E170D
:1042C00009F442C0E11758F0F0EF1F17F1F0222374
:1042D00009F44BC031117BCE892F8F713AC042EF68
:1042E0001417D1F1E3EF1E13F2CF2223D1F1292FBE
:1042F0002F7161E070E080E090E004C0660F771FEE
:10430000881F991F2A95D2F7A7CF2223C9F03530ED
:1043100008F078CE292F2F7161E070E080E090E006
:1043200004C0660F771F881F991F2A95D2F7009146
:104330002C0310912D0320912E0330912F03A8CF31
:10434000363008F05FCEE6CF892F8F71222309F433
:10435000B1CF0E94811956CE892F8F712223C9F3C4
:10436000A9CF60E070E0CB0177CF332359F08933D8
:1043700009F0A1CEFFEF27EE43E0F150204040408E
:10438000E1F797CE892F8F7195CF85E0DE011196E9
:1043900001900D928A95E1F7F701228189819A8136
:1043A000211164C90E946008082F68C906312CE5F4
:1043B000120709F087CD8091C70269E2811165E398
:1043C0008AE792E00E94DD076ACD1F93CF93DF93C7
:1043D0008091CD02807FA9F48091CA02882389F060
:1043E0008091FF02D091CE026091C8027091C90203
:1043F000A091CB02B091CC02C62FC72316E0D813F0
:1044000004C0DF91CF911F91089590E0109711F0B3
:10441000CF3F19F401968770F2CF189F9001199F32
:10442000300D1124F901E153FD4F41814713F2CFC3
:1044300040814613EFCF42814111ECCF438154813B
:104440004A1B5B0B4A3F510528F78091CD028F70C4
:1044500080618093CD02F901EC52FD4F80818F7015
:104460008061808388EC92E00E94061BDF91CF91EF
:104470001F910C94EF088F929F92AF92BF92CF92B0
:10448000DF92EF92FF920F931F93CF93DF93CDB7FD
:10449000DEB761970FB6F894DEBF0FBECDBF8C01BB
:1044A00085E0F801DE011D9601900D928A95E1F7F5
:1044B000D801EC901196DC9011971296CC9012973F
:1044C00088EC882E82E0982E4091CB025091CC024D
:1044D0004115510509F443C19091C8022091C902C8
:1044E000892F82238F3F09F43AC11396AD90BC9077
:1044F0001497F090CA02F501E41BF50BFF2009F4B4
:10450000FFC08091CD02382F307FEA3FF10508F0DF
:10451000C8C0311185C0FC2C2D1124C09E1122C0B1
:10452000C11020C08F7080618093CD02C4010E94B1
:10453000061B8091CD02D80115968C938F2D619624
:104540000FB6F894DEBF0FBECDBFDF91CF911F91A4
:104550000F91FF90EF90DF90CF90BF90AF909F9022
:104560008F900895A114B10429F08E2D8D218F3FD5
:1045700009F016C180E080FF14C04C2D6D2D8E2DEA
:104580000E94CF08882369F088EC92E00E94061B05
:1045900086E0E8ECF2E0DF011D928A95E9F7F12C64
:1045A000CDCFAB2829F08E2D8D218F3F09F0F5C09E
:1045B00080E0B82FB170AB2E80FF29C04C2D6D2D3F
:1045C0008E2D0E94CF08B82E811121C0ED86DE8687
:1045D0008D859E850E944F0D292F22952F702230A8
:1045E00050F0243078F49F7051F0F8019581907F5D
:1045F00031F4FB2CA3CF9F7011F08823D1F3805EA0
:104600008830B8F3C8010E94061BBA2CF2CFCC2028
:1046100009F494CF8091CD0281608093CD02BFCF09
:104620002D1112C09E1110C0C1100EC015968C9392
:10463000C8010E94061B86E0F801A8ECB2E00190D8
:104640000D928A95E1F77ACFED86DE868D859E857F
:104650000E94590D882309F1CC20F9F08091CD02F8
:10466000803270F02091C8023091C90238872F83C0
:104670001986BB86AA868C87CE0107960E94061BE8
:1046800086E0F801A8ECB2E001900D928A95E1F77E
:104690000E94E521FF24F39451CFC8010E94061B1C
:1046A000F9CF332309F470CF2D110FC09E110DC027
:1046B000C1100BC0F8018583C8010E94061B86E06B
:1046C000D4011D928A95E9F739CFED86DE868D8576
:1046D0009E850E94590D882301F3CC20F1F2809130
:1046E000CD02803268F22091C8023091C9023A832B
:1046F00029831B82BD82AC828E83CE010196BECF00
:10470000EA3FF105E0F6FC2CCC2039F22D1116C061
:104710009E1114C08091CD0280FD8DCF982F907F87
:1047200009F489CFF8018583903F09F481CF982F50
:10473000907F905F8F70892B85837ACFED86DE86A0
:104740008D859E850E94590D81119ACF8091CD0251
:1047500081608093CD02C8010E94061BEFCECC2061
:1047600009F49BCFED86DE868D859E850E94590DCE
:10477000F82E882309F491CF86E0F801A8ECB2E086
:1047800001900D928A95E1F78091C8029091C9023B
:104790000E944F0D0E94E521D1CE81E08C2509CFEA
:1047A00081E08C25E8CE1F93CF93DF93CDB7DEB7A2
:1047B00067970FB6F894DEBF0FBECDBF342F4B8B7B
:1047C000252F5C8B6D8B7E8B8F8B8E899F896111E2
:1047D00010921F031A8A198A3D872E876F87998B3B
:1047E000888B86E0FE013D96DE01179601900D92C2
:1047F0008A95E1F7CE0107960E943B22882389F033
:1048000016E08091FF029091CE02891349C067960D
:104810000FB6F894DEBF0FBECDBFDF91CF911F91D1
:10482000089586E0FE013796DE01119601900D9203
:104830008A95E1F78A859B85892B11F38F8198856D
:1048400089238F3FE9F22091CE0230E0C901019621
:10485000877099274091FF024817190671F40E944A
:10486000A30D1092CE021092FF0286E0E8ECF2E077
:10487000DF011D928A95E9F7C3CF96E0929FD001A0
:10488000939FB00D1124A153BD4FFE0131960190AD
:104890000D929A95E1F78093CE020E94EF08B0CF77
:1048A000819FC001112481539D4F0E943B22882388
:1048B00009F4ADCF8091FF0290E0019687709927AF
:1048C0008093FF029ECFAF92BF92CF92DF92EF9282
:1048D000FF920F931F93CF93DF9300D000D0CDB7FB
:1048E000DEB781E6E82E82E0F82E92E3A92E93E06F
:1048F000B92E00E0CC24C394D12CF70181917F0123
:10490000F894E82FE295EF70F0E021A18F70A601F6
:1049100002C0440F551F8A95E2F7CA01922F982BC7
:1049200091A392A18095892382A3789400C0E9E69F
:10493000F2E030E020E010E04191A42FA295AF70AA
:10494000B0E090968C9190E04F7002C0959587955D
:104950004A95E2F780FD4CC08C2D022E01C0880FD5
:104960000A94EAF7182B2F5F3F4F2630310521F7C5
:10497000F701319780810E94390B50EA5A95F1F77F
:10498000F50180811817B1F1108381E0082BFFEF4A
:10499000AF1ABF0A25E6E21622E0F20609F0ADCF13
:1049A00010913B03002341F181E08093A1020E941A
:1049B000D0169093A00280939F0280919F029091C5
:1049C000A0020E94C2070697D8F0E12FF0E0EE5B4C
:1049D000FC4F8091320380838091330381838091E7
:1049E000340382838091350383831092A10208C02F
:1049F00080E0B8CF80E0CACF8091A1028111DDCFE5
:104A00000E949413182F60913B03882309F481C0FE
:104A100019821A821B821C82862F90E0BE016F5F72
:104A20007F4F8E5B9C4F0E94532D811139C0809126
:104A3000A5028F5F8093A502863008F44FC0E091F5
:104A40003A03F0E0EE5BFC4FDE011196CE010596D5
:104A500011921D92A817B907D9F78091A40281116C
:104A60000CC08091A2029091A3020097C9F50E9408
:104A7000D0169093A3028093A202011101C0012FCE
:104A8000802F0F900F900F900F90DF91CF911F917B
:104A90000F91FF90EF90DF90CF90BF90AF9008956F
:104AA0001092A502A0913A03B0E0AE5BBC4FBE01EC
:104AB0006F5F7F4F9E012B5F3F4F10E04D91FB01D9
:104AC0009191BF01491731F0AD0141505109FA01EF
:104AD0009083182F6217730789F7BFCF10E0BDCFFF
:104AE0000E94C2078D32914040F28091D30380FF33
:104AF00006C063E070E084E091E00E94611A0E94C9
:104B0000D0169093C7038093C60381E08093A402DC
:104B1000B4CF70E06E5B7C4F80913A0390E08E5B87
:104B20009C4F0E947E2DA9CFCDB7DEB72D970FB633
:104B3000F894DEBF0FBECDBF84B7877F84BF0FB6AA
:104B4000F894A8958091600088618093600010922D
:104B500060000FBE80E890E00FB6F894809361008B
:104B6000909361000FBE85B7806885BF85B7806868
:104B700085BF8BEA97E090937902809378020E9438
:104B800020060E94EB068091E20084608093E200A0
:104B900078948091B7038823A1F01091E9001F70E9
:104BA0009091EC00892F817090FD80E8182B109275
:104BB000E9008091E80083FD0E94B80D1F701093FA
:104BC000E90082E084BD93E095BD9AEF97BD8093A4
:104BD0006E00109228031092290310922A0310925B
:104BE0002B038EE090E00E94033191E0811101C01F
:104BF00090E09093FF018091FF01882309F473C036
:104C00001092FA0186E08093FB010E9494138111B7
:104C10000E942A2D8091FF018091FF0194E0811173
:104C200090E090933B0384E0891B80933A0384E9EE
:104C30000E94390B86E60E94390B87E90E94390BE6
:104C400086EC0E94390B84EF0E94390B85EF0E949D
:104C5000390B86EF0E94390B87EF0E94390B81E3F5
:104C60000E94390B83E30E94390BE2E3F3E0A2E4F4
:104C7000B3E011921D9223E0EA33F207D1F790E0FE
:104C800080E00E9411318A3E9E4F11F00E94B514BF
:104C900082E090E00E940331809389030E94B81360
:104CA00090933103809330030E9463248FE39CE947
:104CB0000197F1F700C000000E9463248EE090E0AD
:104CC0000E940331E4E08111E0E0F0E0EE5BFC4F94
:104CD000808181FF0CC06FEF7FEF90E080E00E9449
:104CE00035310E94B10786E08093FA018CCF83E0D2
:104CF00090E00E940331682F70E090E080E00E9415
:104D0000480960912C0370912D0380912E0390919E
:104D10002F030E94C9180E9420150E94941381112C
:104D200002C00E94302D83E080937E0380E2809356
:104D300017040E949E2D6DE070E082E494E00E94D2
:104D40003511892BE9F580917E0363E070E081FDE8
:104D50006AC18FE394E00E943511892B89F56DE0DB
:104D600070E08FE294E00E943511892B49F50E9492
:104D7000D107605A75418F4F9F4F609380037093A6
:104D800081038093820390938303EAE1F4E080E05F
:104D900092E0DF019C011D9221503040E1F7F09339
:104DA0002106E09320068FEF9FEF909319048093E4
:104DB000180481E0809387038093840310927F031B
:104DC00080913C0381113BC090E080E00E94113152
:104DD0008A3E9E4F21F00E94B5140E949D1488E0E7
:104DE00090E00E940B3160935603709357038093B9
:104DF0005803909359038091550383608093550322
:104E00006E7F71F40E949D1488E090E00E940B3147
:104E100060935603709357038093580390935903FC
:104E20000E940A0A0E94030A8091560380FF04C070
:104E300060E086950E94671781E080933C0387E0DD
:104E400092E090933E0380933D03F8E18F2E912CE6
:104E500082E493E048E0480F4B878091B703FF243A
:104E6000F39400E112E1853009F426C10E94632425
:104E7000D82E81110E94D107EAE8F3E0A2E4B3E062
:104E800010E000E0B02EED9081918E1509F434C150
:104E90008E25C12CFF24F3949F2D982309F427C15C
:104EA0000E949413882399F0C982BA82EF2081E08E
:104EB00009F480E08B830E94D0168160782F9D8357
:104EC0008C8349815A816B818D810E94D323F801A3
:104ED000E657FC4F8081F826F082809154038823A6
:104EE00009F464C080915303E0915603E695E81BF2
:104EF000E0934F03823009F016C1F0E0EB5AFB4F0C
:104F0000E4910E2F10E0E1E5EE2EE3E1FE2E80911C
:104F10005003882361F0109250030E94431790932E
:104F20004E0380934D0310925203109251030E943E
:104F30004317E0914D03F0914E039C012E1B3F0B54
:104F40002F3F3F4798F520914C032223B1F0109258
:104F50004C0320914A0330914B03821B930B8F3FEC
:104F60009F4758F4205D3A4830934B0320934A03FF
:104F700080915503886080935503A0905103B090B1
:104F800052030E0F1F1F10934E0300934D038DE429
:104F900093E0F70109958091510390915203892B79
:104FA00029F4AB2819F081E080934C0380918703AA
:104FB000882351F180918503909186030E94C20756
:104FC000C29708F0D2C0209118043091190421151D
:104FD000310509F0C1C1809184038823A9F00E94A2
:104FE000D1070091800310918103209182033091B9
:104FF0008303601B710B820B930B6F3F7F4F8F4FAF
:105000009F4710F40E946511D1100E9480110E94E8
:10501000F20990918803891709F41FCF0E94F209C1
:10502000809388031ACF8CE394E095CE8091B703E8
:10503000843009F433C00E94120B0E94030A80914D
:105040004103811109C0F0924103809156038170A0
:10505000809340030E947D1310923F0380E40FB6BB
:10506000F894A895809260000FBE8093600083B78B
:10507000817F846083BF83B7816083BF7894889584
:1050800083B78E7F83BF0FB6F894A8958091600098
:10509000886180936000109260000FBE8091B6031B
:1050A000882351F00E946324E2E4F3E081918111AE
:1050B00025C29B859E13FACF8091B703853009F4F2
:1050C000B5CF0E94A30D0E94F20910924103809176
:1050D0004003882349F080915603816080935603F2
:1050E00060E086950E9467170E944C17BFCEC3945C
:1050F000FF0C26E0C212D0CE0F5F1F4F0830110503
:1051000009F0C0CE8FEF8E838F8318860E94D01651
:105110008160782F9A8789874E815F8168858A852B
:105120000E94D323DACE853061F4E695F0E0EE5AA2
:10513000FB4FE4910E2F10E078EFE72E72E1F72E8F
:10514000E6CE00ED17E05AEAE52E57E0F52E8B305B
:1051500009F0DDCEF0E0E15BFB4FE4910E2F10E0B3
:105160006EE6E62E62E1F62ED2CE0E94D016909325
:105170008603809385038AE194E0909321068093CF
:10518000200680915C0390915D030E94C2078131EB
:10519000974240F00E94651180918703882309F4AB
:1051A0001ACF11CF0E949413882309F454C00E948F
:1051B00032110E94321188E594E00E94F2100E94A0
:1051C00032110E9432110E94321188E694E00E944E
:1051D000F2100E9432110E9432110E9432110E947C
:1051E000D01668EE73E00E9456308C0181E00E9478
:1051F000B708882369F08CE994E0043F114010F46B
:1052000082EA94E00E94F21081E00E940011C4CF73
:1052100082E00E94B708882341F080E994E0043FCF
:10522000114080F786E994E0EDCF83E00E94B70853
:10523000882341F084E894E0043F114018F78AE89D
:1052400094E0E0CF043F114018F088E794E0DACF13
:105250008EE794E0D7CF0E9432110E94321188EA83
:1052600094E00E94F2100E9432110E9432110E94BA
:10527000321181E00E94B708811133C082E00E94A0
:10528000B708811130C083E00E94B708882369F114
:1052900083E0A6E08A9FC00111248D549B4F0E9499
:1052A000F2100E9432110E9432110E94321183E0EA
:1052B0000E94B708882309F18091560380FD17C02A
:1052C0008BEC94E00E94F21087ED94E00E94F210C3
:1052D0008091D30380FD0EC081ED94E00E94F21016
:1052E0005BCF81E0D6CF82E0D4CF80E0D2CF8EEC0E
:1052F00094E0E8CF84ED94E0F1CF10915B03812F2F
:10530000817109F189ED94E00E94F21080EF94E040
:105310000E94F210812F8272C9F08CED94E00E94FD
:10532000F210812F8474A9F08FED94E00E94F210A6
:1053300088EE94E00E94F210187882EE94E071F604
:1053400085EE94E0CBCF82EF94E0DECF8DEE94E05B
:10535000E6CF8AEE94E0EACF80917F0361E070E0CF
:10536000811139CE082F10E07B01082E02C0EE0C0F
:10537000FF1C0A94E2F7A9014E215F21452B09F495
:1053800047C090917E0390FD45C08295880F80763E
:10539000809302029801369527953695279520939C
:1053A0000502815E809303021092060224E630E03B
:1053B00047E050E060E072E088E70E942F2E892BE2
:1053C00009F009CEA80125E0440F551F2A95E1F701
:1053D00080917E0380FD2CC0465E5B4F04E610E0AA
:1053E00020E230E060E488E70E94562E892B09F025
:1053F000F2CD0E948011E094F09480911804909175
:105400001904E822F922F0921904E0921804E3CD7D
:105410008F5FA8CF880F880F880F809302021092A9
:105420000502895F8093030283E080930602BECF6A
:10543000EEE5F3E080E2DF011D928A95E9F7E3E70C
:10544000F2E0FD87EC870FE612E097E7292E92E065
:10545000392EAC85BD852D91BD87AC87F801419073
:105460008F01440E552E511CC201865E9B4F2C01AC
:10547000E22FF0E0E25AFC4F30E020E087E0682EB7
:10548000621ACC24C394022E01C0CC0C0A94EAF711
:10549000520190E0D5018D915D018C21662D691B33
:1054A0006770762E062E000C770BB82F01C0BB0F4D
:1054B0007A94EAF77B2E7195619571096770772769
:1054C00001C086956A95EAF7782A8081782A7082E9
:1054D0009F5F9830F9F62F5F3F4F319628303105A6
:1054E00069F6EC85FD852E163F0609F0B2CF04E67D
:1054F00010E020E230E04EE553E074CF09BD19BD65
:1055000009B400FEFDCF8091D8008F7D8093D80034
:105510008091E00082608093E0008091E00081FD56
:10552000FCCF0E94A30DC8CD1F921FB61F9211245D
:105530008F939F93AF93BF9380913F03811113C0CB
:105540008091240390912503A0912603B091270315
:105550004196A11DB11D8093240390932503A09330
:105560002603B0932703BF91AF919F918F911F9016
:105570001FBE1F9018951F93CF93DF93EC01162F3A
:105580008F8180FF0BC0888180FF23C090915603DC
:1055900091609093560386950E9467178F8181FFD3
:1055A00006C0212F4B816A8189810E94D8138F8187
:1055B00082FF05C08E81882379F00E944C178F816D
:1055C00083FF03C081E080935003DF91CF911F914F
:1055D00008950E947D13E2CF0E94030AF0CF25E0D8
:1055E000E6E5F3E0DC0101900D922A95E1F72091C8
:1055F00053033091540340915503FC0125833683B6
:105600004783089510925503089580915503089596
:105610001F920F920FB60F9211242F923F924F922A
:105620005F926F927F928F929F92AF92BF92CF9232
:10563000DF92EF92FF920F931F932F933F934F931D
:105640005F936F937F938F939F93AF93BF93CF930A
:10565000DF93EF93FF938091AC029091AD02A09104
:10566000AE02B091AF020196A11DB11D8093AC02B4
:105670009093AD02A093AE02B093AF026091AC02E2
:105680007091AD028091AE029091AF020E94C13242
:105690006B017C0120E030E040E85CE36091A8020F
:1056A0007091A9028091AA029091AB020E94783376
:1056B0009B01AC01C701B6010E941B3287FDBAC035
:1056C0001092AC021092AD021092AE021092AF0294
:1056D0003090D0038091D103811103C0332009F4AD
:1056E0009FC00E94D0166C01311025C0312C8091D2
:1056F000D1038823B9F08091D4038111382E06EDAF
:1057000013E0912C812C412C512C20E8622E2FEBA0
:10571000722E22242394809116048815190411F006
:105720000CF00CC18091A702882309F479C0109273
:10573000A702382E75C00091C6031091C703C80197
:105740000E94C207C091C403D091C5038C179D0766
:1057500068F2C8010E94C2077C01EC1AFD0AD092CF
:10576000C703C092C603A090C803B090C903E50167
:105770002196D093C903C093C8030E94D01680908D
:10578000CB039090CC03C815D90548F08091CA038B
:10579000882309F442C01092C9031092C8030091F3
:1057A000CD031091CE03C091C803D091C90380915D
:1057B000CF036E01E3E0CC0CDD1CEA95E1F781112B
:1057C0005CC0F50173E0EE0FFF1F7A95E1F7E00F83
:1057D000F11FD801AC0DBD1D2D913D914D915C91F6
:1057E00060817181828193810E941B32811145C049
:1057F00081E08093CF034FE050E060E070E0CB01A8
:105800000E94A219B092C903A092C8038FE090E051
:105810009093C5038093C4036ACF0E94120B312C6E
:105820008091D10381110EC18091D00381110AC1F1
:105830000E94B60AFF91EF91DF91CF91BF91AF9196
:105840009F918F917F916F915F914F913F912F9198
:105850001F910F91FF90EF90DF90CF90BF90AF908E
:105860009F908F907F906F905F904F903F902F9080
:105870000F900FBE0F901F9018951092CF03F80154
:10588000EC0DFD1D64817581868197810E949232A5
:105890009B01A0E6BAEE0E949F3120E03EE140E08D
:1058A00050E00E947D3181E0881A9108412C6EE120
:1058B000562E612C712C2E153F05F0F0D093C903A4
:1058C000C093C803E216F306A8F5F901EE19FF0923
:1058D0007F0133E0CC0FDD1F3A95E1F7C00FD11FF8
:1058E000688179818A819B81A7010E94A219F09227
:1058F000C503E092C403FBCEC815D905F8F6E21A39
:10590000F30A2196FE0153E0EE0FFF1F5A95E1F7CF
:10591000E00FF11F64817581868197810E94923228
:105920009B01A0E6BAEE0E949F31A30192010E9462
:105930007D31C1CFEE24E394F12CCBCFF801C681A9
:10594000D781CE0101978E3F9F4F08F075C0F801B7
:10595000808191810E94C2078C179D0708F46CC05A
:10596000F801C280D380E480F58020E030E0A90116
:10597000C701B6010E941B3287FF04C0F7FAF094FA
:10598000F7F8F0948091D103882309F455C08091F1
:10599000D203811102C00E94201596EDA92E93E03A
:1059A000B92EC7E0D0E0A7019601F50162AD73AD55
:1059B00084AD95AD0E941B32811136C083E0CC0FBF
:1059C000DD1F8A95E1F7CA52DC4F198218824A829C
:1059D0005B826C827D821F821E828EE094E08C1737
:1059E0009D0781F42092A702809116048150809334
:1059F0001604811121C00E94B60A20923C01109227
:105A0000D1031AC088E0FE013896DE0101900D92A4
:105A10008A95E1F7198618864A865B866C867D86AC
:105A20001F861E862896D9CF219798E0A91AB1081B
:105A3000CF3FDC0709F0B7CFFFEF8F1A9F0A085F4F
:105A40001F4F69CE332009F4F5CE0E94F3050E9462
:105A5000C10AF0CE62E070E082E192E00C94EA2E9E
:105A600062E070E082E192E00C94F32E0E94052B3C
:105A7000882361F08CE296E00E94EF2A81E090E0BA
:105A80000E94CC2F892B11F40C94022B0895809145
:105A90002B06883039F460E08CE296E00E94BB2A45
:105AA00010922B060895CF93DF93D62FC72F0E9415
:105AB000362D90E080E00E94CC2F0097E9F4ED2F86
:105AC000FC2FDC01A95DB94F2C9121930196843004
:105AD0009105B9F70E9474166E5F7F4F8F4F9F4FED
